:100000000C94BF000C94430F0C94DC000C94DC00A7
:100010000C94DC000C94DC000C943A130C94DC007F
:100020000C94DC000C94A10E0C94DC000C94DC000D
:100030000C94DC000C948C0F0C94DC000C94DC0011
:100040000C947C0F0C94DC000C94DC000C94DC0011
:100050000C94DC000C94DC000C94DC000C94DC00B0
:100060000C94140F0C94DC000C94772D0C94DC0091
:100070000C94DC000C94DC000C94DC006E616E00CF
:10008000696E660000407A10F35A00A0724E18099B
:100090000010A5D4E80000E87648170000E40B54EF
:1000A000020000CA9A3B000000E1F50500008096BE
:1000B0009800000040420F000000A08601000000F0
:1000C000102700000000E8030000000064000000AA
:1000D00000000A00000000000100000000002C7673
:1000E000D888DC674F0823DFC1DFAE59E1B1B7968E
:1000F000E5E3E453C63AE651997696E8E6C28426EB
:10010000EB898C9B62ED407C6FFCEFBC9C9F40F2C6
:10011000BAA56FA5F490055A2AF75C936B6CF96742
:100120006DC11BFCE0E40D47FEF520E6B500D0ED07
:10013000902E0300943577050080841E080000206F
:100140004E0A000000C80C333333330F986E12830D
:100150001141EF8D2114893BE65516CFFEE6DB18E1
:10016000D1844B381BF77C1D901DA4BBE4242032A6
:1001700084725E228100C9F124ECA1E53D2711249F
:100180001FBEC0E0D0E1DEBFCDBF16E0A0E0B1E011
:10019000EEE1F1E702C005900D92AA3CB107D9F754
:1001A00017E0AAECB6E001C01D92AD37B107E1F748
:1001B0000E9434010C948D380C940000DF93CF938F
:1001C00000D0CDB7DEB79A83898385EC90E0298192
:1001D0003A81232F3327FC01208384EC90E029818E
:1001E000FC01208380EC90E020EC30E0F9012081DC
:1001F0002C7FFC01208381EC90E028E1FC0120832E
:1002000082EC90E026E0FC0120830F900F90CF91CC
:10021000DF910895DF93CF9300D00F92CDB7DEB773
:1002200089837B836A83000080EC90E0FC018081FD
:10023000882F90E0807290700097B1F389818A30A6
:1002400031F420E031E08DE0B9010E940A0186EC32
:1002500090E02981FC01208380E090E00F900F90D6
:100260000F90CF91DF910895DF93CF93CDB7DEB795
:1002700029970FB6F894DEBF0FBECDBF8BE090E09C
:100280000E94DE0080E091E090937A0780937907E6
:100290008EE091E00E94D7370E94C92B0E94BE02D7
:1002A0000E94E9120E94D60F0E944C2E0E943E1915
:1002B0000E94241F0E94A50D01C000008091FB0632
:1002C000882361F08CE090E09B838A8381E097E053
:1002D0009E012E5F3F4FB9010E94C60D8091FC0622
:1002E000813071F41092FC068BE090E09B838A834E
:1002F00081E097E09E012E5F3F4FB9010E94C60D3D
:1003000080910007813011F41092000780911F073F
:10031000882371F010921F078AE090E09B838A8304
:1003200081E097E09E012E5F3F4FB9010E94C60D0C
:100330008091D106882371F01092D10686E090E07A
:100340009B838A8381E097E09E012E5F3F4FB90136
:100350000E94C60D8091F706882371F01092F7066F
:1003600085E090E09B838A8381E097E09E012E5F89
:100370003F4FB9010E94C60D0E94A813898389814D
:10038000882309F45EC08981482F552747FD509581
:100390008981282F332727FD309500D000D000D049
:1003A0008DB79EB7019667E171E0FC0171836083B0
:1003B000FC0153834283FC01358324830E94C237AE
:1003C0008DB79EB706960FB6F8949EBF0FBE8DBF31
:1003D0008981833021F481E090E09B838A83898145
:1003E000843021F482E090E09B838A83898181308C
:1003F00021F487E090E09B838A838981823021F415
:1004000088E090E09B838A838981853021F483E0B2
:1004100090E09B838A838981863021F484E090E098
:100420009B838A838981803324F01B821A8289818D
:100430008C8381E097E09E012E5F3F4FB9010E94BF
:10044000C60D8091FE06882309F437CF1092FE0670
:1004500089E090E09B838A8381E097E09E012E5F94
:100460003F4FB9010E94C60D29CFDF93CF9300D033
:100470000F92CDB7DEB78A836B8384E290E0FC01F4
:10048000108285E290E0FC0110828BE290E02BE28A
:1004900030E0F90120812F71FC0120838BE290E094
:1004A0002BE230E0F90120812F77FC0120838BE2E1
:1004B00090E02BE230E0F90120812064FC012083F0
:1004C00081E089831AC08BE290E02BE230E0F901F1
:1004D00020812062FC0120830E94782983E290E041
:1004E000FC018081807889838BE290E02BE230E010
:1004F000F90120812F7DFC0120838981882319F750
:1005000084E290E02FEFFC01208385E290E02A81D5
:10051000FC0120838B81882349F08BE290E02BE261
:1005200030E0F90120812068FC0120838BE290E01B
:100530002BE230E0F90120812F7BFC0120830E9417
:1005400078298BE290E02BE230E0F90120812062F3
:10055000FC0120830E9478298BE290E02BE230E0BE
:10056000F90120812F7DFC01208389818F5F8983A0
:100570000F900F900F90CF91DF910895DF93CF935D
:10058000CDB7DEB78AE290E02AE230E0F9012081BF
:10059000206EFC0120838BE290E02BE230E0F90139
:1005A00020812F71FC01208384E290E0FC01108205
:1005B00085E290E0FC01108281E060E00E9435025B
:1005C00088E360E00E9435028CE060E00E94350222
:1005D00086E060E00E943502CF91DF910895DF93BD
:1005E000CF93CDB7DEB781E060E00E943502CF91B6
:1005F000DF910895DF93CF93CDB7DEB780EC60E055
:100600000E943502CF91DF910895DF93CF9300D000
:100610000F92CDB7DEB79B838A8309C0898161E0E1
:100620000E9435028A819B8101969B838A838A81FD
:100630009B81FC01808189838981882379F70F90D0
:100640000F900F90CF91DF910895DF93CF9300D05B
:100650000F92CDB7DEB78A836B8380E889838A8166
:10066000813011F480EC89838A81823011F484E92D
:1006700089838A81833011F484ED898399818B8108
:10068000890F8983898160E00E9435020F900F9065
:100690000F90CF91DF910895DF93CF9300D0CDB726
:1006A000DEB789836A8389816A810E9425038FE08E
:1006B00060E00E9435020F900F90CF91DF91089576
:1006C000DF93CF93CDB7DEB78CE060E00E943502B8
:1006D000CF91DF910895DF93CF930F92CDB7DEB71F
:1006E0008983898161E00E9435020F90CF91DF916B
:1006F0000895DF93CF93CDB7DEB780918405CF9176
:10070000DF910895DF93CF9300D00F92CDB7DEB77E
:100710008091840589838091270790912807FC01A7
:10072000808191818C309105C9F483E18A83809125
:10073000D4069091D5069E012D5F3F4F63E1A9013C
:100740000E9483238091D4069091D5062B816A81E3
:10075000422F0E940E2780918505898389810F9001
:100760000F900F90CF91DF910895DF93CF93CDB786
:10077000DEB781E291E00E94D7370E948D1C86E0AF
:1007800090E00E945D11CF91DF910895DF93CF93A8
:10079000CDB7DEB789E391E00E94D7370E947F1181
:1007A0000E94841CCF91DF910895DF93CF9300D0F6
:1007B00000D00F92CDB7DEB78091840589838091F8
:1007C000270790912807FC01808191818530910550
:1007D000C9F489E08A838091D4069091D5069E0160
:1007E0002C5F3F4F69E0A9010E9483238091D406CA
:1007F0009091D5062C816A81422F0E940E2780910C
:10080000850589838091270790912807FC018081C5
:1008100091818330910551F08091270790912807AD
:10082000FC018081918187309105C9F483E08B833D
:100830008091D4069091D5069E012B5F3F4F63E0D7
:10084000A9010E9483238091D4069091D5062D8121
:100850006B81422F0E940E278091850589838091AC
:10086000270790912807FC018081918186309105AE
:1008700029F40E94F01C80918505898389810F905D
:100880000F900F900F900F90CF91DF910895DF930D
:10089000CF93CDB7DEB78FEF9FE70E945D11CF9169
:1008A000DF910895DF93CF93CDB7DEB70E947F111C
:1008B000CF91DF910895DF93CF9300D00F92CDB702
:1008C000DEB780918405898380912707909128075E
:1008D000FC018081918188309105C9F489E08A8387
:1008E0008091D4069091D5069E012D5F3F4F69E01F
:1008F000A9010E9483238091D4069091D5062B8173
:100900006A81422F0E940E27809185058983898103
:100910000F900F900F90CF91DF910895DF93CF93B9
:10092000CDB7DEB70E94031CCF91DF910895DF930E
:10093000CF93CDB7DEB7CF91DF910895DF93CF93FB
:1009400000D000D00F92CDB7DEB7809184058983A7
:100950008091270790912807FC0180819181843044
:100960009105E1F485E08A838091D4069091D506C3
:100970009E012C5F3F4F65E0A9010E94832381E027
:100980000E94642B8091D4069091D5062C816A81B7
:10099000422F0E940E278091850589838091270729
:1009A00090912807FC018081918183309105E1F4C9
:1009B00085E08B838091D4069091D5069E012B5FB4
:1009C0003F4F65E0A9010E94832380E00E94642BD1
:1009D0008091D4069091D5062D816B81422F0E9483
:1009E0000E2780918505898380912707909128079C
:1009F000FC01808191818630910519F480918505F3
:100A0000898389810F900F900F900F900F90CF9155
:100A1000DF910895DF93CF93CDB7DEB70E94EE1B31
:100A20001092FE0682E00E94AA14882361F483EEED
:100A300096E028E431E0B9014EE050E00E947B37B7
:100A400081E08093FB06CF91DF910895DF93CF93F0
:100A5000CDB7DEB7CF91DF910895DF93CF9300D06C
:100A60000F92CDB7DEB78B8380912707909128072F
:100A7000FC018081918184309105C9F486E08983ED
:100A80008091D4069091D5069E012E5F3F4F66E07F
:100A9000A9010E9483238091D4069091D5062A81D2
:100AA0006981422F0E940E27809185058B838B815F
:100AB0000F900F900F90CF91DF910895DF93CF9318
:100AC00000D00F92CDB7DEB78091840589838091E5
:100AD000270790912807FC01808191818930910539
:100AE000C9F486E08A838091D4069091D5069E0150
:100AF0002D5F3F4F66E0A9010E9483238091D406B9
:100B00009091D5062B816A81422F0E940E278091F9
:100B1000850589838091270790912807FC018081B2
:100B200091818630910539F40E94CB140E94591BA3
:100B300080918505898389810E942D05898389811A
:100B40000F900F900F90CF91DF910895DF93CF9387
:100B5000CDB7DEB70E949C100E94E310CF91DF91C9
:100B60000895DF93CF93CDB7DEB70E94F5100E94B2
:100B7000CF10CF91DF910895DF93CF9300D00F92E4
:100B8000CDB7DEB7809184058B8380912707909144
:100B90002807FC0180819181009709F065C0809150
:100BA000F9069091FA069A8389838091270790919C
:100BB0002807FC018281992787FD90958333910551
:100BC00001F1843391053CF48133910571F0823356
:100BD000910589F030C08833910501F18933910581
:100BE00019F187339105A1F026C089819A81019678
:100BF0009A83898320C089819A810A969A838983FE
:100C00001AC089819A818C599F4F9A83898313C016
:100C100089819A8101979A8389830DC089819A81FC
:100C20000A979A83898307C089819A818456904064
:100C30009A838983000089819A81992314F41A8206
:100C4000198289819A81F3E08B329F0724F08AE22E
:100C500093E09A83898389819A810E94760E0E940B
:100C6000FF1A809185058B83809127079091280733
:100C7000FC01808191818630910529F40E94FF1A40
:100C8000809185058B838B810F900F900F90CF9172
:100C9000DF910895DF93CF93CDB7DEB70E946E1C2E
:100CA00080E090E00E94760ECF91DF910895DF936F
:100CB000CF93CDB7DEB70E94841CCF91DF9108950A
:100CC000DF93CF9300D000D00F92CDB7DEB78091E5
:100CD000840589838091270790912807FC018081F2
:100CE000918183309105C9F488E08A838091D4068C
:100CF0009091D5069E012C5F3F4F68E0A9010E94AC
:100D000083238091D4069091D5062C816A81422F4D
:100D10000E940E27809185058983809127079091F5
:100D20002807FC018081918184309105E9F488E0F5
:100D30008B838091D4069091D5069E012B5F3F4F07
:100D400068E0A9010E9483230E94342B0E94062B95
:100D50008091D4069091D5062D816B81422F0E94FF
:100D60000E2780918505898389810F900F900F90C0
:100D70000F900F90CF91DF910895DF93CF93CDB770
:100D8000DEB70E94791CCF91DF910895DF93CF9356
:100D9000CDB7DEB70E94841CCF91DF910895DF9319
:100DA000CF9300D000D00F92CDB7DEB780918405ED
:100DB00089838091270790912807FC018081918188
:100DC00083309105C9F489E08A838091D40690919B
:100DD000D5069E012C5F3F4F69E0A9010E94832345
:100DE0008091D4069091D5062C816A81422F0E9471
:100DF0000E27809185058983809127079091280788
:100E0000FC018081918184309105F9F489E08B8324
:100E10008091D4069091D5069E012B5F3F4F69E0EB
:100E2000A9010E9483230E944C2B0E941D2B0E942B
:100E3000B9138091D4069091D5062D816B81422FF4
:100E40000E940E2780918505898389810F900F90DC
:100E50000F900F900F90CF91DF910895DF93CF9374
:100E6000CDB7DEB70E94B4158FEF9FE70E945D11EA
:100E700083E00E94AA14882361F483EE96E028E4BC
:100E800031E0B9014EE050E00E947B3781E0809371
:100E9000FB06CF91DF910895DF93CF93CDB7DEB7F7
:100EA0000E947F118091FB06882389F481E00E94D3
:100EB000AA14882361F483EE96E028E431E0B901B6
:100EC0004EE050E00E947B3781E08093FB060E9459
:100ED000841CCF91DF910895DF93CF9300D000D091
:100EE0000F92CDB7DEB78091840589838091270763
:100EF00090912807FC018081918187309105C9F488
:100F000081E18A838091D4069091D5069E012C5F61
:100F10003F4F61E1A9010E9483238091D406909103
:100F2000D5062C816A81422F0E940E27809185056B
:100F300089838091270790912807FC018081918106
:100F400081309105C9F48DE08B838091D406909116
:100F5000D5069E012B5F3F4F6DE0A9010E948323C0
:100F60008091D4069091D5062D816B81422F0E94ED
:100F70000E27809185058983809127079091280706
:100F8000FC01808191818530910539F48FEF9FE7D5
:100F90000E945D118091850589838091270790913A
:100FA0002807FC01808191818630910529F40E94F7
:100FB000BE1580918505898389810F900F900F90D0
:100FC0000F900F90CF91DF910895DF93CF93CDB71E
:100FD000DEB70E94DF1D8FEF0E94201E8FEF0E9460
:100FE0004A1ECF91DF910895DF93CF93CDB7DEB73F
:100FF000CF91DF910895DF93CF9300D000D00F926F
:10100000CDB7DEB7809184058983809127079091C1
:101010002807FC018081918183309105C9F48BE020
:101020008A838091D4069091D5069E012C5F3F4F14
:101030006BE0A9010E9483238091D4069091D5068C
:101040002C816A81422F0E940E2780918505898319
:101050008091270790912807FC018081918184303D
:101060009105C9F48CE08B838091D4069091D506CC
:101070009E012B5F3F4F6CE0A9010E94832380916A
:10108000D4069091D5062D816B81422F0E940E27A8
:101090008091850589838091270790912807FC011D
:1010A000808191818B30910521F40E948A150E94E4
:1010B000B11B89810F900F900F900F900F90CF91DF
:1010C000DF910895DF93CF93CDB7DEB70E94021E64
:1010D00010922607809126070E94201ECF91DF9153
:1010E0000895DF93CF93CDB7DEB78FEF0E94201E18
:1010F000CF91DF910895DF93CF93CDB7DEB72797D8
:101100000FB6F894DEBF0FBECDBF809184058983F2
:101110008091270790912807FC018081918184307C
:101120009105C9F48CE08A838091D4069091D5060C
:101130009E012B5F3F4F6CE0A9010E9483238091A9
:10114000D4069091D5062D816A81422F0E940E27E8
:101150008091850589838091270790912807FC015C
:101160008081918183309105C9F48AE08B838091DD
:10117000D4069091D5069E012A5F3F4F6AE0A901EF
:101180000E9483238091D4069091D5062E816B8195
:10119000422F0E940E278091850589838091270721
:1011A00090912807FC0180819181009709F05BC034
:1011B0008091270790912807FC0182818A330CF0E7
:1011C00052C08091270790912807FC0182818033CB
:1011D0000CF449C080912607992787FD90958130AE
:1011E000910571F082309105A1F0009781F5809111
:1011F000270790912807FC0182810E94E12927C0DE
:101200008091270790912807FC0182810E940E2A75
:101210001EC08091270790912807FC0182810E94BF
:101220003B2A8AE08C838091D4069091D5069E015A
:10123000295F3F4F6AE0A9010E9483238091D40671
:101240009091D5062F816C81422F0E940E278091AC
:1012500026078F5F80932607809126070E94201E15
:10126000809185058983898127960FB6F894DEBF22
:101270000FBECDBFCF91DF910895DF93CF93CDB750
:10128000DEB70E94111E10922607809126070E9449
:101290004A1ECF91DF910895DF93CF93CDB7DEB78C
:1012A0008FEF0E944A1ECF91DF910895DF93CF9375
:1012B000CDB7DEB727970FB6F894DEBF0FBECDBF10
:1012C0008091840589838091270790912807FC01EC
:1012D0008081918183309105C9F48BE08A8380916C
:1012E000D4069091D5069E012B5F3F4F6BE0A9017C
:1012F0000E9483238091D4069091D5062D816A8126
:10130000422F0E940E2780918505898380912707AF
:1013100090912807FC018081918184309105C9F466
:101320008AE08B838091D4069091D5069E012A5F36
:101330003F4F6AE0A9010E9483238091D4069091D7
:10134000D5062E816B81422F0E940E278091850544
:1013500089838091270790912807FC0180819181E2
:10136000009709F07FC08091270790912807FC0122
:1013700082818A330CF076C08091270790912807EC
:10138000FC01828180330CF46DC08091260799277F
:1013900087FD909581309105B1F0823091051CF464
:1013A000009741F053C083309105D9F08430910506
:1013B00079F14CC08091270790912807FC01828128
:1013C0000E94B22A43C08091270790912807FC0110
:1013D00082810E94C72A809126078F5F809326070B
:1013E00035C08091270790912807FC0182818633C0
:1013F0004CF48091270790912807FC0182810E947C
:10140000DC2A24C0809126078150809326071EC0C5
:101410008091270790912807FC0182810E94F12A80
:101420008AE08C838091D4069091D5069E01295F35
:101430003F4F6AE0A9010E9483238091D4069091D6
:10144000D5062F816C81422F0E940E27809126079E
:101450008F5F80932607809126070E944A1E809105
:1014600085058983898127960FB6F894DEBF0FBE64
:10147000CDBFCF91DF910895DF93CF9300D00F922E
:10148000CDB7DEB78091840589838091270790913D
:101490002807FC018081918182309105C9F489E09F
:1014A0008A838091D4069091D5069E012D5F3F4F8F
:1014B00069E0A9010E9483238091D4069091D5060A
:1014C0002B816A81422F0E940E2780918505898396
:1014D00089810F900F900F90CF91DF910895DF9346
:1014E000CF93CDB7DEB70E947B1ECF91DF910895D9
:1014F000DF93CF93CDB7DEB7CF91DF910895DF9320
:10150000CF9300D000D00F92CDB7DEB78091840585
:1015100089838091270790912807FC018081918120
:1015200083309105C9F480E18A838091D40690913B
:10153000D5069E012C5F3F4F60E1A9010E948323E5
:101540008091D4069091D5062C816A81422F0E9409
:101550000E27809185058983809127079091280720
:10156000FC018081918184309105C9F48FE08B83E7
:101570008091D4069091D5069E012B5F3F4F6FE07E
:10158000A9010E9483238091D4069091D5062D81D4
:101590006B81422F0E940E27809185058983898166
:1015A0000F900F900F900F900F90CF91DF910895B3
:1015B000DF93CF93CDB7DEB78FEF0E94A61E8FEFDC
:1015C0000E94CC1E0E94F71ECF91DF910895DF93F9
:1015D000CF93CDB7DEB7CF91DF910895DF93CF934F
:1015E00000D000D00F92CDB7DEB7809184058983FB
:1015F0008091270790912807FC0180819181833099
:101600009105C9F480E18A838091D4069091D50632
:101610009E012C5F3F4F60E1A9010E9483238091CE
:10162000D4069091D5062C816A81422F0E940E2704
:101630008091850589838091270790912807FC0177
:101640008081918184309105C9F48EE08B838091F3
:10165000D4069091D5069E012B5F3F4F6EE0A90105
:101660000E9483238091D4069091D5062D816B81B1
:10167000422F0E940E27809185058983809127073C
:1016800090912807FC0180819181009721F580913C
:10169000270790912807FC018281813351F481E072
:1016A0000E948C2B809126070E94CC1E809185057C
:1016B00089838091270790912807FC0182818033DC
:1016C00051F480E00E948C2B809126070E94CC1E52
:1016D00080918505898389810F900F900F900F90DD
:1016E0000F90CF91DF910895DF93CF93CDB7DEB701
:1016F000109226070E94061F809126070E94CC1E8A
:10170000CF91DF910895DF93CF93CDB7DEB7CF911F
:10171000DF910895DF93CF93CDB7DEB727970FB64C
:10172000F894DEBF0FBECDBF809184058983809180
:10173000270790912807FC018081918183309105D2
:10174000C9F48EE08A838091D4069091D5069E01DB
:101750002B5F3F4F6EE0A9010E9483238091D40646
:101760009091D5062D816A81422F0E940E2780918B
:10177000850589838091270790912807FC01808146
:10178000918184309105C9F48FE08B838091D406D8
:101790009091D5069E012A5F3F4F6FE0A9010E94FC
:1017A00083238091D4069091D5062E816B81422FA0
:1017B0000E940E278091850589838091270790914B
:1017C0002807FC0180819181009709F050C0809129
:1017D000270790912807FC0182818A330CF047C0CB
:1017E0008091270790912807FC01828180330CF4B7
:1017F0003EC080912607992787FD9095009721F09C
:101800008130910551F027C08091270790912807DA
:10181000FC0182810E94B42B1EC080912707909109
:101820002807FC0182810E949F2B8EE08C8380918F
:10183000D4069091D5069E01295F3F4F6EE0A90125
:101840000E9483238091D4069091D5062F816C81CC
:10185000422F0E940E27809126078F5F80932607D4
:10186000809126070E94A61E809185058983898123
:1018700027960FB6F894DEBF0FBECDBFCF91DF9194
:101880000895DF93CF93CDB7DEB7109226070E945D
:10189000151F809126070E94A61ECF91DF91089503
:1018A000DF93CF93CDB7DEB78FEF0E94A61ECF9107
:1018B000DF910895DF93CF93CDB7DEB786E591E052
:1018C0000E94D7370E94C21D8091D2069091D30604
:1018D0000E945D1180912407909125070E94760E49
:1018E0000E949C100E94E310CF91DF910895DF9336
:1018F000CF93CDB7DEB784E691E00E94D7370E9440
:101900007F110E94F5100E94CF100E94841CCF917D
:10191000DF910895DF93CF9300D000D00F92CDB721
:10192000DEB78091840589838091270790912807ED
:10193000FC018081918188309105C9F489E08A8316
:101940008091D4069091D5069E012C5F3F4F69E0AF
:10195000A9010E9483238091D4069091D5062C8101
:101960006A81422F0E940E2780918505898380918C
:10197000270790912807FC0180819181853091058E
:10198000C9F482E18B838091D4069091D5069E01A3
:101990002B5F3F4F62E1A9010E9483238091D4060F
:1019A0009091D5062D816B81422F0E940E27809148
:1019B000850589838091270790912807FC01808104
:1019C00091818630910549F40E94A01C0E94F01C70
:1019D0000E94AC1A80918505898380912707909198
:1019E0002807FC01808191818A30910529F40E94A9
:1019F000C51880918505898389810F900F900F907C
:101A00000F900F90CF91DF910895DF93CF93CDB7D3
:101A1000DEB70E94421F8FEF9FE70E945D11CF91BA
:101A2000DF910895DF93CF93CDB7DEB70E948F117A
:101A30000E947F11CF91DF910895DF93CF9300D063
:101A400000D00F92CDB7DEB7809184058983809155
:101A5000270790912807FC018081918183309105AF
:101A600051F08091270790912807FC018081918196
:101A700085309105C9F489E08A838091D4069091DC
:101A8000D5069E012B5F3F4F69E0A9010E94832389
:101A90008091D4069091D5062D816A81422F0E94B3
:101AA0000E278091850589838091270790912807CB
:101AB000FC01808191818630910509F50E94591DB4
:101AC0008091DD068823C1F00E94F50D9C838B83F5
:101AD0008091DA06482F50E08CE390E0489F900117
:101AE000499F300D589F300D11248B819C81281700
:101AF000390714F40E94AF1180918505898389818B
:101B00000F900F900F900F900F90CF91DF9108954D
:101B1000DF93CF93CDB7DEB70E94161CCF91DF9134
:101B20000895DF93CF93CDB7DEB7CF91DF910895BE
:101B3000DF93CF930F92CDB7DEB780918405898371
:101B400089810F90CF91DF910895DF93CF93CDB727
:101B5000DEB781E097E09093D5068093D40681E0CC
:101B600097E021E731E0B90144E120E00E94402202
:101B7000CF91DF910895DF93CF93CDB7DEB781E0AA
:101B800097E00E948F22CF91DF910895DF93CF934A
:101B900000D000D0CDB7DEB79A8389837C836B8376
:101BA0008B819C81909328078093270789819A8154
:101BB0000E94FF220F900F900F900F90CF91DF9116
:101BC0000895DF93CF9300D0CDB7DEB7F89480911E
:101BD0002B0790912C079A838983789489819A8125
:101BE0000F900F90CF91DF910895DF93CF9300D0A6
:101BF000CDB7DEB7F89480913107909132079A8380
:101C00008983789489819A810F900F90CF91DF9189
:101C10000895DF93CF93CDB7DEB780912A0788234D
:101C200009F05AC087E390E0FC0110828091F90628
:101C30009091FA06181619060CF04EC08091F9061C
:101C40009091FA062AE233E0A901481B590BCA0118
:101C500090932E0780932D0780912D0790912E074A
:101C60008F30910534F48FE090E090932E078093AD
:101C70002D0780912D0790912E078C3F91058CF4B4
:101C800082EB90E020912D0730912E073CEF532FEF
:101C9000521B252FFC01208310922E0710922D0736
:101CA0000EC080912D0790912E078C5F90409093ED
:101CB0002E0780932D0782EB90E0FC01108280E7D5
:101CC00090E022E0FC01208381EB90E025E0FC0124
:101CD000208381E080932A07CF91DF910895DF93DD
:101CE000CF93CDB7DEB7CF91DF910895DF93CF9338
:101CF00000D0CDB7DEB79A838983F89489819A8121
:101D000023E08A3292078CF489819A811816190689
:101D10003CF489819A819093FA068093F9060BC06E
:101D20001092FA061092F90606C08AE293E09093A8
:101D3000FA068093F90678940F900F90CF91DF9177
:101D400008951F920F920FB60F9211242F933F9375
:101D50004F935F936F937F938F939F93AF93BF93B3
:101D6000EF93FF93DF93CF93CDB7DEB7F8948091D5
:101D70002D0790912E07009709F581EB90E0FC016B
:101D8000108280E790E0FC0110828BE290E02BE271
:101D900030E0F90120812061FC0120838AE090E09D
:101DA0000E947F298BE290E02BE230E0F901208154
:101DB0002F7EFC01208310922A0722C080912D07DC
:101DC00090912E078C3F91058CF482EB90E020914E
:101DD0002D0730912E073CEFF32FF21B2F2FFC0124
:101DE000208310922E0710922D070AC080912D0794
:101DF00090912E078C5F904090932E0780932D0733
:101E00007894CF91DF91FF91EF91BF91AF919F9126
:101E10008F917F916F915F914F913F912F910F9093
:101E20000FBE0F901F9018951F920F920FB60F9232
:101E300011248F939F93EF93FF93DF93CF93CDB7AD
:101E4000DEB788E790E0FC018081918190933007B4
:101E500080932F07809129078F5F809329078091B6
:101E600029078E3129F41092290781E080931F07FA
:101E7000CF91DF91FF91EF919F918F910F900FBEC6
:101E80000F901F9018951F920F920FB60F9211246A
:101E90002F933F934F935F936F937F938F939F9372
:101EA000AF93BF93EF93FF93DF93CF93CDB7DEB79D
:101EB000F89489E290E0FC018081882F90E08470A2
:101EC0009070009719F00E946F0E02C00E94090ED8
:101ED0007894CF91DF91FF91EF91BF91AF919F9156
:101EE0008F917F916F915F914F913F912F910F90C3
:101EF0000FBE0F901F9018951F920F920FB60F9262
:101F00001124DF93CF93CDB7DEB7CF91DF910F9040
:101F10000FBE0F901F9018951F920F920FB60F9241
:101F200011242F933F934F935F936F937F938F93DE
:101F30009F93AF93BF93EF93FF93DF93CF93CDB76F
:101F4000DEB780912B0790912C07019790932C0777
:101F500080932B07809131079091320701969093DF
:101F600032078093310780912B0790912C07181628
:101F7000190634F00E947F1181E08093F70603C0B8
:101F800081E08093D106CF91DF91FF91EF91BF91D6
:101F9000AF919F918F917F916F915F914F913F9101
:101FA0002F910F900FBE0F901F901895DF93CF9336
:101FB000CDB7DEB781E290E020EFFC01208382E222
:101FC00090E020EEFC0120838EE790E02FE0FC0102
:101FD00020838AE290E02AE230E0F90120812B7F21
:101FE000FC0120838BE290E02BE230E0F9012081BC
:101FF0002B7FFC0120838BE290E02BE230E0F901A3
:1020000020812F7EFC0120838AE290E02AE230E0EA
:10201000F90120812061FC0120838BE290E02BE21A
:1020200030E0F90120812F7EFC0120838BE290E0DB
:102030002BE230E0F9012081277FFC0120838AE236
:1020400090E02AE230E0F90120812860FC01208341
:102050008BE290E02BE230E0F9012081277FFC0148
:10206000208389E690E021E0FC0120838DE390E06D
:10207000FC0110821092D10680E890E0FC011082F1
:1020800081E890E028E0FC01208382E890E0FC01F8
:10209000108288E890E020E33AE2FC01318320835B
:1020A00084E890E0FC01118210828FE690E0FC0150
:1020B000108284E490E022E0FC01208387E490E039
:1020C0002FEFFC01208386E490E0FC01108285E480
:1020D00090E0FC0110828EE690E0FC0110821092EC
:1020E0002A0780EB90E022E0FC01208381EB90E066
:1020F000FC01108286EB90E0FC01108283EB90E003
:102100002CEFFC01208382EB90E0FC01108280E741
:1021100090E0FC0110828AE790E027E0FC01208338
:1021200010921F07109229071092300710922F0764
:102130007894CF91DF910895DF93CF93CDB7DEB739
:102140008AE790E027E0FC01208310921F0710929D
:10215000290780912007813031F48CE790E021E459
:10216000FC01208305C08CE790E022E4FC01208381
:102170008AE790E02FEAFC0120838BE790E023E0E0
:10218000FC01208385E490E025E0FC0120838EE6BD
:1021900090E022E0FC012083CF91DF910895DF934E
:1021A000CF93CDB7DEB78AE790E027E0FC0120832C
:1021B00085E490E0FC0110828EE690E0FC01108244
:1021C000CF91DF910895DF93CF93CDB7DEB70E9413
:1021D0009B198CE390E0FC0110828DE390E021E0FC
:1021E000FC012083CF91DF910895DF93CF93CDB78A
:1021F000DEB78DE390E0FC011082F8940E946F0E30
:102200007894CF91DF910895DF93CF9300D0CDB72D
:10221000DEB7F89480912F07909130079A838983D5
:10222000789489819A810F900F90CF91DF910895D2
:10223000DF93CF9300D000D000D0CDB7DEB780E0E1
:1022400090E0DC0189839A83AB83BC830E940411F4
:102250009E838D838D819E81AA2797FDA095BA2F9D
:10226000BC01CD010E946A30DC01CB01BC01CD0173
:1022700020E030E040EA50E40E941E31DC01CB0156
:10228000BC01CD0120E030EC4FE754E40E94CF2F99
:10229000DC01CB0189839A83AB83BC8389819A81DA
:1022A000AB81BC81BC01CD0126960FB6F894DEBF90
:1022B0000FBECDBFCF91DF910895DF93CF9300D0B4
:1022C000CDB7DEB79A8389831092F70689819A8108
:1022D00090932C0780932B071092320710923107AE
:1022E0008FE690E022E0FC01208381E890E02DE081
:1022F000FC0120830F900F90CF91DF910895DF9321
:10230000CF93CDB7DEB781E890E028E0FC012083D1
:102310008FE690E0FC011082CF91DF910895DF936A
:10232000CF93CDB7DEB78BE290E02BE230E0F9013E
:102330002081277FFC012083CF91DF910895DF93D7
:10234000CF93CDB7DEB78BE290E02BE230E0F9011E
:1023500020812860FC012083CF91DF910895DF93D5
:10236000CF93CDB7DEB78BE290E0FC018081882F60
:1023700090E088709070009719F00E948F1102C051
:102380000E949F11CF91DF910895DF93CF9300D0EA
:10239000CDB7DEB71A82198288E290E028E230E0F9
:1023A000F9012081237FFC01208382E290E022E278
:1023B00030E0F90120812F73FC01208382E290E05C
:1023C00022E230E0F90120812068FC01208388E0CE
:1023D00090E00E947F2986E290E0FC018081807F6E
:1023E0008A838A81882329F18A81882314F482E3ED
:1023F00089838A81992787FD9095807490700097D2
:1024000011F080E389838A81992787FD90958072F6
:102410009070009711F088E389838A81992787FD5E
:10242000909580719070009709F4CDC085E3898301
:10243000CAC082E290E022E230E0F90120812F77E9
:10244000FC01208388E290E028E230E0F90120815D
:102450002460FC01208388E090E00E947F2986E2CE
:1024600090E0FC018081807F8A838A81882329F122
:102470008A81882314F481E389838A81992787FDDF
:10248000909580749070009711F085E089838A811F
:10249000992787FD909580729070009711F087E3DF
:1024A00089838A81992787FD909580719070009724
:1024B00009F489C084E3898386C088E290E028E239
:1024C00030E0F90120812B7FFC01208388E290E03D
:1024D00028E230E0F90120812860FC01208388E0B7
:1024E00090E00E947F2986E290E0FC018081807F5D
:1024F0008A838A81882329F18A81882314F483E3DB
:1025000089838A81992787FD9095807490700097C0
:1025100011F086E089838A81992787FD90958072E2
:102520009070009711F089E389838A81992787FD4C
:10253000909580719070009709F445C086E3898377
:1025400042C088E290E028E230E0F9012081277F54
:10255000FC01208382E290E022E230E0F901208158
:102560002064FC01208388E090E00E947F2986E2BD
:1025700090E0FC018081807F8A838A81882319F121
:102580008A81882314F481E089838A81992787FDD1
:10259000909580749070009711F082E089838A8111
:1025A000992787FD909580729070009711F083E0D5
:1025B00089838A81992787FD909580719070009713
:1025C00011F084E0898389810F900F90CF91DF9182
:1025D0000895DF93CF93CDB7DEB71092330781E034
:1025E0008093340787E290E027E230E0F901208110
:1025F0002C60FC01208387E290E027E230E0F901C3
:1026000020812F70FC01208381E290E021E230E004
:10261000F9012081206CFC01208388E290E028E20F
:1026200030E0F90120812C60FC01208388E290E0F9
:1026300028E230E0F90120812F70FC01208382E242
:1026400090E022E230E0F9012081206CFC0120833F
:102650008DE690E020EFFC01208388E690E028E6FC
:1026600030E0F90120812460FC0120837894CF912F
:10267000DF9108951F920F920FB60F9211242F939E
:102680003F934F935F936F937F938F939F93AF93FA
:10269000BF93EF93FF93DF93CF93CDB7DEB788E679
:1026A00090E0FC0110828DE690E0FC01108286E251
:1026B00090E0FC018081882F90E0807F90700097EF
:1026C00059F080913407882321F00E94C51180932E
:1026D00033071092340703C081E08093340788E207
:1026E00090E028E230E0F90120812C60FC01208399
:1026F00082E290E022E230E0F9012081206CFC01CE
:1027000020830E9478298BE390E0FC0110828DE603
:1027100090E020EFFC01208388E690E028E630E09E
:10272000F90120812460FC012083CF91DF91FF918A
:10273000EF91BF91AF919F918F917F916F915F9139
:102740004F913F912F910F900FBE0F901F901895B2
:10275000DF93CF930F92CDB7DEB7F8948091330714
:10276000898310923307789489810F90CF91DF91FC
:1027700008951F93DF93CF93CDB7DEB728970FB699
:10278000F894DEBF0FBECDBF80E090E0A4E3B2E4DA
:1027900089839A83AB83BC8320911B0730911C07EC
:1027A0008091150790911607A901481B590BCA0182
:1027B000AA2797FDA095BA2FBC01CD010E946A30CF
:1027C000DC01CB018D839E83AF83B8878D819E8191
:1027D000AF81B885BF7711E0BC01CD0120E030E0CA
:1027E00040E85FE30E941A3118160CF010E0112344
:1027F000A9F069817A818B819C812D813E814F81F5
:1028000058850E94CF2FDC01CB0180933507909330
:102810003607A0933707B09338070BC080E090E0ED
:10282000DC018093350790933607A0933707B09368
:10283000380728960FB6F894DEBF0FBECDBFCF91F4
:10284000DF911F910895DF93CF9300D00F92CDB702
:10285000DEB78B8385E497E060E070E044E050E011
:102860000E9484378B818093450725E437E080E11F
:10287000B90141E00E94BA2E992787FD90959A836D
:10288000898389819A810F900F900F90CF91DF916A
:102890000895DF93CF9300D00F92CDB7DEB78B832F
:1028A000198281E692E00E94D73781E597E060E0E7
:1028B00070E048E050E00E94843721E537E080E195
:1028C000B90146E00E940D2F8983809156078A83C3
:1028D00081E02B819A81291709F080E089838B811F
:1028E000682F772767FD70958A81482F552747FD08
:1028F00050958981282F332727FD30958DB79EB7B6
:1029000008970FB6F8949EBF0FBE8DBF8DB79EB7C8
:102910000196E1E8F2E0DC01ED93FC93FC017383A6
:102920006283DC0115965C934E931497FC01378308
:1029300026830E94C2378DB79EB708960FB6F894CB
:102940009EBF0FBE8DBF89810F900F900F90CF91CA
:10295000DF910895DF93CF9300D00F92CDB7DEB70C
:102960008B8319821A820AC08B810E9423148B8167
:102970000E94491489838A818F5F8A838981882391
:1029800019F48A81823084F389810F900F900F901F
:10299000CF91DF910895DF93CF93CDB7DEB72B971B
:1029A0000FB6F894DEBF0FBECDBF81E597E060E0C3
:1029B00070E048E050E00E94843721E537E080E194
:1029C000B90146E00E940D2F898389818F3F09F06C
:1029D0008CC0809156078A83809151078093DE06D0
:1029E00081E597E001969C838B838B819C81FC0120
:1029F000808191819E838D83809154078F838F8105
:102A0000882349F58D819E81AA2797FDA095BA2F2D
:102A1000BC01CD010E946A30DC01CB01BC01CD01BB
:102A20002DEC3CEC4CE85FE30E941E31DC01CB0155
:102A3000BC01CD0120E030E040E256E40E94CF2FFF
:102A4000DC01CB018093DF069093E006A093E106C2
:102A5000B093E20628C08D819E81AA2797FDA0959C
:102A6000BA2FBC01CD010E946A30DC01CB01BC0150
:102A7000CD012DEC3CEC4CE85FE30E941E31DC0103
:102A8000CB01BC01CD0120E030E040E054E40E94E5
:102A9000CF2FDC01CB018093DF069093E006A0935B
:102AA000E106B093E2068091DF069091E006A091E6
:102AB000E106B091E20688879987AA87BB878A8159
:102AC000813019F481E08093FE068A818830C9F450
:102AD00083EE96E02AEC32E0B90144E150E00E9436
:102AE0007B3781E08093FB060CC083EE96E02EEDF1
:102AF00032E0B9014CE050E00E947B3781E08093E6
:102B0000FB062B960FB6F894DEBF0FBECDBFCF915C
:102B1000DF910895DF93CF930F92CDB7DEB7809109
:102B200051078093DE06809156078983898188301A
:102B300089F48AEE92E00E94D73783EE96E02BE08C
:102B400033E0B90144E150E00E947B3781E080939B
:102B5000FB0606C08981833019F083E00E942314AC
:102B60000F90CF91DF910895DF93CF93CDB7DEB76C
:102B700081E080936A07CF91DF910895DF93CF932F
:102B800000D0CDB7DEB780916A07853030F48091F0
:102B90006A078F5F80936A0712C081E597E060E063
:102BA00070E048E050E00E94843721E537E080E1A2
:102BB000B90146E00E94E32E81E080936A070E94FB
:102BC000E10D9A83898389819A818F719070009732
:102BD00011F40E94C3190F900F90CF91DF910895C7
:102BE000AF92BF92CF92DF92EF92FF920F931F931B
:102BF000DF93CF93CDB7DEB760970FB6F894DEBF03
:102C00000FBECDBF69837A838B839C832D833E83E4
:102C10004F835887E986FA860B871C87AD86BE8668
:102C2000CF86D88A8D819E81AF81B88580935D07DC
:102C300090935E07A0935F07B093600789819A81A4
:102C4000AB81BC8180933D0790933E07A0933F07E3
:102C5000B093400789859A85AB85BC8580936207D0
:102C600090936307A0936407B09365078D859E8555
:102C7000AF85B88980934D0790934E07A0934F0777
:102C8000B09350078D8D9E8DAF8DB8A1809339077D
:102C900090933A07A0933B07B0933C0789A19AA170
:102CA000ABA1BCA18093590790935A07A0935B07EF
:102CB000B0935C0760E070E080E89FE329A13AA14F
:102CC0004BA15CA10E94CF2FDC01CB01809349076F
:102CD00090934A07A0934B07B0934C0780E090E095
:102CE000DC0180936B0790936C07A0936D07B09302
:102CF0006E07109261070E94B91380E090E0DC013A
:102D00008093660790936707A0936807B09369075D
:102D100060960FB6F894DEBF0FBECDBFCF91DF91A6
:102D20001F910F91FF90EF90DF90CF90BF90AF90E9
:102D30000895EF92FF920F931F93DF93CF93CDB738
:102D4000DEB760970FB6F894DEBF0FBECDBF6D87BC
:102D50007E878F87988B8D859E85AF85B889BF7755
:102D60002091390730913A0740913B0750913C0739
:102D700011E0BC01CD010E94CB2F88230CF010E0A4
:102D8000112349F080E090E0A0E8BFE389839A83B3
:102D9000AB83BC8312C080E090E0DC0189839A831E
:102DA000AB83BC8380E090E0DC0180936B07909361
:102DB0006C07A0936D07B0936E07809159079091AF
:102DC0005A07A0915B07B0915C07BC01CD01298136
:102DD0003A814B815C810E941E31DC01CB01BC0138
:102DE000CD012D853E854F8558890E941E31DC011D
:102DF000CB0120916B0730916C0740916D0750918A
:102E00006E07BC01CD010E94672FDC01CB018093CE
:102E10006B0790936C07A0936D07B0936E0780913A
:102E20006107882359F481E08093610780E090E096
:102E3000DC0189879A87AB87BC8722C02091410734
:102E40003091420740914307509144076D857E853C
:102E50008F8598890E94662FDC01CB01209149075C
:102E600030914A0740914B0750914C07BC01CD016E
:102E70000E941E31DC01CB0189879A87AB87BC8712
:102E80008D859E85AF85B8898093410790934207D1
:102E9000A0934307B093440780915D0790915E072C
:102EA000A0915F07B0916007BC01CD012D853E85E3
:102EB0004F8558890E941E31DC01CB017C018D01B8
:102EC0008091620790916307A0916407B0916507B4
:102ED00020916B0730916C0740916D0750916E0700
:102EE000BC01CD010E941E31DC01CB019C01AD0172
:102EF000C801B7010E94672FDC01CB017C018D0165
:102F000080914D0790914E07A0914F07B0915007C7
:102F1000BC01CD0129853A854B855C850E941E3117
:102F2000DC01CB019C01AD01C801B7010E94672FF4
:102F3000DC01CB0120913D0730913E0740913F07D6
:102F400050914007BC01CD010E941E31DC01CB0134
:102F50008D839E83AF83B88711E06D817E818F81E1
:102F6000988520E030E040EF51E40E941A311816B5
:102F70000CF010E0112349F080E090E0A0EFB1E404
:102F80008D839E83AF83B88718C011E06D817E81E9
:102F90008F81988520E030E040EF51EC0E94CB2FEC
:102FA00088230CF010E0112341F080E090E0A0EFC6
:102FB000B1EC8D839E83AF83B8878D819E81AF8175
:102FC000B885BC01CD0160960FB6F894DEBF0FBE88
:102FD000CDBFCF91DF911F910F91FF90EF9008959A
:102FE000DF93CF93CDB7DEB72E970FB6F894DEBF41
:102FF0000FBECDBF0E9404119A838983809115076B
:103000009091160729813A81A901481B590BCA01E1
:10301000AA2797FDA095BA2FBC01CD010E946A3066
:10302000DC01CB01209135073091360740913707FD
:1030300050913807BC01CD010E941E31DC01CB014B
:10304000BC01CD0120E030E040E751E40E94672F51
:10305000DC01CB018B839C83AD83BE8380913507DC
:1030600090913607A0913707B09138078F839887E2
:10307000A987BA878B819C81AD81BE818B879C8714
:10308000AD87BE87E0911507F091160760911B0789
:1030900070911C078DB79EB740970FB6F8949EBFEE
:1030A0000FBE8DBF8DB79EB701962FE133E0DC01D7
:1030B0002D933C9329813A81DC0113963C932E9306
:1030C00012972F81388549855A85DC0114962D93F6
:1030D0003D934D935C931797DC011996FC93EE9307
:1030E0001897FC01738762872B853C854D855E852B
:1030F000DC011C962D933D934D935C931F970E948A
:10310000C237EDB7FEB770960FB6F894FEBF0FBE8C
:10311000EDBF00D000D000D08DB79EB701962FE450
:1031200033E0DC012D933C932FE030E0FC0133834E
:1031300022832CE330E0DC0115963C932E93149708
:103140000E94C237EDB7FEB736960FB6F894FEBFB1
:103150000FBEEDBF8B819C81AD81BE81809317072F
:1031600090931807A0931907B0931A078B819C813D
:10317000AD81BE81BC01CD012E960FB6F894DEBFA5
:103180000FBECDBFCF91DF910895DF93CF93CDB721
:10319000DEB72C970FB6F894DEBF0FBECDBF0E94EE
:1031A000F017DC01CB012091D6063091D706409173
:1031B000D8065091D906BC01CD010E94662FDC01D2
:1031C000CB0189839A83AB83BC8389819A81AB814C
:1031D000BC81BC01CD010E949916DC01CB0120917C
:1031E0006607309167074091680750916907BC01F5
:1031F000CD010E94672FDC01CB018D839E83AF83BD
:10320000B8876D817E818F8198850E943730DC017F
:10321000CB019A87898789859A85AA2797FDA095EA
:10322000BA2FBC01CD010E946A309B01AC016D81B7
:103230007E818F8198850E94662FDC01CB0180936F
:10324000660790936707A0936807B093690720917A
:10325000F9063091FA0689859A85820F931F9C871B
:103260008B878B859C850E94760E2C960FB6F894E2
:10327000DEBF0FBECDBFCF91DF910895AF92BF9259
:10328000CF92DF92EF92FF920F931F93DF93CF9332
:10329000CDB7DEB78DB79EB708970FB6F8949EBF2F
:1032A0000FBE8DBF2DB73EB72F5F3F4F80E090E040
:1032B000A0EAB0E4F90180839183A283B3838AEA10
:1032C00093E1A6E3BFE3F90184839583A683B783E3
:1032D00066E676E686EE9EEB2DEC3CEC4CE85FE392
:1032E0000F2EFDECEF2EFCECFF2EFCE40F2FFEE387
:1032F0001F2FF02D0F2EFDECAF2EFCECBF2EFCE4AB
:10330000CF2EFEE3DF2EF02D0E94F0158DB79EB775
:1033100008960FB6F8949EBF0FBE8DBF1092FE06A2
:10332000CF91DF911F910F91FF90EF90DF90CF90A1
:10333000BF90AF900895DF93CF93CDB7DEB780E015
:1033400090E0DC018093660790936707A09368077D
:10335000B093690780E090E0DC0180936B07909365
:103360006C07A0936D07B0936E0780E090E0DC01DE
:103370008093410790934207A0934307B09344077B
:10338000CF91DF910895DF93CF93CDB7DEB72E971E
:103390000FB6F894DEBF0FBECDBF80913507909178
:1033A0003607A0913707B091380789839A83AB839A
:1033B000BC831E821D8280911507909116072D8176
:1033C0003E81A901481B590BCA01AA2797FDA09568
:1033D000BA2FBC01CD010E946A30DC01CB012091E3
:1033E0003507309136074091370750913807BC01B7
:1033F000CD010E941E31DC01CB01BC01CD0120E0DA
:1034000030E040E751E40E94672FDC01CB018F835D
:103410009887A987BA878F819885A985BA858B8770
:103420009C87AD87BE8787E693E00E94D73740919F
:1034300024075091250720911D0730911E078DB755
:103440009EB70A970FB6F8949EBF0FBE8DBF8DB77B
:103450009EB7019662E773E0FC01718360836FE0C1
:1034600070E0FC01738362836CE370E0FC017583A0
:103470006483FC0157834683FC01318720870E94C7
:10348000C2374DB75EB7465F5F4F0FB6F8945EBF69
:103490000FBE4DBF409115075091160720911B0795
:1034A00030911C0700D000D000D08DB79EB7019698
:1034B00065EA73E0FC0171836083FC0153834283FE
:1034C000FC01358324830E94C2374DB75EB74A5F43
:1034D0005F4F0FB6F8945EBF0FBE4DBF8091DE0602
:1034E000482F50E08DB79EB70C970FB6F8949EBF4B
:1034F0000FBE8DBF2DB73EB72F5F3F4F8EEB93E0D2
:10350000F901918380838B859C85AD85BE85F9010A
:1035100082839383A483B58389819A81AB81BC81A3
:10352000F90186839783A087B187F9015387428782
:103530000E94C2374DB75EB7445F5F4F0FB6F89435
:103540005EBF0FBE4DBF2E960FB6F894DEBF0FBE06
:10355000CDBFCF91DF910895DF93CF93CDB7DEB785
:1035600061970FB6F894DEBF0FBECDBF0E94181151
:10357000DC01CB0189839A83AB83BC834091F9063C
:103580005091FA068DB79EB70A970FB6F8949EBF72
:103590000FBE8DBF2DB73EB72F5F3F4FCE010596B3
:1035A000F901918380838DEE93E0F9019383828307
:1035B00089819A81AB81BC81F90184839583A6833B
:1035C000B783F901518740870E940C388DB79EB7A9
:1035D0000A960FB6F8949EBF0FBE8DBF83E066E0DB
:1035E0000E942503CE0105960E94050361960FB641
:1035F000F894DEBF0FBECDBFCF91DF910895DF936A
:10360000CF93CDB7DEB766970FB6F894DEBF0FBE87
:10361000CDBF0E9404119A8389830E941811DC0196
:10362000CB018B839C83AD83BE836091F90670913F
:10363000FA068DB79EB70C970FB6F8949EBF0FBED3
:103640008DBF8DB79EB701969E01295F3F4FFC014C
:103650003183208329EF33E0FC01338322832B81E4
:103660003C814D815E81FC012483358346835783F1
:1036700029813A81FC0131872087FC0173876287A9
:103680000E940C388DB79EB70C960FB6F8949EBF6B
:103690000FBE8DBF0E94FA02CE0107960E9405035D
:1036A00066960FB6F894DEBF0FBECDBFCF91DF9107
:1036B0000895DF93CF93CDB7DEB764970FB6F89434
:1036C000DEBF0FBECDBF8091DF069091E006A091D6
:1036D000E106B091E20689839A83AB83BC83809133
:1036E000DE06882F90E02DB73EB72A5030400FB647
:1036F000F8943EBF0FBE2DBF2DB73EB72F5F3F4F93
:10370000AE014B5F5F4FF901518340834AE054E0C3
:10371000F90153834283F9019583848389819A81D6
:10372000AB81BC81F90186839783A087B1870E9412
:103730000C382DB73EB7265F3F4F0FB6F8943EBF0B
:103740000FBE2DBF0E94FA02CE0105960E9405030E
:1037500064960FB6F894DEBF0FBECDBFCF91DF9158
:103760000895DF93CF93CDB7DEB72A970FB6F894BD
:10377000DEBF0FBECDBF8091DE06282F30E000D027
:1037800000D000D08DB79EB70196AE014F5F5F4F5E
:10379000FC015183408348E154E0FC0153834283A0
:1037A000FC01358324830E940C388DB79EB70696A2
:1037B0000FB6F8949EBF0FBE8DBF83E060E10E94FC
:1037C0002503CE0101960E9405032A960FB6F894B0
:1037D000DEBF0FBECDBFCF91DF910895DF93CF93B2
:1037E000CDB7DEB70E94EF028DE194E00E940503A1
:1037F00083E060E00E94250381E394E00E940503DA
:10380000CF91DF910895DF93CF93CDB7DEB70E94BC
:10381000EF0286E494E00E9405030E94FA028DE420
:1038200094E00E940503CF91DF910895DF93CF9339
:10383000CDB7DEB70E94EF028AE594E00E9405034F
:103840000E94FA0283EE96E00E940503CF91DF9179
:103850000895DF93CF9300D000D0CDB7DEB79C831F
:103860008B830E94EF0286E694E00E94050300D05D
:1038700000D000D08DB79EB701969E012F5F3F4FBD
:10388000FC01318320832BE634E0FC013383228367
:103890002B813C81FC01358324830E940C388DB739
:1038A0009EB706960FB6F8949EBF0FBE8DBFCE0191
:1038B00001960E9405038FE694E00E94050383E0D1
:1038C00060E00E9425038AE794E00E9405030F90C0
:1038D0000F900F900F90CF91DF910895DF93CF93CA
:1038E000CDB7DEB78FE090E00E94291CCF91DF9129
:1038F0000895DF93CF93CDB7DEB78CE390E00E94BD
:10390000291CCF91DF910895DF93CF93CDB7DEB718
:103910000E94EF02CF91DF910895DF93CF93CDB74F
:10392000DEB70E94EF028EE894E00E9405030E9439
:10393000FA028FE994E00E940503CF91DF91089588
:10394000DF93CF93CDB7DEB72C970FB6F894DEBFD9
:103950000FBECDBF8091170790911807A09119074E
:10396000B0911A0789839A83AB83BC838DB79EB7C6
:1039700008970FB6F8949EBF0FBE8DBF2DB73EB708
:103980002F5F3F4FCE010596F9019183808387EA2F
:1039900094E0F9019383828389819A81AB81BC8110
:1039A000F90184839583A683B7830E940C388DB771
:1039B0009EB708960FB6F8949EBF0FBE8DBF81E0EC
:1039C00060E00E942503CE0105960E9405032C9617
:1039D0000FB6F894DEBF0FBECDBFCF91DF91089533
:1039E000DF93CF93CDB7DEB761970FB6F894DEBF04
:1039F0000FBECDBF0E94E10D9A83898389819A8190
:103A00002CE330E0B9010E9407359B01C901AA27C8
:103A100097FDA095BA2F8B839C83AD83BE838B814A
:103A20009C8198878F8399812B8184EC289F802D9E
:103A30001124890F89878985282F332727FD309501
:103A40008DB79EB708970FB6F8949EBF0FBE8DBF77
:103A50008DB79EB70196AE01465F5F4FFC01518363
:103A600040834EEA54E0FC01538342834F815885E2
:103A7000FC0155834483FC01378326830E940C3864
:103A80008DB79EB708960FB6F8949EBF0FBE8DBF38
:103A900081E069E00E942503CE010A960E94050399
:103AA00061960FB6F894DEBF0FBECDBFCF91DF9108
:103AB0000895DF93CF93CDB7DEB761970FB6F89433
:103AC000DEBF0FBECDBF0E94F50D9A838983898129
:103AD0009A812CE330E0B9010E9407359B01C901AE
:103AE000AA2797FDA095BA2F8B839C83AD83BE83B5
:103AF0008B819C8198878F8399812B8184EC289F6F
:103B0000802D1124890F89878985282F332727FD48
:103B100030958DB79EB708970FB6F8949EBF0FBE2D
:103B20008DBF8DB79EB70196AE01465F5F4FFC011A
:103B3000518340834EEA54E0FC01538342834F811A
:103B40005885FC0155834483FC01378326830E94FA
:103B50000C388DB79EB708960FB6F8949EBF0FBE6F
:103B60008DBF81E066E00E942503CE010A960E9487
:103B7000050361960FB6F894DEBF0FBECDBFCF919F
:103B8000DF910895DF93CF93CDB7DEB70E94EF02A8
:103B900087EB94E00E94050380E061E10E94250329
:103BA0008FE697E00E94050383E060E00E94250312
:103BB00080EC94E00E940503CF91DF910895DF939C
:103BC000CF93CDB7DEB70E94EF0287EC94E00E945E
:103BD00005030E94FA0283ED94E00E94050380E051
:103BE00061E10E9425038FE697E00E94050383E0D0
:103BF00060E00E94250382EE94E00E940503CF91CD
:103C0000DF910895DF93CF93CDB7DEB780E060E01A
:103C10000E94250382EF94E00E940503CF91DF917B
:103C20000895DF93CF93CDB7DEB780E060E00E94C8
:103C300025038DEF94E00E940503CF91DF91089555
:103C4000DF93CF930F92CDB7DEB7898381E062E037
:103C50000E9425038091CF060E946B03809121076B
:103C60000E946B03809122070E946B038981882345
:103C70005CF08981833044F489818E5F982F81E0E4
:103C8000692F0E944C0302C00E9460030F90CF91E5
:103C9000DF910895DF93CF930F92CDB7DEB789837D
:103CA00081E068E00E9425038091F8060E946B0382
:103CB0008091FD060E946B038DE60E946B0380914C
:103CC000DB060E946B038091FF060E946B038981D3
:103CD00088235CF08981853044F48981885F982F3E
:103CE00081E0692F0E944C0302C00E9460030F9084
:103CF000CF91DF910895DF93CF93CDB7DEB70E94C8
:103D0000EF0288E095E00E9405030E94FA028FE02E
:103D100095E00E94050382E060E00E9425038BE1AC
:103D200095E00E94050382E061E10E94250387E29D
:103D300095E00E94050383E060E00E9425038BE28A
:103D400095E00E940503CF91DF910895DF93CF9313
:103D50000F92CDB7DEB7898382E06DE00E94250324
:103D60008091DC060E946B03809123070E946B0305
:103D7000898188235CF08981823044F48981835F62
:103D8000982F82E0692F0E944C0302C00E946003BA
:103D90000F90CF91DF910895DF93CF930F92CDB71E
:103DA000DEB7898381E06DE00E9425038091DD0606
:103DB000882329F084E395E00E94050304C088E38A
:103DC00095E00E940503898188235CF0898118169B
:103DD00044F08981835F982F81E0692F0E944C0312
:103DE00002C00E9460030F90CF91DF910895DF938E
:103DF000CF93CDB7DEB783E068E00E9425038CE364
:103E000095E00E940503CF91DF910895DF93CF9352
:103E1000CDB7DEB783E068E00E94250387E495E034
:103E20000E940503CF91DF910895DF93CF93CDB723
:103E3000DEB783E068E00E9425038EE495E00E94EF
:103E40000503CF91DF910895DF93CF93CDB7DEB710
:103E500080912007882351F48FE697E025E535E02F
:103E6000B90144E050E00E947B3709C08FE697E03B
:103E700029E535E0B90144E050E00E947B37CF915D
:103E8000DF910895DF93CF93CDB7DEB70E94EF02A5
:103E90008DE595E00E9405038091DD068823A1F061
:103EA00080E06EE00E94250384E695E00E94050311
:103EB0008091DC060E946B03809123070E946B03B4
:103EC00088E695E00E94050381E060E00E942503FA
:103ED0008AE695E00E94050383E060E00E942503E6
:103EE00080E795E00E940503CF91DF910895DF936D
:103EF000CF9300D000D000D0CDB7DEB79E838D83A6
:103F0000198264C18D819E81FC0125813681898160
:103F1000882F90E0880F991FAC01440F551F440F64
:103F2000551F440F551FBA01681B790BCB01820F37
:103F3000931FFC0114868BE090E09C838B8340C030
:103F40008D819E81FC01258136818981882F90E0B9
:103F5000880F991FAC01440F551F440F551F440F84
:103F6000551FBA01681B790BCB01280F391F8D81B2
:103F70009E81FC01458156818981882F90E0880FC0
:103F8000991FBC01660F771F660F771F660F771F9B
:103F9000FB01E81BF90BCF01480F591F8B819C8156
:103FA0000197840F951FFC0140818B819C81820FBA
:103FB000931FFC0140838B819C8101979C838B83A1
:103FC0008B819C81181619060CF4BACF8D819E81C5
:103FD000FC01258136818981882F90E0880F991F07
:103FE000AC01440F551F440F551F440F551FBA0114
:103FF000681B790BCB01820F931F2981FC01208361
:104000008D819E81FC01258136818981882F90E0F8
:10401000880F991FAC01440F551F440F551F440FC3
:10402000551FBA01681B790BCB01820F931FFC014E
:1040300024852F5FFC01248789818A83ACC08BE0B3
:1040400090E09C838B8340C08D819E81FC01258103
:1040500036818981882F90E0880F991FAC01440F29
:10406000551F440F551F440F551FBA01681B790B8C
:10407000CB01280F391F8D819E81FC01458156811E
:104080008981882F90E0880F991FBC01660F771FE8
:10409000660F771F660F771FFB01E81BF90BCF0137
:1040A000480F591F8B819C810197840F951FFC013C
:1040B00040818B819C81820F931FFC0140838B8107
:1040C0009C8101979C838B838B819C811816190698
:1040D0000CF4BACF8D819E81FC01258136818981C6
:1040E000882F90E0880F991FAC01440F551F440F93
:1040F000551F440F551FBA01681B790BCB01A9014D
:10410000480F591F8D819E81FC01628173818A81D4
:10411000282F30E0C901880F991F820F931F880F45
:10412000991F880F991F860F971FFC018181FA0143
:1041300080838D819E81FC01258136818981882F34
:1041400090E0880F991FAC01440F551F440F551F75
:10415000440F551FBA01681B790BCB01820F931FC7
:10416000FC0124852F5FFC0124878D819E81FC0149
:10417000428153818A81282F30E0C901880F991F1D
:10418000820F931F880F991F880F991F840F951F07
:10419000FC0181818A838D819E81FC014281538152
:1041A0008A81282F30E0C901880F991F820F931F41
:1041B000880F991F880F991F840F951FFC0181811B
:1041C0008F3F09F03CCF89818F5F89838D819E81EC
:1041D000FC0191818981891708F494CE26960FB647
:1041E000F894DEBF0FBECDBFCF91DF910895DF936E
:1041F000CF9300D00F92CDB7DEB79B838A8319820D
:104200001DC08A819B81FC01258136818981882F8F
:1042100090E0880F991FAC01440F551F440F551FA4
:10422000440F551FBA01681B790BCB01820F931FF6
:104230002FEFFC01258789818F5F89838A819B818C
:10424000FC01918189818917E0F20F900F900F9006
:10425000CF91DF910895DF93CF9300D000D0CDB7F9
:10426000DEB79B838A836C838A819B81FC014281B8
:1042700053818C81282F30E0C901880F991F820F4C
:10428000931F880F991F880F991F840F951FFC019A
:10429000868197810097C1F08A819B81FC014281D0
:1042A00053818C81282F30E0C901880F991F820F1C
:1042B000931F880F991F880F991F840F951FFC016A
:1042C00086819781FC0109958A819B81FC0142814D
:1042D00053818C81282F30E0C901880F991F820FEC
:1042E000931F880F991F880F991F840F951FFC013A
:1042F000808591850097C1F08A819B81FC01428174
:1043000053818C81282F30E0C901880F991F820FBB
:10431000931F880F991F880F991F840F951FFC0109
:1043200080859185FC0109958A819B812C81FC0106
:1043300024838A819B81FC01428153818C81282FB7
:1043400030E0C901880F991F820F931F880F991FB2
:10435000880F991F840F951FFC018281898385C076
:104360008A819B81FC01428153818981282F3327D7
:1043700027FD3095C901880F991F820F931F880F61
:10438000991F880F991F840F951FFC0186819781C3
:104390000097D1F08A819B81FC0142815381898100
:1043A000282F332727FD3095C901880F991F820FC9
:1043B000931F880F991F880F991F840F951FFC0169
:1043C00086819781FC0109958A819B81FC0142814C
:1043D00053818981282F332727FD3095C901880F04
:1043E000991F820F931F880F991F880F991F840FA1
:1043F000951FFC01808591850097D1F08A819B8172
:10440000FC01428153818981282F332727FD309574
:10441000C901880F991F820F931F880F991F880F5A
:10442000991F840F951FFC0180859185FC010995DA
:1044300029818A819B81FC0124838A819B81FC01E3
:10444000428153818981282F332727FD3095C90167
:10445000880F991F820F931F880F991F880F991F2C
:10446000840F951FFC018281898389818F3F09F028
:1044700077CF0F900F900F900F90CF91DF9108950D
:10448000DF93CF9300D000D000D0CDB7DEB79A83B2
:1044900089837C836B834D832E8389819A812D81CF
:1044A000FC01218389819A812B813C81FC0133832A
:1044B000228389819A81FC018181882F90E0880F75
:1044C000991F9C01220F331F220F331F220F331F0E
:1044D000A901481B590BCA010E9465359C018981BD
:1044E0009A81FC013683258389819A810E94771FF6
:1044F00089819A810E94F72089819A816E810E9428
:104500002B2189819A812FEFFC01238B26960FB6F0
:10451000F894DEBF0FBECDBFCF91DF910895DF933A
:10452000CF9300D0CDB7DEB79A83898389819A81F2
:10453000FC01858196810E94FF350F900F90CF91ED
:10454000DF910895DF93CF9300D000D000D0CDB796
:10455000DEB79C838B836D834E83198219828B8196
:104560009C81FC01258136818E81882F90E0880F07
:10457000991FAC01440F551F440F551F440F551F81
:10458000BA01681B790BCB01820F931FFC01848554
:1045900081508A8327C08B819C81FC0125813681D3
:1045A0008E81882F90E0880F991FAC01440F551F12
:1045B000440F551F440F551FBA01681B790BCB01DF
:1045C000280F391F8A81992787FD9095820F931FA5
:1045D000FC0190818D81981711F481E089838A8193
:1045E00081508A838A818823B4F6898126960FB602
:1045F000F894DEBF0FBECDBFCF91DF910895DF935A
:10460000CF9300D000D00F92CDB7DEB79D838C83BF
:104610008C819D812FEFFC01238B8C819D810796DE
:1046200060E070E04CE050E00E9484371A828C8198
:104630009D81FC018481898354C08C819D81FC0112
:104640008389282F2F5F8C819D81FC01238B8C8196
:104650009D81FC018389992787FD909549812C8153
:104660003D81820F931F0796FC0140838C819D81C1
:10467000FC01428153818981282F332727FD309502
:10468000C901880F991F820F931F880F991F880FE8
:10469000991F840F951FFC0184819581FC01099568
:1046A0008B839091850581E02B81291709F080E0AB
:1046B0008A838C819D81FC01428153818981282FCD
:1046C000332727FD3095C901880F991F820F931F4B
:1046D000880F991F880F991F840F951FFC018181F6
:1046E000898389818F3F31F09A8181E089278823EE
:1046F00009F0A3CF8A810F900F900F900F900F9029
:10470000CF91DF910895DF93CF93CDB7DEB7289790
:104710000FB6F894DEBF0FBECDBF9D838C836E8332
:1047200058874F838FEF8B831A821982A0C02C8108
:104730003D8189819A81820F931F0796FC018081B8
:104740008B838C819D81FC01428153818B81282F39
:1047500030E0C901880F991F820F931F880F991F9E
:10476000880F991F840F951FFC0182859385009700
:10477000C1F08C819D81FC01428153818B81282F66
:1047800030E0C901880F991F820F931F880F991F6E
:10479000880F991F840F951FFC0182859385FC016A
:1047A00009958F8198852B81FC0120838C819D81C7
:1047B000FC01428153818C819D81FC016281738166
:1047C0008B81282F30E0C901880F991F820F931F1A
:1047D000880F991F880F991F860F971FFC018181F1
:1047E000282F332727FD3095C901880F991F820F85
:1047F000931F880F991F880F991F840F951FFC0125
:104800008381882379F18C819D81FC0145815681CA
:104810008C819D81FC01628173818B81282F30E026
:10482000C901880F991F820F931F880F991F880F46
:10483000991F860F971FFC018181992787FD90950D
:10484000880F991F9C01220F331F220F331F220F45
:10485000331FB901681B790BCB01840F951F2B8186
:10486000FC01258789819A8101969A8389838C81AD
:104870009D81FC018389282F332727FD309589816D
:104880009A81281739070CF052CF8C819D81FC0149
:10489000428153818B81282F30E0C901880F991FF5
:1048A000820F931F880F991F880F991F840F951FE0
:1048B000FC0181818B83A7C08C819D81FC01428199
:1048C00053818B81282F30E0C901880F991F820FF7
:1048D000931F880F991F880F991F840F951FFC0144
:1048E000828593850097C1F08C819D81FC01428176
:1048F00053818B81282F30E0C901880F991F820FC7
:10490000931F880F991F880F991F840F951FFC0113
:1049100082859385FC0109958F8198852B81FC0107
:1049200020838C819D81FC01428153818B81282FC2
:1049300030E0C901880F991F820F931F880F991FBC
:10494000880F991F840F951FFC0181818B838C81B7
:104950009D81FC01428153818C819D81FC0162819A
:1049600073818B81282F30E0C901880F991F820F36
:10497000931F880F991F880F991F860F971FFC019F
:104980008181282F332727FD3095C901880F991F72
:10499000820F931F880F991F880F991F840F951FEF
:1049A000FC018381882379F18C819D81FC01458103
:1049B00056818C819D81FC01628173818B81282FBE
:1049C00030E0C901880F991F820F931F880F991F2C
:1049D000880F991F860F971FFC018181992787FDFA
:1049E0009095880F991F9C01220F331F220F331FB0
:1049F000220F331FB901681B790BCB01840F951F60
:104A00002B81FC0125872B818C819D81622F4E811A
:104A10000E94A222982F81E08927882309F04CCF99
:104A20009B818E81981709F091C08C819D81FC013A
:104A3000428153818B81282F30E0C901880F991F53
:104A4000820F931F880F991F880F991F840F951F3E
:104A5000FC01828593850097C1F08C819D81FC01CA
:104A6000428153818B81282F30E0C901880F991F23
:104A7000820F931F880F991F880F991F840F951F0E
:104A8000FC0182859385FC0109958C819D812B8198
:104A9000FC0120838C819D81FC01428153818C81AA
:104AA0009D81FC01628173818B81282F30E0C901D7
:104AB000880F991F820F931F880F991F880F991FC6
:104AC000860F971FFC018181282F332727FD309502
:104AD000C901880F991F820F931F880F991F880F94
:104AE000991F840F951FFC018381882379F18C81A4
:104AF0009D81FC01458156818C819D81FC016281F3
:104B000073818B81282F30E0C901880F991F820F94
:104B1000931F880F991F880F991F860F971FFC01FD
:104B20008181992787FD9095880F991F9C01220FFD
:104B3000331F220F331F220F331FB901681B790B5C
:104B4000CB01840F951F2B81FC01258728960FB67A
:104B5000F894DEBF0FBECDBFCF91DF910895DF93F4
:104B6000CF9300D000D000D0CDB7DEB79C838B832D
:104B70006D834E838E8189838B819C81FC01428170
:104B800053818B819C81FC01258136818D81882F09
:104B900090E0880F991FBC01660F771F660F771F83
:104BA000660F771FFB01E81BF90BCF01280F391F98
:104BB0008981882F90E0820F931FFC018081282F2C
:104BC000332727FD3095C901880F991F820F931F46
:104BD000880F991F880F991F840F951FFC018085EE
:104BE00091850097B9F18B819C81FC0142815381B1
:104BF0008B819C81FC01258136818D81882F90E0FD
:104C0000880F991FBC01660F771F660F771F660F0D
:104C1000771FFB01E81BF90BCF01280F391F898192
:104C2000882F90E0820F931FFC018081282F33276B
:104C300027FD3095C901880F991F820F931F880F98
:104C4000991F880F991F840F951FFC0180859185FE
:104C5000FC01099589818F5F89838981282F30E044
:104C60008B819C81FC01458156818D81882F90E04C
:104C7000880F991FBC01660F771F660F771F660F9D
:104C8000771FFB01E81BF90BCF01840F951FFC0177
:104C90008485992787FD90950197821793070CF0DB
:104CA0006BCF8D818A837CC08B819C81FC012581A7
:104CB00036818A81882F90E0880F991FAC01440FBC
:104CC000551F440F551F440F551FBA01681B790B20
:104CD000CB01820F931FFC0185858F3FD9F08B811B
:104CE0009C81FC01258136818A81882F90E0880F84
:104CF000991FAC01440F551F440F551F440F551FFA
:104D0000BA01681B790BCB01820F931FFC018585CB
:104D10008A8316C08B819C81FC01428153818A81E8
:104D2000282F30E0C901880F991F820F931F880F29
:104D3000991F880F991F840F951FFC0182818A8318
:104D40008B819C81FC01428153818A81282F30E034
:104D5000C901880F991F820F931F880F991F880F11
:104D6000991F840F951FFC01808591850097C1F0E4
:104D70008B819C81FC01428153818A81282F30E004
:104D8000C901880F991F820F931F880F991F880FE1
:104D9000991F840F951FFC0180859185FC01099561
:104DA0008B819C81FC01258136818A81882F90E04E
:104DB000880F991FAC01440F551F440F551F440F16
:104DC000551FBA01681B790BCB01820F931FFC01A1
:104DD00085858F3F09F068CF8B819C81FC014281E2
:104DE00053818A81282F30E0C901880F991F820FD3
:104DF000931F880F991F880F991F840F951FFC011F
:104E000082818F3F09F050CF8A8126960FB6F894A1
:104E1000DEBF0FBECDBFCF91DF910895DF93CF935B
:104E2000CDB7DEB728970FB6F894DEBF0FBECDBF63
:104E30009E838D836F8348878FEF898328858D813B
:104E40009E81622F4F810E94A222882309F450C0C4
:104E50001A8230C08D819E81FC01258136818F812F
:104E6000882F90E0880F991FAC01440F551F440F05
:104E7000551F440F551FBA01681B790BCB01280F32
:104E8000391F8A81992787FD9095820F931FFC0116
:104E90008081282F332727FD30958885882F90E043
:104EA0002817390721F48A8189830000DDC08A81AF
:104EB0008F5F8A838D819E81FC01258136818F8160
:104EC000882F90E0880F991FAC01440F551F440FA5
:104ED000551F440F551FBA01681B790BCB01820F78
:104EE000931FFC0194858A8189170CF4B3CFBCC051
:104EF0008D819E81FC01258136818F81882F90E0F4
:104F0000880F991FAC01440F551F440F551F440FC4
:104F1000551FBA01681B790BCB01820F931FFC014F
:104F200064858D819E81FC01258136818D819E81E4
:104F3000FC018081882F90E0880F991FAC01440FFD
:104F4000551F440F551F440F551FFA01E81BF90B5D
:104F5000CF01820F931FFC0184858617E4F48D81B5
:104F60009E81FC01258136818885882F90E0880FFD
:104F7000991FAC01440F551F440F551F440F551F77
:104F8000BA01681B790BCB01820F931FFC0184854A
:104F900081508C831BC08D819E81FC0125813681CF
:104FA0008F81882F90E0880F991FAC01440F551F07
:104FB000440F551F440F551FBA01681B790BCB01D5
:104FC000820F931FFC01848581508C831B8245C016
:104FD0008B8189838D819E81FC0125813681888525
:104FE000882F90E0880F991FAC01440F551F440F84
:104FF000551F440F551FBA01681B790BCB01280FB1
:10500000391F8B81992787FD9095820F931FFC0193
:1050100060818D819E81FC01258136818F81882F61
:1050200090E0880F991FAC01440F551F440F551F86
:10503000440F551FFA01E81BF90BCF01280F391F48
:105040008B81992787FD9095820F931FFC018081AA
:10505000681749F48B818F5F8B839B818C818917C3
:105060000CF0B6CF01C0000029818D819E816F8137
:10507000422F0E94AF25282F8D819E81FC01248321
:1050800028960FB6F894DEBF0FBECDBFCF91DF914B
:105090000895DF93CF9300D00F92CDB7DEB79A83F8
:1050A00089836B8300008FE390E0FC018081882F6F
:1050B00090E0827090700097B1F781E490E02981D0
:1050C0003A81FC013183208380E490E02B81FC0154
:1050D0002083F894FA9AF99A78940F900F900F9091
:1050E000CF91DF910895DF93CF9300D0CDB7DEB796
:1050F0009A83898300008FE390E0FC018081882FF0
:1051000090E0827090700097B1F781E490E029817F
:105110003A81FC01318320838FE390E02FE330E07C
:10512000F90120812160FC01208380E490E0FC01F2
:1051300080810F900F90CF91DF910895DF93CF93EF
:1051400000D000D000D0CDB7DEB79D838C836E83B6
:1051500019828C819D819B838A832E818A819B8188
:10516000622F0E9449288A819B810E94732889832B
:105170009E818981981711F18E81482F50E0898195
:10518000282F30E000D000D000D08DB79EB7019618
:1051900066E875E0FC0171836083FC015383428300
:1051A000FC01358324830E94C2378DB79EB70696D3
:1051B0000FB6F8949EBF0FBE8DBF16C08981282FF1
:1051C00030E000D000D08DB79EB701964FEA55E091
:1051D000FC0151834083FC01338322830E94C23748
:1051E0000F900F900F900F9026960FB6F894DEBF99
:1051F0000FBECDBFCF91DF910895DF93CF9300D045
:1052000000D00F92CDB7DEB79D838C838C819D81BA
:105210009A83898389819A810E9473288B838B81E9
:105220000F900F900F900F900F90CF91DF910895F6
:10523000DF93CF93CDB7DEB727970FB6F894DEBFD5
:105240000FBECDBF9F838E838E819F819A8389837A
:105250001D821C8289819A810E9473288B838B8195
:10526000882F90E09D838C8389819A8101960E948A
:1052700073288B83CE01049601962B81FC01208339
:105280008C819D8127960FB6F894DEBF0FBECDBFEF
:10529000CF91DF910895DF93CF9300D000D000D05D
:1052A000CDB7DEB79C838B837E836D838B819C819E
:1052B0009A8389838D819E81282F89819A81622F8B
:1052C0000E94492889819A8101969E012B5F3F4F58
:1052D0002F5F3F4FF9012081622F0E9449282696B7
:1052E0000FB6F894DEBF0FBECDBFCF91DF9108950A
:1052F000DF93CF93CDB7DEB7CF91DF910895DF93E2
:10530000CF9300D00F92CDB7DEB79B838A831982EB
:10531000000021E08A819B81009709F420E08A81C6
:105320009B8101979B838A83222399F70F900F908B
:105330000F90CF91DF910895DF93CF93CDB7DEB774
:105340008091CF06482F552747FD509524E630E041
:10535000429FC001439F900D529F900D11249C01CC
:10536000205C324180912107992787FD9095880F15
:10537000991FAC01440F551F440F551F840F951FF3
:10538000805E9140280F391F80912207992787FD61
:105390009095C097820F931FAA2797FDA095BA2FCB
:1053A000BC01CD010E946A30DC01CB018093D6069E
:1053B0009093D706A093D806B093D906CF91DF91EA
:1053C0000895DF93CF930F92CDB7DEB7898389819C
:1053D000282F332727FD309500D000D08DB79EB7FA
:1053E000019646EC55E0FC0151834083FC01338378
:1053F00022830E94C2370F900F900F900F90298147
:1054000084E090E0622F0E949E2889818093CF06DD
:105410000E949C290F90CF91DF910895DF93CF9345
:105420000F92CDB7DEB789838981282F332727FDD7
:10543000309500D000D08DB79EB7019647ED55E06E
:10544000FC0151834083FC01338322830E94C237D5
:105450000F900F900F900F90298185E090E0622FC0
:105460000E949E288981809321070E949C290F9089
:10547000CF91DF910895DF93CF930F92CDB7DEB731
:1054800089838981282F332727FD309500D000D0CC
:105490008DB79EB7019647EE55E0FC0151834083DE
:1054A000FC01338322830E94C2370F900F900F902C
:1054B0000F90298186E090E0622F0E949E288981CA
:1054C000809322070E949C290F90CF91DF9108952D
:1054D000DF93CF93CDB7DEB78091F806482F5527DD
:1054E00047FD509528E532E0429FC001439F900D53
:1054F000529F900D11249C01205830478091FD0649
:10550000682F772767FD70954CE350E0649FC001DA
:10551000659F900D749F900D112480549B40280F1F
:10552000391F8091DB06992787FD9095880F991F79
:10553000AC01440F551F440F551F840F951F805E0B
:105540009140280F391F8091FF06992787FD90957C
:10555000C097820F931F9093D3068093D206CF916A
:10556000DF910895DF93CF930F92CDB7DEB7898394
:10557000298187E090E0622F0E949E288981809394
:10558000F8060E94682A0F90CF91DF910895DF936B
:10559000CF930F92CDB7DEB78983298188E090E061
:1055A000622F0E949E2889818093FD060E94682AAE
:1055B0000F90CF91DF910895DF93CF930F92CDB7E6
:1055C000DEB78983298189E090E0622F0E949E28BE
:1055D00089818093DB060E94682A0F90CF91DF912A
:1055E0000895DF93CF930F92CDB7DEB789832981DA
:1055F0008AE090E0622F0E949E2889818093FF06B6
:105600000E94682A0F90CF91DF910895DF93CF9386
:10561000CDB7DEB70E94041190931607809315074B
:1056200080911507909116079C018BE090E0B901DD
:105630000E944B29CF91DF910895DF93CF93CDB78F
:10564000DEB70E94041190931C0780931B07809182
:105650001B0790911C079C018DE090E0B9010E940E
:105660004B29CF91DF910895DF93CF93CDB7DEB76C
:105670008091F9069091FA0690932507809324076C
:1056800020912407309125078FE090E0B9010E9416
:105690004B29CF91DF910895DF93CF93CDB7DEB73C
:1056A0008091F9069091FA0690931E0780931D074A
:1056B00020911D0730911E0781E190E0B9010E9401
:1056C0004B29CF91DF910895DF93CF930F92CDB700
:1056D000DEB789838981809320072091200784E1A8
:1056E00090E0622F0E949E280F90CF91DF91089545
:1056F000DF93CF93CDB7DEB78091DC06880F982F6C
:10570000990F990F980F80912307890F80518093EB
:10571000DA06CF91DF910895DF93CF930F92CDB743
:10572000DEB7898389818093DD06298185E190E058
:10573000622F0E949E280F90CF91DF910895DF93F2
:10574000CF930F92CDB7DEB78983898180932307EA
:10575000298186E190E0622F0E949E280E94782B8A
:105760000F90CF91DF910895DF93CF930F92CDB734
:10577000DEB7898389818093DC06298187E190E007
:10578000622F0E949E280E94782B0F90CF91DF916C
:105790000895DF93CF93CDB7DEB784E090E00E9409
:1057A000FD288093CF068091CF06282F332727FD31
:1057B000309500D000D08DB79EB7019645EF55E0EB
:1057C000FC0151834083FC01338322830E94C23752
:1057D0000F900F900F900F908091CF06803324F0A0
:1057E0008091CF068A33E4F08091CF06282F3327AB
:1057F00027FD309500D000D08DB79EB7019649E0C7
:1058000056E0FC0151834083FC01338322830E94D4
:10581000C2370F900F900F900F9080E30E94E12904
:1058200085E090E00E94FD28809321078091210768
:10583000282F332727FD309500D000D08DB79EB795
:10584000019648E256E0FC0151834083FC0133831A
:1058500022830E94C2370F900F900F900F9080917B
:105860002107803324F0809121078A33E4F080916E
:105870002107282F332727FD309500D000D08DB782
:105880009EB701964BE356E0FC0151834083FC0137
:10589000338322830E94C2370F900F900F900F9096
:1058A00080E30E940E2A86E090E00E94FD2880930B
:1058B000220780912207282F332727FD309500D01B
:1058C00000D08DB79EB7019649E556E0FC015183A3
:1058D0004083FC01338322830E94C2370F900F90D4
:1058E0000F900F9080912207803324F0809122073F
:1058F0008A33E4F080912207282F332727FD309543
:1059000000D000D08DB79EB701964AE656E0FC0164
:1059100051834083FC01338322830E94C2370F905E
:105920000F900F900F9080E30E943B2A86E896E04C
:105930000E94D73787E090E00E94FD288093F80608
:105940008091F806803324F08091F8068A331CF0A9
:1059500080E30E94B22A88E090E00E94FD288093B4
:10596000FD068091FD06803324F08091FD068A3388
:105970001CF080E30E94C72A89E090E00E94FD2885
:105980008093DB068091DB06803324F08091DB0678
:1059900086331CF080E30E94DC2A8AE090E00E94BB
:1059A000FD288093FF068091FF06803324F08091CC
:1059B000FF068A331CF080E30E94F12A0E94682AC5
:1059C0000E949C2986E190E00E94FD288093230795
:1059D00080912307803320F0809123078A3318F0C9
:1059E00080E30E949F2B87E190E00E94FD28809336
:1059F000DC068091DC06803320F08091DC068A335F
:105A000018F080E30E94B42B0E94782B85E190E08F
:105A10000E94FD288093DD068091DD06823018F01B
:105A200080E00E948C2B8BE090E00E9418299093DC
:105A30001607809315078091150790911607FFEFC1
:105A40008F3F9F0721F410921607109215078DE0E3
:105A500090E00E94182990931C0780931B07809167
:105A60001B0790911C072FEF8F3F920721F4109294
:105A70001C0710921B078FE090E00E94182990935A
:105A80002507809324078091240790912507EFEF45
:105A90008F3F9E0721F4109225071092240781E181
:105AA00090E00E94182990931E0780931D07809113
:105AB0001D0790911E07FFEF8F3F9F0721F4109263
:105AC0001E0710921D0784E190E00E94FD2880933C
:105AD000200780912007823018F080E00E94642B1C
