:100000000C943E000C946A0B0C945B000C945B0007
:100010000C945B000C945B000C94B20E0C945B008F
:100020000C945B000C94C00A0C945B000C945B0075
:100030000C945B000C94B20B0C945B000C945B0072
:100040000C94A20B0C945B000C945B000C945B0072
:100050000C945B000C945B000C945B000C945B00B4
:100060000C942B0B0C945B000C945B000C945B00C9
:100070000C945B000C945B000C945B0011241FBE7D
:10008000C0E0D8E0DEBFCDBF13E0A0E0B1E0E2E029
:10009000F2E502C005900D92A431B107D9F713E043
:1000A000A4E1B3E001C01D92A03AB107E1F70E94BC
:1000B000AA000C94FF280C940000DF93CF9300D08B
:1000C000CDB7DEB79A838983E5ECF0E089819A8128
:1000D000892F99278083E4ECF0E089818083A0EC6C
:1000E000B0E0E0ECF0E080818C7F8C93E1ECF0E01C
:1000F00088E18083E2ECF0E086E080830F900F904F
:10010000CF91DF910895DF93CF9300D00F92CDB7B9
:10011000DEB789837B836A83E0ECF0E08081882FFF
:1001200090E0807290700097B9F389818A3031F441
:1001300020E031E08DE0B9010E948300E6ECF0E0C0
:100140008981808380E090E00F900F900F90CF9195
:10015000DF910895DF93CF9300D000D0CDB7DEB705
:100160008BE090E00E945D0080E091E090939D0321
:1001700080939C038EE091E00E94C1250E9446215D
:100180000E94D4010E94920E0E94F30B0E942B1336
:100190000E94F3160E94F70980913603882371F0BC
:1001A000109236038BE090E09B838A838AE393E08E
:1001B0009E012E5F3F4FB9010E94180A809158039B
:1001C000882371F0109258038AE090E09B838A8321
:1001D0008AE393E09E012E5F3F4FB9010E94180A07
:1001E00080911603882371F01092160386E090E048
:1001F0009B838A838AE393E09E012E5F3F4FB90180
:100200000E94180A80913203882371F01092320301
:1002100085E090E09B838A838AE393E09E012E5FD2
:100220003F4FB9010E94180A0E940B0F89838981F0
:10023000882391F18981833021F481E090E09B83D0
:100240008A838981813021F487E090E09B838A83CF
:100250008981823021F488E090E09B838A838981C0
:10026000853021F483E090E09B838A838981863006
:1002700021F484E090E09B838A838981803324F099
:100280001B821A8289818C838AE393E09E012E5F10
:100290003F4FB9010E94180A80913803882309F45E
:1002A0007BCF1092380389E090E09B838A838AE3B6
:1002B00093E09E012E5F3F4FB9010E94180A6CCF58
:1002C000DF93CF9300D000D0CDB7DEB78A836B83A6
:1002D0004C83E4E2F0E01082E5E2F0E01082ABE271
:1002E000B0E0EBE2F0E080818F718C93ABE2B0E0A4
:1002F000EBE2F0E080818F778C93ABE2B0E0EBE251
:10030000F0E0808180648C9381E0898315C0ABE24A
:10031000B0E0EBE2F0E0808180628C930E946F1F7E
:10032000E3E2F0E0808180788983ABE2B0E0EBE249
:10033000F0E080818F7D8C938981882341F7E4E20E
:10034000F0E08FEF8083E5E2F0E08A8180838B81AB
:10035000882339F0ABE2B0E0EBE2F0E08081806826
:100360008C93ABE2B0E0EBE2F0E080818F7B8C938A
:100370000E946F1FABE2B0E0EBE2F0E080818062B0
:100380008C930E946F1FABE2B0E0EBE2F0E0808163
:100390008F7D8C9389818F5F89830F900F900F9051
:1003A0000F90CF91DF910895DF93CF93CDB7DEB754
:1003B000AAE2B0E0EAE2F0E08081806E8C93ABE2EA
:1003C000B0E0EBE2F0E080818F718C93E4E2F0E04A
:1003D0001082E5E2F0E0108281E060E040E20E94FD
:1003E000600188E360E040E20E9460018CE060E030
:1003F00040E20E94600186E060E040E20E9460010D
:10040000CF91DF910895DF93CF930F92CDB7DEB7F1
:100410008983998181E060E0492F0E9460010F90FB
:10042000CF91DF910895DF93CF930F92CDB7DEB7D1
:100430008983998180EC60E0492F0E9460010F90D0
:10044000CF91DF910895DF93CF9300D000D0CDB747
:10045000DEB79B838A836C830BC089819C8161E0BA
:10046000492F0E9460018A819B8101969B838A8328
:10047000EA81FB81808189838981882371F70F90CC
:100480000F900F900F90CF91DF910895DF93CF934E
:1004900000D000D0CDB7DEB78A836B834C838A81CE
:1004A000882311F4198202C080E4898399818B81A9
:1004B000890F8058898389819C8160E0492F0E943F
:1004C00060010F900F900F900F90CF91DF910895E2
:1004D000DF93CF9300D00F92CDB7DEB789836A83C5
:1004E0004B8389816A814B810E9446028FE060E0E4
:1004F00040E20E9460010F900F900F90CF91DF912A
:100500000895DF93CF93CDB7DEB78CE060E040E293
:100510000E946001CF91DF910895DF93CF9300D0C7
:10052000CDB7DEB789836A8389819A8161E0492FDB
:100530000E9460010F900F90CF91DF910895DF939B
:10054000CF93CDB7DEB780910C03CF91DF910895A3
:10055000DF93CF9300D00F92CDB7DEB780910C031D
:100560008A83E0915F03F0916003808191818F30F5
:100570009105C9F48FE089838091190390911A0342
:100580009E012D5F3F4F6FE0A9010E94E71A809105
:10059000190390911A032B816981422F0E94471EF3
:1005A00080910D038A838A810F900F900F90CF91D5
:1005B000DF910895DF93CF93CDB7DEB787E191E068
:1005C0000E94C1250E94141586E090E00E948A0DC9
:1005D000CF91DF910895DF93CF93CDB7DEB78FE250
:1005E00091E00E94C1250E94A60D0E940A15CF919C
:1005F000DF910895DF93CF9300D000D00F92CDB755
:10060000DEB780910C038B83E0915F03F091600370
:100610008081918185309105C9F489E08A83809138
:10062000190390911A039E012C5F3F4F69E0A901C5
:100630000E94E71A8091190390911A032C816A8114
:10064000422F0E94471E80910D038B83E0915F0330
:10065000F0916003808191818330910549F0E091B0
:100660005F03F09160038081918187309105C9F427
:1006700083E089838091190390911A039E012B5F77
:100680003F4F63E0A9010E94E71A809119039091FE
:100690001A032D816981422F0E94471E80910D030C
:1006A0008B83E0915F03F0916003808191818630BC
:1006B000910529F40E94D41580910D038B838B81C1
:1006C0000F900F900F900F900F90CF91DF910895A2
:1006D000DF93CF93CDB7DEB78FEF9FE70E948A0DF0
:1006E000CF91DF910895DF93CF93CDB7DEB70E940E
:1006F000A60DCF91DF910895DF93CF9300D00F9295
:10070000CDB7DEB780910C038A83E0915F03F0914F
:1007100060038081918188309105C9F489E08983E3
:100720008091190390911A039E012D5F3F4F69E05C
:10073000A9010E94E71A8091190390911A032B8155
:100740006981422F0E94471E80910D038A838A810E
:100750000F900F900F90CF91DF910895DF93CF937B
:10076000CDB7DEB70E948914CF91DF910895DF9352
:10077000CF93CDB7DEB7CF91DF910895DF93CF93BD
:1007800000D000D00F92CDB7DEB780910C038B83E1
:10079000E0915F03F0916003808191818430910545
:1007A000E1F485E08A838091190390911A039E01F8
:1007B0002C5F3F4F65E0A9010E94E71A81E00E948B
:1007C00032218091190390911A032C816A81422F62
:1007D0000E94471E80910D038B83E0915F03F0918F
:1007E00060038081918183309105E1F485E0898304
:1007F0008091190390911A039E012B5F3F4F65E092
:10080000A9010E94E71A80E00E9432218091190319
:1008100090911A032D816981422F0E94471E809179
:100820000D038B83E0915F03F091600380819181E0
:100830008630910519F480910D038B838B810F9085
:100840000F900F900F900F90CF91DF910895DF934D
:10085000CF93CDB7DEB70E947A1410923803CF91B0
:10086000DF910895DF93CF93CDB7DEB7CF91DF91BE
:100870000895DF93CF9300D00F92CDB7DEB78B836F
:10088000E0915F03F0916003808191818430910554
:10089000C9F486E089838091190390911A039E011F
:1008A0002E5F3F4F66E0A9010E94E71A809119036D
:1008B00090911A032A816981422F0E94471E8091DC
:1008C0000D038B838B810F900F900F90CF91DF9151
:1008D0000895DF93CF9300D00F92CDB7DEB780910C
:1008E0000C038A83E0915F03F09160038081918122
:1008F00089309105C9F486E089838091190390912C
:100900001A039E012D5F3F4F66E0A9010E94E71A7E
:100910008091190390911A032B816981422F0E94C3
:10092000471E80910D038A83E0915F03F09160037D
:10093000808191818630910539F40E942C100E94AB
:10094000411480910D038A838A810E9439048A832D
:100950008A810F900F900F90CF91DF910895DF93D0
:10096000CF93CDB7DEB70E946A0C0E94A70CCF913F
:10097000DF910895DF93CF93CDB7DEB70E94B70C18
:100980000E94960CCF91DF910895DF93CF9300D012
:1009900000D00F92CDB7DEB780910C038983E09130
:1009A0005F03F091600380819181009709F074C02A
:1009B00080913403909135039B838A83E0915F0398
:1009C000F09160038281282F332727FD30953D83E6
:1009D0002C838C819D818333910561F12C813D8134
:1009E000243331055CF48C819D8181339105B1F014
:1009F0002C813D8122333105B9F035C08C819D8138
:100A00008833910521F12C813D812933310529F16C
:100A10008C819D8187339105A1F025C08A819B81BE
:100A200001969B838A831FC08A819B810A969B8340
:100A30008A8319C08A819B818C599F4F9B838A83AB
:100A400012C08A819B8101979B838A830CC08A8113
:100A50009B810A979B838A8306C08A819B818456E7
:100A600090409B838A838A819B81992314F41B8203
:100A70001A828A819B8123E08B32920724F08AE2DA
:100A800093E09B838A838A819B810E94AC0A0E94A7
:100A9000F31380910D038983E0915F03F09160036C
:100AA000808191818630910529F40E94F313809111
:100AB0000D03898389810F900F900F900F900F90F5
:100AC000CF91DF910895DF93CF93CDB7DEB70E942A
:100AD000F41480E090E00E94AC0ACF91DF91089579
:100AE000DF93CF93CDB7DEB70E940A15CF91DF9188
:100AF0000895DF93CF9300D000D00F92CDB7DEB72B
:100B000080910C038B83E0915F03F09160038081FF
:100B1000918183309105C9F488E08A83809119031B
:100B200090911A039E012C5F3F4F68E0A9010E943B
:100B3000E71A8091190390911A032C816A81422F40
:100B40000E94471E80910D038B83E0915F03F0911B
:100B500060038081918184309105E9F488E0898384
:100B60008091190390911A039E012B5F3F4F68E01B
:100B7000A9010E94E71A0E94EC200E94BE208091E9
:100B8000190390911A032D816981422F0E94471EFB
:100B900080910D038B838B810F900F900F900F909E
:100BA0000F90CF91DF910895DF93CF93CDB7DEB74C
:100BB0000E94FF14CF91DF910895DF93CF93CDB7BB
:100BC000DEB70E940A15CF91DF910895DF93CF938E
:100BD00000D000D00F92CDB7DEB780910C038B838D
:100BE000E0915F03F09160038081918183309105F2
:100BF000C9F489E08A838091190390911A039E01B8
:100C00002C5F3F4F69E0A9010E94E71A8091190308
:100C100090911A032C816A81422F0E94471E809175
:100C20000D038B83E0915F03F091600380819181DC
:100C300084309105E9F489E08983809119039091CA
:100C40001A039E012B5F3F4F69E0A9010E94E71A3A
:100C50000E9405210E94D5208091190390911A03CA
:100C60002D816981422F0E94471E80910D038B8345
:100C70008B810F900F900F900F900F90CF91DF917D
:100C80000895DF93CF93CDB7DEB78FEF9FE70E9434
:100C90008A0D0E943A10CF91DF910895DF93CF9390
:100CA000CDB7DEB70E94A60D0E940A15CF91DF9145
:100CB0000895DF93CF9300D00F92CDB7DEB7809128
:100CC0000C038A83E0915F03F0916003808191813E
:100CD00087309105C9F48DE0898380911903909143
:100CE0001A039E012D5F3F4F6DE0A9010E94E71A94
:100CF0008091190390911A032B816981422F0E94E0
:100D0000471E80910D038A83E0915F03F091600399
:100D1000808191818530910539F48FEF9FE70E94A2
:100D20008A0D80910D038A83E0915F03F091600347
:100D3000808191818630910529F40E944410809130
:100D40000D038A838A810F900F900F90CF91DF91CE
:100D50000895DF93CF93CDB7DEB70E9453168FEF80
:100D60000E948C168FEF0E94BB16CF91DF910895E1
:100D7000DF93CF93CDB7DEB7CF91DF910895DF93A7
:100D8000CF9300D000D00F92CDB7DEB780910C0387
:100D90008B83E0915F03F0916003808191818330C8
:100DA0009105C9F48BE08A838091190390911A030D
:100DB0009E012C5F3F4F6BE0A9010E94E71A8091D2
:100DC000190390911A032C816A81422F0E94471EB9
:100DD00080910D038B83E0915F03F091600380812C
:100DE000918184309105C9F48CE089838091190345
:100DF00090911A039E012B5F3F4F6CE0A9010E9466
:100E0000E71A8091190390911A032D816981422F6D
:100E10000E94471E80910D038B838B810F900F9052
:100E20000F900F900F90CF91DF910895DF93CF93A4
:100E3000CDB7DEB70E946A1610925E0380915E0302
:100E40000E948C16CF91DF910895DF93CF93CDB799
:100E5000DEB78FEF0E948C16CF91DF910895DF935C
:100E6000CF93CDB7DEB729970FB6F894DEBF0FBE8C
:100E7000CDBF80910C038C83E0915F03F091600300
:100E80008081918184309105C9F48CE08B838091BD
:100E9000190390911A039E012B5F3F4F6CE0A9014B
:100EA0000E94E71A8091190390911A032D816B819A
:100EB000422F0E94471E80910D038C83E0915F03B7
:100EC000F09160038081918183309105C9F48AE0BB
:100ED0008A838091190390911A039E012A5F3F4FE4
:100EE0006AE0A9010E94E71A8091190390911A0300
:100EF0002E816A81422F0E94471E80910D038C83B0
:100F0000E0915F03F091600380819181009709F087
:100F10005FC0E0915F03F091600382818A330CF03F
:100F200057C0E0915F03F0916003828180330CF43D
:100F30004FC080915E03282F332727FD30953987D6
:100F40002887888599858130910589F0288539859C
:100F500022303105A1F088859985009769F5E091E7
:100F60005F03F091600382810E942B1525C0E09100
:100F70005F03F091600382810E9438151DC0E091EB
:100F80005F03F091600382810E9445158AE08983A6
:100F90008091190390911A039E01295F3F4F6AE0E7
:100FA000A9010E94E71A8091190390911A032F81D9
:100FB0006981422F0E94471E80915E038F5F80935C
:100FC0005E0380915E030E948C1680910D038C83DA
:100FD0008C8129960FB6F894DEBF0FBECDBFCF919E
:100FE000DF910895DF93CF93CDB7DEB70E947B16D4
:100FF00010925E0380915E030E94BB16CF91DF9139
:101000000895DF93CF93CDB7DEB78FEF0E94BB1665
:10101000CF91DF910895DF93CF93CDB7DEB72997B6
:101020000FB6F894DEBF0FBECDBF80910C038C834A
:10103000E0915F03F091600380819181833091059D
:10104000C9F48BE08B838091190390911A039E0160
:101050002B5F3F4F6BE0A9010E94E71A80911903B3
:1010600090911A032D816B81422F0E94471E80911F
:101070000D038C83E0915F03F09160038081918187
:1010800084309105C9F48AE08A8380911903909194
:101090001A039E012A5F3F4F6AE0A9010E94E71AE6
:1010A0008091190390911A032E816A81422F0E9428
:1010B000471E80910D038C83E0915F03F0916003E4
:1010C00080819181009709F085C0E0915F03F091E4
:1010D000600382818A330CF07DC0E0915F03F09160
:1010E0006003828180330CF475C080915E03282FE9
:1010F000332727FD30953987288788859985813062
:101100009105E9F028853985223031052CF4888550
:101110009985009761F052C02885398523303105C3
:10112000D9F0888599858430910559F147C0E091BF
:101130005F03F091600382810E9452153FC0E091ED
:101140005F03F091600382810E945F1580915E03CE
:101150008F5F80935E0332C0E0915F03F091600384
:101160008281863344F4E0915F03F09160038281D1
:101170000E946C1523C080915E03815080935E03B2
:101180001DC0E0915F03F091600382810E94791598
:101190008AE089838091190390911A039E01295F47
:1011A0003F4F6AE0A9010E94E71A809119039091CC
:1011B0001A032F816981422F0E94471E80915E038E
:1011C0008F5F80935E0380915E030E94BB168091C7
:1011D0000D038C838C8129960FB6F894DEBF0FBE69
:1011E000CDBFCF91DF910895DF93CF93CDB7DEB719
:1011F0008EE391E00E94C1250E944416809117035E
:10120000909118030E948A0D80915C0390915D0378
:101210000E94AC0A0E946A0C0E94A70CCF91DF9139
:101220000895DF93CF93CDB7DEB78CE491E00E94B1
:10123000C1250E94A60D0E94B70C0E94960C0E9428
:101240000A15CF91DF910895DF93CF9300D000D09E
:101250000F92CDB7DEB780910C038B83E0915F03D3
:10126000F09160038081918188309105C9F489E013
:101270008A838091190390911A039E012C5F3F4F3E
:1012800069E0A9010E94E71A8091190390911A035D
:101290002C816A81422F0E94471E80910D038B830F
:1012A000E0915F03F0916003808191818530910529
:1012B000C9F48EE089838091190390911A039E01ED
:1012C0002B5F3F4F6EE0A9010E94E71A809119033E
:1012D00090911A032D816981422F0E94471E8091AF
:1012E0000D038B83E0915F03F09160038081918116
:1012F0008630910549F40E9486150E94D4150E94FB
:10130000A91380910D038B83E0915F03F09160033B
:10131000808191818A30910511F40E94B2128B81F3
:101320000F900F900F900F900F90CF91DF91089535
:10133000DF93CF93CDB7DEB70E94FA16CF91DF913E
:101340000895DF93CF93CDB7DEB7CF91DF910895A6
:10135000DF93CF9300D00F92CDB7DEB780910C030F
:101360008A83E0915F03F0916003808191818330F3
:101370009105C9F489E089838091190390911A033A
:101380009E012D5F3F4F69E0A9010E94E71A8091FD
:10139000190390911A032B816981422F0E94471EE5
:1013A00080910D038A838A810F900F900F90CF91C7
:1013B000DF910895DF93CF93CDB7DEB70E94A014DD
:1013C000CF91DF910895DF93CF93CDB7DEB7CF9163
:1013D000DF910895DF93CF930F92CDB7DEB7809161
:1013E0000C03898389810F90CF91DF910895DF935A
:1013F000CF93CDB7DEB78AE393E090931A0380933F
:1014000019038AE393E029E531E0B90140E120E0E6
:101410000E94B619CF91DF910895DF93CF93CDB796
:10142000DEB78AE393E00E94FE19CF91DF91089521
:10143000DF93CF9300D000D0CDB7DEB79A838983F6
:101440007C836B838B819C819093600380935F038B
:1014500089819A810E946A1A0F900F900F900F90C5
:10146000CF91DF910895DF93CF9300D0CDB7DEB752
:10147000F89480916303909164039A8389837894AC
:1014800089819A810F900F90CF91DF910895DF931A
:10149000CF93CDB7DEB780916203882309F052C0A5
:1014A000E7E3F0E010828091340390913503181641
:1014B00019060CF047C020913403309135038AE2BD
:1014C00093E0821B930B9093660380936503809156
:1014D0006503909166038F30910534F48FE090E0BE
:1014E00090936603809365038091650390916603F2
:1014F0008C3F91057CF4E2EBF0E0809165039091E4
:101500006603982F8CEF891B8083109266031092DC
:1015100065030DC080916503909166038C5F9040D8
:101520009093660380936503E2EBF0E01082E0E7BE
:10153000F0E082E08083E1EBF0E085E0808381E011
:1015400080936203CF91DF910895DF93CF93CDB75E
:10155000DEB7CF91DF910895DF93CF9300D0CDB761
:10156000DEB79A838983F89489819A8190933503B1
:101570008093340378940F900F90CF91DF9108956A
:101580001F920F920FB60F9211242F933F934F93F8
:101590005F936F937F938F939F93AF93BF93EF93DB
:1015A000FF93DF93CF93CDB7DEB7F89480916503B7
:1015B000909166030097D9F4E1EBF0E01082E0E748
:1015C000F0E01082ABE2B0E0EBE2F0E0808180611D
:1015D0008C938AE090E00E94761FABE2B0E0EBE2F1
:1015E000F0E080818F7E8C931092620320C0809106
:1015F0006503909166038C3F91057CF4E2EBF0E08B
:101600008091650390916603982F8CEF891B8083EE
:1016100010926603109265030AC080916503909151
:1016200066038C5F90409093660380936503789483
:10163000CF91DF91FF91EF91BF91AF919F918F91EA
:101640007F916F915F914F913F912F910F900FBEBE
:101650000F901F9018951F920F920FB60F921124A2
:101660008F939F93EF93FF93DF93CF93CDB7DEB725
:10167000E8E7F0E0808191819093680380936703AD
:10168000809161038F5F80936103EAE7F0E087E078
:101690008083EAE7F0E08FEA8083ECE7F0E0808186
:1016A0008D3C21F481E08093580309C0809161034F
:1016B0008E3129F41092610381E080935803CF9119
:1016C000DF91FF91EF919F918F910F900FBE0F903F
:1016D0001F9018951F920F920FB60F9211242F93FF
:1016E0003F934F935F936F937F938F939F93AF93AA
:1016F000BF93EF93FF93DF93CF93CDB7DEB7F8940B
:10170000E9E2F0E08081882F90E08470907000978B
:1017100019F00E94A50A02C00E94470A7894CF914E
:10172000DF91FF91EF91BF91AF919F918F917F9149
:101730006F915F914F913F912F910F900FBE0F903E
:101740001F9018951F920F920FB60F921124DF93DE
:10175000CF93CDB7DEB7CF91DF910F900FBE0F9033
:101760001F9018951F920F920FB60F9211242F936E
:101770003F934F935F936F937F938F939F93AF9319
:10178000BF93EF93FF93DF93CF93CDB7DEB78091F5
:1017900063039091640301979093640380936303C0
:1017A00080916303909164031816190634F00E9427
:1017B000A60D81E08093320303C081E0809316037D
:1017C000CF91DF91FF91EF91BF91AF919F918F9159
:1017D0007F916F915F914F913F912F910F900FBE2D
:1017E0000F901F901895DF93CF93CDB7DEB7E1E24E
:1017F000F0E080EF8083E2E2F0E080EE8083EEE7CD
:10180000F0E08FE08083AAE2B0E0EAE2F0E08081DD
:1018100080618C93ABE2B0E0EBE2F0E080818F7E00
:101820008C93AAE2B0E0EAE2F0E080818B7F8C93B7
:10183000ABE2B0E0EBE2F0E080818B7F8C93E9E6F5
:10184000F0E081E08083EDE3F0E010821092160377
:10185000E0E8F0E01082E1E8F0E088E08083E2E890
:10186000F0E01082E8E8F0E080E39AE29183808380
:10187000E4E8F0E011821082EFE6F0E01082E4E4A8
:10188000F0E082E08083E7E4F0E08FEF8083E6E43D
:10189000F0E01082E5E4F0E01082EEE6F0E0108285
:1018A00010926203E0EBF0E082E08083E1EBF0E095
:1018B0001082E6EBF0E01082E3EBF0E08CEF808347
:1018C000E2EBF0E01082E0E7F0E010827894CF9154
:1018D000DF910895DF93CF93CDB7DEB7EAE7F0E06D
:1018E00087E080831092580310926103809159031E
:1018F000813029F4ECE7F0E081E4808304C0ECE778
:10190000F0E080E48083EAE7F0E08FEA8083EBE7B1
:10191000F0E083E08083E5E4F0E085E08083EEE6BC
:10192000F0E082E08083CF91DF910895DF93CF9341
:10193000CDB7DEB7EAE7F0E087E08083E5E4F0E0EA
:101940001082EEE6F0E01082CF91DF910895DF93F0
:10195000CF93CDB7DEB70E947E13ECE3F0E01082A8
:10196000EDE3F0E081E08083CF91DF910895DF9394
:10197000CF93CDB7DEB7EDE3F0E01082F8940E948C
:10198000A50A7894CF91DF910895DF93CF9300D08B
:10199000CDB7DEB7F89480916703909168039A837E
:1019A0008983789489819A810F900F90CF91DF91EC
:1019B0000895DF93CF9300D0CDB7DEB79A838983A4
:1019C00089819A8180709270009799F089819A81BB
:1019D00001979A83898389819A819C6F80959095DC
:1019E0009A83898389819A81909581959F4F9A8363
:1019F000898389819A810F900F90CF91DF9108950B
:101A0000DF93CF9300D0CDB7DEB70E94C50C9A8389
:101A1000898389819A810E94D90C9A8389838981DB
:101A20009A810F900F90CF91DF910895DF93CF931C
:101A300000D000D000D0CDB7DEB780E090E0A0E0CD
:101A4000B0E089839A83AB83BC83ECE7F0E08081CC
:101A50008D3C49F50E94000D9E838D838D819E8172
:101A6000AA2797FDA095BA2FBC01CD010E943A2369
:101A7000DC01CB01BC01CD012AE037ED43E250E4AB
:101A80000E94EE23DC01CB01BC01CD0120E030E05F
:101A900040EA55E40E949F22DC01CB0189839A83AE
:101AA000AB83BC8328C00E94C50C9E838D838D812F
:101AB0009E81AA2797FDA095BA2FBC01CD010E9457
:101AC0003A23DC01CB01BC01CD0120E030E040EA4B
:101AD00050E40E94EE23DC01CB01BC01CD0120E0EB
:101AE00030EC4FE754E40E949F22DC01CB01898354
:101AF0009A83AB83BC8389819A81AB81BC81BC0111
:101B0000CD0126960FB6F894DEBF0FBECDBFCF91A4
:101B1000DF910895DF93CF9300D0CDB7DEB79A83DE
:101B200089831092320389819A8190936403809310
:101B30006303EFE6F0E082E08083E1E8F0E08DE02F
:101B400080830F900F90CF91DF910895DF93CF9313
:101B5000CDB7DEB7E1E8F0E088E08083EFE6F0E0C3
:101B60001082CF91DF910895DF93CF9300D0CDB74E
:101B7000DEB71A821982E8E2F0E082E0808388E032
:101B800090E00E94761FE6E2F0E08081807F8A8309
:101B90008A81882329F18A81882314F482E3898346
:101BA0008A81992787FD909580749070009711F035
:101BB00080E389838A81992787FD90958072907050
:101BC000009711F088E389838A81992787FD909592
:101BD00080719070009709F49FC085E389839CC051
:101BE000E8E2F0E084E0808388E090E00E94761FE5
:101BF000E6E2F0E08081807F8A838A81882329F170
:101C00008A81882314F481E389838A81992787FD57
:101C1000909580749070009711F085E089838A8197
:101C2000992787FD909580729070009711F087E357
:101C300089838A81992787FD90958071907000979C
:101C400009F46AC084E3898367C0E8E2F0E088E0D1
:101C5000808388E090E00E94761FE6E2F0E08081D9
:101C6000807F8A838A81882321F18A81882314F4E2
:101C700083E389838A81992787FD9095807490708A
:101C8000009711F086E089838A81992787FD9095D6
:101C900080729070009711F089E389838A81992777
:101CA00087FD9095807190700097B1F186E38983EC
:101CB00033C0E8E2F0E081E0808388E090E00E94B9
:101CC000761FE6E2F0E08081807F8A838A81882324
:101CD00019F18A81882314F481E089838A81992704
:101CE00087FD909580749070009711F082E0898351
:101CF0008A81992787FD909580729070009711F0E6
:101D000083E089838A81992787FD909580719070FF
:101D1000009711F084E0898389810F900F90CF9113
:101D2000DF910895DF93CF93CDB7DEB710926903AB
:101D300081E080936A03E7E2F0E08FE08083E8E2ED
:101D4000F0E08FE08083EDE6F0E080EF8083A8E6AE
:101D5000B0E0E8E6F0E0808184608C937894CF91E5
:101D6000DF9108951F920F920FB60F9211242F93B7
:101D70003F934F935F936F937F938F939F93AF9313
:101D8000BF93EF93FF93DF93CF93CDB7DEB7E8E632
:101D9000F0E01082EDE6F0E01082E6E2F0E0808113
:101DA000882F90E0807F9070009759F080916A03AF
:101DB000882321F00E94B40D8093690310926A0376
:101DC00003C081E080936A03E8E2F0E08FE0808363
:101DD0000E946F1FEBE3F0E01082EDE6F0E080EF91
:101DE0008083A8E6B0E0E8E6F0E0808184608C9330
:101DF000CF91DF91FF91EF91BF91AF919F918F9123
:101E00007F916F915F914F913F912F910F900FBEF6
:101E10000F901F901895DF93CF930F92CDB7DEB739
:101E2000F894809169038983109269037894898179
:101E30000F90CF91DF910895DF93CF93CDB7DEB7A9
:101E400028970FB6F894DEBF0FBECDBF80E090E0BC
:101E5000ACE0B2E489839A83AB83BC8320915403C2
:101E60003091550380914E0390914F03A901481B77
:101E7000590BCA01AA2797FDA095BA2FBC01CD0125
:101E80000E943A23DC01CB018D839E83AF83B88708
:101E90008D819E81AF81B885BF77BC01CD0120E0E7
:101EA00030E040E85FE30E94EA231816ACF4698151
:101EB0007A818B819C812D813E814F8158850E9442
:101EC0009F22DC01CB0180936B0390936C03A09362
:101ED0006D03B0936E030CC080E090E0A0E0B0E032
:101EE00080936B0390936C03A0936D03B0936E0388
:101EF00028960FB6F894DEBF0FBECDBFCF91DF910D
:101F00000895DF93CF930F92CDB7DEB78983898190
:101F1000882341F0A2E2B0E0E2E2F0E080818F7736
:101F20008C9307C0A2E2B0E0E2E2F0E0808180683A
:101F30008C930F90CF91DF910895DF93CF930F9201
:101F4000CDB7DEB789838981882341F0A2E2B0E072
:101F5000E2E2F0E080818F7B8C9307C0A2E2B0E0E8
:101F6000E2E2F0E0808180648C930F90CF91DF916A
:101F70000895DF93CF930F92CDB7DEB78983898120
:101F8000882341F0A2E2B0E0E2E2F0E080818F7DC0
:101F90008C9307C0A2E2B0E0E2E2F0E080818062D0
:101FA0008C930F90CF91DF910895DF93CF9300D062
:101FB000CDB7DEB789836A8381E00E94810F898172
:101FC000882349F081E00E94B90F809120038F5F40
:101FD0008093200308C080E00E94B90F8091200305
:101FE00081508093200381E00E949D0F8A81882385
:101FF00019F080E00E949D0F80E00E94810F8A818D
:10200000882329F0809120030E941E2103C080E0D4
:102010000E949D0F80E00E94B90F0F900F90CF910A
:10202000DF910895DF93CF93CDB7DEB781E293E0E0
:1020300029E132E0B9014DE050E00E949C2581E0A9
:1020400080933603CF91DF910895DF93CF93CDB77F
:10205000DEB7CF91DF910895DF93CF93CDB7DEB791
:10206000CF91DF910895DF93CF93CDB7DEB7CF91B6
:10207000DF910895DF93CF93CDB7DEB781E08093F2
:102080009103CF91DF910895DF93CF93CDB7DEB762
:1020900080919103882311F40E942510809191036F
:1020A0008F5F8093910380919103863010F010929E
:1020B0009103CF91DF910895AF92BF92CF92DF92BB
:1020C000EF92FF920F931F93DF93CF93CDB7DEB7BD
:1020D00060970FB6F894DEBF0FBECDBF69837A83D9
:1020E0008B839C832D833E834F835887E986FA86B2
:1020F0000B871C87AD86BE86CF86D88A89819A8158
:10210000AB81BC818093730390937403A093750398
:10211000B09376038D819E81AF81B88580938903CA
:1021200090938A03A0938B03B0938C0389859A853F
:10213000AB85BC858093800390938103A093820339
:10214000B09383038D859E85AF85B88980936F0397
:1021500090937003A0937103B09372038D8D9E8D45
:10216000AF8DB8A18093840390938503A0938603D9
:10217000B093870360E070E080E89FE32D8D3E8D93
:102180004F8D58A10E949F22DC01CB0180937C03DC
:1021900090937D03A0937E03B0937F0380E090E053
:1021A000A0E0B0E08093920390939303A0939403F4
:1021B000B0939503109288030E941C0F80E090E07A
:1021C000A0E0B0E080938D0390938E03A0938F03E3
:1021D000B093900360960FB6F894DEBF0FBECDBFEC
:1021E000CF91DF911F910F91FF90EF90DF90CF90F3
:1021F000BF90AF900895EF92FF920F931F93DF93DC
:10220000CF93CDB7DEB760970FB6F894DEBF0FBEA1
:10221000CDBF6D877E878F87988B8D859E85AF8597
:10222000B889BF7720916F0330917003409171039B
:1022300050917203BC01CD010E949B2288234CF473
:1022400080E090E0A0E8BFE389879A87AB87BC87EE
:1022500014C080E090E0A0E0B0E089879A87AB8767
:10226000BC8780E090E0A0E0B0E080939203909380
:102270009303A0939403B09395038091840390916A
:102280008503A0918603B0918703BC01CD01298508
:102290003A854B855C850E94EE23DC01CB01BC01B5
:1022A000CD012D853E854F8558890E94EE23DC01A6
:1022B000CB0120919203309193034091940350916C
:1022C0009503BC01CD010E943722DC01CB01809334
:1022D000920390939303A0939403B09395038091FA
:1022E0008803882361F481E08093880380E090E094
:1022F000A0E0B0E089839A83AB83BC8322C02091A5
:1023000078033091790340917A0350917B036D8576
:102310007E858F8598890E943622DC01CB01209131
:102320007C0330917D0340917E0350917F03BC017B
:10233000CD010E94EE23DC01CB0189839A83AB831C
:10234000BC838D859E85AF85B889809378039093F3
:102350007903A0937A03B0937B03809189039091D2
:102360008A03A0918B03B0918C032091920330914A
:1023700093034091940350919503BC01CD010E94B9
:10238000EE23DC01CB01BC01CD012D853E854F85BF
:1023900058890E943722DC01CB017C018D0180919C
:1023A000800390918103A0918203B0918303BC01CB
:1023B000CD0129813A814B815C810E94EE23DC01B1
:1023C000CB019C01AD01C801B7010E943722DC019D
:1023D000CB012091730330917403409175035091A8
:1023E0007603BC01CD010E94EE23DC01CB018D837D
:1023F0009E83AF83B8878D819E81AF81B885BC01F4
:10240000CD0160960FB6F894DEBF0FBECDBFCF9161
:10241000DF911F910F91FF90EF900895DF93CF937D
:10242000CDB7DEB72E970FB6F894DEBF0FBECDBF87
:102430000E94C50C9E878D8720914E0330914F03DB
:102440008D859E85821B930BAA2797FDA095BA2F99
:10245000BC01CD010E943A23DC01CB0120916B032A
:1024600030916C0340916D0350916E03BC01CD011E
:102470000E94EE23DC01CB01BC01CD0120E030E065
:1024800040EA51E40E943722DC01CB0189879A8718
:10249000AB87BC8780916B0390916C03A0916D0317
:1024A000B0916E038D839E83AF83B88789859A85AB
:1024B000AB85BC8589839A83AB83BC8320914E0313
:1024C00030914F0340915403509155038DB79EB7FF
:1024D00040970FB6F8949EBF0FBE8DBFEDB7FEB705
:1024E000319686E292E0918380838D859E859383E9
:1024F00082838D819E81AF81B88584839583A683F5
:10250000B783318720875387428789819A81AB813E
:10251000BC8184879587A687B7870E94AC258DB735
:102520009EB740960FB6F8949EBF0FBE8DBF8985AB
:102530009A85AB85BC858093500390935103A093FB
:102540005203B093530389859A85AB85BC85BC0142
:10255000CD012E960FB6F894DEBF0FBECDBFCF9142
:10256000DF910895DF93CF93CDB7DEB72C970FB6E9
:10257000F894DEBF0FBECDBF0E940E12DC01CB016E
:1025800020911B0330911C0340911D0350911E03A9
:10259000BC01CD010E943622DC01CB0189879A87DC
:1025A000AB87BC8789859A85AB85BC85BC01CD018D
:1025B0000E94FB10DC01CB0120918D0330918E0332
:1025C00040918F0350919003BC01CD010E943722AE
:1025D000DC01CB018D839E83AF83B8876D817E81C3
:1025E0008F8198850E940723DC01CB019A83898320
:1025F00089819A81AA2797FDA095BA2FBC01CD01A8
:102600000E943A239B01AC016D817E818F81988568
:102610000E943622DC01CB0180938D0390938E03C0
:10262000A0938F03B093900320913403309135032E
:1026300089819A81820F931F9C838B838B819C81DC
:102640000E94AC0A2C960FB6F894DEBF0FBECDBF29
:10265000CF91DF910895AF92BF92CF92DF92EF9228
:10266000FF920F931F93DF93CF93CDB7DEB700D0C8
:1026700000D0EDB7FEB731968AEA93E1A6E3BFE357
:1026800080839183A283B38360E070E080E09FEB5E
:102690002DEC3CEC4CE45EE30F2EF8EBEF2EFEE16C
:1026A000FF2EF5E00F2FFEE31F2FF02D0F2EF0E091
:1026B000AF2EF0E0BF2EF0EACF2EF0E4DF2EF02DAB
:1026C0000E945C100F900F900F900F901092770364
:1026D0001092380380E00E94810F80E00E949D0FDD
:1026E00080E00E94B90FCF91DF911F910F91FF9071
:1026F000EF90DF90CF90BF90AF900895DF93CF938E
:10270000CDB7DEB780E090E0A0E0B0E080938D032D
:1027100090938E03A0938F03B093900380E090E09A
:10272000A0E0B0E08093920390939303A09394036E
:10273000B093950380E090E0A0E0B0E08093780350
:1027400090937903A0937A03B0937B03CF91DF91A9
:102750000895DF93CF93CDB7DEB72C970FB6F894DB
:10276000DEBF0FBECDBF0E94160DDC01CB018983F9
:102770009A83AB83BC838DB79EB708970FB6F89446
:102780009EBF0FBE8DBFEDB7FEB73196CE01059649
:10279000918380838FE492E09383828389819A81FD
:1027A000AB81BC8184839583A683B7830E94F62581
:1027B0008DB79EB708960FB6F8949EBF0FBE8DBF1B
:1027C00080E069E040E20E944602CE01059660E2A8
:1027D0000E9423022C960FB6F894DEBF0FBECDBF29
:1027E000CF91DF910895DF93CF93CDB7DEB7649794
:1027F0000FB6F894DEBF0FBECDBF0E94160DDC01F0
:10280000CB0189839A83AB83BC83209134033091BD
:1028100035038DB79EB70A970FB6F8949EBF0FBECB
:102820008DBFEDB7FEB73196CE01059691838083BB
:1028300086E592E09383828389819A81AB81BC8112
:1028400084839583A683B783318720870E94F625EA
:102850008DB79EB70A960FB6F8949EBF0FBE8DBF78
:1028600080E20E941302CE01059660E20E942302DC
:1028700064960FB6F894DEBF0FBECDBFCF91DF9147
:102880000895DF93CF93CDB7DEB760970FB6F89476
:10289000DEBF0FBECDBF80912003282F30E000D0D7
:1028A00000D000D0EDB7FEB73196CE0101969183EE
:1028B000808383E692E093838283358324830E941E
:1028C000F6258DB79EB706960FB6F8949EBF0FBE3D
:1028D0008DBF80E20E941302CE01019660E20E9449
:1028E000230260960FB6F894DEBF0FBECDBFCF9126
:1028F000DF910895DF93CF93CDB7DEB780E20E94DA
:1029000003028AE692E060E20E942302CF91DF9107
:102910000895DF93CF93CDB7DEB780E20E94030224
:1029200089E792E060E20E94230280E20E941302A3
:1029300080E892E060E20E942302CF91DF91089547
:10294000DF93CF93CDB7DEB780E20E9403028DE81C
:1029500092E060E20E94230280E20E94130281E280
:1029600093E060E20E942302CF91DF910895DF930C
:10297000CF9300D000D0CDB7DEB79C838B8380E2AD
:102980000E94030283E992E060E20E94230200D0E9
:1029900000D000D0EDB7FEB73196CE0101969183FD
:1029A000808388E992E0938382838B819C819583E5
:1029B00084830E94F6258DB79EB706960FB6F894CD
:1029C0009EBF0FBE8DBFCE01019660E20E94230222
:1029D0008CE992E060E20E9423020F900F900F902A
:1029E0000F90CF91DF910895DF93CF93CDB7DEB7EE
:1029F00084E190E00E94B714CF91DF910895DF93B6
:102A0000CF93CDB7DEB787E390E00E94B714CF91A4
:102A1000DF910895DF93CF93CDB7DEB780E20E94B8
:102A20000302CF91DF910895DF93CF93CDB7DEB747
:102A300080E20E94030287EA92E060E20E942302A1
:102A400080E20E94130288EB92E060E20E9423027F
:102A5000CF91DF910895DF93CF930F92CDB7DEB77B
:102A6000898389810E94DD1F0F90CF91DF910895A6
:102A7000DF93CF930F92CDB7DEB7898389810E9410
:102A8000F21F0F90CF91DF910895DF93CF930F92B4
:102A9000CDB7DEB7898389810E9407200F90CF913F
:102AA000DF910895DF93CF930F92CDB7DEB789837F
:102AB00089810E946A200F90CF91DF910895DF9362
:102AC000CF930F92CDB7DEB7898389810E947F2093
:102AD0000F90CF91DF910895DF93CF930F92CDB7F1
:102AE000DEB7898389810E9494200F90CF91DF9176
:102AF0000895DF93CF930F92CDB7DEB78983898195
:102B00000E94A9200F90CF91DF910895DF93CF937A
:102B1000CDB7DEB72C970FB6F894DEBF0FBECDBF92
:102B20008091500390915103A0915203B0915303AF
:102B300089839A83AB83BC838DB79EB708970FB602
:102B4000F8949EBF0FBE8DBFEDB7FEB73196CE0194
:102B500005969183808380EC92E0938382838981C0
:102B60009A81AB81BC8184839583A683B7830E94BD
:102B7000F6258DB79EB708960FB6F8949EBF0FBE88
:102B80008DBF81E060E040E20E944602CE010596E2
:102B900060E20E9423022C960FB6F894DEBF0FBEAF
:102BA000CDBFCF91DF9108951F93DF93CF93CDB722
:102BB000DEB761970FB6F894DEBF0FBECDBF0E949F
:102BC000330A99878887888599852CE330E0B90195
:102BD0000E947024CB01AA2797FDA095BA2F8C8361
:102BE0009D83AE83BF838C819D819B838A8318855F
:102BF0008C819D81AE81BF8124EC3FEF4FEF5FEF71
:102C0000BC01CD010E945124DC01CB01810F8983DD
:102C10008981282F332727FD30958DB79EB70897D8
:102C20000FB6F8949EBF0FBE8DBFEDB7FEB73196BD
:102C3000CE010A969183808387EC92E0938382830E
:102C40008A819B8195838483378326830E94F6251E
:102C50008DB79EB708960FB6F8949EBF0FBE8DBF76
:102C600081E069E040E20E944602CE010A9660E2FD
:102C70000E94230261960FB6F894DEBF0FBECDBF4F
:102C8000CF91DF911F910895DF93CF93CDB7DEB73A
:102C900080E20E94030280ED92E060E20E94230243
:102CA000CF91DF910895DF93CF93CDB7DEB780E268
:102CB0000E94030289ED92E060E20E94230280E21A
:102CC0000E94130281EE92E060E20E942302CF9103
:102CD000DF910895DF93CF93CDB7DEB780E060E05A
:102CE00040E20E94460280EF92E060E20E942302EE
:102CF000CF91DF910895DF93CF93CDB7DEB780E01A
:102D000060E040E20E94460288EF92E060E20E94AA
:102D10002302CF91DF910895DF93CF930F92CDB728
:102D2000DEB7898381E062E040E20E944602809142
:102D3000140360E20E948D0280915A0360E20E94B7
:102D40008D0280915B0360E20E948D02898188235D
:102D500064F0898183304CF489818E5F982F81E003
:102D6000692F40E20E94680202C00E9481020F9017
:102D7000CF91DF910895DF93CF930F92CDB7DEB758
:102D8000898381E068E040E20E944602809133033B
:102D900060E20E948D028091370360E20E948D0202
:102DA0008DE660E20E948D0280911F0360E20E9426
:102DB0008D028091390360E20E948D02898188230F
:102DC00064F0898185304CF48981885F982F81E097
:102DD000692F40E20E94680202C00E9481020F90A7
:102DE000CF91DF910895DF93CF93CDB7DEB7CF9129
:102DF000DF910895DF93CF93CDB7DEB780E20E94D5
:102E0000030283E093E060E20E94230280E20E94DA
:102E100013028AE093E060E20E942302CF91DF91E7
:102E20000895DF93CF9300D000D000D0CDB7DEB7A8
:102E30009E838D831C8250C1ED81FE814581568128
:102E40008C81882F90E09C01220F331FC901880FCD
:102E5000991F880F991F880F991F821B930BFA01E6
:102E6000E80FF91F14868BE090E09A8389833EC0B7
:102E7000ED81FE81458156818C81882F90E09C01F7
:102E8000220F331FC901880F991F880F991F880FC0
:102E9000991F821B930BBA01680F791FA981BA8110
:102EA000ED81FE81458156818C81882F90E09C01C7
:102EB000220F331FC901880F991F880F991F880F90
:102EC000991F821B930B9A01280F391F89819A81C0
:102ED0000197F901E80FF91F8081FB01EA0FFB1F41
:102EE000808389819A8101979A83898389819A81D4
:102EF000181619060CF4BCCFED81FE814581568170
:102F00008C81882F90E09C01220F331FC901880F0C
:102F1000991F880F991F880F991F821B930BFA0125
:102F2000E80FF91F8C818083ED81FE8145815681F8
:102F30008C81882F90E09C01220F331FC901880FDC
:102F4000991F880F991F880F991F821B930BFA01F5
:102F5000E80FF91F84858F5F84878C818B83A2C0E3
:102F60008BE090E09A8389833EC0ED81FE814581AC
:102F700056818C81882F90E09C01220F331FC9015C
:102F8000880F991F880F991F880F991F821B930B19
:102F9000BA01680F791FA981BA81ED81FE8145814F
:102FA00056818C81882F90E09C01220F331FC9012C
:102FB000880F991F880F991F880F991F821B930BE9
:102FC0009A01280F391F89819A810197F901E80F29
:102FD000F91F8081FB01EA0FFB1F808389819A81A1
:102FE00001979A83898389819A81181619060CF4AE
:102FF000BCCFED81FE81458156818C81882F90E088
:103000009C01220F331FC901880F991F880F991F38
:10301000880F991F821B930BDA01A80FB91FED814E
:10302000FE81428153818B81282F30E0C901880FB6
:10303000991F820F931F880F991F880F991FFA01FC
:10304000E80FF91F81818C93ED81FE8145815681C6
:103050008C81882F90E09C01220F331FC901880FBB
:10306000991F880F991F880F991F821B930BFA01D4
:10307000E80FF91F84858F5F8487ED81FE8142818F
:1030800053818B81282F30E0C901880F991F820F4F
:10309000931F880F991F880F991FFA01E80FF91FD6
:1030A00081818B83ED81FE81428153818B81282F29
:1030B00030E0C901880F991F820F931F880F991F55
:1030C000880F991FFA01E80FF91F81818F3F09F0DE
:1030D00047CF8C818F5F8C83ED81FE8191818C81C4
:1030E000891708F4A9CE26960FB6F894DEBF0FBE56
:1030F000CDBFCF91DF910895DF93CF9300D00F9292
:10310000CDB7DEB79B838A8319821BC0EA81FB811E
:10311000458156818981882F90E09C01220F331FC1
:10312000C901880F991F880F991F880F991F821B4B
:10313000930BFA01E80FF91F8FEF858789818F5F65
:103140008983EA81FB81918189818917F8F20F9047
:103150000F900F90CF91DF910895DF93CF9300D020
:1031600000D0CDB7DEB79B838A836C83EA81FB8175
:10317000428153818C81282F30E0C901880F991F2B
:10318000820F931F880F991F880F991FFA01E80F6C
:10319000F91F868197810097B9F0EA81FB8142810E
:1031A00053818C81282F30E0C901880F991F820F2D
:1031B000931F880F991F880F991FFA01E80FF91FB5
:1031C0000680F781E02D0995EA81FB8142815381D8
:1031D0008C81282F30E0C901880F991F820F931F1F
:1031E000880F991F880F991FFA01E80FF91F808532
:1031F00091850097B9F0EA81FB81428153818C81EE
:10320000282F30E0C901880F991F820F931F880F64
:10321000991F880F991FFA01E80FF91F0084F185A3
:10322000E02D0995EA81FB818C818483EA81FB8111
:10323000428153818C81282F30E0C901880F991F6A
:10324000820F931F880F991F880F991FFA01E80FAB
:10325000F91F828189837FC0EA81FB81428153818A
:103260008981282F332727FD3095C901880F991FA1
:10327000820F931F880F991F880F991FFA01E80F7B
:10328000F91F868197810097C9F0EA81FB8142810D
:1032900053818981282F332727FD3095C901880F55
:1032A000991F820F931F880F991F880F991FFA018A
:1032B000E80FF91F0680F781E02D0995EA81FB816F
:1032C000428153818981282F332727FD3095C901F9
:1032D000880F991F820F931F880F991F880F991FBE
:1032E000FA01E80FF91F808591850097C9F0EA81FE
:1032F000FB81428153818981282F332727FD309517
:10330000C901880F991F820F931F880F991F880F7B
:10331000991FFA01E80FF91F0084F185E02D099546
:103320008981EA81FB818483EA81FB814281538127
:103330008981282F332727FD3095C901880F991FD0
:10334000820F931F880F991F880F991FFA01E80FAA
:10335000F91F8281898389818F3F09F07DCF0F908A
:103360000F900F900F90CF91DF910895DF93CF933F
:1033700000D000D000D0CDB7DEB79A8389837C839C
:103380006B834D832E83E981FA818D818183E9816D
:10339000FA818B819C8193838283E981FA81818187
:1033A000882F90E09C01220F331FC901880F991FBD
:1033B000880F991F880F991F821B930B0E949724D7
:1033C000E981FA819683858389819A810E94111708
:1033D00089819A810E947C1889819A816E810E94DC
:1033E000AD18E981FA818FEF838B26960FB6F8949A
:1033F000DEBF0FBECDBFCF91DF910895DF93CF9396
:1034000000D0CDB7DEB79A838983E981FA818581BF
:1034100096810E9444250F900F90CF91DF910895DF
:10342000DF93CF9300D000D000D0CDB7DEB79C8320
:103430008B836D834E831A821A82EB81FC814581D6
:1034400056818E81882F90E09C01220F331FC90185
:10345000880F991F880F991F880F991F821B930B44
:10346000FA01E80FF91F84858150898326C0EB811A
:10347000FC81458156818E81882F90E09C01220F2E
:10348000331FC901880F991F880F991F880F991F33
:10349000821B930B9A01280F391F8981992787FD79
:1034A0009095F901E80FF91F90818D81981711F41B
:1034B00081E08A8389818150898389818823BCF650
:1034C0008A8126960FB6F894DEBF0FBECDBFCF918E
:1034D000DF910895DF93CF9300D000D00F92CDB746
:1034E000DEB79D838C83EC81FD818FEF838B8C8194
:1034F0009D81079660E070E04CE050E00E94A525B9
:103500001982EC81FD8184818A834FC0EC81FD8129
:1035100083898F5FEC81FD81838BEC81FD818389C1
:10352000282F332727FD30954A818C819D81820F7A
:10353000931FFC0137964083EC81FD8142815381CA
:103540008A81282F332727FD3095C901880F991FBD
:10355000820F931F880F991F880F991FFA01E80F98
:10356000F91F0480F581E02D09958B8390910D035F
:1035700019828B81891711F481E08983EC81FD81A7
:10358000428153818A81282F332727FD3095C90135
:10359000880F991F820F931F880F991F880F991FFB
:1035A000FA01E80FF91F81818A838A818F3F31F008
:1035B000898191E08927882309F0A8CF89810F901C
:1035C0000F900F900F900F90CF91DF910895DF93A0
:1035D000CF93CDB7DEB728970FB6F894DEBF0FBEF6
:1035E000CDBF9D838C836E8358874F838FEF8983F4
:1035F0001B821A8298C02A813B818C819D81820F17
:10360000931FFC01379680818983EC81FD81428183
:1036100053818981282F30E0C901880F991F820FBB
:10362000931F880F991F880F991FFA01E80FF91F40
:10363000828593850097B9F0EC81FD8142815381A9
:103640008981282F30E0C901880F991F820F931FAD
:10365000880F991F880F991FFA01E80FF91F02843C
:10366000F385E02D0995EF81F88589818083EC81D0
:10367000FD8162817381EC81FD8142815381898169
:10368000282F30E0C901880F991F820F931F880FE0
:10369000991F880F991FFA01E80FF91F8181282FC0
:1036A000332727FD3095C901880F991F820F931F7B
:1036B000880F991F880F991FFB01E80FF91F83815D
:1036C000882361F1EC81FD8165817681EC81FD814A
:1036D000428153818981282F30E0C901880F991FC9
:1036E000820F931F880F991F880F991FFA01E80F07
:1036F000F91F8181992787FD90959C01220F331F27
:10370000C901880F991F880F991F880F991F821B65
:10371000930BFB01E80FF91F898185878A819B81C3
:1037200001969B838A83EC81FD818389282F33272F
:1037300027FD30958A819B81281739070CF05BCFD4
:10374000EC81FD81428153818981282F30E0C901BC
:10375000880F991F820F931F880F991F880F991F39
:10376000FA01E80FF91F818189839EC0EC81FD81F8
:10377000428153818981282F30E0C901880F991F28
:10378000820F931F880F991F880F991FFA01E80F66
:10379000F91F828593850097B9F0EC81FD81428104
:1037A00053818981282F30E0C901880F991F820F2A
:1037B000931F880F991F880F991FFA01E80FF91FAF
:1037C0000284F385E02D0995EF81F8858981808356
:1037D000EC81FD81428153818981282F30E0C9012C
:1037E000880F991F820F931F880F991F880F991FA9
:1037F000FA01E80FF91F81818983EC81FD816281E3
:103800007381EC81FD81428153818981282F30E0D1
:10381000C901880F991F820F931F880F991F880F66
:10382000991FFA01E80FF91F8181282F332727FDFF
:103830003095C901880F991F820F931F880F991F18
:10384000880F991FFB01E80FF91F8381882361F11D
:10385000EC81FD8165817681EC81FD81428153811E
:103860008981282F30E0C901880F991F820F931F8B
:10387000880F991F880F991FFA01E80FF91F81819E
:10388000992787FD90959C01220F331FC901880F4E
:10389000991F880F991F880F991F821B930BFB019B
:1038A000E80FF91F8981858729818C819D81622F8D
:1038B0004E810E94101A982F81E08927882309F0F1
:1038C00055CF99818E81981709F089C0EC81FD81CF
:1038D000428153818981282F30E0C901880F991FC7
:1038E000820F931F880F991F880F991FFA01E80F05
:1038F000F91F828593850097B9F0EC81FD814281A3
:1039000053818981282F30E0C901880F991F820FC8
:10391000931F880F991F880F991FFA01E80FF91F4D
:103920000284F385E02D0995EC81FD8189818083F6
:10393000EC81FD8162817381EC81FD814281538143
:103940008981282F30E0C901880F991F820F931FAA
:10395000880F991F880F991FFA01E80FF91F8181BD
:10396000282F332727FD3095C901880F991F820F13
:10397000931F880F991F880F991FFB01E80FF91FEC
:103980008381882361F1EC81FD8165817681EC8101
:10399000FD81428153818981282F30E0C901880F40
:1039A000991F820F931F880F991F880F991FFA0183
:1039B000E80FF91F8181992787FD90959C01220FBF
:1039C000331FC901880F991F880F991F880F991FEE
:1039D000821B930BFB01E80FF91F898185872896CD
:1039E0000FB6F894DEBF0FBECDBFCF91DF91089523
:1039F000DF93CF9300D000D000D0CDB7DEB79C834B
:103A00008B836D834E838E818A83EB81FC816281FF
:103A10007381EB81FC81458156818D81882F90E0F7
:103A20009C01220F331FC901880F991F880F991F0E
:103A3000880F991F821B930B9A01280F391F8A81C7
:103A4000882F90E0F901E80FF91F8081282F332794
:103A500027FD3095C901880F991F820F931F880F8A
:103A6000991F880F991FFB01E80FF91F8085918529
:103A70000097A9F1EB81FC8162817381EB81FC816C
:103A8000458156818D81882F90E09C01220F331F44
:103A9000C901880F991F880F991F880F991F821BD2
:103AA000930B9A01280F391F8A81882F90E0F90122
:103AB000E80FF91F8081282F332727FD3095C90192
:103AC000880F991F820F931F880F991F880F991FC6
:103AD000FB01E80FF91F0084F185E02D09958A812B
:103AE0008F5F8A838A81682F70E0EB81FC8145813A
:103AF00056818D81882F90E09C01220F331FC901D0
:103B0000880F991F880F991F880F991F821B930B8D
:103B1000FA01E80FF91F8485992787FD9095019791
:103B2000861797070CF071CF8D81898375C0EB8163
:103B3000FC81458156818981882F90E09C01220F6C
:103B4000331FC901880F991F880F991F880F991F6C
:103B5000821B930BFA01E80FF91F85858F3FC9F08F
:103B6000EB81FC81458156818981882F90E09C0101
:103B7000220F331FC901880F991F880F991F880FC3
:103B8000991F821B930BFA01E80FF91F8585898322
:103B900015C0EB81FC81428153818981282F30E05F
:103BA000C901880F991F820F931F880F991F880FD3
:103BB000991FFA01E80FF91F82818983EB81FC814B
:103BC000428153818981282F30E0C901880F991FD4
:103BD000820F931F880F991F880F991FFA01E80F12
:103BE000F91F808591850097B9F0EB81FC814281B6
:103BF00053818981282F30E0C901880F991F820FD6
:103C0000931F880F991F880F991FFA01E80FF91F5A
:103C10000084F185E02D0995EB81FC814581568179
:103C20008981882F90E09C01220F331FC901880FE2
:103C3000991F880F991F880F991F821B930BFA01F8
:103C4000E80FF91F85858F3F09F071CFEB81FC816B
:103C5000428153818981282F30E0C901880F991F43
:103C6000820F931F880F991F880F991FFA01E80F81
:103C7000F91F82818F3F09F05ACF898126960FB6AE
:103C8000F894DEBF0FBECDBFCF91DF910895DF93D3
:103C9000CF93CDB7DEB728970FB6F894DEBF0FBE2F
:103CA000CDBF9E838D836F8348878FEF8C8328855C
:103CB0008D819E81622F4F810E94101A882309F402
:103CC0004CC01B822EC0ED81FE81458156818F81C3
:103CD000882F90E09C01220F331FC901880F991F84
:103CE000880F991F880F991F821B930B9A01280F29
:103CF000391F8B81992787FD9095F901E80FF91FEE
:103D00008081282F332727FD30958885882F90E0E4
:103D10002817390719F48B818C83CEC08B818F5F74
:103D20008B83ED81FE81458156818F81882F90E0C4
:103D30009C01220F331FC901880F991F880F991FFB
:103D4000880F991F821B930BFA01E80FF91F9485C6
:103D50008B8189170CF4B7CFAFC0ED81FE8145810F
:103D600056818F81882F90E09C01220F331FC9015B
:103D7000880F991F880F991F880F991F821B930B1B
:103D8000FA01E80FF91F6485ED81FE8145815681B6
:103D9000ED81FE818081882F90E09C01220F331FEE
:103DA000C901880F991F880F991F880F991F821BBF
:103DB000930BFA01E80FF91F84858617D4F4ED817F
:103DC000FE81458156818885882F90E09C01220FD5
:103DD000331FC901880F991F880F991F880F991FDA
:103DE000821B930BFA01E80FF91F848581508983A8
:103DF00019C0ED81FE81458156818F81882F90E029
:103E00009C01220F331FC901880F991F880F991F2A
:103E1000880F991F821B930BFA01E80FF91F848505
:103E2000815089831A8243C08A818C83ED81FE810F
:103E3000458156818885882F90E09C01220F331F91
:103E4000C901880F991F880F991F880F991F821B1E
:103E5000930B9A01280F391F8A81992787FD909526
:103E6000F901E80FF91F6081ED81FE8145815681DE
:103E70008F81882F90E09C01220F331FC901880F8A
:103E8000991F880F991F880F991F821B930B9A0106
:103E9000280F391F8A81992787FD9095F901E80F2E
:103EA000F91F8081681741F48A818F5F8A839A8124
:103EB000898189170CF0B8CF2C818D819E816F810B
:103EC000422F0E94F81CED81FE81848328960FB654
:103ED000F894DEBF0FBECDBFCF91DF910895DF9381
:103EE000CF93CDB7DEB7CF91DF910895DF93CF9316
:103EF00000D000D0CDB7DEB79B838A8319821C82A5
:103F00008A819B81009711F081E08C838A819B815B
:103F100001979B838A838C81882389F70F900F9068
:103F20000F900F90CF91DF910895DF93CF93CDB78E
:103F3000DEB780911403282F332727FD309584E6C0
:103F400090E0AC01249FC001259F900D349F900DFF
:103F50001124AC01405C524180915A03992787FD9E
:103F600090959C01220F331FC901880F991F880F5C
:103F7000991F820F931F805E91409A01280F391F6D
:103F800080915B03992787FD9095C097820F931FBF
:103F9000AA2797FDA095BA2FBC01CD010E943A2314
:103FA000DC01CB0180931B0390931C03A0931D03A2
:103FB000B0931E03CF91DF910895DF93CF930F92BB
:103FC000CDB7DEB78983298184E090E0622F0E941B
:103FD00005288981809314030E94951F0F90CF912B
:103FE000DF910895DF93CF930F92CDB7DEB789832A
:103FF000298185E090E0622F0E94052889818093C5
:104000005A030E94951F0F90CF91DF910895DF937F
:10401000CF930F92CDB7DEB78983298186E090E0F8
:10402000622F0E940528898180935B030E94951F5F
:104030000F90CF91DF910895DF93CF93CDB7DEB787
:1040400080913303282F332727FD309588E592E0B0
:10405000AC01249FC001259F900D349F900D112429
:10406000AC014058504780913703282F332727FD54
:1040700030958CE390E0BC01269FC001279F900DF6
:10408000369F900D112480549B40480F591F8091FA
:104090001F03992787FD90959C01220F331FC901AB
:1040A000880F991F880F991F820F931F805E914080
:1040B0009A01280F391F80913903992787FD909520
:1040C000C097820F931F9093180380931703CF918B
:1040D000DF910895DF93CF930F92CDB7DEB7898339
:1040E000298187E090E0622F0E94052889818093D2
:1040F00033030E941C200F90CF91DF910895DF932E
:10410000CF930F92CDB7DEB78983298188E090E005
:10411000622F0E9405288981809337030E941C200A
:104120000F90CF91DF910895DF93CF930F92CDB78A
:10413000DEB78983298189E090E0622F0E940528FB
:10414000898180931F030E941C200F90CF91DF91E3
:104150000895DF93CF930F92CDB7DEB7898329817E
:104160008AE090E0622F0E940528898180933903BC
:104170000E941C200F90CF91DF910895DF93CF9381
:10418000CDB7DEB70E94C50C90934F0380934E03CA
:1041900080914E0390914F039C018BE090E0B90118
:1041A0000E941328CF91DF910895DF93CF93CDB76D
:1041B000DEB70E94C50C9093550380935403809101
:1041C0005403909155039C018DE090E0B9010E9449
:1041D0001328CF91DF910895DF93CF93CDB7DEB74A
:1041E000809134039091350390935D0380935C0339
:1041F00080915C0390915D039C018FE090E0B90198
:104200000E941328CF91DF910895DF93CF93CDB70C
:10421000DEB78091340390913503909357038093D8
:10422000560380915603909157039C0181E190E0E1
:10423000B9010E941328CF91DF910895DF93CF93A6
:104240000F92CDB7DEB789838981809320032091B7
:10425000200383E190E0622F0E9405280F90CF9108
:10426000DF910895DF93CF930F92CDB7DEB78983A7
:104270008981809359032091590384E190E0622F52
:104280000E9405280F90CF91DF910895DF93CF937F
:10429000CDB7DEB784E090E00E94F7278093140347
:1042A00080911403803324F0809114038A331CF02E
:1042B00080E30E94DD1F85E090E00E94F727809355
:1042C0005A0380915A03803324F080915A038A3331
:1042D0001CF080E30E94F21F86E090E00E94F72726
:1042E00080935B0380915B03803324F080915B03B8
:1042F0008A331CF080E30E94072087E090E00E9450
:10430000F7278093330380913303803324F0809127
:1043100033038A331CF080E30E946A2088E090E037
:104320000E94F7278093370380913703803324F06E
:10433000809137038A331CF080E30E947F2089E05C
:1043400090E00E94F72780931F0380911F03803322
:1043500024F080911F0386331CF080E30E94942098
:104360008AE090E00E94F727809339038091390317
:10437000803324F0809139038A331CF080E30E945B
:10438000A9200E941C200E94951F8BE090E00E94B3
:10439000FF2790934F0380934E0380914E0390919B
:1043A0004F032FEF8F3F920721F410924F0310928B
:1043B0004E038DE090E00E94FF2790935503809379
:1043C000540380915403909155032FEF8F3F920730
:1043D00021F410925503109254038FE090E00E9454
:1043E000FF2790935D0380935C0380915C03909121
:1043F0005D032FEF8F3F920721F410925D0310921F
:104400005C0381E190E00E94FF2790935703809323
:10441000560380915603909157032FEF8F3F9207D9
:1044200021F4109257031092560383E190E00E940A
:10443000F7278093200380912003853618F080E0D1
:104440000E941E2184E190E00E94F7278093590387
:1044500080915903823018F080E00E94322110923E
:10446000150310923603CF91DF9108955058BB2762
:10447000AA270ED075C166D130F06BD120F031F48F
:104480009F3F11F41EF45BC10EF4E095E7FB51C1B0
:10449000E92F77D180F3BA1762077307840795076E
:1044A00018F071F49EF58FC10EF4E0950B2EBA2F23
:1044B000A02D0B01B90190010C01CA01A00111242A
:1044C000FF27591B99F0593F50F4503E68F11A16D6
:1044D000F040A22F232F342F4427585FF3CF469567
:1044E00037952795A795F0405395C9F77EF41F1689
:1044F000BA0B620B730B840BBAF09150A1F0FF0F53
:10450000BB1F661F771F881FC2F70EC0BA0F621F3E
:10451000731F841F48F4879577956795B795F7952E
:104520009E3F08F0B3CF9395880F08F09927EE0FC0
:10453000979587950895D9D008F481E008950CD017
:104540000FC107D140F0FED030F021F45F3F19F0E9
:10455000F0C0511139C1F3C014D198F39923C9F3B4
:104560005523B1F3951B550BBB27AA276217730779
:10457000840738F09F5F5F4F220F331F441FAA1F2D
:10458000A9F333D00E2E3AF0E0E830D091505040ED
:10459000E695001CCAF729D0FE2F27D0660F771F9B
:1045A000881FBB1F261737074807AB07B0E809F07D
:1045B000BB0B802DBF01FF2793585F4F2AF09E3F12
:1045C000510568F0B6C000C15F3FECF3983EDCF3E4
:1045D000869577956795B795F7959F5FC9F7880F8B
:1045E000911D9695879597F90895E1E0660F771FDD
:1045F000881FBB1F621773078407BA0720F0621B6E
:10460000730B840BBA0BEE1F88F7E095089504D066
:104610006894B111D9C00895BCD088F09F5790F02C
:10462000B92F9927B751A0F0D1F0660F771F881FD7
:10463000991F1AF0BA95C9F712C0B13081F0C3D0F2
:10464000B1E00895C0C0672F782F8827B85F39F090
:10465000B93FCCF3869577956795B395D9F73EF436
:1046600090958095709561957F4F8F4F9F4F0895DE
:10467000E89409C097FB3EF49095809570956195FC
:104680007F4F8F4F9F4F9923A9F0F92F96E9BB27B2
:104690009395F695879577956795B795F111F8CF2E
:1046A000FAF4BB0F11F460FF1BC06F5F7F4F8F4F99
:1046B0009F4F16C0882311F096E911C0772321F08F
:1046C0009EE8872F762F05C0662371F096E8862F27
:1046D00070E060E02AF09A95660F771F881FDAF77E
:1046E000880F9695879597F90895990F0008550FAB
:1046F000AA0BE0E8FEEF16161706E807F907C0F068
:1047000012161306E407F50798F0621B730B840B6F
:10471000950B39F40A2661F0232B242B252B21F449
:1047200008950A2609F4A140A6958FEF811D811DE9
:10473000089597F99F6780E870E060E008959FEF23
:1047400080EC089500240A94161617061806090628
:10475000089500240A9412161306140605060895F7
:10476000092E0394000C11F4882352F0BB0F40F47F
:10477000BF2B11F460FF04C06F5F7F4F8F4F9F4FBF
:10478000089557FD9058440F551F59F05F3F71F041
:104790004795880F97FB991F61F09F3F79F08795A8
:1047A0000895121613061406551FF2CF4695F1DF31
:1047B00008C0161617061806991FF1CF86957105C1
:1047C000610508940895E894BB2766277727CB01F5
:1047D00097F908958ADF08F48FEF08950BD0C0CFC2
:1047E000B1DF28F0B6DF18F0952309F0A2CFA7CFEC
:1047F0001124EACFC6DFA0F3959FD1F3950F50E0C7
:10480000551F629FF001729FBB27F00DB11D639F82
:10481000AA27F00DB11DAA1F649F6627B00DA11D28
:10482000661F829F2227B00DA11D621F739FB00DCE
:10483000A11D621F839FA00D611D221F749F33273E
:10484000A00D611D231F849F600D211D822F762FD7
:104850006A2F11249F5750408AF0E1F088234AF0D4
:10486000EE0FFF1FBB1F661F771F881F9150504020
:10487000A9F79E3F510570F05CCFA6CF5F3FECF3E8
:10488000983EDCF3869577956795B795F795E7950C
:104890009F5FC1F7FE2B880F911D9695879597F91D
:1048A0000895629FD001739FF001829FE00DF11D7A
:1048B000649FE00DF11D929FF00D839FF00D749F9A
:1048C000F00D659FF00D9927729FB00DE11DF91F46
:1048D000639FB00DE11DF91FBD01CF0111240895A3
:1048E00097FB092E07260AD077FD04D00CD006D0FE
:1048F00000201AF4709561957F4F0895F6F7909512
:1049000081959F4F0895AA1BBB1B51E107C0AA1FA9
:10491000BB1FA617B70710F0A61BB70B881F991F60
:104920005A95A9F780959095BC01CD010895CF9334
:10493000DF93BC018230910510F462E070E0A09139
:104940009803B0919903ED01E0E0F0E040E050E021
:1049500021C0888199818617970769F48A819B8194
:10496000309719F09383828304C0909399038093C6
:104970009803FE0134C06817790738F441155105D2
:1049800019F08417950708F4AC01FE018A819B8118
:104990009C01E9012097E9F641155105A9F1CA01E9
:1049A000861B970B049708F4BA01E0E0F0E02AC0F8
:1049B0008D919C91119784179507F9F464177507E9
:1049C00081F412968D919C911397309719F09383EF
:1049D000828304C09093990380939803FD013296DB
:1049E0004FC0CA01861B970BFD01E80FF91F6193A9
:1049F000719302978D939C9343C0FD0182819381B3
:104A00009C01D9011097A1F680919603909197038C
:104A1000892B41F480911003909111039093970397
:104A20008093960340911203509113034115510551
:104A300041F44DB75EB780910E0390910F03481B70
:104A4000590B209196033091970324173507B0F442
:104A5000CA01821B930B8617970780F0AB014E5F4C
:104A60005F4F8417950750F0420F531F50939703E1
:104A700040939603F9016193719302C0E0E0F0E086
:104A8000CF01DF91CF910895CF93DF93009709F481
:104A900050C0EC0122971B821A82A0919803B0911A
:104AA0009903109709F140E050E0AC17BD0708F1F9
:104AB000BB83AA83FE0121913191E20FF31FAE1750
:104AC000BF0779F48D919C911197280F391F2E5FA4
:104AD0003F4F3983288312968D919C9113979B8326
:104AE0008A834115510571F4D0939903C0939803BB
:104AF00020C012968D919C911397AD01009711F0F3
:104B0000DC01D3CFFA01D383C28321913191E20F2B
:104B1000F31FCE17DF0769F488819981280F391FA9
:104B20002E5F3F4FFA01318320838A819B819383DB
:104B30008283DF91CF910895FB01DC0102C00190D7
:104B40000D9241505040D8F70895DC0101C06D939B
:104B500041505040E0F70895A0E0B0E0E2EBF5E20C
:104B60000C94D828FE0135966191719180919C0337
:104B700090919D03AF010E941A262096E2E00C94CA
:104B8000F4280F931F93CF93DF938C01E0919C0344
:104B9000F0919D03838181FF21C0C0E0D0E00DC072
:104BA000E0919C03F0919D0320853185BF01F901BF
:104BB0000995892B11F0CFEFDFEFF80181918F017B
:104BC000882371F7E0919C03F0919D032085318546
:104BD0008AE0BF01F9010995892B11F0CFEFDFEFD2
:104BE000CE01DF91CF911F910F910895AEE0B0E01B
:104BF000ECEFF5E20C94D6280D891E8986E08C83B3
:104C00001A8309838FEF9FE79E838D839E01275E22
:104C10003F4FCE0101966F89788DA9010E941A2617
:104C20002F813885020F131FF80110822E96E4E0C1
:104C30000C94F228ABE0B0E0E0E2F6E20C94C82875
:104C40003C012B015A01FC0117821682838181FDF0
:104C500003C06FEF7FEFC6C19AE0892E1E01089452
:104C6000211C311CF3012381F20123FD859123FFD7
:104C700081912F01882309F4B2C1853239F423FDD3
:104C8000859123FF81912F01853229F490E0B301B2
:104C90000E942E28E7CF982FFF24EE249924FFE1CD
:104CA000FF15D0F09B3269F09C3228F4903259F015
:104CB000933291F40EC09D3249F0903369F441E093
:104CC00024C052E0F52A84E0F82A28C098E0F92AA6
:104CD00025C0E0E1FE2A22C0F7FC29C0892F8053BD
:104CE0008A3070F4F6FE05C0989C902C1124980E22
:104CF00015C0E89CE02C1124E80EF0E2FF2A0EC05B
:104D00009E3229F4F6FC6BC140E4F42A07C09C36BD
:104D100019F450E8F52A02C0983649F4F20123FD4F
:104D2000959123FF91912F01992309F0B8CF892FF5
:104D30008554833018F08052833038F444E050E0DA
:104D4000A40EB51E5FE359830FC0933631F093373D
:104D500079F0933509F056C020C0F5018081898330
:104D600042E050E0A40EB51E610101E010E012C067
:104D7000F501C080D180F6FC03C06FEF7FEF02C069
:104D8000692D70E042E050E0A40EB51EC6010E94FD
:104D900023288C015FE7F52214C0F501C080D18083
:104DA000F6FC03C06FEF7FEF02C0692D70E042E0B8
:104DB00050E0A40EB51EC6010E9418288C0150E8D0
:104DC000F52AF3FE07C01AC080E290E0B3010E940A
:104DD0002E28EA948E2D90E008171907A8F30EC02C
:104DE000F601F7FC8591F7FE81916F0190E0B30128
:104DF0000E942E28E110EA9401501040011511057F
:104E000079F7EAC0943611F0993669F5F7FE08C0D3
:104E1000F501208131814281538184E090E00AC014
:104E2000F501808191819C01442737FD4095542FE5
:104E300082E090E0A80EB91E9FE6F92257FF09C054
:104E400050954095309521953F4F4F4F5F4FE0E88B
:104E5000FE2ACA01B901A1012AE030E00E945A28C5
:104E6000D82ED21840C0953729F41F2D1F7E2AE076
:104E700030E01DC01F2D197F9F3661F0903720F460
:104E8000983509F0ACC00FC0903739F0983709F069
:104E9000A6C004C028E030E00AC0106114FD146010
:104EA00020E130E004C014FD166020E132E017FF7D
:104EB00008C0F501608171818281938144E050E0F6
:104EC00008C0F50180819181BC0180E090E042E062
:104ED00050E0A40EB51EA1010E945A28D82ED21867
:104EE0008FE7F82EF122F6FE0BC05EEFF522D91403
:104EF00038F4F4FE07C0F2FC05C08FEEF82202C0C1
:104F00001D2D01C0192DF4FE0DC0FE01ED0DF11D8A
:104F10008081803319F499EEF92208C01F5FF2FEF8
:104F200005C003C08F2D867809F01F5F0F2DF3FC9D
:104F300014C0F0FE0FC01E1510F09D2C0BC09D2C50
:104F40009E0C911A1E2D06C080E290E0B3010E94D3
:104F50002E281F5F1E15C0F304C01E1510F4E11AA1
:104F600001C0EE2404FF0FC080E390E0B3010E9473
:104F70002E2802FF1DC001FD03C088E790E00EC08F
:104F800088E590E00BC0802F867891F001FF02C089
:104F90008BE201C080E2F7FC8DE290E0B3010E9459
:104FA0002E2806C080E390E0B3010E942E289A9438
:104FB000D914C0F3DA94F101ED0DF11D808190E078
:104FC000B3010E942E28DD20A9F706C080E290E000
:104FD000B3010E942E28EA94EE20C1F743CEF301DC
:104FE00066817781CB012B96E2E10C94E428F99954
:104FF000FECF92BD81BDF89A992780B50895A8E1AA
:10500000B0E042E050E00C94BA28262FF999FECF88
:105010001FBA92BD81BD20BD0FB6F894FA9AF99AD5
:105020000FBE019608950E940528272F0C9406288C
:10503000FC010590615070400110D8F78095909563
:105040008E0F9F1F0895FC01615070400190011068
:10505000D8F7809590958E0F9F1F08950F931F93FB
:10506000CF93DF938C01EB018B8181FF1BC082FF0B
:105070000DC02E813F818C819D812817390764F4F2
:10508000E881F9810193F983E88306C0E885F98511
:10509000802F0995892B31F48E819F8101969F8302
:1050A0008E8302C00FEF1FEFC801DF91CF911F91D8
:1050B0000F910895FA01AA27283051F1203181F18A
:1050C000E8946F936E7F6E5F7F4F8F4F9F4FAF4F10
:1050D000B1E03ED0B4E03CD0670F781F891F9A1F23
:1050E000A11D680F791F8A1F911DA11D6A0F711DD7
:1050F000811D911DA11D20D009F468943F912AE0E3
:10510000269F11243019305D3193DEF6CF010895CA
:10511000462F4770405D4193B3E00FD0C9F7F6CFFB
:10512000462F4F70405D4A3318F0495D31FD4052C3
:10513000419302D0A9F7EACFB4E0A6959795879559
:1051400077956795BA95C9F7009761057105089538
:105150009B01AC010A2E06945795479537952795E4
:10516000BA95C9F7620F731F841F951FA01D08957C
:10517000DC01CB01FC01F999FECF06C0F2BDE1BD17
:10518000F89A319600B40D9241505040B8F7089506
:105190002F923F924F925F926F927F928F929F9247
:1051A000AF92BF92CF92DF92EF92FF920F931F9335
:1051B000CF93DF93CDB7DEB7CA1BDB0B0FB6F894E6
:1051C000DEBF0FBECDBF09942A88398848885F8426
:1051D0006E847D848C849B84AA84B984C884DF8097
:1051E000EE80FD800C811B81AA81B981CE0FD11D7B
:1051F0000FB6F894DEBF0FBECDBFED010895F89451
:02520000FFCFDE
:1052020000000002000000008300000000000A53BA
:1052120054415254555000656E7472792041736B3B
:10522200466F7243616C6962726174696F6E006588
:105232007869742061736B2063616C696200656ECA
:105242007472792052756E6E696E67006578697442
:105252002052756E6E696E670000FF01009F0200AA
:10526200000000000001000200A80200000000008F
:10527200000201FF00FA020000DA02EB020301045D
:10528200007C030000680373030403FF00BE0300F5
:1052920000AE03B7030503FF0069040000270432D0
:1052A2000406030700C5040000AF04BA040706FFA2
:1052B2000079050000630570050806FF00E6050099
:1052C20000D405DD0509010A005906000041064E19
:1052D200060A09FF00BF060000A906B8060B09FF6F
:1052E200002F070000160725070C09FF000B080016
:1052F20000F20701080D01FF0024090000F4081163
:10530200090E01FF00A80900009809A1090F00FF7A
:1053120000EA090000DA09E3096F7574206F66205C
:105322003020506F730061646341202569206772E9
:1053320061642025662063616C6F77202569206394
:10534200616869202569207265732025660A002537
:10535200352E3266560025352E32665620253569A1
:105362002044002025356920500063616C69622069
:105372005A65726F20202C230073656C656374007C
:10538200524D53202A2C204156522023004572723E
:105392006F72005365742000253269004120232C6E
:1053A2002A20536B69700043616C69627261746593
:1053B2003F202A3D596573006F722077616974003E
:1053C20025352E316641002533696D25303269005D
:1053D20052756E6E696E6720004120202020205495
:1053E200002A2020202020232020202020202000EE
:1053F200416D7073202054004120202020205469E8
:105402006D65004A6F62204F4B002A0080402000E9
:04541200A0030000F3
:00000001FF
