:100000000C94BF000C94740C0C94DC000C94DC0079
:100010000C94DC000C94DC000C94AB0F0C94DC0012
:100020000C94DC000C94DB0B0C94DC000C94DC00D6
:100030000C94DC000C94BC0C0C94DC000C94DC00E4
:100040000C94AC0C0C94DC000C94DC000C94DC00E4
:100050000C94DC000C94DC000C94DC000C94DC00B0
:100060000C94460C0C94DC000C94F3240C94DC00EF
:100070000C94DC000C94DC000C94DC006E616E00CF
:10008000696E660000407A10F35A00A0724E18099B
:100090000010A5D4E80000E87648170000E40B54EF
:1000A000020000CA9A3B000000E1F50500008096BE
:1000B0009800000040420F000000A08601000000F0
:1000C000102700000000E8030000000064000000AA
:1000D00000000A00000000000100000000002C7673
:1000E000D888DC674F0823DFC1DFAE59E1B1B7968E
:1000F000E5E3E453C63AE651997696E8E6C28426EB
:10010000EB898C9B62ED407C6FFCEFBC9C9F40F2C6
:10011000BAA56FA5F490055A2AF75C936B6CF96742
:100120006DC11BFCE0E40D47FEF520E6B500D0ED07
:10013000902E0300943577050080841E080000206F
:100140004E0A000000C80C333333330F986E12830D
:100150001141EF8D2114893BE65516CFFEE6DB18E1
:10016000D1844B381BF77C1D901DA4BBE4242032A6
:1001700084725E228100C9F124ECA1E53D2711249F
:100180001FBEC0E0D8E0DEBFCDBF14E0A0E0B1E00C
:10019000ECE5F0E602C005900D92A63DB107D9F757
:1001A00015E0A6EDB4E001C01D92A338B107E1F758
:1001B0000E942B010C942C300C940000DF93CF9301
:1001C00000D0CDB7DEB79A838983E5ECF0E0898172
:1001D0009A81892F99278083E4ECF0E089818083DC
:1001E000A0ECB0E0E0ECF0E080818C7F8C93E1EC5F
:1001F000F0E088E18083E2ECF0E086E080830F901D
:100200000F90CF91DF910895DF93CF9300D00F929D
:10021000CDB7DEB789837B836A83E0ECF0E0808131
:10022000882F90E0807290700097B9F389818A30AE
:1002300031F420E031E08DE0B9010E940401E6ECE8
:10024000F0E08981808380E090E00F900F900F9024
:10025000CF91DF910895DF93CF93CDB7DEB7299784
:100260000FB6F894DEBF0FBECDBF8BE090E00E94CA
:10027000DE0080E091E09093800580937F058EE022
:1002800091E00E94442F0E9410240E9494020E9438
:10029000690F0E94FD0C0E94D6250E9457150E94EE
:1002A000BC190E94120B80910405882361F08CE038
:1002B00090E09B838A838AE095E09E012E5F3F4F0A
:1002C000B9010E94330B80910505813071F41092C1
:1002D00005058BE090E09B838A838AE095E09E0190
:1002E0002E5F3F4FB9010E94330B80910905813089
:1002F00011F41092090580912805882371F010925D
:1003000028058AE090E09B838A838AE095E09E013D
:100310002E5F3F4FB9010E94330B8091DD0488238B
:1003200071F01092DD0486E090E09B838A838AE07E
:1003300095E09E012E5F3F4FB9010E94330B8091E3
:100340000005882371F01092000585E090E09B8302
:100350008A838AE095E09E012E5F3F4FB9010E949B
:10036000330B0E940E1089838981882309F454C0BD
:100370008981482F552747FD50958981282F33279C
:1003800027FD309500D000D000D0EDB7FEB73196F4
:1003900087E191E091838083538342833583248373
:1003A0000E942F2F8DB79EB706960FB6F8949EBF6A
:1003B0000FBE8DBF8981833021F481E090E09B8363
:1003C0008A838981813021F487E090E09B838A834E
:1003D0008981823021F488E090E09B838A8389813F
:1003E000853021F483E090E09B838A838981863085
:1003F00021F484E090E09B838A838981803324F018
:100400001B821A8289818C838AE095E09E012E5F8F
:100410003F4FB9010E94330B80910705882309F4EF
:1004200042CF1092070589E090E09B838A838AE09F
:1004300095E09E012E5F3F4FB9010E94330B33CFF1
:10044000DF93CF9300D000D0CDB7DEB78A836B8324
:100450004C83E4E2F0E01082E5E2F0E01082ABE2EF
:10046000B0E0EBE2F0E080818F718C93ABE2B0E022
:10047000EBE2F0E080818F778C93ABE2B0E0EBE2CF
:10048000F0E0808180648C9381E0898315C0ABE2C9
:10049000B0E0EBE2F0E0808180628C930E94512218
:1004A000E3E2F0E0808180788983ABE2B0E0EBE2C8
:1004B000F0E080818F7D8C938981882341F7E4E28D
:1004C000F0E08FEF8083E5E2F0E08A8180838B812A
:1004D000882339F0ABE2B0E0EBE2F0E080818068A5
:1004E0008C93ABE2B0E0EBE2F0E080818F7B8C9309
:1004F0000E945122ABE2B0E0EBE2F0E0808180624A
:100500008C930E945122ABE2B0E0EBE2F0E08081FC
:100510008F7D8C9389818F5F89830F900F900F90CF
:100520000F90CF91DF910895DF93CF93CDB7DEB7D2
:10053000AAE2B0E0EAE2F0E08081806E8C93ABE268
:10054000B0E0EBE2F0E080818F718C93E4E2F0E0C8
:100550001082E5E2F0E0108281E060E040E20E947B
:10056000200288E360E040E20E9420028CE060E02C
:1005700040E20E94200286E060E040E20E94200209
:10058000CF91DF910895DF93CF930F92CDB7DEB770
:100590008983998181E060E0492F0E9420020F90B9
:1005A000CF91DF910895DF93CF930F92CDB7DEB750
:1005B0008983998180EC60E0492F0E9420020F908E
:1005C000CF91DF910895DF93CF9300D000D0CDB7C6
:1005D000DEB79B838A836C830BC089819C8161E039
:1005E000492F0E9420028A819B8101969B838A83E6
:1005F000EA81FB81808189838981882371F70F904B
:100600000F900F900F90CF91DF910895DF93CF93CC
:1006100000D000D0CDB7DEB78A836B834C8380E8EF
:1006200089838A81813011F480EC89838A818230C8
:1006300011F484E989838A81833011F484ED8983FC
:1006400099818B81890F898389819C8160E0492F01
:100650000E9420020F900F900F900F90CF91DF918A
:100660000895DF93CF9300D00F92CDB7DEB7898383
:100670006A834B8389816A814B810E9406038FE0E4
:1006800060E040E20E9420020F900F900F90CF9107
:10069000DF910895DF93CF93CDB7DEB78CE060E0B4
:1006A00040E20E942002CF91DF910895DF93CF9323
:1006B00000D0CDB7DEB789836A8389819A8161E0F2
:1006C000492F0E9420020F900F90CF91DF91089543
:1006D000DF93CF93CDB7DEB780919904CF91DF91AF
:1006E0000895DF93CF9300D00F92CDB7DEB78091FE
:1006F00099048A83E0912F05F091300580819181E2
:100700008C309105C9F48FE089838091E004909149
:10071000E1049E012D5F3F4F6FE0A9010E94C91DBA
:100720008091E0049091E1042B816981422F0E9425
:10073000292180919A048A838A810F900F900F90CB
:10074000CF91DF910895DF93CF93CDB7DEB781E2EC
:1007500091E00E94442F0E94B51786E090E00E942D
:10076000310ECF91DF910895DF93CF93CDB7DEB7F0
:1007700089E391E00E94442F0E944D0E0E94AB1726
:10078000CF91DF910895DF93CF9300D000D00F92E7
:10079000CDB7DEB7809199048B83E0912F05F0915E
:1007A00030058081918185309105C9F489E08A8383
:1007B0008091E0049091E1049E012C5F3F4F69E03D
:1007C000A9010E94C91D8091E0049091E1042C814F
:1007D0006A81422F0E94292180919A048B83E091A3
:1007E0002F05F0913005808191818330910549F08A
:1007F000E0912F05F091300580819181873091053E
:10080000C9F483E089838091E0049091E1049E0122
:100810002B5F3F4F63E0A9010E94C91D8091E00456
:100820009091E1042D816981422F0E9429218091BC
:100830009A048B83E0912F05F0913005808191819E
:100840008630910541F40E94751880919A048B833B
:1008500081E08093DC048B810F900F900F900F90BC
:100860000F90CF91DF910895DF93CF93CDB7DEB78F
:100870008FEF9FE70E94310ECF91DF910895DF93B4
:10088000CF93CDB7DEB70E944D0ECF91DF91089583
:10089000DF93CF9300D00F92CDB7DEB7809199044C
:1008A0008A8388E491E00E94442FE0912F05F09123
:1008B00030058081918188309105E9F484E691E0EA
:1008C0000E94442F89E089838091E0049091E104A3
:1008D0009E012D5F3F4F69E0A9010E94C91D8091D3
:1008E000E0049091E1042B816981422F0E9429212B
:1008F00080919A048A838A810F900F900F90CF91F4
:10090000DF910895DF93CF93CDB7DEB70E94201714
:10091000CF91DF910895DF93CF93CDB7DEB7CF911D
:10092000DF910895DF93CF9300D000D00F92CDB721
:10093000DEB7809199048B83E0912F05F09130050B
:100940008081918184309105E1F485E08A838091F2
:10095000E0049091E1049E012C5F3F4F65E0A90106
:100960000E94C91D81E00E94FC238091E0049091C7
:10097000E1042C816A81422F0E94292180919A04EE
:100980008B83E0912F05F091300580819181833038
:100990009105E1F485E089838091E0049091E10480
:1009A0009E012B5F3F4F65E0A9010E94C91D80E0B9
:1009B0000E94FC238091E0049091E1042D816981E3
:1009C000422F0E94292180919A048B83E0912F0568
:1009D000F0913005808191818630910531F481E07C
:1009E0008093DC0480919A048B838B810F900F900D
:1009F0000F900F900F90CF91DF910895DF93CF93D9
:100A0000CDB7DEB70E9407171092070582E00E945B
:100A10000411882361F48CEE94E020E731E0B90101
:100A20004EE050E00E94E82E81E080930405CF91D3
:100A3000DF910895DF93CF93CDB7DEB7CF91DF91EC
:100A40000895DF93CF9300D00F92CDB7DEB78B839D
:100A5000E0912F05F09130058081918184309105DE
:100A6000C9F486E089838091E0049091E1049E01BD
:100A70002E5F3F4F66E0A9010E94C91D8091E004EE
:100A80009091E1042A816981422F0E94292180915D
:100A90009A048B838B810F900F900F90CF91DF91F1
:100AA0000895DF93CF9300D00F92CDB7DEB780913A
:100AB00099048A83E0912F05F0913005808191811E
:100AC00089309105C9F486E089838091E004909192
:100AD000E1049E012D5F3F4F66E0A9010E94C91D00
:100AE0008091E0049091E1042B816981422F0E9462
:100AF000292180919A048A83E0912F05F091300595
:100B0000808191818630910539F40E9425110E94DF
:100B10007A1680919A048A838A810E9421058A83A9
:100B20008A810F900F900F90CF91DF910895DF93FE
:100B3000CF93CDB7DEB70E947C0D0E94B90DCF9147
:100B4000DF910895DF93CF93CDB7DEB70E94C90D33
:100B50000E94A80DCF91DF910895DF93CF9300D02D
:100B600000D00F92CDB7DEB7809199048983E091D0
:100B70002F05F091300580819181009709F074C0B4
:100B800080910205909103059B838A83E0912F0554
:100B9000F09130058281282F332727FD30953D8342
:100BA0002C838C819D818333910561F12C813D8162
:100BB000243331055CF48C819D8181339105B1F042
:100BC0002C813D8122333105B9F035C08C819D8166
:100BD0008833910521F12C813D812933310529F19B
:100BE0008C819D8187339105A1F025C08A819B81ED
:100BF00001969B838A831FC08A819B810A969B836F
:100C00008A8319C08A819B818C599F4F9B838A83D9
:100C100012C08A819B8101979B838A830CC08A8141
:100C20009B810A979B838A8306C08A819B81845615
:100C300090409B838A838A819B81992314F41B8231
:100C40001A828A819B8123E08B32920724F08AE208
:100C500093E09B838A838A819B810E94C70B0E94B9
:100C60002C1680919A048983E0912F05F09130052C
:100C7000808191818630910529F40E942C16809103
:100C80009A04898389810F900F900F900F900F9095
:100C9000CF91DF910895DF93CF93CDB7DEB70E9458
:100CA000951780E090E00E94C70BCF91DF910895E7
:100CB000DF93CF93CDB7DEB70E94AB17CF91DF9113
:100CC0000895DF93CF9300D000D00F92CDB7DEB759
:100CD000809199048B83E0912F05F09130058081FC
:100CE000918183309105C9F488E08A838091E00482
:100CF0009091E1049E012C5F3F4F68E0A9010E94A2
:100D0000C91D8091E0049091E1042C816A81422FF9
:100D10000E94292180919A048B83E0912F05F09104
:100D200030058081918184309105E9F488E08983E0
:100D30008091E0049091E1049E012B5F3F4F68E0B9
:100D4000A9010E94C91D0E94CC230E94A02380916A
:100D5000E0049091E1042D816981422F0E942921B4
:100D600080919A048B838B810F900F900F900F903E
:100D70000F90CF91DF910895DF93CF93CDB7DEB77A
:100D80000E94A017CF91DF910895DF93CF93CDB745
:100D9000DEB70E94AB17CF91DF910895DF93CF9319
:100DA00000D000D00F92CDB7DEB7809199048B832D
:100DB000E0912F05F091300580819181833091057C
:100DC000C9F489E08A838091E0049091E1049E0156
:100DD0002C5F3F4F69E0A9010E94C91D8091E0048A
:100DE0009091E1042C816A81422F0E9429218091F7
:100DF0009A048B83E0912F05F091300580819181D9
:100E000084309105E9F489E089838091E004909130
:100E1000E1049E012B5F3F4F69E0A9010E94C91DBB
:100E20000E94E4230E94B6238091E0049091E104A3
:100E30002D816981422F0E94292180919A048B8300
:100E40008B810F900F900F900F900F90CF91DF91AB
:100E50000895DF93CF93CDB7DEB70E9420128FEFB6
:100E60009FE70E94310E83E00E940411882361F401
:100E70008CEE94E020E731E0B9014EE050E00E94B2
:100E8000E82E81E080930405CF91DF910895DF93F0
:100E9000CF93CDB7DEB70E944D0E80910405882315
:100EA00089F481E00E940411882361F48CEE94E0BF
:100EB00020E731E0B9014EE050E00E94E82E81E0E9
:100EC000809304050E94AB17CF91DF910895DF93C3
:100ED000CF9300D00F92CDB7DEB7809199048A836B
:100EE000E0912F05F0913005808191818730910547
:100EF000C9F48DE089838091E0049091E1049E0122
:100F00002D5F3F4F6DE0A9010E94C91D8091E00453
:100F10009091E1042B816981422F0E9429218091C7
:100F20009A048A83E0912F05F091300580819181A8
:100F30008530910539F48FEF9FE70E94310E809143
:100F40009A048A83E0912F05F09130058081918188
:100F50008630910529F40E942A1280919A048A838E
:100F60008A810F900F900F90CF91DF910895DF93BA
:100F7000CF93CDB7DEB70E9408198FEF0E945519A5
:100F80008FEF0E948419CF91DF910895DF93CF9363
:100F9000CDB7DEB7CF91DF910895DF93CF9300D027
:100FA00000D00F92CDB7DEB7809199048B83E0918A
:100FB0002F05F09130058081918183309105C9F42E
:100FC0008BE08A838091E0049091E1049E012C5F84
:100FD0003F4F6BE0A9010E94C91D8091E0049091F0
:100FE000E1042C816A81422F0E94292180919A0478
:100FF0008B83E0912F05F0913005808191818430C1
:101000009105C9F48CE089838091E0049091E1041A
:101010009E012B5F3F4F6CE0A9010E94C91D80918A
:10102000E0049091E1042D816981422F0E942921E1
:1010300080919A048B83E0912F05F0913005808197
:1010400091818B30910521F40E94E2110E94CC160F
:101050008B810F900F900F900F900F90CF91DF9199
:101060000895DF93CF93CDB7DEB70E943319109266
:101070002E0580912E050E945519CF91DF9108957C
:10108000DF93CF93CDB7DEB78FEF0E945519CF9185
:10109000DF910895DF93CF93CDB7DEB729970FB6D1
:1010A000F894DEBF0FBECDBF809199048C83E09190
:1010B0002F05F09130058081918184309105C9F42C
:1010C0008CE08B838091E0049091E1049E012B5F82
:1010D0003F4F6CE0A9010E94C91D8091E0049091EE
:1010E000E1042D816B81422F0E94292180919A0475
:1010F0008C83E0912F05F0913005808191818330C0
:101100009105C9F48AE08A838091E0049091E1041A
:101110009E012A5F3F4F6AE0A9010E94C91D80918C
:10112000E0049091E1042E816A81422F0E942921DE
:1011300080919A048C83E0912F05F0913005808195
:101140009181009709F05FC0E0912F05F091300583
:1011500082818A330CF057C0E0912F05F091300561
:10116000828180330CF44FC080912E05282F3327C5
:1011700027FD3095398728878885998581309105A5
:1011800089F02885398522303105A1F08885998537
:10119000009769F5E0912F05F091300582810E945A
:1011A000CC1725C0E0912F05F091300582810E9477
:1011B000D9171DC0E0912F05F091300582810E9462
:1011C000E6178AE089838091E0049091E1049E0112
:1011D000295F3F4F6AE0A9010E94C91D8091E00488
:1011E0009091E1042F816981422F0E9429218091F1
:1011F0002E058F5F80932E0580912E050E94551934
:1012000080919A048C838C8129960FB6F894DEBF66
:101210000FBECDBFCF91DF910895DF93CF93CDB7B0
:10122000DEB70E94441910922E0580912E050E946F
:101230008419CF91DF910895DF93CF93CDB7DEB7B7
:101240008FEF0E948419CF91DF910895DF93CF93A0
:10125000CDB7DEB729970FB6F894DEBF0FBECDBF6E
:10126000809199048C83E0912F05F0913005808165
:10127000918183309105C9F48BE08B838091E004E8
:101280009091E1049E012B5F3F4F6BE0A9010E940A
:10129000C91D8091E0049091E1042D816B81422F62
:1012A0000E94292180919A048C83E0912F05F0916E
:1012B00030058081918184309105C9F48AE08A8368
:1012C0008091E0049091E1049E012A5F3F4F6AE023
:1012D000A9010E94C91D8091E0049091E1042E8132
:1012E0006A81422F0E94292180919A048C83E09187
:1012F0002F05F091300580819181009709F085C01C
:10130000E0912F05F091300582818A330CF07DC089
:10131000E0912F05F0913005828180330CF475C087
:1013200080912E05282F332727FD30953987288770
:101330008885998581309105E9F0288539852230A5
:1013400031052CF488859985009761F052C0288575
:10135000398523303105D9F0888599858430910508
:1013600059F147C0E0912F05F091300582810E942C
:10137000F3173FC0E0912F05F091300582810E9464
:10138000001880912E058F5F80932E0532C0E0916A
:101390002F05F09130058281863344F4E0912F05CA
:1013A000F091300582810E940D1823C080912E0596
:1013B000815080932E051DC0E0912F05F0913005DE
:1013C00082810E941A188AE089838091E0049091BA
:1013D000E1049E01295F3F4F6AE0A9010E94C91DF7
:1013E0008091E0049091E1042F816981422F0E9455
:1013F000292180912E058F5F80932E0580912E05E7
:101400000E94841980919A048C838C8129960FB64E
:10141000F894DEBF0FBECDBFCF91DF910895DF936B
:10142000CF93CDB7DEB78EE791E00E94442F0E94A4
:10143000E5188091DE049091DF040E94310E8091C6
:101440002C0590912D050E94C70B0E947C0D0E94D7
:10145000B90DCF91DF910895DF93CF93CDB7DEB76C
:101460008CE891E00E94442F0E944D0E0E94C90D0D
:101470000E94A80D0E94AB17CF91DF910895DF93D2
:10148000CF9300D000D00F92CDB7DEB780919904F2
:101490008B83E0912F05F091300580819181883018
:1014A0009105C9F489E08A838091E0049091E10478
:1014B0009E012C5F3F4F69E0A9010E94C91D8091E8
:1014C000E0049091E1042C816A81422F0E9429213D
:1014D00080919A048B83E0912F05F09130058081F3
:1014E000918185309105C9F48EE089838091E00473
:1014F0009091E1049E012B5F3F4F6EE0A9010E9495
:10150000C91D8091E0049091E1042D816981422FF1
:101510000E94292180919A048B83E0912F05F091FC
:101520003005808191818630910549F40E94271809
:101530000E9475180E94DC1580919A048B83E091BB
:101540002F05F0913005808191818A30910511F449
:101550000E94DE148B810F900F900F900F900F90D0
:10156000CF91DF910895DF93CF93CDB7DEB70E947F
:10157000DA19CF91DF910895DF93CF93CDB7DEB71E
:10158000CF91DF910895DF93CF9300D00F92CDB725
:10159000DEB7809199048A83E0912F05F0913005A0
:1015A0008081918183309105C9F489E0898380919C
:1015B000E0049091E1049E012D5F3F4F69E0A90195
:1015C0000E94C91D8091E0049091E1042B81698102
:1015D000422F0E94292180919A048A838A810F9048
:1015E0000F900F90CF91DF910895DF93CF93CDB7F8
:1015F000DEB70E943717CF91DF910895DF93CF9325
:10160000CDB7DEB7CF91DF910895DF93CF930F92DF
:10161000CDB7DEB780919904898389810F90CF91EE
:10162000DF910895DF93CF93CDB7DEB78AE095E0E1
:101630009093E1048093E0048AE095E029E931E0A9
:10164000B90140E120E00E94981CCF91DF910895FC
:10165000DF93CF93CDB7DEB78AE095E00E94E01C20
:10166000CF91DF910895DF93CF9300D000D0CDB715
:10167000DEB79A8389837C836B838B819C81909373
:10168000300580932F0589819A810E944C1D0F900F
:101690000F900F900F90CF91DF910895DF93CF932C
:1016A00000D0CDB7DEB7F894809133059091340522
:1016B0009A838983789489819A810F900F90CF9132
:1016C000DF910895DF93CF93CDB7DEB780913205D8
:1016D000882309F052C0E7E3F0E010828091020510
:1016E00090910305181619060CF047C020910205C9
:1016F000309103058AE293E0821B930B90933605A9
:101700008093350580913505909136058F30910590
:1017100034F48FE090E09093360580933505809106
:101720003505909136058C3F91057CF4E2EBF0E0B5
:101730008091350590913605982F8CEF891B808319
:1017400010923605109235050DC0809135059091A7
:1017500036058C5F90409093360580933505E2EB1B
:10176000F0E01082E0E7F0E082E08083E1EBF0E07F
:1017700085E0808381E080933205CF91DF910895E9
:10178000DF93CF93CDB7DEB7CF91DF910895DF938D
:10179000CF9300D0CDB7DEB79A838983F89489813F
:1017A0009A81909303058093020578940F900F908F
:1017B000CF91DF9108951F920F920FB60F921124CF
:1017C0002F933F934F935F936F937F938F939F9349
:1017D000AF93BF93EF93FF93DF93CF93CDB7DEB774
:1017E000F89480913505909136050097D9F4E1EB96
:1017F000F0E01082E0E7F0E01082ABE2B0E0EBE274
:10180000F0E0808180618C938AE090E00E94582211
:10181000ABE2B0E0EBE2F0E080818F7E8C9310923F
:10182000320520C080913505909136058C3F910599
:101830007CF4E2EBF0E08091350590913605982F2D
:101840008CEF891B808310923605109235050AC0F3
:1018500080913505909136058C5F904090933605C8
:10186000809335057894CF91DF91FF91EF91BF91EF
:10187000AF919F918F917F916F915F914F913F9128
:101880002F910F900FBE0F901F9018951F920F92DF
:101890000FB60F9211248F939F93EF93FF93DF93D3
:1018A000CF93CDB7DEB7E8E7F0E0808191819093E8
:1018B000380580933705809131058F5F809331051E
:1018C000809131058E3129F41092310581E08093A9
:1018D0002805CF91DF91FF91EF919F918F910F900C
:1018E0000FBE0F901F9018951F920F920FB60F9278
:1018F00011242F933F934F935F936F937F938F9315
:101900009F93AF93BF93EF93FF93DF93CF93CDB7A5
:10191000DEB7F894E9E2F0E08081882F90E08470EF
:101920009070009719F00E94C00B02C00E94620BD9
:101930007894CF91DF91FF91EF91BF91AF919F91FB
:101940008F917F916F915F914F913F912F910F9068
:101950000FBE0F901F9018951F920F920FB60F9207
:101960001124DF93CF93CDB7DEB7CF91DF910F90E6
:101970000FBE0F901F9018951F920F920FB60F92E7
:1019800011242F933F934F935F936F937F938F9384
:101990009F93AF93BF93EF93FF93DF93CF93CDB715
:1019A000DEB780913305909134050197909334050B
:1019B00080933305809133059091340518161906EC
:1019C00034F00E944D0E81E08093000503C081E059
:1019D0008093DD04CF91DF91FF91EF91BF91AF91A3
:1019E0009F918F917F916F915F914F913F912F9137
:1019F0000F900FBE0F901F901895DF93CF93CDB728
:101A0000DEB7E1E2F0E080EF8083E2E2F0E080EE3A
:101A10008083EEE7F0E08FE08083AAE2B0E0EAE2C4
:101A2000F0E0808180618C93ABE2B0E0EBE2F0E02B
:101A300080818F7E8C93AAE2B0E0EAE2F0E08081C0
:101A40008B7F8C93ABE2B0E0EBE2F0E080818B7FA8
:101A50008C93E9E6F0E081E08083EDE3F0E0108232
:101A60001092DD04E0E8F0E01082E1E8F0E088E0C8
:101A70008083E2E8F0E01082E8E8F0E080E39AE2B8
:101A800091838083E4E8F0E011821082EFE6F0E0D9
:101A90001082E4E4F0E082E08083E7E4F0E08FEF9E
:101AA0008083E6E4F0E01082E5E4F0E01082EEE608
:101AB000F0E0108210923205E0EBF0E082E08083EB
:101AC000E1EBF0E01082E6EBF0E01082E3EBF0E017
:101AD0008CEF8083E2EBF0E01082E0E7F0E0108230
:101AE000EAE7F0E087E08083109228051092310544
:101AF0007894CF91DF910895DF93CF93CDB7DEB780
:101B0000EAE7F0E087E08083109228051092310523
:101B100080912905813029F4ECE7F0E081E48083AD
:101B200004C0ECE7F0E082E48083EAE7F0E08FEACB
:101B30008083EBE7F0E083E08083E5E4F0E085E09C
:101B40008083EEE6F0E082E08083CF91DF9108951C
:101B5000DF93CF93CDB7DEB7EAE7F0E087E080838D
:101B6000E5E4F0E01082EEE6F0E01082CF91DF9144
:101B70000895DF93CF93CDB7DEB70E94B115ECE3A4
:101B8000F0E01082EDE3F0E081E08083CF91DF911F
:101B90000895DF93CF93CDB7DEB7EDE3F0E0108289
:101BA000F8940E94C00B7894CF91DF910895DF9351
:101BB000CF9300D0CDB7DEB7F894809137059091E0
:101BC00038059A838983789489819A810F900F9040
:101BD000CF91DF910895DF93CF9300D000D000D054
:101BE000CDB7DEB780E090E0A0E0B0E089839A83D3
:101BF000AB83BC830E94D70D9E838D838D819E8194
:101C0000AA2797FDA095BA2FBC01CD010E94E52718
:101C1000DC01CB01BC01CD0120E030E040EA50E422
:101C20000E949928DC01CB01BC01CD0120E030EC01
:101C30004FE754E40E944A27DC01CB0189839A8351
:101C4000AB83BC8389819A81AB81BC81BC01CD010E
:101C500026960FB6F894DEBF0FBECDBFCF91DF91B1
:101C60000895DF93CF9300D0CDB7DEB79A838983F1
:101C70001092000589819A819093340580933305F1
:101C8000EFE6F0E082E08083E1E8F0E08DE0808341
:101C90000F900F90CF91DF910895DF93CF93CDB741
:101CA000DEB7E1E8F0E088E08083EFE6F0E0108264
:101CB000CF91DF910895DF93CF9300D0CDB7DEB7FA
:101CC0001A821982A8E2B0E0E8E2F0E08081837F26
:101CD0008C93A2E2B0E0E2E2F0E080818F738C931B
:101CE000A2E2B0E0E2E2F0E0808180688C9388E0DC
:101CF00090E00E945822E6E2F0E08081807F8A83B3
:101D00008A81882329F18A81882314F482E38983D4
:101D10008A81992787FD909580749070009711F0C3
:101D200080E389838A81992787FD909580729070DE
:101D3000009711F088E389838A81992787FD909520
:101D400080719070009709F4BEC085E38983BBC0A1
:101D5000A2E2B0E0E2E2F0E080818F778C93A8E22B
:101D6000B0E0E8E2F0E0808184608C9388E090E06D
:101D70000E945822E6E2F0E08081807F8A838A8197
:101D8000882329F18A81882314F481E389838A8155
:101D9000992787FD909580749070009711F085E0E9
:101DA00089838A81992787FD90958072907000972A
:101DB00011F087E389838A81992787FD9095807147
:101DC0009070009709F47FC084E389837CC0A8E207
:101DD000B0E0E8E2F0E080818B7F8C93A8E2B0E095
:101DE000E8E2F0E0808188608C9388E090E00E94D7
:101DF0005822E6E2F0E08081807F8A838A8188230E
:101E000029F18A81882314F483E389838A819927BD
:101E100087FD909580749070009711F086E089831B
:101E20008A81992787FD909580729070009711F0B4
:101E300089E389838A81992787FD909580719070C5
:101E4000009709F440C086E389833DC0A8E2B0E072
:101E5000E8E2F0E08081877F8C93A2E2B0E0E2E2EA
:101E6000F0E0808180648C9388E090E00E945822AA
:101E7000E6E2F0E08081807F8A838A81882319F1FD
:101E80008A81882314F481E089838A81992787FDD8
:101E9000909580749070009711F082E089838A8118
:101EA000992787FD909580729070009711F083E0DC
:101EB00089838A81992787FD90958071907000971A
:101EC00011F084E0898389810F900F90CF91DF9189
:101ED0000895DF93CF93CDB7DEB71092390581E037
:101EE00080933A05A7E2B0E0E7E2F0E080818C6001
:101EF0008C93A7E2B0E0E7E2F0E080818F708C93F2
:101F0000A1E2B0E0E1E2F0E08081806C8C93A8E295
:101F1000B0E0E8E2F0E080818C608C93A8E2B0E071
:101F2000E8E2F0E080818F708C93A2E2B0E0E2E220
:101F3000F0E08081806C8C93EDE6F0E080EF8083B0
:101F4000A8E6B0E0E8E6F0E0808184608C937894C5
:101F5000CF91DF9108951F920F920FB60F92112427
:101F60002F933F934F935F936F937F938F939F93A1
:101F7000AF93BF93EF93FF93DF93CF93CDB7DEB7CC
:101F8000E8E6F0E01082EDE6F0E01082E6E2F0E054
:101F90008081882F90E0807F9070009759F0809129
:101FA0003A05882321F00E945B0E80933905109238
:101FB0003A0503C081E080933A05A8E2B0E0E8E288
:101FC000F0E080818C608C93A2E2B0E0E2E2F0E08D
:101FD0008081806C8C930E945122EBE3F0E01082B0
:101FE000EDE6F0E080EF8083A8E6B0E0E8E6F0E020
:101FF000808184608C93CF91DF91FF91EF91BF91AD
:10200000AF919F918F917F916F915F914F913F9190
:102010002F910F900FBE0F901F901895DF93CF93C5
:102020000F92CDB7DEB7F89480913905898310926D
:102030003905789489810F90CF91DF910895DF93CE
:10204000CF93CDB7DEB728970FB6F894DEBF0FBE9B
:10205000CDBF80E090E0A0EFB1E489839A83AB83A9
:10206000BC83209124053091250580911E05909117
:102070001F05A901481B590BCA01CC01A0E0B0E023
:10208000BC01CD010E94E327DC01CB018D839E833F
:10209000AF83B8878D819E81AF81B885BF77BC0142
:1020A000CD0120E030E040E85FE30E94952818165B
:1020B000ACF469817A818B819C812D813E814F8135
:1020C00058850E944A27DC01CB0180933B05909301
:1020D0003C05A0933D05B0933E050CC080E090E028
:1020E000A0E0B0E080933B0590933C05A0933D05B4
:1020F000B0933E0528960FB6F894DEBF0FBECDBF55
:10210000CF91DF910895DF93CF9300D00F92CDB799
:10211000DEB78B838BE495E060E070E044E050E054
:102120000E94F12E8B8180934B052BE435E080E1FA
:10213000B90141E00E943B26992787FD90959A833B
:10214000898389819A810F900F900F90CF91DF91B1
:102150000895DF93CF9300D00F92CDB7DEB78B8376
:102160001A8289E592E00E94442F87E595E060E0BD
:1021700070E048E050E00E94F12E27E535E080E174
:10218000B90146E00E948B268A8380915C05898391
:102190001A829B818981981711F481E08A838B814F
:1021A000282F332727FD30958981482F552747FD54
:1021B00050958A81682F772767FD70958DB79EB7F8
:1021C00008970FB6F8949EBF0FBE8DBFEDB7FEB750
:1021D000319689E792E0918380833383228355830C
:1021E0004483778366830E942F2F8DB79EB708960E
:1021F0000FB6F8949EBF0FBE8DBF8A810F900F90CF
:102200000F90CF91DF910895DF93CF9300D00F927D
:10221000CDB7DEB78B831A8219820AC08B810E94E8
:1022200083108B810E94A9108A8389818F5F8983A3
:102230008A81882319F48981823084F38A810F90FE
:102240000F900F90CF91DF910895DF93CF93CDB78B
:10225000DEB72B970FB6F894DEBF0FBECDBF87E574
:1022600095E060E070E048E050E00E94F12E27E544
:1022700035E080E1B90146E00E948B268D838D8197
:102280008F3F09F08AC080915C058B87809157054C
:102290008093E70488E595E098878F83EF81F88540
:1022A000808191819A87898780915A058E838E815A
:1022B000882349F589859A85AA2797FDA095BA2F85
:1022C000BC01CD010E94E527DC01CB01BC01CD01A1
:1022D0002DEC3CEC4CE85FE30E949928DC01CB013B
:1022E000BC01CD0120E030E040E256E40E944A27E4
:1022F000DC01CB018093E8049093E904A093EA0405
:10230000B093EB0428C089859A85AA2797FDA095EC
:10231000BA2FBC01CD010E94E527DC01CB01BC0135
:10232000CD012DEC3CEC4CE85FE30E949928DC01E8
:10233000CB01BC01CD0120E030E040E054E40E943C
:102340004A27DC01CB018093E8049093E904A09331
:10235000EA04B093EB048091E8049091E904A09121
:10236000EA04B091EB0489839A83AB83BC838B85A9
:10237000813019F481E0809307058B858830C9F49A
:102380008CEE94E022EC32E0B90144E150E00E948E
:10239000E82E81E0809304050CC08CEE94E026EDDD
:1023A00032E0B9014CE050E00E94E82E81E08093D9
:1023B00004052B960FB6F894DEBF0FBECDBFCF91AC
:1023C000DF910895DF93CF930F92CDB7DEB7809161
:1023D00057058093E70480915805882F90E0A0E08E
:1023E000B0E0BC01CD010E94E327DC01CB0180936A
:1023F000E8049093E904A093EA04B093EB0480917D
:102400005C0589838981883089F482EE92E00E949C
:10241000442F8CEE94E023E033E0B90144E150E036
:102420000E94E82E81E08093040506C089818330F4
:1024300019F083E00E9483100F90CF91DF910895EF
:10244000DF93CF93CDB7DEB781E080937005CF9156
:10245000DF910895DF93CF93CDB7DEB780917005FC
:10246000853030F4809170058F5F8093700512C0C5
:1024700087E595E060E070E048E050E00E94F12ED2
:1024800027E535E080E1B90146E00E94632681E05E
:1024900080937005CF91DF910895AF92BF92CF9254
:1024A000DF92EF92FF920F931F93DF93CF93CDB7FD
:1024B000DEB760970FB6F894DEBF0FBECDBF69835D
:1024C0007A838B839C832D833E834F835887E98651
:1024D000FA860B871C87AD86BE86CF86D88A8D810B
:1024E0009E81AF81B8858093630590936405A09326
:1024F0006505B093660589819A81AB81BC81809323
:10250000430590934405A0934505B09346058985FE
:102510009A85AB85BC858093680590936905A093E7
:102520006A05B0936B058D859E85AF85B8898093CC
:10253000530590935405A0935505B09356058D8D82
:102540009E8DAF8DB8A180933F0590934005A093D9
:102550004105B093420589A19AA1ABA1BCA180938A
:102560005F0590936005A0936105B093620560E0FC
:1025700070E080E89FE329A13AA14BA15CA10E94F1
:102580004A27DC01CB0180934F0590935005A0931F
:102590005105B093520580E090E0A0E0B0E0809358
:1025A000710590937205A0937305B0937405109212
:1025B00067050E941F1080E090E0A0E0B0E08093EB
:1025C0006C0590936D05A0936E05B0936F056096B2
:1025D0000FB6F894DEBF0FBECDBFCF91DF911F9134
:1025E0000F91FF90EF90DF90CF90BF90AF90089544
:1025F000EF92FF920F931F93DF93CF93CDB7DEB788
:1026000060970FB6F894DEBF0FBECDBF6D877E8793
:102610008F87988B8D859E85AF85B889BF772091F0
:102620003F05309140054091410550914205BC0164
:10263000CD010E94462788234CF480E090E0A0E87A
:10264000BFE389879A87AB87BC8714C080E090E09E
:10265000A0E0B0E089879A87AB87BC8780E090E0F4
:10266000A0E0B0E08093710590937205A09373058C
:10267000B093740580915F0590916005A09161050C
:10268000B0916205BC01CD0129853A854B855C85F9
:102690000E949928DC01CB01BC01CD012D853E852E
:1026A0004F8558890E949928DC01CB012091710542
:1026B000309172054091730550917405BC01CD01B4
:1026C0000E94E226DC01CB01809371059093720594
:1026D000A0937305B093740580916705882361F416
:1026E00081E08093670580E090E0A0E0B0E089831E
:1026F0009A83AB83BC8322C0209147053091480563
:102700004091490550914A056D857E858F85988950
:102710000E94E126DC01CB0120914F05309150054C
:102720004091510550915205BC01CD010E9499285C
:10273000DC01CB0189839A83AB83BC838D859E8525
:10274000AF85B8898093470590934805A0934905C4
:10275000B0934A058091630590916405A091650549
:10276000B0916605BC01CD012D853E854F85588908
:102770000E949928DC01CB017C018D0180916805C4
:1027800090916905A0916A05B0916B052091710542
:10279000309172054091730550917405BC01CD01D3
:1027A0000E949928DC01CB019C01AD01C801B70151
:1027B0000E94E226DC01CB017C018D018091530552
:1027C00090915405A0915505B0915605BC01CD01DD
:1027D00029813A814B815C810E949928DC01CB01DF
:1027E0009C01AD01C801B7010E94E226DC01CB01CA
:1027F000209143053091440540914505509146058F
:10280000BC01CD010E949928DC01CB018D839E8300
:10281000AF83B8878D819E81AF81B885BC01CD0122
:1028200060960FB6F894DEBF0FBECDBFCF91DF919B
:102830001F910F91FF90EF900895DF93CF93CDB745
:10284000DEB72E970FB6F894DEBF0FBECDBF0E9445
:10285000D70D9E878D8780911E0590911F059C0145
:102860008D859E85821B930BAA2797FDA095BA2F75
:10287000BC01CD010E94E527DC01CB0120913B0585
:1028800030913C0540913D0550913E05BC01CD0184
:102890000E949928DC01CB01BC01CD0120E030E091
:1028A00040EA51E40E94E226DC01CB0189879A8745
:1028B000AB87BC8780913B0590913C05A0913D057D
:1028C000B0913E058D839E83AF83B88789859A85B5
:1028D000AB85BC8589839A83AB83BC8320911E051D
:1028E00030911F0540912405509125058DB79EB765
:1028F00040970FB6F8949EBF0FBE8DBFEDB7FEB7E1
:10290000319687E193E0918380838D859E859383C3
:1029100082838D819E81AF81B88584839583A683D0
:10292000B783318720875387428789819A81AB811A
:10293000BC8184879587A687B7870E942F2F8DB784
:102940009EB740960FB6F8949EBF0FBE8DBF00D0C5
:1029500000D000D0EDB7FEB7319687E493E09183C5
:10296000808384E190E09383828382E390E0958387
:1029700084830E942F2F8DB79EB706960FB6F894CA
:102980009EBF0FBE8DBF89859A85AB85BC85809320
:10299000200590932105A0932205B09323058985F6
:1029A0009A85AB85BC85BC01CD012E960FB6F894F7
:1029B000DEBF0FBECDBFCF91DF910895DF93CF93E0
:1029C000CDB7DEB72C970FB6F894DEBF0FBECDBFE4
:1029D0000E941D14DC01CB012091E2043091E3043C
:1029E0004091E4045091E504BC01CD010E94E12630
:1029F000DC01CB0189879A87AB87BC8789859A855B
:102A0000AB85BC85BC01CD010E94F812DC01CB0175
:102A100020916C0530916D0540916E0550916F05C8
:102A2000BC01CD010E94E226DC01CB018D839E8397
:102A3000AF83B8876D817E818F8198850E94B22790
:102A4000DC01CB019A83898389819A81AA2797FD2A
:102A5000A095BA2FBC01CD010E94E5279B01AC01D6
:102A60006D817E818F8198850E94E126DC01CB01FA
:102A700080936C0590936D05A0936E05B0936F05E0
:102A8000209102053091030589819A81820F931F5D
:102A90009C838B838B819C810E94C70B2C960FB6E5
:102AA000F894DEBF0FBECDBFCF91DF910895AF92F6
:102AB000BF92CF92DF92EF92FF920F931F93DF931B
:102AC000CF93CDB7DEB78DB79EB708970FB6F89402
:102AD0009EBF0FBE8DBFEDB7FEB7319680E090E090
:102AE000A0EAB0E480839183A283B3838AEA93E16E
:102AF000A6E3BFE384839583A683B78360E070E099
:102B000080E09FEB2DEC3CEC4CE85FE30F2EFDECFE
:102B1000EF2EFCECFF2EFCE40F2FFEE31F2FF02D19
:102B20000F2EF8EBAF2EFEE1BF2EF5E0CF2EFEE329
:102B3000DF2EF02D0E944D128DB79EB708960FB66E
:102B4000F8949EBF0FBE8DBF10920705CF91DF9105
:102B50001F910F91FF90EF90DF90CF90BF90AF90BB
:102B60000895DF93CF93CDB7DEB780E090E0A0E08B
:102B7000B0E080936C0590936D05A0936E05B093C3
:102B80006F0580E090E0A0E0B0E080937105909345
:102B90007205A0937305B093740580E090E0A0E007
:102BA000B0E08093470590934805A0934905B09302
:102BB0004A05CF91DF910895DF93CF93CDB7DEB76C
:102BC00061970FB6F894DEBF0FBECDBF0E94EB0D2C
:102BD000DC01CB0189839A83AB83BC8320910205FE
:102BE000309103058DB79EB70A970FB6F8949EBF34
:102BF0000FBE8DBFEDB7FEB73196CE01059691831E
:102C000080838FE593E09383828389819A81AB816E
:102C1000BC8184839583A683B783318720870E94F4
:102C2000792F8DB79EB70A960FB6F8949EBF0FBE48
:102C30008DBF83E066E040E20E940603CE01059668
:102C400060E20E94E30261960FB6F894DEBF0FBE09
:102C5000CDBFCF91DF910895DF93CF93CDB7DEB78E
:102C600064970FB6F894DEBF0FBECDBF0E94EB0D88
:102C7000DC01CB0189839A83AB83BC83209102055D
:102C8000309103058DB79EB70A970FB6F8949EBF93
:102C90000FBE8DBFEDB7FEB73196CE01059691837D
:102CA00080838BE693E09383828389819A81AB81D1
:102CB000BC8184839583A683B783318720870E9454
:102CC000792F8DB79EB70A960FB6F8949EBF0FBEA8
:102CD0008DBF80E20E94D302CE01059660E20E9481
:102CE000E30264960FB6F894DEBF0FBECDBFCF915E
:102CF000DF910895DF93CF93CDB7DEB764970FB61A
:102D0000F894DEBF0FBECDBF8091E8049091E90436
:102D1000A091EA04B091EB0489839A83AB83BC83CE
:102D20008091E704282F30E08DB79EB70A970FB641
:102D3000F8949EBF0FBE8DBFEDB7FEB73196CE01A2
:102D400005969183808388E793E09383828335831C
:102D5000248389819A81AB81BC8186839783A087F4
:102D6000B1870E94792F8DB79EB70A960FB6F89457
:102D70009EBF0FBE8DBF80E20E94D302CE0105969A
:102D800060E20E94E30264960FB6F894DEBF0FBEC5
:102D9000CDBFCF91DF910895DF93CF93CDB7DEB74D
:102DA00060970FB6F894DEBF0FBECDBF8091E704E9
:102DB000282F30E000D000D000D0EDB7FEB731961C
:102DC000CE0101969183808386E893E0938382838A
:102DD000358324830E94792F8DB79EB706960FB650
:102DE000F8949EBF0FBE8DBF83E068E040E20E9472
:102DF0000603CE01019660E20E94E30260960FB6E0
:102E0000F894DEBF0FBECDBFCF91DF910895DF9361
:102E1000CF93CDB7DEB780E20E94C30283E993E08F
:102E200060E20E94E30283E060E040E20E94060369
:102E300087EA93E060E20E94E302CF91DF91089578
:102E4000DF93CF93CDB7DEB780E20E94C3028CEB55
:102E500093E060E20E94E30280E20E94D30283ECEE
:102E600093E060E20E94E302CF91DF910895DF9347
:102E7000CF93CDB7DEB780E20E94C30280ED93E02E
:102E800060E20E94E30280E20E94D3028CEE94E0B2
:102E900060E20E94E302CF91DF910895DF93CF9328
:102EA00000D000D0CDB7DEB79C838B8380E20E9438
:102EB000C3028CED93E060E20E94E30200D000D0F8
:102EC00000D0EDB7FEB73196CE0101969183808395
:102ED00081EE93E0938382838B819C8195838483AD
:102EE0000E94792F8DB79EB706960FB6F8949EBFB5
:102EF0000FBE8DBFCE01019660E20E94E30285EE17
:102F000093E060E20E94E30283E060E040E20E941E
:102F1000060380EF93E060E20E94E3020F900F90BF
:102F20000F900F90CF91DF910895DF93CF93CDB79E
:102F3000DEB784E190E00E944E17CF91DF910895B3
:102F4000DF93CF93CDB7DEB782E390E00E944E17B8
:102F5000CF91DF910895DF93CF93CDB7DEB780E2B5
:102F60000E94C302CF91DF910895DF93CF93CDB735
:102F7000DEB780E20E94C30284E094E060E20E9437
:102F8000E30280E20E94D30285E194E060E20E94C5
:102F9000E302CF91DF910895DF93CF930F92CDB7E6
:102FA000DEB7898389810E94BF220F90CF91DF9184
:102FB0000895DF93CF930F92CDB7DEB789838981D0
:102FC0000E94D4220F90CF91DF910895DF93CF9389
:102FD0000F92CDB7DEB7898389810E94E9220F90D5
:102FE000CF91DF910895DF93CF930F92CDB7DEB7E6
:102FF000898389810E944C230F90CF91DF9108959E
:10300000DF93CF930F92CDB7DEB7898389810E947A
:1030100061230F90CF91DF910895DF93CF930F92AB
:10302000CDB7DEB7898389810E9476230F90CF9137
:10303000DF910895DF93CF930F92CDB7DEB78983E9
:1030400089810E948B230F90CF91DF910895DF93A8
:10305000CF93CDB7DEB72C970FB6F894DEBF0FBE77
:10306000CDBF8091200590912105A0912205B091BE
:10307000230589839A83AB83BC838DB79EB708975A
:103080000FB6F8949EBF0FBE8DBFEDB7FEB7319659
:10309000CE010596918380838DE194E093838283B2
:1030A00089819A81AB81BC8184839583A683B78310
:1030B0000E94792F8DB79EB708960FB6F8949EBFE1
:1030C0000FBE8DBF81E060E040E20E940603CE01AA
:1030D000059660E20E94E3022C960FB6F894DEBFDC
:1030E0000FBECDBFCF91DF9108951F93DF93CF9394
:1030F000CDB7DEB761970FB6F894DEBF0FBECDBF78
:103100000E944E0B99878887888599852CE330E04B
:10311000B9010E94A22CCB01AA2797FDA095BA2F36
:103120008C839D83AE83BF838C819D819B838A83A7
:1031300018858C819D81AE81BF8124EC3FEF4FEFDC
:103140005FEFBC01CD010E94832CDC01CB01810F1C
:1031500089838981282F332727FD30958DB79EB726
:1031600008970FB6F8949EBF0FBE8DBFEDB7FEB7A0
:103170003196CE010A969183808384E294E0938312
:1031800082838A819B8195838483378326830E94EF
:10319000792F8DB79EB708960FB6F8949EBF0FBED5
:1031A0008DBF81E069E040E20E940603CE010A96ED
:1031B00060E20E94E30261960FB6F894DEBF0FBE94
:1031C000CDBFCF91DF911F910895DF93CF93CDB7FE
:1031D000DEB780E20E94C3028DE294E060E20E94CA
:1031E000E30280E061E140E20E94060385E795E0AA
:1031F00060E20E94E30283E060E040E20E94060396
:1032000086E394E060E20E94E302CF91DF910895AB
:10321000DF93CF93CDB7DEB780E20E94C3028DE388
:1032200094E060E20E94E30280E20E94D30289E41B
:1032300094E060E20E94E30280E061E140E20E94EB
:10324000060385E795E060E20E94E30283E060E028
:1032500040E20E94060388E594E060E20E94E302F7
:10326000CF91DF910895DF93CF93CDB7DEB780E0A4
:1032700060E040E20E94060380E694E060E20E9483
:10328000E302CF91DF910895DF93CF93CDB7DEB7FF
:1032900080E060E040E20E9406038BE694E060E29A
:1032A0000E94E302CF91DF910895DF93CF930F92B5
:1032B000CDB7DEB7898381E062E040E20E94060379
:1032C0008091DB0460E20E94560380912A0560E24F
:1032D0000E94560380912B0560E20E94560389816B
:1032E000882364F0898183304CF489818E5F982F24
:1032F00081E0692F40E20E94310302C00E944A032C
:103300000F90CF91DF910895DF93CF930F92CDB7B8
:10331000DEB7898381E068E040E20E940603809185
:10332000010560E20E9456038091060560E20E945A
:1033300056038DE660E20E9456038091E60460E247
:103340000E9456038091080560E20E94560389811D
:10335000882364F0898185304CF48981885F982FB7
:1033600081E0692F40E20E94310302C00E944A03BB
:103370000F90CF91DF910895DF93CF93CDB7DEB754
:1033800080912905882351F485E795E026E734E00C
:10339000B90144E050E00E94E82E09C085E795E0BD
:1033A0002AE734E0B90144E050E00E94E82ECF91D2
:1033B000DF910895DF93CF93CDB7DEB780E20E940F
:1033C000C3028EE794E060E20E94E30283E060E0E3
:1033D00040E20E94060385E894E060E20E94E30276
:1033E000CF91DF910895DF93CF9300D000D000D02C
:1033F000CDB7DEB79E838D831C8250C1ED81FE81E7
:10340000458156818C81882F90E09C01220F331FCB
:10341000C901880F991F880F991F880F991F821B58
:10342000930BFA01E80FF91F14868BE090E09A8362
:1034300089833EC0ED81FE81458156818C81882F34
:1034400090E09C01220F331FC901880F991F880F3C
:10345000991F880F991F821B930BBA01680F791F60
:10346000A981BA81ED81FE81458156818C81882FA9
:1034700090E09C01220F331FC901880F991F880F0C
:10348000991F880F991F821B930B9A01280F391FD0
:1034900089819A810197F901E80FF91F8081FB0169
:1034A000EA0FFB1F808389819A8101979A83898320
:1034B00089819A81181619060CF4BCCFED81FE8122
:1034C000458156818C81882F90E09C01220F331F0B
:1034D000C901880F991F880F991F880F991F821B98
:1034E000930BFA01E80FF91F8C818083ED81FE8137
:1034F000458156818C81882F90E09C01220F331FDB
:10350000C901880F991F880F991F880F991F821B67
:10351000930BFA01E80FF91F84858F5F84878C81F4
:103520008B83A2C08BE090E09A8389833EC0ED81BB
:10353000FE81458156818C81882F90E09C01220F6D
:10354000331FC901880F991F880F991F880F991F72
:10355000821B930BBA01680F791FA981BA81ED8193
:10356000FE81458156818C81882F90E09C01220F3D
:10357000331FC901880F991F880F991F880F991F42
:10358000821B930B9A01280F391F89819A81019719
:10359000F901E80FF91F8081FB01EA0FFB1F80830F
:1035A00089819A8101979A83898389819A811816E2
:1035B00019060CF4BCCFED81FE81458156818C81CA
:1035C000882F90E09C01220F331FC901880F991F9B
:1035D000880F991F880F991F821B930BDA01A80F80
:1035E000B91FED81FE81428153818B81282F30E00C
:1035F000C901880F991F820F931F880F991F880F89
:10360000991FFA01E80FF91F81818C93ED81FE81EA
:10361000458156818C81882F90E09C01220F331FB9
:10362000C901880F991F880F991F880F991F821B46
:10363000930BFA01E80FF91F84858F5F8487ED8172
:10364000FE81428153818B81282F30E0C901880F90
:10365000991F820F931F880F991F880F991FFA01D6
:10366000E80FF91F81818B83ED81FE8142815381B7
:103670008B81282F30E0C901880F991F820F931F7B
:10368000880F991F880F991FFA01E80FF91F818190
:103690008F3F09F047CF8C818F5F8C83ED81FE8156
:1036A00091818C81891708F4A9CE26960FB6F894DB
:1036B000DEBF0FBECDBFCF91DF910895DF93CF93D3
:1036C00000D00F92CDB7DEB79B838A8319821BC0CF
:1036D000EA81FB81458156818981882F90E09C0198
:1036E000220F331FC901880F991F880F991F880F58
:1036F000991F821B930BFA01E80FF91F8FEF858743
:1037000089818F5F8983EA81FB8191818981891712
:10371000F8F20F900F900F90CF91DF910895DF9303
:10372000CF9300D000D0CDB7DEB79B838A836C8364
:10373000EA81FB81428153818C81282F30E0C901CD
:10374000880F991F820F931F880F991F880F991F49
:10375000FA01E80FF91F868197810097B9F0EA8195
:10376000FB81428153818C81282F30E0C901880F71
:10377000991F820F931F880F991F880F991FFA01B5
:10378000E80FF91F0680F781E02D0995EA81FB819A
:10379000428153818C81282F30E0C901880F991F05
:1037A000820F931F880F991F880F991FFA01E80F46
:1037B000F91F808591850097B9F0EA81FB814281EC
:1037C00053818C81282F30E0C901880F991F820F07
:1037D000931F880F991F880F991FFA01E80FF91F8F
:1037E0000084F185E02D0995EA81FB818C81848339
:1037F000EA81FB81428153818C81282F30E0C9010D
:10380000880F991F820F931F880F991F880F991F88
:10381000FA01E80FF91F828189837FC0EA81FB8169
:10382000428153818981282F332727FD3095C90193
:10383000880F991F820F931F880F991F880F991F58
:10384000FA01E80FF91F868197810097C9F0EA8194
:10385000FB81428153818981282F332727FD3095B1
:10386000C901880F991F820F931F880F991F880F16
:10387000991FFA01E80FF91F0680F781E02D0995DD
:10388000EA81FB81428153818981282F332727FDDB
:103890003095C901880F991F820F931F880F991FB8
:1038A000880F991FFA01E80FF91F8085918500970D
:1038B000C9F0EA81FB81428153818981282F332716
:1038C00027FD3095C901880F991F820F931F880F1C
:1038D000991F880F991FFA01E80FF91F0084F185DD
:1038E000E02D09958981EA81FB818483EA81FB814E
:1038F000428153818981282F332727FD3095C901C3
:10390000880F991F820F931F880F991F880F991F87
:10391000FA01E80FF91F8281898389818F3F09F0BD
:103920007DCF0F900F900F900F90CF91DF91089562
:10393000DF93CF9300D000D000D0CDB7DEB79A830D
:1039400089837C836B834D832E83E981FA818D810A
:103950008183E981FA818B819C8193838283E981D0
:10396000FA818181882F90E09C01220F331FC901C9
:10397000880F991F880F991F880F991F821B930B1F
:103980000E94002DE981FA819683858389819A813D
:103990000E94F31989819A810E945E1B89819A8114
:1039A0006E810E948F1BE981FA818FEF838B2696AF
:1039B0000FB6F894DEBF0FBECDBFCF91DF91089553
:1039C000DF93CF9300D0CDB7DEB79A838983E981A7
:1039D000FA81858196810E94AD2D0F900F90CF9135
:1039E000DF910895DF93CF9300D000D000D0CDB702
:1039F000DEB79C838B836D834E831A821A82EB81A0
:103A0000FC81458156818E81882F90E09C01220F98
:103A1000331FC901880F991F880F991F880F991F9D
:103A2000821B930BFA01E80FF91F8485815089836B
:103A300026C0EB81FC81458156818E81882F90E0E4
:103A40009C01220F331FC901880F991F880F991FEE
:103A5000880F991F821B930B9A01280F391F8981A8
:103A6000992787FD9095F901E80FF91F90818D81C5
:103A7000981711F481E08A83898181508983898133
:103A80008823BCF68A8126960FB6F894DEBF0FBE57
:103A9000CDBFCF91DF910895DF93CF9300D000D0B9
:103AA0000F92CDB7DEB79D838C83EC81FD818FEFC4
:103AB000838B8C819D81079660E070E04CE050E044
:103AC0000E94F12E1982EC81FD8184818A834FC08E
:103AD000EC81FD8183898F5FEC81FD81838BEC819B
:103AE000FD818389282F332727FD30954A818C81DA
:103AF0009D81820F931FFC0137964083EC81FD81ED
:103B0000428153818A81282F332727FD3095C901AF
:103B1000880F991F820F931F880F991F880F991F75
:103B2000FA01E80FF91F0480F581E02D09958B83D8
:103B300090919A0419828B81891711F481E089830D
:103B4000EC81FD81428153818A81282F332727FD13
:103B50003095C901880F991F820F931F880F991FF5
:103B6000880F991FFA01E80FF91F81818A838A81E2
:103B70008F3F31F0898191E08927882309F0A8CF10
:103B800089810F900F900F900F900F90CF91DF9140
:103B90000895DF93CF93CDB7DEB728970FB6F8948B
:103BA000DEBF0FBECDBF9D838C836E8358874F834E
:103BB0008FEF89831B821A8298C02A813B818C8176
:103BC0009D81820F931FFC01379680818983EC8150
:103BD000FD81428153818981282F30E0C901880FFE
:103BE000991F820F931F880F991F880F991FFA0141
:103BF000E80FF91F828593850097B9F0EC81FD816C
:103C0000428153818981282F30E0C901880F991F93
:103C1000820F931F880F991F880F991FFA01E80FD1
:103C2000F91F0284F385E02D0995EF81F8858981DC
:103C30008083EC81FD8162817381EC81FD81428111
:103C400053818981282F30E0C901880F991F820F85
:103C5000931F880F991F880F991FFA01E80FF91F0A
:103C60008181282F332727FD3095C901880F991F9F
:103C7000820F931F880F991F880F991FFB01E80F70
:103C8000F91F8381882361F1EC81FD816581768153
:103C9000EC81FD81428153818981282F30E0C90167
:103CA000880F991F820F931F880F991F880F991FE4
:103CB000FA01E80FF91F8181992787FD90959C01F2
:103CC000220F331FC901880F991F880F991F880F72
:103CD000991F821B930BFB01E80FF91F89818587D0
:103CE0008A819B8101969B838A83EC81FD818389F4
:103CF000282F332727FD30958A819B812817390784
:103D00000CF05BCFEC81FD81428153818981282FAA
:103D100030E0C901880F991F820F931F880F991FE8
:103D2000880F991FFA01E80FF91F818189839EC0CE
:103D3000EC81FD81428153818981282F30E0C901C6
:103D4000880F991F820F931F880F991F880F991F43
:103D5000FA01E80FF91F828593850097B9F0EC818D
:103D6000FD81428153818981282F30E0C901880F6C
:103D7000991F820F931F880F991F880F991FFA01AF
:103D8000E80FF91F0284F385E02D0995EF81F8858E
:103D900089818083EC81FD81428153818981282F33
:103DA00030E0C901880F991F820F931F880F991F58
:103DB000880F991FFA01E80FF91F81818983EC812F
:103DC000FD8162817381EC81FD8142815381898112
:103DD000282F30E0C901880F991F820F931F880F89
:103DE000991F880F991FFA01E80FF91F8181282F69
:103DF000332727FD3095C901880F991F820F931F24
:103E0000880F991F880F991FFB01E80FF91F838105
:103E1000882361F1EC81FD8165817681EC81FD81F2
:103E2000428153818981282F30E0C901880F991F71
:103E3000820F931F880F991F880F991FFA01E80FAF
:103E4000F91F8181992787FD90959C01220F331FCF
:103E5000C901880F991F880F991F880F991F821B0E
:103E6000930BFB01E80FF91F8981858729818C81DC
:103E70009D81622F4E810E94F21C982F81E089273C
:103E8000882309F055CF99818E81981709F089C050
:103E9000EC81FD81428153818981282F30E0C90165
:103EA000880F991F820F931F880F991F880F991FE2
:103EB000FA01E80FF91F828593850097B9F0EC812C
:103EC000FD81428153818981282F30E0C901880F0B
:103ED000991F820F931F880F991F880F991FFA014E
:103EE000E80FF91F0284F385E02D0995EC81FD812F
:103EF00089818083EC81FD8162817381EC81FD8108
:103F0000428153818981282F30E0C901880F991F90
:103F1000820F931F880F991F880F991FFA01E80FCE
:103F2000F91F8181282F332727FD3095C901880F7C
:103F3000991F820F931F880F991F880F991FFB01EC
:103F4000E80FF91F8381882361F1EC81FD81658190
:103F50007681EC81FD81428153818981282F30E077
:103F6000C901880F991F820F931F880F991F880F0F
:103F7000991FFA01E80FF91F8181992787FD909514
:103F80009C01220F331FC901880F991F880F991FA9
:103F9000880F991F821B930BFB01E80FF91F898182
:103FA000858728960FB6F894DEBF0FBECDBFCF91A0
:103FB000DF910895DF93CF9300D000D000D0CDB72C
:103FC000DEB79C838B836D834E838E818A83EB81E6
:103FD000FC8162817381EB81FC81458156818D81F9
:103FE000882F90E09C01220F331FC901880F991F71
:103FF000880F991F880F991F821B930B9A01280F16
:10400000391F8A81882F90E0F901E80FF91F80811C
:10401000282F332727FD3095C901880F991F820F5C
:10402000931F880F991F880F991FFB01E80FF91F35
:10403000808591850097A9F1EB81FC816281738174
:10404000EB81FC81458156818D81882F90E09C0118
:10405000220F331FC901880F991F880F991F880FDE
:10406000991F821B930B9A01280F391F8A81882F71
:1040700090E0F901E80FF91F8081282F332727FDF1
:104080003095C901880F991F820F931F880F991FC0
:10409000880F991FFB01E80FF91F0084F185E02DBF
:1040A00009958A818F5F8A838A81682F70E0EB810E
:1040B000FC81458156818D81882F90E09C01220FE3
:1040C000331FC901880F991F880F991F880F991FE7
:1040D000821B930BFA01E80FF91F8485992787FD4E
:1040E00090950197861797070CF071CF8D81898382
:1040F00075C0EB81FC81458156818981882F90E0D4
:104100009C01220F331FC901880F991F880F991F27
:10411000880F991F821B930BFA01E80FF91F858501
:104120008F3FC9F0EB81FC81458156818981882FC1
:1041300090E09C01220F331FC901880F991F880F3F
:10414000991F880F991F821B930BFA01E80FF91F23
:104150008585898315C0EB81FC81428153818981EA
:10416000282F30E0C901880F991F820F931F880FF5
:10417000991F880F991FFA01E80FF91F828189831F
:10418000EB81FC81428153818981282F30E0C90174
:10419000880F991F820F931F880F991F880F991FEF
:1041A000FA01E80FF91F808591850097B9F0EB813E
:1041B000FC81428153818981282F30E0C901880F19
:1041C000991F820F931F880F991F880F991FFA015B
:1041D000E80FF91F0084F185E02D0995EB81FC8142
:1041E000458156818981882F90E09C01220F331FE1
:1041F000C901880F991F880F991F880F991F821B6B
:10420000930BFA01E80FF91F85858F3F09F071CFF5
:10421000EB81FC81428153818981282F30E0C901E3
:10422000880F991F820F931F880F991F880F991F5E
:10423000FA01E80FF91F82818F3F09F05ACF898177
:1042400026960FB6F894DEBF0FBECDBFCF91DF919B
:104250000895DF93CF93CDB7DEB728970FB6F894C4
:10426000DEBF0FBECDBF9E838D836F8348878FEFE8
:104270008C8328858D819E81622F4F810E94F21C44
:10428000882309F44CC01B822EC0ED81FE8145813C
:1042900056818F81882F90E09C01220F331FC90126
:1042A000880F991F880F991F880F991F821B930BE6
:1042B0009A01280F391F8B81992787FD9095F90165
:1042C000E80FF91F8081282F332727FD3095888537
:1042D000882F90E02817390719F48B818C83CEC082
:1042E0008B818F5F8B83ED81FE81458156818F812C
:1042F000882F90E09C01220F331FC901880F991F5E
:10430000880F991F880F991F821B930BFA01E80FE2
:10431000F91F94858B8189170CF4B7CFAFC0ED815D
:10432000FE81458156818F81882F90E09C01220F6C
:10433000331FC901880F991F880F991F880F991F74
:10434000821B930BFA01E80FF91F6485ED81FE8152
:1043500045815681ED81FE818081882F90E09C010E
:10436000220F331FC901880F991F880F991F880FCB
:10437000991F821B930BFA01E80FF91F848586179A
:10438000D4F4ED81FE81458156818885882F90E0A7
:104390009C01220F331FC901880F991F880F991F95
:1043A000880F991F821B930BFA01E80FF91F848570
:1043B0008150898319C0ED81FE81458156818F81AD
:1043C000882F90E09C01220F331FC901880F991F8D
:1043D000880F991F880F991F821B930BFA01E80F12
:1043E000F91F8485815089831A8243C08A818C8316
:1043F000ED81FE81458156818885882F90E09C0162
:10440000220F331FC901880F991F880F991F880F2A
:10441000991F821B930B9A01280F391F8A819927B4
:1044200087FD9095F901E80FF91F6081ED81FE810C
:10443000458156818F81882F90E09C01220F331F88
:10444000C901880F991F880F991F880F991F821B18
:10445000930B9A01280F391F8A81992787FD909520
:10446000F901E80FF91F8081681741F48A818F5F95
:104470008A839A81898189170CF0B8CF2C818D812C
:104480009E816F81422F0E94DA1FED81FE8184831D
:1044900028960FB6F894DEBF0FBECDBFCF91DF9147
:1044A0000895DF93CF93CDB7DEB7CF91DF91089515
:1044B000DF93CF9300D000D0CDB7DEB79B838A8344
:1044C00019821C828A819B81009711F081E08C8384
:1044D0008A819B8101979B838A838C81882389F7BA
:1044E0000F900F900F900F90CF91DF910895DF9371
:1044F000CF93CDB7DEB78091DB04282F332727FD7C
:10450000309584E690E0AC01249FC001259F900D7A
:10451000349F900D1124AC01405C524180912A05DA
:10452000992787FD90959C01220F331FC901880FA1
:10453000991F880F991F820F931F805E91409A01E7
:10454000280F391F80912B05992787FD9095C097DB
:10455000820F931FAA2797FDA095BA2FBC01CD010A
:104560000E94E527DC01CB018093E2049093E304F1
:10457000A093E404B093E504CF91DF910895DF9315
:10458000CF930F92CDB7DEB78983298184E090E085
:10459000622F0E94093089818093DB040E94772278
:1045A0000F90CF91DF910895DF93CF930F92CDB706
:1045B000DEB78983298185E090E0622F0E9409306F
:1045C000898180932A050E9477220F90CF91DF91F5
:1045D0000895DF93CF930F92CDB7DEB789832981FA
:1045E00086E090E0622F0E940930898180932B053C
:1045F0000E9477220F90CF91DF910895DF93CF93A0
:10460000CDB7DEB780910105282F332727FD3095E0
:1046100088E592E0AC01249FC001259F900D349F56
:10462000900D1124AC014058504780910605282F69
:10463000332727FD30958CE390E0BC01269FC00115
:10464000279F900D369F900D112480549B40480F5A
:10465000591F8091E604992787FD90959C01220FB0
:10466000331FC901880F991F880F991F820F931F4D
:10467000805E91409A01280F391F80910805992783
:1046800087FD9095C097820F931F9093DF048093CE
:10469000DE04CF91DF910895DF93CF930F92CDB7D2
:1046A000DEB78983298187E090E0622F0E9409307C
:1046B0008981809301050E94FE220F90CF91DF91A6
:1046C0000895DF93CF930F92CDB7DEB78983298109
:1046D00088E090E0622F0E9409308981809306056E
:1046E0000E94FE220F90CF91DF910895DF93CF9328
:1046F0000F92CDB7DEB78983298189E090E0622FE0
:104700000E94093089818093E6040E94FE220F9066
:10471000CF91DF910895DF93CF930F92CDB7DEB79E
:10472000898329818AE090E0622F0E940930898183
:10473000809308050E94FE220F90CF91DF9108958B
:10474000DF93CF93CDB7DEB70E94D70D90931F05AF
:1047500080931E0520911E0530911F058BE090E08F
:10476000B9010E941730CF91DF910895DF93CF9365
:10477000CDB7DEB70E94D70D909325058093240511
:1047800020912405309125058DE090E0B9010E942B
:104790001730CF91DF910895DF93CF93CDB7DEB778
:1047A000809102059091030590932D0580932C052F
:1047B00020912C0530912D058FE090E0B9010E94E9
:1047C0001730CF91DF910895DF93CF93CDB7DEB748
:1047D000809102059091030590932705809326050B
:1047E000209126053091270581E190E0B9010E94D2
:1047F0001730CF91DF910895DF93CF930F92CDB70C
:10480000DEB789838981809329052091290584E178
:1048100090E0622F0E9409300F90CF91DF910895B0
:10482000DF93CF93CDB7DEB784E090E00E94FB2FFB
:104830008093DB048091DB04803324F08091DB04DF
:104840008A331CF080E30E94BF2285E090E00E9442
:10485000FB2F80932A0580912A05803324F08091D4
:104860002A058A331CF080E30E94D42286E090E07F
:104870000E94FB2F80932B0580912B05803324F021
:1048800080912B058A331CF080E30E94E92287E0A7
:1048900090E00E94FB2F80930105809101058033F9
:1048A00024F0809101058A331CF080E30E944C23A0
:1048B00088E090E00E94FB2F80930605809106051A
:1048C000803324F0809106058A331CF080E30E9437
:1048D000612389E090E00E94FB2F8093E6048091A1
:1048E000E604803324F08091E60486331CF080E3F4
:1048F0000E9476238AE090E00E94FB2F80930805B7
:1049000080910805803324F0809108058A331CF0DB
:1049100080E30E948B230E94FE220E9477228BE07C
:1049200090E00E94033090931F0580931E058091B4
:104930001E0590911F052FEF8F3F920721F41092D3
:104940001F0510921E058DE090E00E9403309093A9
:1049500025058093240580912405909125052FEF4E
:104960008F3F920721F410922505109224058FE0C5
:1049700090E00E94033090932D0580932C05809148
:104980002C0590912D052FEF8F3F920721F4109267
:104990002D0510922C0581E190E00E940330909348
:1049A00027058093260580912605909127052FEFF6
:1049B0008F3F920721F4109227051092260584E17B
:1049C00090E00E94FB2F8093290580912905823079
:1049D00018F080E00E94FC231092DC041092040581
:1049E000CF91DF9108951F920F920FB60F9211246D
:1049F0002F933F938F939F93AF93BF93EF93FF9327
:104A0000DF93CF9300D0CDB7DEB7E9EBF0E0808144
:104A1000882F90E09C01287F30703A832983898118
:104A20009A8188329105E9F129813A81293231054B
:104A300084F489819A818031910549F129813A81F3
:104A40002831310571F189819A8188309105F9F019
:104A500093C029813A812034310509F45CC08981F1
:104A60009A81813491053CF429813A8128333105BA
:104A700009F47DC081C089819A8180359105C1F199
:104A800029813A812835310509F453C075C0EBEB13
:104A9000F0E08091D6048083ECEBF0E085E8808341
:104AA00074C08091D9048823C1F08091D9048150C9
:104AB0008093D904ABEBB0E0E091D704F091D80437
:104AC00080818C93CF0101969093D8048093D70472
:104AD000ECEBF0E085E8808358C0ECEBF0E084E993
:104AE00080838FEF8093DA0481E0809309054DC0C5
:104AF000A091D704B091D804EBEBF0E080818C93C7
:104B0000CD0101969093D8048093D7048091D90465
:104B100081508093D9048091D904823028F0ECEB45
:104B2000F0E085EC808331C0ECEBF0E085E8808339
:104B30002CC0A091D704B091D804EBEBF0E08081B9
:104B40008C93CD0101969093D8048093D7048091E3
:104B5000D90481508093D904ECEBF0E084E98083A0
:104B60008FEF8093DA0481E0809305050EC0ECEBB3
:104B7000F0E085EA808309C0E9EBF0E08081809372
:104B8000DA04ECEBF0E084E080830F900F90CF919B
:104B9000DF91FF91EF91BF91AF919F918F913F91E5
:104BA0002F910F900FBE0F901F901895DF93CF930A
:104BB000CDB7DEB710920905109205058BE994E098
:104BC0000E94442F1092D904E9EBF0E082E0808348
:104BD000E8EBF0E082E28083EBEBF0E08FEF8083A4
:104BE000ECEBF0E084E08083CF91DF910895DF93D8
:104BF000CF93CDB7DEB784EA94E00E94442FECEB6C
:104C0000F0E0108210920905109205051092D90467
:104C1000EBEBF0E08FEF8083ECEBF0E084E080835F
:104C2000CF91DF910895DF93CF9300D000D0CDB71F
:104C3000DEB789837B836A834C830E94B8268823EE
:104C4000E1F71092090589818E7F8093D6048A81CD
:104C50009B819093D8048093D7048C818093D9044E
:104C6000ECEBF0E085EA80830F900F900F900F90AF
:104C7000CF91DF910895DF93CF9300D000D0CDB7CF
:104C8000DEB789837B836A834C832A813B81898158
:104C9000B9014C810E94132680910905882321F4D3
:104CA0000E94B8268823C1F78091DA048F3F11F063
:104CB0000E94F7258091DA040F900F900F900F90CB
:104CC000CF91DF910895DF93CF9300D000D0CDB77F
:104CD000DEB789837B836A834C830E94B82688234E
:104CE000E1F710920505898181608093D6048A815D
:104CF0009B819093D8048093D7048C818093D904AE
:104D0000ECEBF0E085EA80830F900F900F900F900E
:104D1000CF91DF910895DF93CF9300D000D0CDB72E
:104D2000DEB789837B836A834C832A813B818981B7
:104D3000B9014C810E94632680910505882321F4E6
:104D40000E94B8268823C1F78091DA048F3F19F0BA
:104D50000E94F72504C08AEB94E00E94442F8091C2
:104D6000DA040F900F900F900F90CF91DF9108957C
:104D7000DF93CF93CDB7DEB7ECEBF0E08081882FE7
:104D800090E081709070CF91DF910895DF93CF9381
:104D90000F92CDB7DEB78091DA048F3F19F481E02E
:104DA000898301C0198289810F90CF91DF91089585
:104DB000DF93CF93CDB7DEB78091DA04CF91DF9147
:104DC00008955058BB27AA270ED075C166D130F080
:104DD0006BD120F031F49F3F11F41EF45BC10EF44F
:104DE000E095E7FB51C1E92F77D180F3BA1762074D
:104DF00073078407950718F071F49EF58FC10EF4C0
:104E0000E0950B2EBA2FA02D0B01B90190010C01DA
:104E1000CA01A0011124FF27591B99F0593F50F4F2
:104E2000503E68F11A16F040A22F232F342F44274A
:104E3000585FF3CF469537952795A795F040539542
:104E4000C9F77EF41F16BA0B620B730B840BBAF012
:104E50009150A1F0FF0FBB1F661F771F881FC2F77D
:104E60000EC0BA0F621F731F841F48F48795779591
:104E70006795B795F7959E3F08F0B3CF9395880F48
:104E800008F09927EE0F979587950895D9D008F4E3
:104E900081E008950CD00FC107D140F0FED030F072
:104EA00021F45F3F19F0F0C0511139C1F3C014D1A2
:104EB00098F39923C9F35523B1F3951B550BBB27E1
:104EC000AA2762177307840738F09F5F5F4F220F8E
:104ED000331F441FAA1FA9F333D00E2E3AF0E0E887
:104EE00030D091505040E695001CCAF729D0FE2FD3
:104EF00027D0660F771F881FBB1F26173707480765
:104F0000AB07B0E809F0BB0B802DBF01FF2793581A
:104F10005F4F2AF09E3F510568F0B6C000C15F3F69
:104F2000ECF3983EDCF3869577956795B795F79502
:104F30009F5FC9F7880F911D9695879597F90895FA
:104F4000E1E0660F771F881FBB1F62177307840796
:104F5000BA0720F0621B730B840BBA0BEE1F88F7A5
:104F6000E095089504D06894B111D9C00895BCD0DB
:104F700088F09F5790F0B92F9927B751A0F0D1F042
:104F8000660F771F881F991F1AF0BA95C9F712C0CC
:104F9000B13081F0C3D0B1E00895C0C0672F782F41
:104FA0008827B85F39F0B93FCCF386957795679538
:104FB000B395D9F73EF490958095709561957F4FA4
:104FC0008F4F9F4F0895E89409C097FB3EF490954A
:104FD0008095709561957F4F8F4F9F4F9923A9F0D2
:104FE000F92F96E9BB279395F69587957795679561
:104FF000B795F111F8CFFAF4BB0F11F460FF1BC0A5
:105000006F5F7F4F8F4F9F4F16C0882311F096E937
:1050100011C0772321F09EE8872F762F05C06623E5
:1050200071F096E8862F70E060E02AF09A95660F9E
:10503000771F881FDAF7880F9695879597F9089557
:10504000990F0008550FAA0BE0E8FEEF1616170699
:10505000E807F907C0F012161306E407F50798F001
:10506000621B730B840B950B39F40A2661F0232B1A
:10507000242B252B21F408950A2609F4A140A69596
:105080008FEF811D811D089597F99F6780E870E07B
:1050900060E008959FEF80EC089500240A941616AE
:1050A000170618060906089500240A941216130616
:1050B000140605060895092E0394000C11F48823A4
:1050C00052F0BB0F40F4BF2B11F460FF04C06F5FC0
:1050D0007F4F8F4F9F4F089557FD9058440F551F96
:1050E00059F05F3F71F04795880F97FB991F61F06A
:1050F0009F3F79F087950895121613061406551FE1
:10510000F2CF4695F1DF08C0161617061806991F4C
:10511000F1CF86957105610508940895E894BB2741
:1051200066277727CB0197F908958ADF08F48FEF78
:1051300008950BD0C0CFB1DF28F0B6DF18F095236B
:1051400009F0A2CFA7CF1124EACFC6DFA0F3959F25
:10515000D1F3950F50E0551F629FF001729FBB275E
:10516000F00DB11D639FAA27F00DB11DAA1F649F0A
:105170006627B00DA11D661F829F2227B00DA11DBD
:10518000621F739FB00DA11D621F839FA00D611D43
:10519000221F749F3327A00D611D231F849F600D64
:1051A000211D822F762F6A2F11249F5750408AF09D
:1051B000E1F088234AF0EE0FFF1FBB1F661F771F29
:1051C000881F91505040A9F79E3F510570F05CCF69
:1051D000A6CF5F3FECF3983EDCF386957795679515
:1051E000B795F795E7959F5FC1F7FE2B880F911D47
:1051F0009695879597F90895A1E1B0E0E2E0F9E28C
:105200000C94B52C3C017F876E876A01FC011782E4
:105210001682838181FD03C06FEF7FEF6FC39E0114
:105220002F5F3F4F398B288BF3012381EE85FF855C
:1052300023FD859123FF8191FF87EE87882309F461
:105240005AC3853251F4EE85FF8523FD859123FFF6
:105250008191FF87EE87853229F490E0B3010E94A7
:10526000032FE2CF982F10E0882499241032B0F455
:105270009B3269F09C3228F4903251F0933271F4F1
:105280000BC09D3239F0903349F4116028C0126090
:10529000146025C0186023C0106121C017FD2AC00A
:1052A000892F80538A3078F416FF06C0FAE09F9E5B
:1052B000902C1124980E13C03AE0839E802C112468
:1052C000880E10620CC09E3221F416FD14C31064C7
:1052D00006C09C3611F4106802C0983659F4EE8569
:1052E000FF8523FD959123FF9191FF87EE879923F9
:1052F00009F0BCCF892F8554833020F4812F806141
:10530000905E07C0892F8556833008F09FC1812F9A
:105310008F7E86FD02C076E0972E6FE3F62EF82290
:10532000953619F4F0E4FF2A07C0963619F420E800
:10533000F22A02C091109A94F7FE0AC03BE3391595
:1053400018F45CE3B52E02C0B92CB39427E009C071
:1053500047E0491520F4BB2447E0942EF7CF292DD0
:10536000BB24C60104969D878C87F60160817181FC
:1053700082819381AE014F5F5F4F0B2D0E94052EFE
:105380006C010981202E332400FF04C003FD02C0FC
:105390001DE209C0F1FE02C01BE205C0F2FC02C022
:1053A00010E001C010E2C1018C709070892BB9F13E
:1053B000112311F483E001C084E0881510F08824E3
:1053C0000AC0881AF3FC07C080E290E0B3010E9493
:1053D000032F8A94C9F7112329F0812F90E0B3019C
:1053E0000E94032F23FE03C00CE710E00EC000E86C
:1053F00010E00BC0E114F10409F0805290E0B30119
:105400000E94032F0F5F1F4F05C0EF2CFF24F0E118
:10541000EF22FF24F8018491882361F714C1F7FE7D
:1054200012C0BC0C24FE04C08A81813309F4BA94F2
:105430001B141CF0BB24B3942DC0F8E0FB1550F5F1
:1054400038E0B32E27C0F6FC25C0892D90E08C15DE
:105450009D054CF02CEFC2162FEFD20624F030E859
:10546000F32A01C09A94992049F0E2E0F0E0EC0FB1
:10547000FD1FE90DF11D80818033A1F3F7FE0AC005
:10548000B92CB394892D90E0C816D90614F099244C
:1054900001C09C18F7FC03C025E030E009C01C14D3
:1054A0001D041CF021E030E003C096012F5F3F4F48
:1054B000112311F02F5F3F4F992029F0892D90E0A3
:1054C0000196280F391F882D90E02817390714F00E
:1054D000882401C0821A4F2C5524C2018970907013
:1054E000892B39F008C080E290E0B3010E94032FBD
:1054F0008A948820C1F7112329F0812F90E0B3010D
:105500000E94032F43FE07C008C080E390E0B30170
:105510000E94032F8A948820C1F7F7FE46C08601B7
:10552000D7FE02C000E010E076010894E11CF11CF7
:10553000E01AF10A41E050E04C0F5D1FE40EF51E49
:1055400026014B185108892D90E0AA24BB24A81AE3
:10555000B90A5FEF0F3F150729F48EE290E0B3011F
:105560000E94032FC016D10634F0401651061CF4D9
:10557000F701808101C080E3015010400894E11CD4
:10558000F11C0A151B052CF090E0B3010E94032FBB
:10559000E0CF0C151D0539F49A81963318F4953334
:1055A00011F424FE81E390E04BC08A81813309F03D
:1055B0000F7E90E0B3010E94032F9920A1F08EE2AC
:1055C00090E0B3010E94032F12E0E1E0F0E0EC0F65
:1055D000FD1FE10FF11D1F5F808190E0B3010E946C
:1055E000032F9A9491F744FC03C085E690E002C033
:1055F00085E490E0B3010E94032FD7FC05C0C114DD
:10560000D10441F404FF06C0D094C194D108D394CE
:105610008DE201C08BE290E0B3010E94032F80E392
:1056200005C08F5F26EF3FEFC20ED31E3AE0C316D0
:10563000D104BCF790E0B3010E94032FC601C096CD
:10564000B3010E94032FCC84DD8452C1933631F024
:10565000933799F0933509F059C023C0F601808142
:1056600089835E010894A11CB11C22E030E0C20EC7
:10567000D31E21E0E22EF12C12C0F601A080B180F1
:1056800016FD03C06FEF7FEF02C0692D70E022E0CE
:1056900030E0C20ED31EC5010E94F82E7C011F7798
:1056A00013C0F601A080B18016FD03C06FEF7FEF3D
:1056B00002C0692D70E022E030E0C20ED31EC501A9
:1056C0000E94DD2E7C01106813FF07C01BC080E222
:1056D00090E0B3010E94032F8A94882D90E0E81691
:1056E000F906A8F30FC0F50117FD859117FF819109
:1056F0005F0190E0B3010E94032F81108A94089407
:10570000E108F108E114F10471F7F2C0943611F0E8
:10571000993689F517FF08C0F60120813181428151
:10572000538184E090E00AC0F601808191819C0160
:10573000442737FD4095542F82E090E0C80ED91ED3
:105740009FE6F92EF12257FF09C0509540953095FC
:1057500021953F4F4F4F5F4F90E8F92ACA01B90199
:10576000AE014F5F5F4F2AE030E00E949D2FE82E90
:10577000E889EE1A41C0953721F41F7E2AE030E017
:105780001CC0197F9F3661F0903720F4983509F0DE
:10579000B2C00FC0903739F0983709F0ACC004C0E0
:1057A00028E030E00AC0106114FD146020E130E010
:1057B00004C014FD166020E132E017FF08C0F601B6
:1057C000608171818281938144E050E008C0F601DC
:1057D00080819181BC0180E090E042E050E0C40E05
:1057E000D51EAE014F5F5F4F0E949D2FE82E588956
:1057F000E51A8FE7F82EF122F6FE0BC08EEFF822A5
:10580000E91438F4F4FE07C0F2FC05C09FEEF9225B
:1058100002C01E2D01C0192DF4FE0DC0FE01EE0DBB
:10582000F11D8081803319F4E9EEFE2208C01F5F6C
:10583000F2FE05C003C08F2D867809F01F5F0F2D83
:10584000F3FC14C0F0FE0FC0181510F09E2C0BC016
:105850009E2C980C911A182D06C080E290E0B3019E
:105860000E94032F1F5F1815C0F304C0181510F411
:10587000811A01C0882404FF0FC080E390E0B301C7
:105880000E94032F02FF1DC001FD03C088E790E0C6
:105890000EC088E590E00BC0802F867891F001FF64
:1058A00002C08BE201C080E2F7FC8DE290E0B30120
:1058B0000E94032F06C080E390E0B3010E94032FF3
:1058C0009A94E914C0F3EA94E1E0F0E0EC0FFD1FD4
:1058D000EE0DF11D808190E0B3010E94032FEE20B8
:1058E00091F706C080E290E0B3010E94032F8A94F2
:1058F0008820C1F799CCF30166817781CB0161964D
:10590000E2E10C94D12C629FD001739FF001829F41
:10591000E00DF11D649FE00DF11D929FF00D839F3E
:10592000F00D749FF00D659FF00D9927729FB00DDB
:10593000E11DF91F639FB00DE11DF91FBD01CF01EE
:105940001124089597FB092E07260AD077FD04D06D
:1059500043D006D000201AF4709561957F4F0895CA
:10596000F6F7909581959F4F08952F923F924F9211
:105970005F926F927F928F929F92AF92BF92CF92DF
:10598000DF92EF92FF920F931F93CF93DF93CDB7E8
:10599000DEB7CA1BDB0B0FB6F894DEBF0FBECDBF60
:1059A00009942A88398848885F846E847D848C8431
:1059B0009B84AA84B984C884DF80EE80FD800C813A
:1059C0001B81AA81B981CE0FD11D0FB6F894DEBF1D
:1059D0000FBECDBFED010895AA1BBB1B51E107C04F
:1059E000AA1FBB1FA617B70710F0A61BB70B881F6F
:1059F000991F5A95A9F780959095BC01CD010895FE
:105A0000CF93DF93BC018230910510F462E070E027
:105A1000A0917B05B0917C05ED01E0E0F0E040E075
:105A200050E021C0888199818617970769F48A819F
:105A30009B81309719F09383828304C090937C05F7
:105A400080937B05FE0134C06817790738F441154F
:105A5000510519F08417950708F4AC01FE018A81FD
:105A60009B819C01E9012097E9F641155105A9F1B7
:105A7000CA01861B970B049708F4BA01E0E0F0E036
:105A80002AC08D919C91119784179507F9F464179A
:105A9000750781F412968D919C911397309719F0A8
:105AA0009383828304C090937C0580937B05FD01E2
:105AB00032964FC0CA01861B970BFD01E80FF91FF4
:105AC0006193719302978D939C9343C0FD018281F2
:105AD00093819C01D9011097A1F68091790590914D
