:100000000C94BF000C94920E0C94DC000C94DC0059
:100010000C94DC000C94DC000C9438120C94DC0082
:100020000C94DC000C94F00D0C94DC000C94DC00BF
:100030000C94DC000C94DB0E0C94DC000C94DC00C3
:100040000C94CB0E0C94DC000C94DC000C94DC00C3
:100050000C94DC000C94DC000C94DC000C94DC00B0
:100060000C94630E0C94DC000C944B2C0C94DC0070
:100070000C94DC000C94DC000C94DC006E616E00CF
:10008000696E660000407A10F35A00A0724E18099B
:100090000010A5D4E80000E87648170000E40B54EF
:1000A000020000CA9A3B000000E1F50500008096BE
:1000B0009800000040420F000000A08601000000F0
:1000C000102700000000E8030000000064000000AA
:1000D00000000A00000000000100000000002C7673
:1000E000D888DC674F0823DFC1DFAE59E1B1B7968E
:1000F000E5E3E453C63AE651997696E8E6C28426EB
:10010000EB898C9B62ED407C6FFCEFBC9C9F40F2C6
:10011000BAA56FA5F490055A2AF75C936B6CF96742
:100120006DC11BFCE0E40D47FEF520E6B500D0ED07
:10013000902E0300943577050080841E080000206F
:100140004E0A000000C80C333333330F986E12830D
:100150001141EF8D2114893BE65516CFFEE6DB18E1
:10016000D1844B381BF77C1D901DA4BBE4242032A6
:1001700084725E228100C9F124ECA1E53D2711249F
:100180001FBECFEFD8E0DEBFCDBF16E0A0E0B1E0EC
:10019000E6ECFEE602C005900D92A837B107D9F74C
:1001A00017E0A8E7B6E001C01D92AB32B107E1F756
:1001B0000E9434010C9461370C940000DF93CF93BC
:1001C00000D0CDB7DEB79A83898385EC90E0298192
:1001D0003A81232F3327FC01208384EC90E029818E
:1001E000FC01208380EC90E020EC30E0F9012081DC
:1001F0002C7FFC01208381EC90E028E1FC0120832E
:1002000082EC90E026E0FC0120830F900F90CF91CC
:10021000DF910895DF93CF9300D00F92CDB7DEB773
:1002200089837B836A83000080EC90E0FC018081FD
:10023000882F90E0807290700097B1F389818A30A6
:1002400031F420E031E08DE0B9010E940A0186EC32
:1002500090E02981FC01208380E090E00F900F90D6
:100260000F90CF91DF910895DF93CF93CDB7DEB795
:1002700029970FB6F894DEBF0FBECDBF8BE090E09C
:100280000E94DE0080E091E090932807809327078A
:100290008EE091E00E94AB360E94AA2A0E94C00222
:1002A0000E94E7110E94250F0E94202D0E943C18F9
:1002B0000E94171E0E94FE0C01C000008091A9063A
:1002C000882361F08CE090E09B838A838FEA96E03C
:1002D0009E012E5F3F4FB9010E941F0D8091AA061B
:1002E000813071F41092AA068BE090E09B838A83A0
:1002F0008FEA96E09E012E5F3F4FB9010E941F0DCD
:100300008091AE06813011F41092AE068091CD0638
:10031000882371F01092CD068AE090E09B838A8357
:100320008FEA96E09E012E5F3F4FB9010E941F0D9C
:1003300080917F06882371F010927F0686E090E01E
:100340009B838A838FEA96E09E012E5F3F4FB9011F
:100350000E941F0D8091A506882371F01092A506BA
:1003600085E090E09B838A838FEA96E09E012E5F72
:100370003F4FB9010E941F0D0E94A61289838981F7
:10038000882309F45EC08981482F552747FD509581
:100390008981282F332727FD309500D000D000D049
:1003A0008DB79EB7019667E171E0FC0171836083B0
:1003B000FC0153834283FC01358324830E949636DB
:1003C0008DB79EB706960FB6F8949EBF0FBE8DBF31
:1003D0008981833021F481E090E09B838A83898145
:1003E000843021F482E090E09B838A83898181308C
:1003F00021F487E090E09B838A838981823021F415
:1004000088E090E09B838A838981853021F483E0B2
:1004100090E09B838A838981863021F484E090E098
:100420009B838A838981803324F01B821A8289818D
:100430008C838FEA96E09E012E5F3F4FB9010E94A8
:100440001F0D8091AC06882309F437CF1092AC06BB
:1004500089E090E09B838A838FEA96E09E012E5F7D
:100460003F4FB9010E941F0D29CFDF93CF9300D0DA
:1004700000D0CDB7DEB78A836B834C8384E290E0F3
:10048000FC01108285E290E0FC0110828BE290E09A
:100490002BE230E0F90120812F71FC0120838BE2F7
:1004A00090E02BE230E0F90120812F77FC012083DE
:1004B0008BE290E02BE230E0F90120812064FC0126
:1004C000208381E089831AC08BE290E02BE230E048
:1004D000F90120812062FC0120830E94592883E2D7
:1004E00090E0FC018081807889838BE290E02BE2B0
:1004F00030E0F90120812F7DFC0120838981882350
:1005000019F784E290E02FEFFC01208385E290E070
:100510002A81FC0120838B81882349F08BE290E0C3
:100520002BE230E0F90120812068FC0120838BE27E
:1005300090E02BE230E0F90120812F7BFC01208349
:100540000E9459288BE290E02BE230E0F9012081F3
:100550002062FC0120830E9459288BE290E02BE26C
:1005600030E0F90120812F7DFC01208389818F5F9C
:1005700089830F900F900F900F90CF91DF91089586
:10058000DF93CF93CDB7DEB78AE290E02AE230E086
:10059000F9012081206EFC0120838BE290E02BE2A8
:1005A00030E0F90120812F71FC01208384E290E08A
:1005B000FC01108285E290E0FC01108281E060E0A5
:1005C00040E20E94350288E360E040E20E9435028A
:1005D0008CE060E040E20E94350286E060E040E2AC
:1005E0000E943502CF91DF910895DF93CF930F9250
:1005F000CDB7DEB78983998181E060E0492F0E9401
:1006000035020F90CF91DF910895DF93CF930F9232
:10061000CDB7DEB78983998180EC60E0492F0E94D5
:1006200035020F90CF91DF910895DF93CF9300D0E3
:1006300000D0CDB7DEB79B838A836C830BC08981E2
:100640009C8161E0492F0E9435028A819B8101963D
:100650009B838A838A819B81FC0180818983898134
:10066000882369F70F900F900F900F90CF91DF9133
:100670000895DF93CF9300D000D0CDB7DEB78A8343
:100680006B834C8380E889838A81813011F480EC0C
:1006900089838A81823011F484E989838A81833055
:1006A00011F484ED898399818B81890F89838981F4
:1006B0009C8160E0492F0E9435020F900F900F90AF
:1006C0000F90CF91DF910895DF93CF9300D00F92D9
:1006D000CDB7DEB789836A834B8389816A814B8179
:1006E0000E9439038FE060E040E20E9435020F90E3
:1006F0000F900F90CF91DF910895DF93CF93CDB7F7
:10070000DEB78CE060E040E20E943502CF91DF91DD
:100710000895DF93CF9300D0CDB7DEB789836A8386
:1007200089819A8161E0492F0E9435020F900F90D4
:10073000CF91DF910895DF93CF93CDB7DEB780914E
:100740003105CF91DF910895DF93CF9300D00F92C1
:10075000CDB7DEB78091310589838091D506909120
:10076000D606FC01808191818C309105C9F483E12A
:100770008A8380918206909183069E012D5F3F4F70
:1007800063E1A9010E946422809182069091830610
:100790002B816A81422F0E94EF2580913205898347
:1007A00089810F900F900F90CF91DF910895DF9383
:1007B000CF93CDB7DEB781E291E00E94AB360E94C5
:1007C000A61B86E090E00E949110CF91DF910895E2
:1007D000DF93CF93CDB7DEB789E391E00E94AB36CC
:1007E0000E94B3100E949C1BCF91DF910895DF936C
:1007F000CF9300D000D00F92CDB7DEB780913105F6
:1008000089838091D5069091D606FC0180819181E3
:1008100085309105C9F489E08A83809182069091A0
:1008200083069E012C5F3F4F69E0A9010E9464226C
:1008300080918206909183062C816A81422F0E94CA
:10084000EF258091320589838091D5069091D60657
:10085000FC01808191818330910551F08091D50612
:100860009091D606FC018081918187309105C9F471
:1008700083E08B8380918206909183069E012B5F9B
:100880003F4F63E0A9010E9464228091820690910B
:1008900083062D816B81422F0E94EF2580913205C6
:1008A00089838091D5069091D606FC018081918143
:1008B0008630910529F40E946A1C80913205898353
:1008C00089810F900F900F900F900F90CF91DF9133
:1008D0000895DF93CF93CDB7DEB78FEF9FE70E94E8
:1008E0009110CF91DF910895DF93CF93CDB7DEB70D
:1008F0000E94B310CF91DF910895DF93CF9300D082
:100900000F92CDB7DEB78091310589838091D506EE
:100910009091D606FC018081918188309105C9F4BF
:1009200089E08A8380918206909183069E012D5FE3
:100930003F4F69E0A9010E94642280918206909154
:1009400083062B816A81422F0E94EF258091320518
:10095000898389810F900F900F90CF91DF91089537
:10096000DF93CF93CDB7DEB70E940D1BCF91DF9100
:100970000895DF93CF93CDB7DEB7CF91DF91089580
:10098000DF93CF9300D000D00F92CDB7DEB7809128
:10099000310589838091D5069091D606FC0180812E
:1009A000918184309105E1F485E08A83809182060B
:1009B000909183069E012C5F3F4F65E0A9010E9444
:1009C000642281E00E94452A8091820690918306EC
:1009D0002C816A81422F0E94EF2580913205898304
:1009E0008091D5069091D606FC018081918183305B
:1009F0009105E1F485E08B838091820690918306D6
:100A00009E012B5F3F4F65E0A9010E94642280E0B8
:100A10000E94452A80918206909183062D816B81E8
:100A2000422F0E94EF258091320589838091D5065F
:100A30009091D606FC01808191818630910519F450
:100A400080913205898389810F900F900F900F90CC
:100A50000F90CF91DF910895DF93CF93CDB7DEB79D
:100A60000E94F41A1092AC0682E00E94A813882318
:100A700061F481E996E028E431E0B9014EE050E00C
:100A80000E944F3681E08093A906CF91DF910895AF
:100A9000DF93CF93CDB7DEB7CF91DF910895DF938A
:100AA000CF9300D00F92CDB7DEB78B838091D50660
:100AB0009091D606FC018081918184309105C9F422
:100AC00086E0898380918206909183069E012E5F45
:100AD0003F4F66E0A9010E946422809182069091B6
:100AE00083062A816981422F0E94EF258091320579
:100AF0008B838B810F900F900F90CF91DF91089592
:100B0000DF93CF9300D00F92CDB7DEB78091310540
:100B100089838091D5069091D606FC0180819181D0
:100B200089309105C9F486E08A838091820690918C
:100B300083069E012D5F3F4F66E0A9010E9464225B
:100B400080918206909183062B816A81422F0E94B8
:100B5000EF258091320589838091D5069091D60644
:100B6000FC01808191818630910539F40E94C9137E
:100B70000E945B1A80913205898389810E944F050A
:100B8000898389810F900F900F90CF91DF91089505
:100B9000DF93CF93CDB7DEB70E94D00F0E9417101E
:100BA000CF91DF910895DF93CF93CDB7DEB70E9449
:100BB00029100E940310CF91DF910895DF93CF9306
:100BC00000D00F92CDB7DEB7809131058B83809135
:100BD000D5069091D606FC0180819181009709F09D
:100BE00065C08091A7069091A8069A838983809119
:100BF000D5069091D606FC018281992787FD9095B4
:100C00008333910501F1843391053CF481339105DF
:100C100071F08233910589F030C08833910501F17C
:100C20008933910519F187339105A1F026C0898197
:100C30009A8101969A83898320C089819A810A9634
:100C40009A8389831AC089819A818C599F4F9A838C
:100C5000898313C089819A8101979A8389830DC002
:100C600089819A810A979A83898307C089819A81A9
:100C7000845690409A838983000089819A819923C0
:100C800014F41A82198289819A81F3E08B329F07CA
:100C900024F08AE293E09A83898389819A810E9471
:100CA000CF0D0E94FF19809132058B838091D5066C
:100CB0009091D606FC01808191818630910529F4BE
:100CC0000E94FF19809132058B838B810F900F90CA
:100CD0000F90CF91DF910895DF93CF93CDB7DEB71B
:100CE0000E94861B80E090E00E94CF0DCF91DF91A3
:100CF0000895DF93CF93CDB7DEB70E949C1BCF91B1
:100D0000DF910895DF93CF9300D000D00F92CDB73D
:100D1000DEB78091310589838091D5069091D60602
:100D2000FC018081918183309105C9F488E08A8338
:100D300080918206909183069E012C5F3F4F68E070
:100D4000A9010E94642280918206909183062C81E1
:100D50006A81422F0E94EF2580913205898380911C
:100D6000D5069091D606FC01808191818430910551
:100D7000E9F488E08B8380918206909183069E013E
:100D80002B5F3F4F68E0A9010E9464220E94152A50
:100D90000E94E72980918206909183062D816B81C4
:100DA000422F0E94EF2580913205898389810F901F
:100DB0000F900F900F900F90CF91DF910895DF93D8
:100DC000CF93CDB7DEB70E94911BCF91DF910895ED
:100DD000DF93CF93CDB7DEB70E949C1BCF91DF91FD
:100DE0000895DF93CF9300D000D00F92CDB7DEB738
:100DF0008091310589838091D5069091D606FC01BA
:100E00008081918183309105C9F489E08A83809142
:100E10008206909183069E012C5F3F4F69E0A901F5
:100E20000E94642280918206909183062C816A81BF
:100E3000422F0E94EF258091320589838091D5064B
:100E40009091D606FC018081918184309105F9F45E
:100E500089E08B8380918206909183069E012B5FAF
:100E60003F4F69E0A9010E9464220E942D2A0E943E
:100E7000FE290E94B71280918206909183062D81EF
:100E80006B81422F0E94EF258091320589838981F1
:100E90000F900F900F900F900F90CF91DF910895CA
:100EA000DF93CF93CDB7DEB70E94B2148FEF9FE7E9
:100EB0000E94911083E00E94A813882361F481E9C5
:100EC00096E028E431E0B9014EE050E00E944F3650
:100ED00081E08093A906CF91DF910895DF93CF93AE
:100EE000CDB7DEB70E94B3108091A906882389F49C
:100EF00081E00E94A813882361F481E996E028E448
:100F000031E0B9014EE050E00E944F3681E080931D
:100F1000A9060E949C1BCF91DF910895DF93CF9388
:100F200000D000D00F92CDB7DEB780913105898314
:100F30008091D5069091D606FC0180819181873001
:100F40009105C9F481E18A8380918206909183069C
:100F50009E012C5F3F4F61E1A9010E9464228091B4
:100F60008206909183062C816A81422F0E94EF2590
:100F70008091320589838091D5069091D606FC0137
:100F80008081918181309105C9F48DE08B838091BE
:100F90008206909183069E012B5F3F4F6DE0A90171
:100FA0000E94642280918206909183062D816B813C
:100FB000422F0E94EF258091320589838091D506CA
:100FC0009091D606FC01808191818530910539F49C
:100FD0008FEF9FE70E949110809132058983809165
:100FE000D5069091D606FC018081918186309105CD
:100FF00029F40E94BC1480913205898389810F9065
:101000000F900F900F900F90CF91DF910895DF9385
:10101000CF93CDB7DEB70E94631D8FEF0E94B01D46
:101020008FEF0E94DF1DCF91DF910895DF93CF9363
:10103000CDB7DEB7CF91DF910895DF93CF9300D086
:1010400000D00F92CDB7DEB78091310589838091B2
:10105000D5069091D606FC0180819181833091055F
:10106000C9F48BE08A8380918206909183069E0169
:101070002C5F3F4F6BE0A9010E94642280918206A1
:10108000909183062C816A81422F0E94EF258091E6
:10109000320589838091D5069091D606FC01808126
:1010A000918184309105C9F48CE08B838091820614
:1010B000909183069E012B5F3F4F6CE0A9010E9437
:1010C000642280918206909183062D816B81422F4C
:1010D0000E94EF258091320589838091D5069091F9
:1010E000D606FC01808191818B30910521F40E940C
:1010F00088140E94B51A89810F900F900F900F905D
:101100000F90CF91DF910895DF93CF93CDB7DEB7E6
:101110000E948E1D1092D4068091D4060E94B01DAC
:10112000CF91DF910895DF93CF93CDB7DEB78FEFE7
:101130000E94B01DCF91DF910895DF93CF93CDB77B
:10114000DEB727970FB6F894DEBF0FBECDBF8091F4
:10115000310589838091D5069091D606FC01808166
:10116000918184309105C9F48CE08A838091820654
:10117000909183069E012B5F3F4F6CE0A9010E9476
:10118000642280918206909183062D816A81422F8C
:101190000E94EF258091320589838091D506909138
:1011A000D606FC018081918183309105C9F48AE0E3
:1011B0008B8380918206909183069E012A5F3F4F28
:1011C0006AE0A9010E9464228091820690918306C0
:1011D0002E816B81422F0E94EF25809132058983F9
:1011E0008091D5069091D606FC018081918100976F
:1011F00009F05BC08091D5069091D606FC018281F2
:101200008A330CF052C08091D5069091D606FC012D
:10121000828180330CF449C08091D406992787FDE0
:1012200090958130910571F082309105A1F0009781
:1012300081F58091D5069091D606FC0182810E94AD
:10124000BD1B27C08091D5069091D606FC018281F6
:101250000E94CA1B1EC08091D5069091D606FC0143
:1012600082810E94D71B8AE08C83809182069091B4
:1012700083069E01295F3F4F6AE0A9010E94642214
:1012800080918206909183062F816C81422F0E946B
:10129000EF258091D4068F5F8093D4068091D40689
:1012A0000E94B01D809132058983898127960FB6EF
:1012B000F894DEBF0FBECDBFCF91DF910895DF93CD
:1012C000CF93CDB7DEB70E949F1D1092D4068091B8
:1012D000D4060E94DF1DCF91DF910895DF93CF9355
:1012E000CDB7DEB78FEF0E94DF1DCF91DF9108955C
:1012F000DF93CF93CDB7DEB727970FB6F894DEBF55
:101300000FBECDBF8091310589838091D506909124
:10131000D606FC018081918183309105C9F48BE070
:101320008A8380918206909183069E012B5F3F4FB6
:101330006BE0A9010E94642280918206909183064D
:101340002D816A81422F0E94EF2580913205898389
:101350008091D5069091D606FC01808191818430E0
:101360009105C9F48AE08B8380918206909183066F
:101370009E012A5F3F4F6AE0A9010E94642280918A
:101380008206909183062E816B81422F0E94EF2569
:101390008091320589838091D5069091D606FC0113
:1013A00080819181009709F07FC08091D50690914E
:1013B000D606FC0182818A330CF076C08091D50676
:1013C0009091D606FC01828180330CF46DC080912F
:1013D000D406992787FD909581309105B1F0823030
:1013E00091051CF4009741F053C083309105D9F06A
:1013F0008430910579F14CC08091D5069091D60644
:10140000FC0182810E94E41B43C08091D50690912B
:10141000D606FC0182810E94F11B8091D4068F5F69
:101420008093D40635C08091D5069091D606FC01F4
:10143000828186334CF48091D5069091D606FC01CA
:1014400082810E94FE1B24C08091D406815080932B
:10145000D4061EC08091D5069091D606FC018281EB
:101460000E940B1C8AE08C838091820690918306F7
:101470009E01295F3F4F6AE0A9010E94642280918A
:101480008206909183062F816C81422F0E94EF2566
:101490008091D4068F5F8093D4068091D4060E94F9
:1014A000DF1D809132058983898127960FB6F894D4
:1014B000DEBF0FBECDBFCF91DF910895DF93CF93F5
:1014C00000D00F92CDB7DEB780913105898380912E
:1014D000D5069091D606FC018081918182309105DC
:1014E000C9F489E08A8380918206909183069E01E7
:1014F0002D5F3F4F69E0A9010E946422809182061E
:10150000909183062B816A81422F0E94EF25809162
:101510003205898389810F900F900F90CF91DF91D1
:101520000895DF93CF93CDB7DEB7CF91DF910895C4
:10153000DF93CF93CDB7DEB7CF91DF910895DF93DF
:10154000CF9300D000D00F92CDB7DEB78091310598
:1015500089838091D5069091D606FC018081918186
:1015600083309105C9F480E18A838091820690914D
:1015700083069E012C5F3F4F60E1A9010E94642217
:1015800080918206909183062C816A81422F0E946D
:10159000EF258091320589838091D5069091D606FA
:1015A000FC018081918184309105C9F48FE08B83A7
:1015B00080918206909183069E012B5F3F4F6FE0E2
:1015C000A9010E94642280918206909183062D8158
:1015D0006B81422F0E94EF2580913205898389819A
:1015E0000F900F900F900F900F90CF91DF91089573
:1015F000DF93CF93CDB7DEB7CF91DF910895DF931F
:10160000CF93CDB7DEB7CF91DF910895DF93CF931E
:1016100000D000D00F92CDB7DEB78091310589831D
:101620008091D5069091D606FC018081918183300E
:101630009105C9F480E18A838091820690918306A6
:101640009E012C5F3F4F60E1A9010E9464228091BE
:101650008206909183062C816A81422F0E94EF2599
:101660008091320589838091D5069091D606FC0140
:101670008081918184309105C9F48EE08B838091C3
:101680008206909183069E012B5F3F4F6EE0A90179
:101690000E94642280918206909183062D816B8145
:1016A000422F0E94EF2580913205898389810F9016
:1016B0000F900F900F900F90CF91DF910895DF93CF
:1016C000CF93CDB7DEB7CF91DF910895DF93CF935E
:1016D000CDB7DEB7CF91DF910895DF93CF9300D0E0
:1016E00000D00F92CDB7DEB780913105898380910C
:1016F000D5069091D606FC018081918183309105B9
:10170000C9F48EE08A8380918206909183069E01BF
:101710002C5F3F4F6EE0A9010E94642280918206F7
:10172000909183062C816A81422F0E94EF2580913F
:10173000320589838091D5069091D606FC0180817F
:10174000918184309105C9F48FE08B83809182066A
:10175000909183069E012B5F3F4F6FE0A9010E948D
:10176000642280918206909183062D816B81422FA5
:101770000E94EF2580913205898389810F900F9017
:101780000F900F900F90CF91DF910895DF93CF933B
:10179000CDB7DEB7CF91DF910895DF93CF93CDB76B
:1017A000DEB7CF91DF910895DF93CF93CDB7DEB74A
:1017B00086E591E00E94AB360E94401D8091800634
:1017C000909181060E9491108091D2069091D3064B
:1017D0000E94CF0D0E94D00F0E941710CF91DF9171
:1017E0000895DF93CF93CDB7DEB784E691E00E94F2
:1017F000AB360E94B3100E9429100E9403100E9471
:101800009C1BCF91DF910895DF93CF9300D000D040
:101810000F92CDB7DEB78091310589838091D506CF
:101820009091D606FC018081918188309105C9F4A0
:1018300089E08A8380918206909183069E012C5FC5
:101840003F4F69E0A9010E94642280918206909135
:1018500083062C816A81422F0E94EF2580913205F8
:1018600089838091D5069091D606FC018081918173
:1018700085309105C9F482E18B8380918206909135
:1018800083069E012B5F3F4F62E1A9010E94642203
:1018900080918206909183062D816B81422F0E9458
:1018A000EF258091320589838091D5069091D606E7
:1018B000FC01808191818630910549F40E94181CB9
:1018C0000E946A1C0E94AA19809132058983809126
:1018D000D5069091D606FC01808191818A309105D0
:1018E00029F40E94C31780913205898389810F9062
:1018F0000F900F900F900F90CF91DF910895DF938D
:10190000CF93CDB7DEB70E94351E8FEF9FE70E94C1
:101910009110CF91DF910895DF93CF93CDB7DEB7CC
:101920000E94B310CF91DF910895DF93CF9300D041
:101930000F92CDB7DEB78091310589838091D506AE
:101940009091D606FC01808191818330910551F000
:101950008091D5069091D606FC01808191818530D9
:101960009105C9F489E08A8380918206909183066B
:101970009E012D5F3F4F69E0A9010E946422809182
:101980008206909183062B816A81422F0E94EF2567
:101990008091320589838091D5069091D606FC010D
:1019A000808191818630910529F40E94D51C809117
:1019B0003205898389810F900F900F90CF91DF912D
:1019C0000895DF93CF93CDB7DEB70E94241BCF914C
:1019D000DF910895DF93CF93CDB7DEB7CF91DF913D
:1019E0000895DF93CF930F92CDB7DEB78091310585
:1019F000898389810F90CF91DF910895DF93CF93F1
:101A0000CDB7DEB78FEA96E0909383068093820687
:101A10008FEA96E021E731E0B90144E120E00E943D
:101A20002121CF91DF910895DF93CF93CDB7DEB71A
:101A30008FEA96E00E947021CF91DF910895DF93A5
:101A4000CF9300D000D0CDB7DEB79A8389837C8353
:101A50006B838B819C819093D6068093D506898178
:101A60009A810E94E0210F900F900F900F90CF91DC
:101A7000DF910895DF93CF9300D0CDB7DEB7F89410
:101A80008091D9069091DA069A8389837894898126
:101A90009A810F900F90CF91DF910895DF93CF93AC
:101AA00000D0CDB7DEB7F8948091DF069091E006C4
:101AB0009A838983789489819A810F900F90CF912E
:101AC000DF910895DF93CF93CDB7DEB78091D8062D
:101AD000882309F05AC087E390E0FC0110828091CE
:101AE000A7069091A806181619060CF04EC0809112
:101AF000A7069091A8062AE233E0A901481B590BDA
:101B0000CA019093DC068093DB068091DB069091FE
:101B1000DC068F30910534F48FE090E09093DC0682
:101B20008093DB068091DB069091DC068C3F91056B
:101B30008CF482EB90E02091DB063091DC063CEFE8
:101B4000532F521B252FFC0120831092DC0610928C
:101B5000DB060EC08091DB069091DC068C5F904026
:101B60009093DC068093DB0682EB90E0FC01108210
:101B700080E790E022E0FC01208381EB90E025E00B
:101B8000FC01208381E08093D806CF91DF910895F6
:101B9000DF93CF93CDB7DEB7CF91DF910895DF9379
:101BA000CF9300D0CDB7DEB79A838983F89489812B
:101BB0009A8123E08A3292073CF489819A8190933A
:101BC000A8068093A70606C08AE293E09093A80631
:101BD0008093A70678940F900F90CF91DF9108958E
:101BE0001F920F920FB60F9211242F933F934F9392
:101BF0005F936F937F938F939F93AF93BF93EF9375
:101C0000FF93DF93CF93CDB7DEB7F8948091DB06D7
:101C10009091DC06009709F581EB90E0FC011082C1
:101C200080E790E0FC0110828BE290E02BE230E054
:101C3000F90120812061FC0120838AE090E00E946C
:101C400060288BE290E02BE230E0F90120812F7ECA
:101C5000FC0120831092D80622C08091DB0690916F
:101C6000DC068C3F91058CF482EB90E02091DB0642
:101C70003091DC063CEFF32FF21B2F2FFC01208369
:101C80001092DC061092DB060AC08091DB06909170
:101C9000DC068C5F90409093DC068093DB067894A2
:101CA000CF91DF91FF91EF91BF91AF919F918F9174
:101CB0007F916F915F914F913F912F910F900FBE48
:101CC0000F901F9018951F920F920FB60F9211242C
:101CD0008F939F93EF93FF93DF93CF93CDB7DEB7AF
:101CE00088E790E0FC01808191819093DE068093EB
:101CF000DD068091D7068F5F8093D7068091D70647
:101D00008E3129F41092D70681E08093CD06CF91D1
:101D1000DF91FF91EF919F918F910F900FBE0F90E8
:101D20001F9018951F920F920FB60F9211242F93A8
:101D30003F934F935F936F937F938F939F93AF9353
:101D4000BF93EF93FF93DF93CF93CDB7DEB7F894B4
:101D500089E290E0FC018081882F90E0847090708F
:101D6000009719F00E94C80D02C00E94620D78947D
:101D7000CF91DF91FF91EF91BF91AF919F918F91A3
:101D80007F916F915F914F913F912F910F900FBE77
:101D90000F901F9018951F920F920FB60F9211245B
:101DA000DF93CF93CDB7DEB7CF91DF910F900FBE0A
:101DB0000F901F9018951F920F920FB60F9211243B
:101DC0002F933F934F935F936F937F938F939F9343
:101DD000AF93BF93EF93FF93DF93CF93CDB7DEB76E
:101DE0008091D9069091DA0601979093DA06809354
:101DF000D9068091DF069091E00601969093E00667
:101E00008093DF068091D9069091DA06181619069C
:101E100034F00E94B31081E08093A50603C081E0F6
:101E200080937F06CF91DF91FF91EF91BF91AF91AA
:101E30009F918F917F916F915F914F913F912F91E2
:101E40000F900FBE0F901F901895DF93CF93CDB7D3
:101E5000DEB781E290E020EFFC01208382E290E097
:101E600020EEFC0120838EE790E02FE0FC01208330
:101E70008AE290E02AE230E0F90120812B7FFC0128
:101E800020838BE290E02BE230E0F90120812B7F70
:101E9000FC0120838BE290E02BE230E0F90120810D
:101EA0002F7EFC0120838AE290E02AE230E0F901F3
:101EB00020812061FC0120838BE290E02BE230E066
:101EC000F90120812F7EFC01208389E690E021E04A
:101ED000FC0120838DE390E0FC01108210927F06CC
:101EE00080E890E0FC01108281E890E028E0FC01AD
:101EF000208382E890E0FC01108288E890E020E3F3
:101F00003AE2FC013183208384E890E0FC011182F5
:101F100010828FE690E0FC01108284E490E022E0E1
:101F2000FC01208387E490E02FEFFC01208386E40E
:101F300090E0FC01108285E490E0FC0110828EE6C6
:101F400090E0FC0110821092D80680EB90E022E035
:101F5000FC01208381EB90E0FC01108286EB90E095
:101F6000FC01108283EB90E02CEFFC01208382EBDC
:101F700090E0FC01108280E790E0FC0110828AE78B
:101F800090E027E0FC0120831092CD061092D70646
:101F90001092DE061092DD067894CF91DF910895BD
:101FA000DF93CF93CDB7DEB78AE790E027E0FC015F
:101FB00020831092CD061092D7068091CE068130F4
:101FC00031F48CE790E021E4FC01208305C08CE72C
:101FD00090E022E4FC0120838AE790E02FEAFC01F4
:101FE00020838BE790E023E0FC01208385E490E0F0
:101FF00025E0FC0120838EE690E022E0FC012083B6
:10200000CF91DF910895DF93CF93CDB7DEB78AE705
:1020100090E027E0FC01208385E490E0FC01108241
:102020008EE690E0FC011082CF91DF910895DF935E
:10203000CF93CDB7DEB70E9499188CE390E0FC01F6
:1020400010828DE390E021E0FC012083CF91DF91AD
:102050000895DF93CF93CDB7DEB78DE390E0FC0119
:102060001082F8940E94C80D7894CF91DF91089562
:10207000DF93CF9300D0CDB7DEB7F8948091DD0623
:102080009091DE069A838983789489819A810F9052
:102090000F90CF91DF910895DF93CF9300D000D0C0
:1020A00000D0CDB7DEB780E090E0DC0189839A8371
:1020B000AB83BC830E9438109E838D838D819E816B
:1020C000AA2797FDA095BA2FBC01CD010E943E2FF3
:1020D000DC01CB01BC01CD0120E030E040EA50E45E
:1020E0000E94F22FDC01CB01BC01CD0120E030ECDD
:1020F0004FE754E40E94A32EDC01CB0189839A832D
:10210000AB83BC8389819A81AB81BC81BC01CD0149
:1021100026960FB6F894DEBF0FBECDBFCF91DF91EC
:102120000895DF93CF9300D0CDB7DEB79A8389832C
:102130001092A50689819A819093DA068093D90638
:102140001092E0061092DF068FE690E022E0FC019C
:10215000208381E890E02DE0FC0120830F900F9018
:10216000CF91DF910895DF93CF93CDB7DEB781E8AC
:1021700090E028E0FC0120838FE690E0FC011082D3
:10218000CF91DF910895DF93CF9300D0CDB7DEB725
:102190001A82198288E290E028E230E0F901208179
:1021A000237FFC01208382E290E022E230E0F9010B
:1021B00020812F73FC01208382E290E022E230E054
:1021C000F90120812068FC01208388E090E00E94D2
:1021D000602886E290E0FC018081807F8A838A818A
:1021E000882329F18A81882314F482E389838A81F0
:1021F000992787FD909580749070009711F080E387
:1022000089838A81992787FD9095807290700097C5
:1022100011F088E389838A81992787FD90958071E1
:102220009070009709F4CDC085E38983CAC082E22B
:1022300090E022E230E0F90120812F77FC01208339
:1022400088E290E028E230E0F90120812460FC017E
:10225000208388E090E00E94602886E290E0FC0104
:102260008081807F8A838A81882329F18A818823DB
:1022700014F481E389838A81992787FD909580747E
:102280009070009711F085E089838A81992787FDF6
:10229000909580729070009711F087E389838A810E
:1022A000992787FD909580719070009709F489C0F7
:1022B00084E3898386C088E290E028E230E0F90177
:1022C00020812B7FFC01208388E290E028E230E02F
:1022D000F90120812860FC01208388E090E00E94C1
:1022E000602886E290E0FC018081807F8A838A8179
:1022F000882329F18A81882314F483E389838A81DE
:10230000992787FD909580749070009711F086E072
:1023100089838A81992787FD9095807290700097B4
:1023200011F089E389838A81992787FD90958071CF
:102330009070009709F445C086E3898342C088E223
:1023400090E028E230E0F9012081277FFC01208322
:1023500082E290E022E230E0F90120812064FC0179
:10236000208388E090E00E94602886E290E0FC01F3
:102370008081807F8A838A81882319F18A818823DA
:1023800014F481E089838A81992787FD9095807470
:102390009070009711F082E089838A81992787FDE8
:1023A000909580729070009711F083E089838A8104
:1023B000992787FD909580719070009711F084E0C7
:1023C000898389810F900F90CF91DF910895DF93DA
:1023D000CF93CDB7DEB71092E10681E08093E2069D
:1023E00087E290E027E230E0F90120812C60FC01D7
:1023F000208387E290E027E230E0F90120812F700E
:10240000FC01208381E290E021E230E0F9012081AB
:10241000206CFC01208388E290E028E230E0F901A2
:1024200020812C60FC01208388E290E028E230E0EB
:10243000F90120812F70FC01208382E290E022E2EA
:1024400030E0F9012081206CFC0120838DE690E0D2
:1024500020EFFC01208388E690E028E630E0F901D7
:1024600020812460FC0120837894CF91DF9108952E
:102470001F920F920FB60F9211242F933F934F93F9
:102480005F936F937F938F939F93AF93BF93EF93DC
:10249000FF93DF93CF93CDB7DEB788E690E0FC01E2
:1024A00010828DE690E0FC01108286E290E0FC0153
:1024B0008081882F90E0807F9070009759F0809104
:1024C000E206882321F00E94C3108093E106109257
:1024D000E20603C081E08093E20688E290E028E211
:1024E00030E0F90120812C60FC01208382E290E041
:1024F00022E230E0F9012081206CFC0120830E945F
:1025000059288BE390E0FC0110828DE690E020EFEB
:10251000FC01208388E690E028E630E0F901208184
:102520002460FC012083CF91DF91FF91EF91BF9157
:10253000AF919F918F917F916F915F914F913F915B
:102540002F910F900FBE0F901F901895DF93CF9390
:102550000F92CDB7DEB7F8948091E106898310928F
:10256000E106789489810F90CF91DF9108951F93B0
:10257000DF93CF93CDB7DEB728970FB6F894DEBFC1
:102580000FBECDBF80E090E0A4E3B2E489839A83DC
:10259000AB83BC832091C9063091CA068091C306E3
:1025A0009091C406A901481B590BCA01AA2797FD9F
:1025B000A095BA2FBC01CD010E943E2FDC01CB01BA
:1025C0008D839E83AF83B8878D819E81AF81B885CF
:1025D000BF7711E0BC01CD0120E030E040E85FE3CF
:1025E0000E94EE2F18160CF010E01123A9F069815B
:1025F0007A818B819C812D813E814F8158850E94FB
:10260000A32EDC01CB018093E3069093E406A09314
:10261000E506B093E6060BC080E090E0DC01809315
:10262000E3069093E406A093E506B093E6062896A9
:102630000FB6F894DEBF0FBECDBFCF91DF911F91D3
:102640000895DF93CF9300D00F92CDB7DEB78B8381
:1026500083EF96E060E070E044E050E00E9458367E
:102660008B818093F30623EF36E080E1B90141E0EE
:102670000E948E2D992787FD90959A838983898161
:102680009A810F900F900F90CF91DF910895DF9373
:10269000CF9300D00F92CDB7DEB78B83198281E63E
:1026A00092E00E94AB368FEF96E060E070E048E089
:1026B00050E00E9458362FEF36E080E1B90146E045
:1026C0000E94E12D8983809104078A8381E02B8118
:1026D0009A81291709F080E089838B81682F7727F9
:1026E00067FD70958A81482F552747FD5095898150
:1026F000282F332727FD30958DB79EB708970FB643
:10270000F8949EBF0FBE8DBF8DB79EB70196E1E8CE
:10271000F2E0DC01ED93FC93FC0173836283DC0146
:1027200015965C934E931497FC01378326830E9481
:1027300096368DB79EB708960FB6F8949EBF0FBE1B
:102740008DBF89810F900F900F90CF91DF910895E9
:10275000DF93CF9300D00F92CDB7DEB78B83198272
:102760001A820AC08B810E9421138B810E94471319
:1027700089838A818F5F8A838981882319F48A817A
:10278000823084F389810F900F900F90CF91DF9169
:102790000895DF93CF93CDB7DEB72B970FB6F8949C
:1027A000DEBF0FBECDBF8FEF96E060E070E048E087
:1027B00050E00E9458362FEF36E080E1B90146E044
:1027C0000E94E12D898389818F3F09F08CC080911F
:1027D00004078A838091FF0680938C068FEF96E032
:1027E00001969C838B838B819C81FC0180819181EC
:1027F0009E838D83809102078F838F81882349F583
:102800008D819E81AA2797FDA095BA2FBC01CD018D
:102810000E943E2FDC01CB01BC01CD012DEC3CEC34
:102820004CE85FE30E94F22FDC01CB01BC01CD013B
:1028300020E030E040E256E40E94A32EDC01CB0110
:1028400080938D0690938E06A0938F06B09390068A
:1028500028C08D819E81AA2797FDA095BA2FBC0123
:10286000CD010E943E2FDC01CB01BC01CD012DEC3E
:102870003CEC4CE85FE30E94F22FDC01CB01BC0191
:10288000CD0120E030E040E054E40E94A32EDC01C2
:10289000CB0180938D0690938E06A0938F06B09304
:1028A000900680918D0690918E06A0918F06B09132
:1028B000900688879987AA87BB878A81813019F417
:1028C00081E08093AC068A818830C9F481E996E082
:1028D0002AEC32E0B90144E150E00E944F3681E039
:1028E0008093A9060CC081E996E02EED32E0B90193
:1028F0004CE050E00E944F3681E08093A9062B9671
:102900000FB6F894DEBF0FBECDBFCF91DF91089513
:10291000DF93CF930F92CDB7DEB78091FF06809300
:102920008C068091040789838981883089F48AEE36
:1029300092E00E94AB3681E996E02BE033E0B901EA
:1029400044E150E00E944F3681E08093A90606C022
:102950008981833019F083E00E9421130F90CF9179
:10296000DF910895DF93CF93CDB7DEB781E08093F9
:102970001807CF91DF910895DF93CF9300D0CDB7A3
:10298000DEB780911807853030F4809118078F5F8B
:102990008093180712C08FEF96E060E070E048E087
:1029A00050E00E9458362FEF36E080E1B90146E052
:1029B0000E94B72D81E0809318070E943A0D9A83F8
:1029C000898389819A818F719070009711F40E9498
:1029D000C1180F900F90CF91DF910895AF92BF92E1
:1029E000CF92DF92EF92FF920F931F93DF93CF93DB
:1029F000CDB7DEB760970FB6F894DEBF0FBECDBF80
:102A000069837A838B839C832D833E834F8358878E
:102A1000E986FA860B871C87AD86BE86CF86D88A64
:102A20008D819E81AF81B88580930B0790930C07B1
:102A3000A0930D07B0930E0789819A81AB81BC8169
:102A40008093EB069093EC06A093ED06B093EE0610
:102A500089859A85AB85BC85809310079093110773
:102A6000A0931207B09313078D859E85AF85B88913
:102A70008093FB069093FC06A093FD06B093FE06A0
:102A80008D8D9E8DAF8DB8A18093E7069093E8065B
:102A9000A093E906B093EA0689A19AA1ABA1BCA1D3
:102AA0008093070790930807A0930907B0930A073C
:102AB00060E070E080E89FE329A13AA14BA15CA10E
:102AC0000E94A32EDC01CB018093F7069093F806B9
:102AD000A093F906B093FA0680E090E0DC018093C1
:102AE000190790931A07A0931B07B0931C07109225
:102AF0000F070E94B71280E090E0DC01809314077A
:102B000090931507A0931607B093170760960FB61A
:102B1000F894DEBF0FBECDBFCF91DF911F910F9113
:102B2000FF90EF90DF90CF90BF90AF900895EF921D
:102B3000FF920F931F93DF93CF93CDB7DEB76097CC
:102B40000FB6F894DEBF0FBECDBF6D877E878F872F
:102B5000988B8D859E85AF85B889BF772091E706D4
:102B60003091E8064091E9065091EA0611E0BC0177
:102B7000CD010E949F2E88230CF010E0112349F014
:102B800080E090E0A0E8BFE389839A83AB83BC83B5
:102B900012C080E090E0DC0189839A83AB83BC8320
:102BA00080E090E0DC018093190790931A07A093CE
:102BB0001B07B0931C078091070790910807A0910D
:102BC0000907B0910A07BC01CD0129813A814B81E7
:102BD0005C810E94F22FDC01CB01BC01CD012D856F
:102BE0003E854F8558890E94F22FDC01CB01209150
:102BF000190730911A0740911B0750911C07BC011F
:102C0000CD010E943B2EDC01CB01809319079093EC
:102C10001A07A0931B07B0931C0780910F07882306
:102C200059F481E080930F0780E090E0DC01898710
:102C30009A87AB87BC8722C02091EF063091F006BF
:102C40004091F1065091F2066D857E858F859889B9
:102C50000E943A2EDC01CB012091F7063091F80654
:102C60004091F9065091FA06BC01CD010E94F22F65
:102C7000DC01CB0189879A87AB87BC878D859E85D0
:102C8000AF85B8898093EF069093F006A093F10684
:102C9000B093F20680910B0790910C07A0910D075D
:102CA000B0910E07BC01CD012D853E854F85588919
:102CB0000E94F22FDC01CB017C018D018091100775
:102CC00090911107A0911207B09113072091190755
:102CD00030911A0740911B0750911C07BC01CD0190
:102CE0000E94F22FDC01CB019C01AD01C801B701AC
:102CF0000E943B2EDC01CB017C018D018091FB0603
:102D00009091FC06A091FD06B091FE06BC01CD019C
:102D100029853A854B855C850E94F22FDC01CB0129
:102D20009C01AD01C801B7010E943B2EDC01CB0123
:102D30002091EB063091EC064091ED065091EE06A5
:102D4000BC01CD010E94F22FDC01CB018D839E835B
:102D5000AF83B88711E06D817E818F81988520E0F7
:102D600030E040EF51E40E94EE2F18160CF010E016
:102D7000112349F080E090E0A0EFB1E48D839E83C1
:102D8000AF83B88718C011E06D817E818F819885EF
:102D900020E030E040EF51EC0E949F2E88230CF0A1
:102DA00010E0112341F080E090E0A0EFB1EC8D83C2
:102DB0009E83AF83B8878D819E81AF81B885BC012A
:102DC000CD0160960FB6F894DEBF0FBECDBFCF9198
:102DD000DF911F910F91FF90EF900895DF93CF93B4
:102DE000CDB7DEB72E970FB6F894DEBF0FBECDBFBE
:102DF0000E9438109A8389838091C3069091C406FB
:102E000029813A81A901481B590BCA01AA2797FDBC
:102E1000A095BA2FBC01CD010E943E2FDC01CB0151
:102E20002091E3063091E4064091E5065091E606D4
:102E3000BC01CD010E94F22FDC01CB01BC01CD0110
:102E400020E030E040E751E40E943B2EDC01CB0162
:102E50008B839C83AD83BE838091E3069091E406CF
:102E6000A091E506B091E6068F839887A987BA8777
:102E70008B819C81AD81BE818B879C87AD87BE870E
:102E8000E091C306F091C4066091C9067091CA062C
:102E90008DB79EB740970FB6F8949EBF0FBE8DBFFB
:102EA0008DB79EB701962FE133E0DC012D933C9363
:102EB00029813A81DC0113963C932E9312972F813E
:102EC000388549855A85DC0114962D933D934D93A1
:102ED0005C931797DC011996FC93EE931897FC010D
:102EE000738762872B853C854D855E85DC011C964A
:102EF0002D933D934D935C931F970E949636EDB7AB
:102F0000FEB770960FB6F894FEBF0FBEEDBF00D0AF
:102F100000D000D08DB79EB701962FE433E0DC01DE
:102F20002D933C932FE030E0FC01338322832CE38C
:102F300030E0DC0115963C932E9314970E94963650
:102F4000EDB7FEB736960FB6F894FEBF0FBEEDBFD5
:102F50008B819C81AD81BE818093C5069093C6060E
:102F6000A093C706B093C8068B819C81AD81BE81BA
:102F7000BC01CD012E960FB6F894DEBF0FBECDBFBB
:102F8000CF91DF910895DF93CF93CDB7DEB72C9724
:102F90000FB6F894DEBF0FBECDBF0E94EE16DC0167
:102FA000CB01209184063091850640918606509190
:102FB0008706BC01CD010E943A2EDC01CB0189833A
:102FC0009A83AB83BC8389819A81AB81BC81BC012C
:102FD000CD010E949715DC01CB012091140730919F
:102FE00015074091160750911707BC01CD010E94AB
:102FF0003B2EDC01CB018D839E83AF83B8876D812F
:103000007E818F8198850E940B2FDC01CB019A87EE
:10301000898789859A85AA2797FDA095BA2FBC0133
:10302000CD010E943E2F9B01AC016D817E818F817D
:1030300098850E943A2EDC01CB018093140790936F
:103040001507A0931607B09317072091A706309194
:10305000A80689859A85820F931F9C878B878B850D
:103060009C850E94CF0D2C960FB6F894DEBF0FBE44
:10307000CDBFCF91DF910895AF92BF92CF92DF92F3
:10308000EF92FF920F931F93DF93CF93CDB7DEB7ED
:103090008DB79EB708970FB6F8949EBF0FBE8DBF31
:1030A0002DB73EB72F5F3F4F80E090E0A0EAB0E43D
:1030B000F90180839183A283B3838AEA93E1A6E333
:1030C000BFE3F90184839583A683B78366E676E63A
:1030D00086EE9EEB2DEC3CEC4CE85FE30F2EFDEC16
:1030E000EF2EFCECFF2EFCE40F2FFEE31F2FF02D44
:1030F0000F2EFDECAF2EFCECBF2EFCE4CF2EFEE33A
:10310000DF2EF02D0E94EE148DB79EB708960FB6F5
:10311000F8949EBF0FBE8DBF1092AC06CF91DF9189
:103120001F910F91FF90EF90DF90CF90BF90AF90E5
:103130000895DF93CF93CDB7DEB780E090E0DC0158
:103140008093140790931507A0931607B093170761
:1031500080E090E0DC018093190790931A07A09318
:103160001B07B0931C0780E090E0DC018093EF0622
:103170009093F006A093F106B093F206CF91DF9101
:103180000895DF93CF93CDB7DEB72E970FB6F8949F
:10319000DEBF0FBECDBF8091E3069091E406A09103
:1031A000E506B091E60689839A83AB83BC831E82D1
:1031B0001D828091C3069091C4062D813E81A90194
:1031C000481B590BCA01AA2797FDA095BA2FBC012D
:1031D000CD010E943E2FDC01CB012091E30630910E
:1031E000E4064091E5065091E606BC01CD010E943F
:1031F000F22FDC01CB01BC01CD0120E030E040E743
:1032000051E40E943B2EDC01CB018F839887A98774
:10321000BA878F819885A985BA858B879C87AD876A
:10322000BE8787E693E00E94AB364091D20650916C
:10323000D3062091CB063091CC068DB79EB70A9766
:103240000FB6F8949EBF0FBE8DBF8DB79EB7019687
:1032500062E773E0FC01718360836FE070E0FC0162
:10326000738362836CE370E0FC0175836483FC010B
:1032700057834683FC01318720870E9496364DB7DD
:103280005EB7465F5F4F0FB6F8945EBF0FBE4DBF8F
:103290004091C3065091C4062091C9063091CA06D8
:1032A00000D000D000D08DB79EB7019665EA73E0DC
:1032B000FC0171836083FC0153834283FC013583ED
:1032C00024830E9496364DB75EB74A5F5F4F0FB6B4
:1032D000F8945EBF0FBE4DBF80918C06482F50E022
:1032E0008DB79EB70C970FB6F8949EBF0FBE8DBFDB
:1032F0002DB73EB72F5F3F4F8EEB93E0F9019183DF
:1033000080838B859C85AD85BE85F90182839383FF
:10331000A483B58389819A81AB81BC81F9018683BD
:103320009783A087B187F901538742870E94963619
:103330004DB75EB7445F5F4F0FB6F8945EBF0FBEE8
:103340004DBF2E960FB6F894DEBF0FBECDBFCF9106
:10335000DF910895DF93CF93CDB7DEB761970FB6B6
:10336000F894DEBF0FBECDBF0E944C10DC01CB0134
:1033700089839A83AB83BC834091A7065091A806AA
:103380008DB79EB70A970FB6F8949EBF0FBE8DBF3C
:103390002DB73EB72F5F3F4FCE010596F9019183C0
:1033A00080838DEE93E0F9019383828389819A81F2
:1033B000AB81BC81F90184839583A683B783F9012E
:1033C000518740870E94E0368DB79EB70A960FB6A8
:1033D000F8949EBF0FBE8DBF83E066E040E20E947E
:1033E0003903CE01059660E20E94150361960FB67F
:1033F000F894DEBF0FBECDBFCF91DF910895DF936C
:10340000CF93CDB7DEB766970FB6F894DEBF0FBE89
:10341000CDBF0E9438109A8389830E944C10DC0132
:10342000CB018B839C83AD83BE836091A706709193
:10343000A8068DB79EB70C970FB6F8949EBF0FBE27
:103440008DBF8DB79EB701969E01295F3F4FFC014E
:103450003183208329EF33E0FC01338322832B81E6
:103460003C814D815E81FC012483358346835783F3
:1034700029813A81FC0131872087FC0173876287AB
:103480000E94E0368DB79EB70C960FB6F8949EBF9B
:103490000FBE8DBF80E20E940503CE01079660E259
:1034A0000E94150366960FB6F894DEBF0FBECDBF1F
:1034B000CF91DF910895DF93CF93CDB7DEB76497B7
:1034C0000FB6F894DEBF0FBECDBF80918D069091F0
:1034D0008E06A0918F06B091900689839A83AB8364
:1034E000BC8380918C06882F90E02DB73EB72A5080
:1034F00030400FB6F8943EBF0FBE2DBF2DB73EB77C
:103500002F5F3F4FAE014B5F5F4FF9015183408307
:103510004AE054E0F90153834283F901958384839F
:1035200089819A81AB81BC81F90186839783A087C9
:10353000B1870E94E0362DB73EB7265F3F4F0FB6EA
:10354000F8943EBF0FBE2DBF80E20E940503CE015E
:10355000059660E20E94150364960FB6F894DEBFEC
:103560000FBECDBFCF91DF910895DF93CF93CDB73D
:10357000DEB760970FB6F894DEBF0FBECDBF809167
:103580008C06282F30E000D000D000D08DB79EB739
:103590000196AE014F5F5F4FFC015183408348E1CC
:1035A00054E0FC0153834283FC01358324830E9451
:1035B000E0368DB79EB706960FB6F8949EBF0FBE45
:1035C0008DBF83E068E040E20E943903CE0101969E
:1035D00060E20E94150360960FB6F894DEBF0FBE3E
:1035E000CDBFCF91DF910895DF93CF93CDB7DEB7F5
:1035F00080E20E94F50285E294E060E20E941503F9
:1036000083E060E040E20E94390389E394E060E2F5
:103610000E941503CF91DF910895DF93CF93CDB72B
:10362000DEB780E20E94F5028EE494E060E20E9440
:10363000150380E20E94050385E594E060E20E94A4
:103640001503CF91DF910895DF93CF93CDB7DEB708
:1036500080E20E94F50282E694E060E20E94150397
:1036600080E20E94050381E996E060E20E94150372
:10367000CF91DF910895DF93CF9300D000D0CDB7E5
:10368000DEB79C838B8380E20E94F5028EE694E095
:1036900060E20E94150300D000D000D08DB79EB725
:1036A00001969E012F5F3F4FFC013183208323E76A
:1036B00034E0FC01338322832B813C81FC01358380
:1036C00024830E94E0368DB79EB706960FB6F89415
:1036D0009EBF0FBE8DBFCE01019660E20E94150312
:1036E00087E794E060E20E94150383E060E040E237
:1036F0000E94390382E894E060E20E9415030F9073
:103700000F900F900F90CF91DF910895DF93CF939B
:10371000CDB7DEB78FE090E00E943B1BCF91DF91E9
:103720000895DF93CF93CDB7DEB78CE390E00E948E
:103730003B1BCF91DF910895DF93CF93CDB7DEB7D9
:1037400080E20E94F502CF91DF910895DF93CF933D
:10375000CDB7DEB780E20E94F50286E994E060E230
:103760000E94150380E20E94050387EA94E060E26C
:103770000E941503CF91DF910895DF93CF930F92AD
:10378000CDB7DEB7898389810E94C2280F90CF917F
:10379000DF910895DF93CF930F92CDB7DEB7898382
:1037A00089810E94EF280F90CF91DF910895DF93D8
:1037B000CF930F92CDB7DEB7898389810E941C29F0
:1037C0000F90CF91DF910895DF93CF930F92CDB7F4
:1037D000DEB7898389810E9493290F90CF91DF9171
:1037E0000895DF93CF930F92CDB7DEB78983898198
:1037F0000E94A8290F90CF91DF910895DF93CF9376
:103800000F92CDB7DEB7898389810E94BD290F90C1
:10381000CF91DF910895DF93CF930F92CDB7DEB7AD
:10382000898389810E94D2290F90CF91DF910895D9
:10383000DF93CF93CDB7DEB72C970FB6F894DEBFEA
:103840000FBECDBF8091C5069091C606A091C70658
:10385000B091C80689839A83AB83BC838DB79EB72A
:1038600008970FB6F8949EBF0FBE8DBF2DB73EB719
:103870002F5F3F4FCE010596F901918380838FEA38
:1038800094E0F9019383828389819A81AB81BC8121
:10389000F90184839583A683B7830E94E0368DB7B0
:1038A0009EB708960FB6F8949EBF0FBE8DBF81E0FD
:1038B00060E040E20E943903CE01059660E20E947A
:1038C00015032C960FB6F894DEBF0FBECDBFCF9177
:1038D000DF910895DF93CF93CDB7DEB761970FB631
:1038E000F894DEBF0FBECDBF0E943A0D9A83898344
:1038F00089819A812CE330E0B9010E94DB339B017E
:10390000C901AA2797FDA095BA2F8B839C83AD830D
:10391000BE838B819C8198878F8399812B8184ECD6
:10392000289F802D1124890F89878985282F332787
:1039300027FD30958DB79EB708970FB6F8949EBFB8
:103940000FBE8DBF8DB79EB70196AE01465F5F4F2C
:10395000FC015183408346EB54E0FC0153834283D6
:103960004F815885FC0155834483FC0137832683AE
:103970000E94E0368DB79EB708960FB6F8949EBFAA
:103980000FBE8DBF81E069E040E20E943903CE01A5
:103990000A9660E20E94150361960FB6F894DEBFA6
:1039A0000FBECDBFCF91DF910895DF93CF93CDB7F9
:1039B000DEB761970FB6F894DEBF0FBECDBF0E9491
:1039C0004E0D9A83898389819A812CE330E0B90175
:1039D0000E94DB339B01C901AA2797FDA095BA2F4E
:1039E0008B839C83AD83BE838B819C8198878F83DF
:1039F00099812B8184EC289F802D1124890F898740
:103A00008985282F332727FD30958DB79EB70897D6
:103A10000FB6F8949EBF0FBE8DBF8DB79EB70196AF
:103A2000AE01465F5F4FFC015183408346EB54E09B
:103A3000FC01538342834F815885FC0155834483A5
:103A4000FC01378326830E94E0368DB79EB7089627
:103A50000FB6F8949EBF0FBE8DBF81E067E040E2D5
:103A60000E943903CE010A9660E20E941503619616
:103A70000FB6F894DEBF0FBECDBFCF91DF91089592
:103A8000DF93CF93CDB7DEB780E20E94F5028FEBD4
:103A900094E060E20E94150380E061E140E20E9450
:103AA00039038DE197E060E20E94150383E060E056
:103AB00040E20E94390388EC94E060E20E94150322
:103AC000CF91DF910895DF93CF93CDB7DEB780E23A
:103AD0000E94F5028FEC94E060E20E94150380E200
:103AE0000E9405038BED94E060E20E94150380E0E4
:103AF00061E140E20E9439038DE197E060E20E94BB
:103B0000150383E060E040E20E9439038AEE94E00E
:103B100060E20E941503CF91DF910895DF93CF9368
:103B2000CDB7DEB780E060E040E20E94390382EF6B
:103B300094E060E20E941503CF91DF910895DF9336
:103B4000CF93CDB7DEB780E060E040E20E9439035A
:103B50008DEF94E060E20E941503CF91DF9108950C
:103B6000DF93CF930F92CDB7DEB7898381E062E018
:103B700040E20E94390380917D0660E20E94890341
:103B80008091CF0660E20E9489038091D00660E2B6
:103B90000E9489038981882364F0898183304CF4F1
:103BA00089818E5F982F81E0692F40E20E94640333
:103BB00002C00E947D030F90CF91DF910895DF93A3
:103BC000CF930F92CDB7DEB7898381E068E040E202
:103BD0000E9439038091A60660E20E9489038091C9
:103BE000AB0660E20E9489038DE660E20E948903D1
:103BF0008091890660E20E9489038091AD0660E2AF
:103C00000E9489038981882364F0898185304CF47E
:103C10008981885F982F81E0692F40E20E946403C8
:103C200002C00E947D030F90CF91DF910895DF9332
:103C3000CF93CDB7DEB78091CE06882351F48DE1C6
:103C400097E028E035E0B90144E050E00E944F36AB
:103C500009C08DE197E02CE035E0B90144E050E087
:103C60000E944F36CF91DF910895DF93CF93CDB768
:103C7000DEB780E20E94F50280E195E060E20E94FA
:103C8000150381E060E040E20E94390387E195E09E
:103C900060E20E94150383E060E040E20E94390385
:103CA0008DE195E060E20E941503CF91DF910895C8
:103CB000DF93CF9300D000D000D0CDB7DEB79E8386
:103CC0008D83198264C18D819E81FC01258136819D
:103CD0008981882F90E0880F991FAC01440F551FF0
:103CE000440F551F440F551FBA01681B790BCB01B8
:103CF000820F931FFC0114868BE090E09C838B83E2
:103D000040C08D819E81FC01258136818981882F6B
:103D100090E0880F991FAC01440F551F440F551FA9
:103D2000440F551FBA01681B790BCB01280F391FAF
:103D30008D819E81FC01458156818981882F90E08B
:103D4000880F991FBC01660F771F660F771F660FDC
:103D5000771FFB01E81BF90BCF01480F591F8B811F
:103D60009C810197840F951FFC0140818B819C8170
:103D7000820F931FFC0140838B819C8101979C8360
:103D80008B838B819C81181619060CF4BACF8D8118
:103D90009E81FC01258136818981882F90E0880FE2
:103DA000991FAC01440F551F440F551F440F551F59
:103DB000BA01681B790BCB01820F931F2981FC018B
:103DC00020838D819E81FC01258136818981882F08
:103DD00090E0880F991FAC01440F551F440F551FE9
:103DE000440F551FBA01681B790BCB01820F931F3B
:103DF000FC0124852F5FFC01248789818A83ACC064
:103E00008BE090E09C838B8340C08D819E81FC0180
:103E1000258136818981882F90E0880F991FAC0118
:103E2000440F551F440F551F440F551FBA01681BFF
:103E3000790BCB01280F391F8D819E81FC014581B3
:103E400056818981882F90E0880F991FBC01660FE9
:103E5000771F660F771F660F771FFB01E81BF90BB3
:103E6000CF01480F591F8B819C810197840F951FAB
:103E7000FC0140818B819C81820F931FFC01408358
:103E80008B819C8101979C838B838B819C811816ED
:103E900019060CF4BACF8D819E81FC0125813681F3
:103EA0008981882F90E0880F991FAC01440F551F1E
:103EB000440F551F440F551FBA01681B790BCB01E6
:103EC000A901480F591F8D819E81FC016281738178
:103ED0008A81282F30E0C901880F991F820F931F14
:103EE000880F991F880F991F860F971FFC018181EA
:103EF000FA0180838D819E81FC0125813681898133
:103F0000882F90E0880F991FAC01440F551F440F74
:103F1000551F440F551FBA01681B790BCB01820F47
:103F2000931FFC0124852F5FFC0124878D819E81D6
:103F3000FC01428153818A81282F30E0C901880F1A
:103F4000991F820F931F880F991F880F991F840F45
:103F5000951FFC0181818A838D819E81FC014281B4
:103F600053818A81282F30E0C901880F991F820F61
:103F7000931F880F991F880F991F840F951FFC01AD
:103F800081818F3F09F03CCF89818F5F89838D814B
:103F90009E81FC0191818981891708F494CE26962F
:103FA0000FB6F894DEBF0FBECDBFCF91DF9108955D
:103FB000DF93CF9300D00F92CDB7DEB79B838A8378
:103FC00019821DC08A819B81FC01258136818981EE
:103FD000882F90E0880F991FAC01440F551F440FA4
:103FE000551F440F551FBA01681B790BCB01820F77
:103FF000931F2FEFFC01258789818F5F89838A8139
:104000009B81FC01918189818917E0F20F900F90CB
:104010000F90CF91DF910895DF93CF9300D000D020
:10402000CDB7DEB79B838A836C838A819B81FC0139
:10403000428153818C81282F30E0C901880F991F5C
:10404000820F931F880F991F880F991F840F951F48
:10405000FC01868197810097C1F08A819B81FC01D8
:10406000428153818C81282F30E0C901880F991F2C
:10407000820F931F880F991F880F991F840F951F18
:10408000FC0186819781FC0109958A819B81FC0155
:10409000428153818C81282F30E0C901880F991FFC
:1040A000820F931F880F991F880F991F840F951FE8
:1040B000FC01808591850097C1F08A819B81FC017C
:1040C000428153818C81282F30E0C901880F991FCC
:1040D000820F931F880F991F880F991F840F951FB8
:1040E000FC0180859185FC0109958A819B812C8149
:1040F000FC0124838A819B81FC01428153818C8154
:10410000282F30E0C901880F991F820F931F880F55
:10411000991F880F991F840F951FFC018281898345
:1041200085C08A819B81FC01428153818981282F2E
:10413000332727FD3095C901880F991F820F931FE0
:10414000880F991F880F991F840F951FFC01868186
:1041500097810097D1F08A819B81FC014281538134
:104160008981282F332727FD3095C901880F991F92
:10417000820F931F880F991F880F991F840F951F17
:10418000FC0186819781FC0109958A819B81FC0154
:10419000428153818981282F332727FD3095C9011A
:1041A000880F991F820F931F880F991F880F991FDF
:1041B000840F951FFC01808591850097D1F08A813D
:1041C0009B81FC01428153818981282F332727FD60
:1041D0003095C901880F991F820F931F880F991F6F
:1041E000880F991F840F951FFC0180859185FC0124
:1041F000099529818A819B81FC0124838A819B8185
:10420000FC01428153818981282F332727FD309576
:10421000C901880F991F820F931F880F991F880F5C
:10422000991F840F951FFC018281898389818F3FAB
:1042300009F077CF0F900F900F900F90CF91DF91F3
:104240000895DF93CF9300D000D000D0CDB7DEB774
:104250009A8389837C836B834D832E8389819A81A2
:104260002D81FC01218389819A812B813C81FC0174
:104270003383228389819A81FC018181882F90E098
:10428000880F991F9C01220F331F220F331F220F0B
:10429000331FA901481B590BCA010E9439349C01E4
:1042A00089819A81FC013683258389819A810E94C4
:1042B000581E89819A810E94D81F89819A816E81B6
:1042C0000E940C2089819A812FEFFC01238B269676
:1042D0000FB6F894DEBF0FBECDBFCF91DF9108952A
:1042E000DF93CF9300D0CDB7DEB79A8389838981DE
:1042F0009A81FC01858196810E94D3340F900F90A2
:10430000CF91DF910895DF93CF9300D000D000D0FC
:10431000CDB7DEB79C838B836D834E831982198260
:104320008B819C81FC01258136818E81882F90E0D4
:10433000880F991FAC01440F551F440F551F440FA0
:10434000551FBA01681B790BCB01820F931FFC012B
:10435000848581508A8327C08B819C81FC012581C3
:1043600036818E81882F90E0880F991FAC01440F11
:10437000551F440F551F440F551FBA01681B790B79
:10438000CB01280F391F8A81992787FD9095820FCD
:10439000931FFC0190818D81981711F481E089832E
:1043A0008A8181508A838A818823B4F689812696FE
:1043B0000FB6F894DEBF0FBECDBFCF91DF91089549
:1043C000DF93CF9300D000D00F92CDB7DEB79D839F
:1043D0008C838C819D812FEFFC01238B8C819D81AF
:1043E000079660E070E04CE050E00E9458361A8278
:1043F0008C819D81FC018481898354C08C819D8145
:10440000FC018389282F2F5F8C819D81FC01238BE8
:104410008C819D81FC018389992787FD9095498135
:104420002C813D81820F931F0796FC0140838C8174
:104430009D81FC01428153818981282F332727FDEB
:104440003095C901880F991F820F931F880F991FFC
:10445000880F991F840F951FFC0184819581FC01B1
:1044600009958B839091320581E02B81291709F002
:1044700080E08A838C819D81FC0142815381898106
:10448000282F332727FD3095C901880F991F820FE8
:10449000931F880F991F880F991F840F951FFC0188
:1044A0008181898389818F3F31F09A8181E08927D9
:1044B000882309F0A3CF8A810F900F900F900F905F
:1044C0000F90CF91DF910895DF93CF93CDB7DEB7F3
:1044D00028970FB6F894DEBF0FBECDBF9D838C83A7
:1044E0006E8358874F838FEF8B831A821982A0C007
:1044F0002C813D8189819A81820F931F0796FC014F
:1045000080818B838C819D81FC01428153818B81D1
:10451000282F30E0C901880F991F820F931F880F41
:10452000991F880F991F840F951FFC018285938521
:104530000097C1F08C819D81FC01428153818B8168
:10454000282F30E0C901880F991F820F931F880F11
:10455000991F880F991F840F951FFC0182859385F1
:10456000FC0109958F8198852B81FC0120838C812A
:104570009D81FC01428153818C819D81FC0162817E
:1045800073818B81282F30E0C901880F991F820F1A
:10459000931F880F991F880F991F860F971FFC0183
:1045A0008181282F332727FD3095C901880F991F56
:1045B000820F931F880F991F880F991F840F951FD3
:1045C000FC018381882379F18C819D81FC014581E7
:1045D00056818C819D81FC01628173818B81282FA2
:1045E00030E0C901880F991F820F931F880F991F10
:1045F000880F991F860F971FFC018181992787FDDE
:104600009095880F991F9C01220F331F220F331F93
:10461000220F331FB901681B790BCB01840F951F43
:104620002B81FC01258789819A8101969A83898350
:104630008C819D81FC018389282F332727FD3095AC
:1046400089819A81281739070CF052CF8C819D817E
:10465000FC01428153818B81282F30E0C901880FF2
:10466000991F820F931F880F991F880F991F840F1E
:10467000951FFC0181818B83A7C08C819D81FC01EA
:10468000428153818B81282F30E0C901880F991F07
:10469000820F931F880F991F880F991F840F951FF2
:1046A000FC01828593850097C1F08C819D81FC017E
:1046B000428153818B81282F30E0C901880F991FD7
:1046C000820F931F880F991F880F991F840F951FC2
:1046D000FC0182859385FC0109958F8198852B814A
:1046E000FC0120838C819D81FC01428153818B815F
:1046F000282F30E0C901880F991F820F931F880F60
:10470000991F880F991F840F951FFC0181818B834E
:104710008C819D81FC01428153818C819D81FC01B2
:10472000628173818B81282F30E0C901880F991F26
:10473000820F931F880F991F880F991F860F971F4D
:10474000FC018181282F332727FD3095C901880F6F
:10475000991F820F931F880F991F880F991F840F2D
:10476000951FFC018381882379F18C819D81FC0157
:10477000458156818C819D81FC01628173818B8191
:10478000282F30E0C901880F991F820F931F880FCF
:10479000991F880F991F860F971FFC018181992708
:1047A00087FD9095880F991F9C01220F331F220FC0
:1047B000331F220F331FB901681B790BCB01840F04
:1047C000951F2B81FC0125872B818C819D81622F78
:1047D0004E810E948321982F81E08927882309F048
:1047E0004CCF9B818E81981709F091C08C819D815F
:1047F000FC01428153818B81282F30E0C901880F51
:10480000991F820F931F880F991F880F991F840F7C
:10481000951FFC01828593850097C1F08C819D8155
:10482000FC01428153818B81282F30E0C901880F20
:10483000991F820F931F880F991F880F991F840F4C
:10484000951FFC0182859385FC0109958C819D81D2
:104850002B81FC0120838C819D81FC01428153814D
:104860008C819D81FC01628173818B81282F30E0D6
:10487000C901880F991F820F931F880F991F880FF6
:10488000991F860F971FFC018181282F332727FD51
:104890003095C901880F991F820F931F880F991FA8
:1048A000880F991F840F951FFC018381882379F15C
:1048B0008C819D81FC01458156818C819D81FC010B
:1048C000628173818B81282F30E0C901880F991F85
:1048D000820F931F880F991F880F991F860F971FAC
:1048E000FC018181992787FD9095880F991F9C0174
:1048F000220F331F220F331F220F331FB901681BF2
:10490000790BCB01840F951F2B81FC0125872896FD
:104910000FB6F894DEBF0FBECDBFCF91DF910895E3
:10492000DF93CF9300D000D000D0CDB7DEB79C830B
:104930008B836D834E838E8189838B819C81FC0167
:10494000428153818B819C81FC01258136818D813F
:10495000882F90E0880F991FBC01660F771F660FA4
:10496000771F660F771FFB01E81BF90BCF01280F9C
:10497000391F8981882F90E0820F931FFC0180816D
:10498000282F332727FD3095C901880F991F820FE3
:10499000931F880F991F880F991F840F951FFC0183
:1049A000808591850097B9F18B819C81FC014281C2
:1049B00053818B819C81FC01258136818D81882FDB
:1049C00090E0880F991FBC01660F771F660F771F55
:1049D000660F771FFB01E81BF90BCF01280F391F6A
:1049E0008981882F90E0820F931FFC018081282FFE
:1049F000332727FD3095C901880F991F820F931F18
:104A0000880F991F880F991F840F951FFC018085BF
:104A10009185FC01099589818F5F89838981282F80
:104A200030E08B819C81FC01458156818D81882FEE
:104A300090E0880F991FBC01660F771F660F771FE4
:104A4000660F771FFB01E81BF90BCF01840F951F41
:104A5000FC018485992787FD90950197821793071C
:104A60000CF06BCF8D818A837CC08B819C81FC0193
:104A7000258136818A81882F90E0880F991FAC01AB
:104A8000440F551F440F551F440F551FBA01681B93
:104A9000790BCB01820F931FFC0185858F3FD9F0E5
:104AA0008B819C81FC01258136818A81882F90E051
:104AB000880F991FAC01440F551F440F551F440F19
:104AC000551FBA01681B790BCB01820F931FFC01A4
:104AD00085858A8316C08B819C81FC01428153812C
:104AE0008A81282F30E0C901880F991F820F931FF8
:104AF000880F991F880F991F840F951FFC018281D1
:104B00008A838B819C81FC01428153818A81282F79
:104B100030E0C901880F991F820F931F880F991FDA
:104B2000880F991F840F951FFC0180859185009740
:104B3000C1F08B819C81FC01428153818A81282FA5
:104B400030E0C901880F991F820F931F880F991FAA
:104B5000880F991F840F951FFC0180859185FC01AA
:104B600009958B819C81FC01258136818A81882F62
:104B700090E0880F991FAC01440F551F440F551F3B
:104B8000440F551FBA01681B790BCB01820F931F8D
:104B9000FC0185858F3F09F068CF8B819C81FC01EA
:104BA000428153818A81282F30E0C901880F991FE3
:104BB000820F931F880F991F880F991F840F951FCD
:104BC000FC0182818F3F09F050CF8A8126960FB673
:104BD000F894DEBF0FBECDBFCF91DF910895DF9374
:104BE000CF93CDB7DEB728970FB6F894DEBF0FBED0
:104BF000CDBF9E838D836F8348878FEF8983288500
:104C00008D819E81622F4F810E948321882309F428
:104C100050C01A8230C08D819E81FC012581368171
:104C20008F81882F90E0880F991FAC01440F551F8A
:104C3000440F551F440F551FBA01681B790BCB0158
:104C4000280F391F8A81992787FD9095820F931F1E
:104C5000FC018081282F332727FD30958885882FF8
:104C600090E02817390721F48A8189830000DDC08C
:104C70008A818F5F8A838D819E81FC0125813681A7
:104C80008F81882F90E0880F991FAC01440F551F2A
:104C9000440F551F440F551FBA01681B790BCB01F8
:104CA000820F931FFC0194858A8189170CF4B3CF7E
:104CB000BCC08D819E81FC01258136818F81882F2A
:104CC00090E0880F991FAC01440F551F440F551FEA
:104CD000440F551FBA01681B790BCB01820F931F3C
:104CE000FC0164858D819E81FC01258136818D8149
:104CF0009E81FC018081882F90E0880F991FAC0174
:104D0000440F551F440F551F440F551FFA01E81B50
:104D1000F90BCF01820F931FFC0184858617E4F401
:104D20008D819E81FC01258136818885882F90E0C8
:104D3000880F991FAC01440F551F440F551F440F96
:104D4000551FBA01681B790BCB01820F931FFC0121
:104D5000848581508C831BC08D819E81FC012581BF
:104D600036818F81882F90E0880F991FAC01440F06
:104D7000551F440F551F440F551FBA01681B790B6F
:104D8000CB01820F931FFC01848581508C831B8291
:104D900045C08B8189838D819E81FC01258136816F
:104DA0008885882F90E0880F991FAC01440F551F0C
:104DB000440F551F440F551FBA01681B790BCB01D7
:104DC000280F391F8B81992787FD9095820F931F9C
:104DD000FC0160818D819E81FC01258136818F815E
:104DE000882F90E0880F991FAC01440F551F440F86
:104DF000551F440F551FFA01E81BF90BCF01280F6F
:104E0000391F8B81992787FD9095820F931FFC0195
:104E10008081681749F48B818F5F8B839B818C81A4
:104E200089170CF0B6CF01C0000029818D819E81C9
:104E30006F81422F0E949024282F8D819E81FC013A
:104E4000248328960FB6F894DEBF0FBECDBFCF9156
:104E5000DF910895DF93CF9300D00F92CDB7DEB7E7
:104E60009A8389836B8300008FE390E0FC0180814B
:104E7000882F90E0827090700097B1F781E490E005
:104E800029813A81FC013183208380E490E02B81E9
:104E9000FC012083F894FA9AF99A78940F900F9075
:104EA0000F90CF91DF910895DF93CF9300D0CDB7CE
:104EB000DEB79A83898300008FE390E0FC01808154
:104EC000882F90E0827090700097B1F781E490E0B5
:104ED00029813A81FC01318320838FE390E02FE325
:104EE00030E0F90120812160FC01208380E490E022
:104EF000FC0180810F900F90CF91DF910895DF9397
:104F0000CF9300D000D000D0CDB7DEB79D838C8387
:104F10006E8319828C819D819B838A832E818A81F5
:104F20009B81622F0E942A278A819B810E9454279D
:104F300089839E818981981711F18E81482F50E0D5
:104F40008981282F30E000D000D000D08DB79EB7E7
:104F5000019663E375E0FC0171836083FC01538378
:104F60004283FC01358324830E9496368DB79EB719
:104F700006960FB6F8949EBF0FBE8DBF16C08981EE
:104F8000282F30E000D000D08DB79EB701964CE5B9
:104F900055E0FC0151834083FC01338322830E944E
:104FA00096360F900F900F900F9026960FB6F894AC
:104FB000DEBF0FBECDBFCF91DF910895DF93CF93BA
:104FC00000D000D00F92CDB7DEB79D838C838C814B
:104FD0009D819A83898389819A810E9454278B833A
:104FE0008B810F900F900F900F900F90CF91DF91CA
:104FF0000895DF93CF93CDB7DEB727970FB6F89418
:10500000DEBF0FBECDBF9F838E838E819F819A832B
:1050100089831D821C8289819A810E9454278B83F7
:105020008B81882F90E09D838C8389819A81019662
:105030000E9454278B83CE01049601962B81FC019C
:1050400020838C819D8127960FB6F894DEBF0FBE1A
:10505000CDBFCF91DF910895DF93CF9300D000D0E3
:1050600000D0CDB7DEB79C838B837E836D838B812D
:105070009C819A8389838D819E81282F89819A8141
:10508000622F0E942A2789819A8101969E012B5FB7
:105090003F4F2F5F3F4FF9012081622F0E942A2747
:1050A00026960FB6F894DEBF0FBECDBFCF91DF912D
:1050B0000895DF93CF93CDB7DEB7CF91DF910895F9
:1050C000DF93CF9300D00F92CDB7DEB79B838A8357
:1050D0001982000021E08A819B81009709F420E079
:1050E0008A819B8101979B838A83222399F70F9062
:1050F0000F900F90CF91DF910895DF93CF93CDB7AD
:10510000DEB780917D06482F552747FD509524E650
:1051100030E0429FC001439F900D529F900D11249B
:105120009C01205C32418091CF06992787FD9095A4
:10513000880F991FAC01440F551F440F551F840F52
:10514000951F805E9140280F391F8091D0069927C6
:1051500087FD9095C097820F931FAA2797FDA09572
:10516000BA2FBC01CD010E943E2FDC01CB01809300
:10517000840690938506A0938606B0938706CF9108
:10518000DF910895DF93CF930F92CDB7DEB7898378
:105190008981282F332727FD309500D000D08DB787
:1051A0009EB7019643E755E0FC0151834083FC0123
:1051B000338322830E9496360F900F900F900F90AA
:1051C000298184E090E0622F0E947F27898180936B
:1051D0007D060E947D280F90CF91DF910895DF9387
:1051E000CF930F92CDB7DEB789838981282F3327DC
:1051F00027FD309500D000D08DB79EB7019644E8CA
:1052000055E0FC0151834083FC01338322830E94DB
:1052100096360F900F900F900F90298185E090E0C7
:10522000622F0E947F2789818093CF060E947D286C
:105230000F90CF91DF910895DF93CF930F92CDB769
:10524000DEB789838981282F332727FD309500D049
:1052500000D08DB79EB7019644E955E0FC0151831B
:105260004083FC01338322830E9496360F900F9077
:105270000F900F90298186E090E0622F0E947F2797
:1052800089818093D0060E947D280F90CF91DF9175
:105290000895DF93CF93CDB7DEB78091A606482F50
:1052A000552747FD509528E532E0429FC001439FB6
:1052B000900D529F900D11249C01205830478091F1
:1052C000AB06682F772767FD70954CE350E0649F2D
:1052D000C001659F900D749F900D112480549B40D8
:1052E000280F391F80918906992787FD9095880F8F
:1052F000991FAC01440F551F440F551F840F951F74
:10530000805E9140280F391F8091AD06992787FD57
:105310009095C097820F931F90938106809380068B
:10532000CF91DF910895DF93CF930F92CDB7DEB782
:105330008983298187E090E0622F0E947F278981FD
:105340008093A6060E9449290F90CF91DF9108957E
:10535000DF93CF930F92CDB7DEB78983298188E0A1
:1053600090E0622F0E947F2789818093AB060E9484
:1053700049290F90CF91DF910895DF93CF930F923A
:10538000CDB7DEB78983298189E090E0622F0E9442
:105390007F278981809389060E9449290F90CF91A8
:1053A000DF910895DF93CF930F92CDB7DEB7898356
:1053B00029818AE090E0622F0E947F278981809373
:1053C000AD060E9449290F90CF91DF910895DF9398
:1053D000CF93CDB7DEB70E9438109093C406809368
:1053E000C3068091C3069091C4069C018BE090E0B7
:1053F000B9010E942C28CF91DF910895DF93CF93BC
:10540000CDB7DEB70E9438109093CA068093C906C4
:105410008091C9069091CA069C018DE090E0B90187
:105420000E942C28CF91DF910895DF93CF93CDB7C1
:10543000DEB78091A7069091A8069093D30680933B
:10544000D2062091D2063091D3068FE090E0B901C8
:105450000E942C28CF91DF910895DF93CF93CDB791
:10546000DEB78091A7069091A8069093CC06809312
:10547000CB062091CB063091CC0681E190E0B901BA
:105480000E942C28CF91DF910895DF93CF930F9244
:10549000CDB7DEB7898389818093CE062091CE0671
:1054A00084E190E0622F0E947F270F90CF91DF91DF
:1054B0000895DF93CF93CDB7DEB780918A06880F2A
:1054C000982F990F990F980F8091D106890F8051CD
:1054D00080938806CF91DF910895DF93CF930F9249
:1054E000CDB7DEB78983898180938B06298185E1D9
:1054F00090E0622F0E947F270F90CF91DF91089557
:10550000DF93CF930F92CDB7DEB7898389818093E4
:10551000D106298186E190E0622F0E947F270E94B8
:10552000592A0F90CF91DF910895DF93CF930F9277
:10553000CDB7DEB78983898180938A06298187E187
:1055400090E0622F0E947F270E94592A0F90CF91EE
:10555000DF910895DF93CF93CDB7DEB784E090E07D
:105560000E94DE2780937D0680917D06282F3327B9
:1055700027FD309500D000D08DB79EB7019642EA46
:1055800055E0FC0151834083FC01338322830E9458
:1055900096360F900F900F900F9080917D0680337C
:1055A00024F080917D068A33E4F080917D06282FD7
:1055B000332727FD309500D000D08DB79EB70196D8
:1055C00046EB55E0FC0151834083FC013383228389
:1055D0000E9496360F900F900F900F9080E30E94DC
:1055E000C22885E090E00E94DE278093CF0680915C
:1055F000CF06282F332727FD309500D000D08DB758
:105600009EB7019645ED55E0FC0151834083FC01B6
:10561000338322830E9496360F900F900F900F9045
:105620008091CF06803324F08091CF068A33E4F056
:105630008091CF06282F332727FD309500D000D04A
:105640008DB79EB7019648EE55E0FC01518340832B
:10565000FC01338322830E9496360F900F900F90A7
:105660000F9080E30E94EF2886E090E00E94DE2702
:105670008093D0068091D006282F332727FD3095C0
:1056800000D000D08DB79EB7019646E056E0FC01F1
:1056900051834083FC01338322830E9496360F900E
:1056A0000F900F900F908091D006803324F080915E
:1056B000D0068A33E4F08091D006282F332727FDC7
:1056C000309500D000D08DB79EB7019647E156E0E7
:1056D000FC0151834083FC01338322830E94963670
:1056E0000F900F900F900F9080E30E941C2983E38E
:1056F00096E00E94AB3687E090E00E94DE27809320
:10570000A6068091A606803324F08091A6068A33EF
:105710001CF080E30E94932988E090E00E94DE273D
:105720008093AB068091AB06803324F08091AB066A
:105730008A331CF080E30E94A82989E090E00E944F
:10574000DE278093890680918906803324F080913A
:10575000890686331CF080E30E94BD298AE090E030
:105760000E94DE278093AD068091AD06803324F041
:105770008091AD068A331CF080E30E94D2290E94FA
:1057800049290E947D2886E190E00E94DE278093CF
:10579000D1068091D106803320F08091D1068A33E2
:1057A00018F080E30E94802A87E190E00E94DE27C3
:1057B00080938A0680918A06803320F080918A0641
:1057C0008A3318F080E30E94952A0E94592A8BE0C0
:1057D00090E00E94F9279093C4068093C3068091BD
:1057E000C3069091C406FFEF8F3F9F0721F41092EC
:1057F000C4061092C3068DE090E00E94F9279093B2
:10580000CA068093C9068091C9069091CA062FEFF7
:105810008F3F920721F41092CA061092C9068FE0BA
:1058200090E00E94F9279093D3068093D20680914E
:10583000D2069091D306EFEF8F3F9E0721F410928E
:10584000D3061092D20681E190E00E94F92790934E
:10585000CC068093CB068091CB069091CC06FFEFCF
:105860008F3F9F0721F41092CC061092CB0684E163
:1058700090E00E94DE278093CE068091CE06823093
:1058800018F080E00E94452A10927E061092A90628
:10589000CF91DF9108951F920F920FB60F921124AE
:1058A0002F933F934F938F939F93EF93FF93DF93A8
:1058B000CF93CDB7DEB789EB90E0FC018081882FD4
:1058C00090E0887F90708832910569F18932910566
:1058D00054F480319105D9F08831910521F1883057
:1058E0009105A9F094C08034910509F45AC081341F
:1058F00091052CF48833910509F483C088C0803564
:105900009105D9F18835910509F45BC080C08BEB16
:1059100090E020917806FC0120838CEB90E025E854
:10592000FC0120837FC080917B068823D1F0809189
:105930007B06815080937B062BEB30E080917906CB
:1059400090917A06FC014081F90140830196909381
:105950007A06809379068CEB90E025E8FC012083A1
:1059600061C08CEB90E024E9FC0120838FEF8093F1
:105970007C0681E08093AE0655C0809179069091B7
:105980007A062BEB30E0F9012081FC01208301969F
:1059900090937A068093790680917B06815080935C
:1059A0007B0680917B06823030F08CEB90E025EC1A
:1059B000FC01208337C08CEB90E025E8FC012083BC
:1059C00031C08091790690917A062BEB30E0F90195
:1059D0002081FC012083019690937A0680937906BA
:1059E00080917B06815080937B068CEB90E024E9CC
:1059F000FC0120838FEF80937C0681E08093AA06D0
:105A000011C08CEB90E025EAFC0120830BC089EBF0
:105A100090E0FC01808180937C068CEB90E024E098
:105A2000FC012083CF91DF91FF91EF919F918F91A6
:105A30004F913F912F910F900FBE0F901F9018958F
:105A4000DF93CF93CDB7DEB71092AE061092AA06C1
:105A50008DE396E00E94AB3610927B0689EB90E0D6
:105A600022E0FC01208388EB90E022E2FC0120830D
:105A70008BEB90E02FEFFC0120838CEB90E024E097
:105A8000FC012083CF91DF910895DF93CF93CDB7B1
:105A9000DEB786E496E00E94AB368CEB90E0FC012A
:105AA00010821092AE061092AA0610927B068BEB23
:105AB00090E02FEFFC0120838CEB90E024E0FC01D0
:105AC0002083CF91DF910895DF93CF9300D000D052
:105AD000CDB7DEB789837B836A834C8300000E9445
