:100000000C94BF000C9491100C94DC000C94DC0058
:100010000C94DC000C94DC000C9488140C94DC0030
:100020000C94DC000C94EF0F0C94DC000C94DC00BE
:100030000C94DC000C94DA100C94DC000C94DC00C2
:100040000C94CA100C94DC000C94DC000C94DC00C2
:100050000C94DC000C94DC000C94DC000C94DC00B0
:100060000C9462100C94DC000C94502F0C94DC0067
:100070000C94DC000C94DC000C94DC006E616E00CF
:10008000696E660000407A10F35A00A0724E18099B
:100090000010A5D4E80000E87648170000E40B54EF
:1000A000020000CA9A3B000000E1F50500008096BE
:1000B0009800000040420F000000A08601000000F0
:1000C000102700000000E8030000000064000000AA
:1000D00000000A00000000000100000000002C7673
:1000E000D888DC674F0823DFC1DFAE59E1B1B7968E
:1000F000E5E3E453C63AE651997696E8E6C28426EB
:10010000EB898C9B62ED407C6FFCEFBC9C9F40F2C6
:10011000BAA56FA5F490055A2AF75C936B6CF96742
:100120006DC11BFCE0E40D47FEF520E6B500D0ED07
:10013000902E0300943577050080841E080000206F
:100140004E0A000000C80C333333330F986E12830D
:100150001141EF8D2114893BE65516CFFEE6DB18E1
:10016000D1844B381BF77C1D901DA4BBE4242032A6
:1001700084725E228100C9F124ECA1E53D2711249F
:100180001FBEC0E0D0E1DEBFCDBF17E0A0E0B1E010
:10019000E0EDF4E702C005900D92AE30B107D9F75B
:1001A00017E0AEE0B7E001C01D92A63CB107E1F751
:1001B0000E9434010C94663A0C940000DF93CF93B4
:1001C00000D0CDB7DEB79A83898385EC90E0298192
:1001D0003A81232F3327FC01208384EC90E029818E
:1001E000FC01208380EC90E020EC30E0F9012081DC
:1001F0002C7FFC01208381EC90E028E1FC0120832E
:1002000082EC90E026E0FC0120830F900F90CF91CC
:10021000DF910895DF93CF9300D00F92CDB7DEB773
:1002200089837B836A83000080EC90E0FC018081FD
:10023000882F90E0807290700097B1F389818A30A6
:1002400031F420E031E08DE0B9010E940A0186EC32
:1002500090E02981FC01208380E090E00F900F90D6
:100260000F90CF91DF910895DF93CF93CDB7DEB795
:1002700029970FB6F894DEBF0FBECDBF8BE090E09C
:100280000E94DE0080E091E09093C3078093C20754
:100290008EE091E00E94B0390E94A22D0E94BE0221
:1002A0000E9437140E9424110E9425300E948C1A4B
:1002B0000E9480200E94F30E01C00000809143073D
:1002C000882361F08CE090E09B838A8389E497E047
:1002D0009E012E5F3F4FB9010E94140F8091440789
:1002E000813071F4109244078BE090E09B838A8305
:1002F00089E497E09E012E5F3F4FB9010E94140FE1
:1003000080914807813011F4109248078091670767
:10031000882371F0109267078AE090E09B838A83BC
:1003200089E497E09E012E5F3F4FB9010E94140FB0
:1003300080911907882371F01092190786E090E0E8
:100340009B838A8389E497E09E012E5F3F4FB9012A
:100350000E94140F80913F07882371F010923F078D
:1003600085E090E09B838A8389E497E09E012E5F7D
:100370003F4FB9010E94140F0E94F61489838981AE
:10038000882309F45EC08981482F552747FD509581
:100390008981282F332727FD309500D000D000D049
:1003A0008DB79EB7019667E171E0FC0171836083B0
:1003B000FC0153834283FC01358324830E949B39D3
:1003C0008DB79EB706960FB6F8949EBF0FBE8DBF31
:1003D0008981833021F481E090E09B838A83898145
:1003E000843021F482E090E09B838A83898181308C
:1003F00021F487E090E09B838A838981823021F415
:1004000088E090E09B838A838981853021F483E0B2
:1004100090E09B838A838981863021F484E090E098
:100420009B838A838981803324F01B821A8289818D
:100430008C8389E497E09E012E5F3F4FB9010E94B3
:10044000140F80914607882309F437CF109246078E
:1004500089E090E09B838A8389E497E09E012E5F88
:100460003F4FB9010E94140F29CFDF93CF9300D0E3
:100470000F92CDB7DEB78A836B8384E290E0FC01F4
:10048000108285E290E0FC0110828BE290E02BE28A
:1004900030E0F90120812F71FC0120838BE290E094
:1004A0002BE230E0F90120812F77FC0120838BE2E1
:1004B00090E02BE230E0F90120812064FC012083F0
:1004C00081E089831AC08BE290E02BE230E0F901F1
:1004D00020812062FC0120830E942F2B83E290E088
:1004E000FC018081807889838BE290E02BE230E010
:1004F000F90120812F7DFC0120838981882319F750
:1005000084E290E02FEFFC01208385E290E02A81D5
:10051000FC0120838B81882349F08BE290E02BE261
:1005200030E0F90120812068FC0120838BE290E01B
:100530002BE230E0F90120812F7BFC0120830E9417
:100540002F2B8BE290E02BE230E0F901208120623A
:10055000FC0120830E942F2B8BE290E02BE230E005
:10056000F90120812F7DFC01208389818F5F8983A0
:100570000F900F900F90CF91DF910895DF93CF935D
:10058000CDB7DEB78AE290E02AE230E0F9012081BF
:10059000206EFC0120838BE290E02BE230E0F90139
:1005A00020812F71FC01208384E290E0FC01108205
:1005B00085E290E0FC01108281E060E00E9435025B
:1005C00088E360E00E9435028CE060E00E94350222
:1005D00086E060E00E943502CF91DF910895DF93BD
:1005E000CF93CDB7DEB781E060E00E943502CF91B6
:1005F000DF910895DF93CF93CDB7DEB780EC60E055
:100600000E943502CF91DF910895DF93CF9300D000
:100610000F92CDB7DEB79B838A8309C0898161E0E1
:100620000E9435028A819B8101969B838A838A81FD
:100630009B81FC01808189838981882379F70F90D0
:100640000F900F90CF91DF910895DF93CF9300D05B
:100650000F92CDB7DEB78A836B8380E889838A8166
:10066000813011F480EC89838A81823011F484E92D
:1006700089838A81833011F484ED898399818B8108
:10068000890F8983898160E00E9435020F900F9065
:100690000F90CF91DF910895DF93CF9300D0CDB726
:1006A000DEB789836A8389816A810E9425038FE08E
:1006B00060E00E9435020F900F90CF91DF91089576
:1006C000DF93CF93CDB7DEB78CE060E00E943502B8
:1006D000CF91DF910895DF93CF930F92CDB7DEB71F
:1006E0008983898161E00E9435020F90CF91DF916B
:1006F0000895DF93CF93CDB7DEB78091C805CF9132
:10070000DF910895DF93CF9300D00F92CDB7DEB77E
:100710008091C80589838091700790917107FC01D1
:10072000808191818C309105C9F484E18A83809124
:100730001C0790911D079E012D5F3F4F64E1A901A9
:100740000E943A2580911C0790911D072B816A8198
:10075000422F0E94C5288091C905898389810F9005
:100760000F900F90CF91DF910895DF93CF93CDB786
:10077000DEB781E291E00E94B0390E94E11D86E07F
:1007800090E00E94AB12CF91DF910895DF93CF9359
:10079000CDB7DEB789E391E00E94B0390E94CD1257
:1007A0000E94D81DCF91DF910895DF93CF93CDB7ED
:1007B000DEB727970FB6F894DEBF0FBECDBF80918E
:1007C000C80589838091700790917107FC01808131
:1007D000918185309105C9F48AE08A8380911C0754
:1007E00090911D079E012B5F3F4F6AE0A9010E9477
:1007F0003A2580911C0790911D072D816A81422F17
:100800000E94C5288091C9058983809170079091C5
:100810007107FC01808191818330910551F08091B5
:10082000700790917107FC0180819181873091055B
:10083000C9F484E08B8380911C0790911D079E0171
:100840002A5F3F4F64E0A9010E943A2580911C076E
:1008500090911D072E816B81422F0E94C5288091A7
:10086000C90589838091700790917107FC0180818F
:10087000918181309105C9F483E08C8380911C07BC
:1008800090911D079E01295F3F4F63E0A9010E94DF
:100890003A2580911C0790911D072F816C81422F72
:1008A0000E94C5288091C905898380917007909125
:1008B0007107FC01808191818630910529F40E94A5
:1008C0004C1E8091C9058983898127960FB6F894BB
:1008D000DEBF0FBECDBFCF91DF910895DF93CF93E1
:1008E000CDB7DEB710926E0780915D0790915E07DD
:1008F000909317078093160788E491E0909314076C
:10090000809313070E940D21CF91DF910895DF930B
:10091000CF93CDB7DEB7CF91DF910895DF93CF931B
:1009200000D00F92CDB7DEB78091C8058983809142
:10093000700790917107FC0180819181833091054E
:1009400059F08091700790917107FC01808191812D
:100950008430910509F05DC0809170079091710716
:10096000FC018081918184309105E1F480916E07D2
:10097000882351F4809116079091170790935E0792
:1009800080935D070E94EB2C80916E07813051F4BB
:1009900080911607909117079093640780936307DF
:1009A0000E94FC2C80916E078130C9F48AE08A8312
:1009B00080911C0790911D079E012D5F3F4F6AE0BB
:1009C000A9010E943A2580911C0790911D072B8157
:1009D0006A81422F0E94C5288091C9058983809130
:1009E0006E07882399F48091630790916407909330
:1009F00017078093160784E591E09093140780937E
:100A0000130781E080936E070E940D218091C90534
:100A100089838091700790917107FC018081918199
:100A2000009709F07BC08091700790917107FC01DD
:100A30008281992787FD90958333910541F1843315
:100A400091053CF48133910571F082339105A9F051
:100A500048C08833910581F189339105B9F1873315
:100A6000910501F13EC080911607909117070196FC
:100A7000909317078093160734C0809116079091C2
:100A800017070A9690931707809316072AC080913C
:100A90001607909117078C599F4F909317078093D3
:100AA00016071FC080911607909117070197909322
:100AB00017078093160715C08091160790911707A6
:100AC0000A9790931707809316070BC0809116071B
:100AD00090911707845690409093170780931607BC
:100AE00000008091160790911707992324F4109223
:100AF0001707109216078091160790911707F4E0D8
:100B000080309F0734F08FEF93E090931707809326
:100B100016070E94D3208091C905898389810F908F
:100B20000F900F90CF91DF910895DF93CF93CDB7C2
:100B3000DEB78FEF9FE70E94AB12CF91DF91089550
:100B4000DF93CF93CDB7DEB70E94CD12CF91DF9167
:100B50000895DF93CF9300D00F92CDB7DEB7809189
:100B6000C80589838091700790917107FC0180818D
:100B7000918188309105C9F48AE08A8380911C07AD
:100B800090911D079E012D5F3F4F6AE0A9010E94D1
:100B90003A2580911C0790911D072B816A81422F75
:100BA0000E94C5288091C905898389810F900F9083
:100BB0000F90CF91DF910895DF93CF93CDB7DEB73C
:100BC0000E94511DCF91DF910895DF93CF93CDB750
:100BD000DEB7CF91DF910895DF93CF9300D000D09F
:100BE0000F92CDB7DEB78091C805898380917007D9
:100BF00090917107FC018081918184309105E1F42D
:100C000086E08A8380911C0790911D079E012C5FCE
:100C10003F4F66E0A9010E943A2581E00E943D2DE8
:100C200080911C0790911D072C816A81422F0E94A0
:100C3000C5288091C90589838091700790917107BB
:100C4000FC018081918183309105E1F486E08B8302
:100C500080911C0790911D079E012B5F3F4F66E01E
:100C6000A9010E943A2580E00E943D2D80911C0739
:100C700090911D072D816B81422F0E94C528809184
:100C8000C90589838091700790917107FC0180816B
:100C900091818630910519F48091C90589838981F4
:100CA0000F900F900F900F900F90CF91DF910895BC
:100CB000DF93CF93CDB7DEB70E943C1D109246075D
:100CC00082E00E94F815882361F48BE297E021E628
:100CD00031E0B9014EE050E00E94543981E0809348
:100CE0004307CF91DF910895DF93CF93CDB7DEB760
:100CF000CF91DF910895DF93CF9300D00F92CDB7BE
:100D0000DEB78B838091700790917107FC01808121
:100D1000918184309105C9F487E0898380911C0713
:100D200090911D079E012E5F3F4F67E0A9010E9431
:100D30003A2580911C0790911D072A816981422FD5
:100D40000E94C5288091C9058B838B810F900F90DD
:100D50000F90CF91DF910895DF93CF9300D00F9242
:100D6000CDB7DEB78091C8058983809170079091D7
:100D70007107FC018081918189309105C9F487E078
:100D80008A8380911C0790911D079E012D5F3F4F24
:100D900067E0A9010E943A2580911C0790911D07E8
:100DA0002B816A81422F0E94C5288091C9058983C1
:100DB0008091700790917107FC018081918186304C
:100DC000910539F40E9419160E94A71C8091C9054B
:100DD000898389810E947B06898389810F900F9086
:100DE0000F90CF91DF910895DF93CF93CDB7DEB70A
:100DF0000E94EA110E943112CF91DF910895DF9392
:100E0000CF93CDB7DEB70E9443120E941D12CF913F
:100E1000DF910895DF93CF9300D00F92CDB7DEB767
:100E20008091C8058B838091700790917107FC01B8
:100E300080819181009709F065C080914107909170
:100E400042079A8389838091700790917107FC0112
:100E50008281992787FD90958333910501F1843331
:100E600091053CF48133910571F08233910589F04D
:100E700030C08833910501F18933910519F1873329
:100E80009105A1F026C089819A8101969A83898370
:100E900020C089819A810A969A8389831AC08981A0
:100EA0009A818C599F4F9A83898313C089819A8133
:100EB00001979A8389830DC089819A810A979A83C1
:100EC000898307C089819A81845690409A83898357
:100ED000000089819A81992314F41A8219828981E8
:100EE0009A81F3E08B329F0724F08AE293E09A83A1
:100EF000898389819A810E94C40F0E944D1C809130
:100F0000C9058B838091700790917107FC018081E6
:100F100091818630910529F40E944D1C8091C9056C
:100F20008B838B810F900F900F90CF91DF9108955D
:100F3000DF93CF93CDB7DEB70E94C21D80E090E073
:100F40000E94C40FCF91DF910895DF93CF93CDB767
:100F5000DEB70E94D81DCF91DF910895DF93CF9324
:100F600000D000D00F92CDB7DEB78091C80589833D
:100F70008091700790917107FC018081918183308D
:100F80009105C9F489E08A8380911C0790911D071F
:100F90009E012C5F3F4F69E0A9010E943A25809194
:100FA0001C0790911D072C816A81422F0E94C52841
:100FB0008091C90589838091700790917107FC0128
:100FC0008081918184309105E9F489E08B8380915F
:100FD0001C0790911D079E012B5F3F4F69E0A901FF
:100FE0000E943A250E940D2D0E94BD2C80911C0765
:100FF00090911D072D816B81422F0E94C528809101
:10100000C905898389810F900F900F900F900F90E1
:10101000CF91DF910895DF93CF93CDB7DEB70E94D4
:10102000CD1DCF91DF910895DF93CF93CDB7DEB77C
:101030000E94D81DCF91DF910895DF93CF9300D008
:1010400000D00F92CDB7DEB78091C805898380911B
:10105000700790917107FC01808191818330910527
:10106000C9F48AE08A8380911C0790911D079E0134
:101070002C5F3F4F6AE0A9010E943A2580911C072E
:1010800090911D072C816A81422F0E94C528809172
:10109000C90589838091700790917107FC01808157
:1010A000918184309105F9F48AE08B8380911C074B
:1010B00090911D079E012B5F3F4F6AE0A9010E949E
:1010C0003A250E94252D0E94D42C0E94071580915C
:1010D0001C0790911D072D816B81422F0E94C5280E
:1010E0008091C905898389810F900F900F900F908F
:1010F0000F90CF91DF910895DF93CF93CDB7DEB7F7
:101100000E9402178FEF9FE70E94AB1283E00E94BC
:10111000F815882361F48BE297E021E631E0B9010C
:101120004EE050E00E94543981E080934307CF9114
:10113000DF910895DF93CF93CDB7DEB70E94CD1234
:1011400080914307882389F481E00E94F815882361
:1011500061F48BE297E021E631E0B9014EE050E026
:101160000E94543981E0809343070E94D81DCF919B
:10117000DF910895DF93CF9300D000D00F92CDB7C9
:10118000DEB78091C80589838091700790917107BF
:10119000FC018081918187309105C9F482E18A83C5
:1011A00080911C0790911D079E012C5F3F4F62E1CB
:1011B000A9010E943A2580911C0790911D072C815E
:1011C0006A81422F0E94C5288091C9058983809138
:1011D000700790917107FC018081918181309105A8
:1011E000C9F48EE08B8380911C0790911D079E01AE
:1011F0002B5F3F4F6EE0A9010E943A2580911C07AA
:1012000090911D072D816B81422F0E94C5288091EE
:10121000C90589838091700790917107FC018081D5
:1012200091818530910539F48FEF9FE70E94AB12D1
:101230008091C90589838091700790917107FC01A5
:10124000808191818630910529F40E940C1780914C
:10125000C905898389810F900F900F900F900F908F
:10126000CF91DF910895DF93CF93CDB7DEB70E9482
:101270003B1F8FEF0E947C1F8FEF0E94A61FCF9114
:10128000DF910895DF93CF93CDB7DEB7CF91DF9194
:101290000895DF93CF9300D000D00F92CDB7DEB783
:1012A0008091C80589838091700790917107FC0136
:1012B0008081918183309105C9F48CE08A8380918B
:1012C0001C0790911D079E012C5F3F4F6CE0A90108
:1012D0000E943A2580911C0790911D072C816A81FC
:1012E000422F0E94C5288091C9058983809170078B
:1012F00090917107FC018081918184309105C9F43E
:101300008DE08B8380911C0790911D079E012B5FC0
:101310003F4F6DE0A9010E943A2580911C079091F2
:101320001D072D816B81422F0E94C5288091C90520
:1013300089838091700790917107FC018081918170
:101340008B30910521F40E94D8160E94FF1C8981E0
:101350000F900F900F900F900F90CF91DF91089505
:10136000DF93CF93CDB7DEB70E945E1F10926F0759
:1013700080916F070E947C1FCF91DF910895DF93CA
:10138000CF93CDB7DEB78FEF0E947C1FCF91DF9157
:101390000895DF93CF93CDB7DEB727970FB6F894B4
:1013A000DEBF0FBECDBF8091C805898380917007D5
:1013B00090917107FC018081918184309105C9F47D
:1013C0008DE08A8380911C0790911D079E012B5F01
:1013D0003F4F6DE0A9010E943A2580911C07909132
:1013E0001D072D816A81422F0E94C5288091C90561
:1013F00089838091700790917107FC0180819181B0
:1014000083309105C9F48BE08B8380911C07909108
:101410001D079E012A5F3F4F6BE0A9010E943A25FC
:1014200080911C0790911D072E816B81422F0E9495
:10143000C5288091C90589838091700790917107B3
:10144000FC0180819181009709F05BC08091700759
:1014500090917107FC0182818A330CF052C0809117
:10146000700790917107FC01828180330CF449C0B0
:1014700080916F07992787FD90958130910571F0D4
:1014800082309105A1F0009781F5809170079091CD
:101490007107FC0182810E94982B27C08091700700
:1014A00090917107FC0182810E94C52B1EC0809122
:1014B000700790917107FC0182810E94F22B8BE0F2
:1014C0008C8380911C0790911D079E01295F3F4FDF
:1014D0006BE0A9010E943A2580911C0790911D079D
:1014E0002F816C81422F0E94C52880916F078F5FEA
:1014F00080936F0780916F070E947C1F8091C905C0
:101500008983898127960FB6F894DEBF0FBECDBFC1
:10151000CF91DF910895DF93CF93CDB7DEB70E94CF
:101520006D1F10926F0780916F070E94A61FCF91C9
:10153000DF910895DF93CF93CDB7DEB78FEF0E9491
:10154000A61FCF91DF910895DF93CF93CDB7DEB77C
:1015500027970FB6F894DEBF0FBECDBF8091C805A8
:1015600089838091700790917107FC01808191813E
:1015700083309105C9F48CE08A8380911C07909197
:101580001D079E012B5F3F4F6CE0A9010E943A2589
:1015900080911C0790911D072D816A81422F0E9426
:1015A000C5288091C9058983809170079091710742
:1015B000FC018081918184309105C9F48BE08B839B
:1015C00080911C0790911D079E012A5F3F4F6BE0A1
:1015D000A9010E943A2580911C0790911D072E8138
:1015E0006B81422F0E94C5288091C9058983809113
:1015F000700790917107FC0180819181009709F03B
:101600007FC08091700790917107FC0182818A33BD
:101610000CF076C08091700790917107FC01828177
:1016200080330CF46DC080916F07992787FD9095EA
:1016300081309105B1F0823091051CF4009741F0A2
:1016400053C083309105D9F08430910579F14CC0B5
:101650008091700790917107FC0182810E94692C32
:1016600043C08091700790917107FC0182810E94B4
:101670007E2C80916F078F5F80936F0735C08091BC
:10168000700790917107FC01828186334CF4809140
:10169000700790917107FC0182810E94932C24C0F5
:1016A00080916F07815080936F071EC080917007F3
:1016B00090917107FC0182810E94A82C8BE08C83A1
:1016C00080911C0790911D079E01295F3F4F6BE0A1
:1016D000A9010E943A2580911C0790911D072F8136
:1016E0006C81422F0E94C52880916F078F5F809385
:1016F0006F0780916F070E94A61F8091C90589839B
:10170000898127960FB6F894DEBF0FBECDBFCF916B
:10171000DF910895DF93CF9300D00F92CDB7DEB75E
:101720008091C80589838091700790917107FC01B1
:101730008081918182309105C9F48AE08A83809109
:101740001C0790911D079E012D5F3F4F6AE0A90184
:101750000E943A2580911C0790911D072B816A8178
:10176000422F0E94C5288091C905898389810F90E5
:101770000F900F90CF91DF910895DF93CF93CDB766
:10178000DEB70E94D71FCF91DF910895DF93CF93EB
:10179000CDB7DEB7CF91DF910895DF93CF9300D01F
:1017A00000D00F92CDB7DEB78091C80589838091B4
:1017B000700790917107FC018081918183309105C0
:1017C000C9F481E18A8380911C0790911D079E01D5
:1017D0002C5F3F4F61E1A9010E943A2580911C07CF
:1017E00090911D072C816A81422F0E94C52880910B
:1017F000C90589838091700790917107FC018081F0
:10180000918184309105C9F480E18B8380911C071C
:1018100090911D079E012B5F3F4F60E1A9010E943F
:101820003A2580911C0790911D072D816B81422FD5
:101830000E94C5288091C905898389810F900F90E6
:101840000F900F900F90CF91DF910895DF93CF937A
:10185000CDB7DEB78FEF0E9402208FEF0E942820C5
:101860000E945320CF91DF910895DF93CF93CDB79E
:10187000DEB7CF91DF910895DF93CF9300D000D0F2
:101880000F92CDB7DEB78091C8058983809170072C
:1018900090917107FC018081918183309105C9F499
:1018A00081E18A8380911C0790911D079E012C5F26
:1018B0003F4F61E1A9010E943A2580911C07909158
:1018C0001D072C816A81422F0E94C5288091C9057D
:1018D00089838091700790917107FC0180819181CB
:1018E00084309105C9F48FE08B8380911C0790911F
:1018F0001D079E012B5F3F4F6FE0A9010E943A2513
:1019000080911C0790911D072D816B81422F0E94B1
:10191000C5288091C90589838091700790917107CE
:10192000FC0180819181009721F580917007909151
:101930007107FC018281813351F481E00E94652DA1
:1019400080916F070E9428208091C905898380912A
:10195000700790917107FC018281803351F480E01F
:101960000E94652D80916F070E9428208091C905F3
:10197000898389810F900F900F900F900F90CF91D6
:10198000DF910895DF93CF93CDB7DEB710926F0745
:101990000E94622080916F070E942820CF91DF91E2
:1019A0000895DF93CF93CDB7DEB7CF91DF91089540
:1019B000DF93CF93CDB7DEB727970FB6F894DEBF8E
:1019C0000FBECDBF8091C80589838091700790912B
:1019D0007107FC018081918183309105C9F48FE00A
:1019E0008A8380911C0790911D079E012B5F3F4FBA
:1019F0006FE0A9010E943A2580911C0790911D0774
:101A00002D816A81422F0E94C5288091C905898352
:101A10008091700790917107FC01808191818430E1
:101A20009105C9F480E18B8380911C0790911D077B
:101A30009E012A5F3F4F60E1A9010E943A258091F3
:101A40001C0790911D072E816B81422F0E94C52893
:101A50008091C90589838091700790917107FC017D
:101A600080819181009709F050C08091700790911A
:101A70007107FC0182818A330CF047C080917007A6
:101A800090917107FC01828180330CF43EC08091FB
:101A90006F07992787FD9095009721F08130910578
:101AA00051F027C08091700790917107FC018281ED
:101AB0000E948D2D1EC08091700790917107FC01CE
:101AC00082810E94782D8FE08C8380911C079091F9
:101AD0001D079E01295F3F4F6FE0A9010E943A2533
:101AE00080911C0790911D072F816C81422F0E94CD
:101AF000C52880916F078F5F80936F0780916F0774
:101B00000E9402208091C9058983898127960FB69A
:101B1000F894DEBF0FBECDBFCF91DF910895DF9364
:101B2000CF93CDB7DEB710926F070E9471208091DE
:101B30006F070E940220CF91DF910895DF93CF932A
:101B4000CDB7DEB78FEF0E940220CF91DF910895CD
:101B5000DF93CF93CDB7DEB78FE691E00E94B03927
:101B60000E941E1F80911A0790911B070E94AB12C2
:101B700080916C0790916D070E94C40F0E94EA113A
:101B80000E943112CF91DF910895DF93CF93CDB7AB
:101B9000DEB78DE791E00E94B0390E94CD120E941D
:101BA00043120E941D120E94D81DCF91DF9108950B
:101BB000DF93CF9300D000D00F92CDB7DEB78091E6
:101BC000C80589838091700790917107FC0180811D
:101BD000918188309105C9F48AE08A8380911C073D
:101BE00090911D079E012C5F3F4F6AE0A9010E9462
:101BF0003A2580911C0790911D072C816A81422F04
:101C00000E94C5288091C9058983809170079091B1
:101C10007107FC018081918185309105C9F483E1D0
:101C20008B8380911C0790911D079E012B5F3F4F76
:101C300063E1A9010E943A2580911C0790911D073C
:101C40002D816B81422F0E94C5288091C90589830F
:101C50008091700790917107FC018081918186309D
:101C6000910549F40E94FC1D0E944C1E0E94FA1B23
:101C70008091C90589838091700790917107FC015B
:101C8000808191818A30910529F40E94131A8091F4
:101C9000C905898389810F900F900F900F900F9045
:101CA000CF91DF910895DF93CF93CDB7DEB70E9438
:101CB0009E208FEF9FE70E94AB12CF91DF91089596
:101CC000DF93CF93CDB7DEB70E94DD120E94CD1215
:101CD000CF91DF910895DF93CF9300D000D00F9282
:101CE000CDB7DEB78091C805898380917007909148
:101CF0007107FC01808191818330910551F08091C1
:101D0000700790917107FC01808191818530910568
:101D1000C9F48AE08A8380911C0790911D079E0177
:101D20002B5F3F4F6AE0A9010E943A2580911C0772
:101D300090911D072D816A81422F0E94C5288091B4
:101D4000C90589838091700790917107FC0180819A
:101D500091818630910509F50E94B51E8091250775
:101D60008823C1F00E94430F9C838B8380912207BC
:101D7000482F50E08CE390E0489F9001499F300D40
:101D8000589F300D11248B819C812817390714F43A
:101D90000E94FD128091C905898389810F900F905F
:101DA0000F900F900F90CF91DF910895DF93CF9315
:101DB000CDB7DEB70E94641DCF91DF910895DF9308
:101DC000CF93CDB7DEB7CF91DF910895DF93CF9357
:101DD0000F92CDB7DEB78091C805898389810F90B6
:101DE000CF91DF910895DF93CF93CDB7DEB789E42C
:101DF00097E090931D0780931C0789E497E02AE8F9
:101E000031E0B90145E120E00E94F723CF91DF9155
:101E10000895DF93CF93CDB7DEB789E497E00E94B2
:101E20004624CF91DF910895DF93CF9300D000D067
:101E3000CDB7DEB79A8389837C836B838B819C814A
:101E4000909371078093700789819A810E94B624CC
:101E50000F900F900F900F90CF91DF910895DF9327
:101E6000CF9300D0CDB7DEB7F894809174079091EE
:101E700075079A838983789489819A810F900F904E
:101E8000CF91DF910895DF93CF9300D0CDB7DEB728
:101E9000F89480917A0790917B079A83898378944C
:101EA00089819A810F900F90CF91DF910895DF93F0
:101EB000CF93CDB7DEB780917307882309F05AC05E
:101EC00087E390E0FC0110828091410790914207E6
:101ED000181619060CF04EC08091410790914207E8
:101EE0002AE233E0A901481B590BCA0190937707F6
:101EF0008093760780917607909177078F309105D0
:101F000034F48FE090E09093770780937607809188
:101F10007607909177078C3F91058CF482EB90E0E7
:101F200020917607309177073CEF532F521B252FD6
:101F3000FC01208310927707109276070EC08091E3
:101F40007607909177078C5F904090937707809306
:101F5000760782EB90E0FC01108280E790E022E0BF
:101F6000FC01208381EB90E025E0FC01208381E0EF
:101F700080937307CF91DF910895DF93CF93CDB70F
:101F8000DEB7CF91DF910895DF93CF9300D0CDB727
:101F9000DEB79A838983F89489819A8123E08A3213
:101FA00092078CF489819A81181619063CF489816C
:101FB0009A8190934207809341070BC01092420789
:101FC0001092410706C08AE293E090934207809303
:101FD000410778940F900F90CF91DF9108951F9251
:101FE0000F920FB60F9211242F933F934F935F934D
:101FF0006F937F938F939F93AF93BF93EF93FF93D1
:10200000DF93CF93CDB7DEB7F894809176079091A8
:102010007707009709F581EB90E0FC01108280E7DB
:1020200090E0FC0110828BE290E02BE230E0F901BD
:1020300020812061FC0120838AE090E00E94362B01
:102040008BE290E02BE230E0F90120812F7EFC0151
:1020500020831092730722C08091760790917707B2
:102060008C3F91058CF482EB90E0209176073091C3
:1020700077073CEFF32FF21B2F2FFC0120831092E8
:102080007707109276070AC08091760790917707BC
:102090008C5F904090937707809376077894CF91E8
:1020A000DF91FF91EF91BF91AF919F918F917F91C0
:1020B0006F915F914F913F912F910F900FBE0F90B5
:1020C0001F9018951F920F920FB60F9211248F93A5
:1020D0009F93EF93FF93DF93CF93CDB7DEB788E75E
:1020E00090E0FC018081918190937907809378073B
:1020F000809172078F5F80937207809172078E3193
:1021000029F41092720781E080936707CF91DF91E5
:10211000FF91EF919F918F910F900FBE0F901F90A5
:1021200018951F920F920FB60F9211242F933F9381
:102130004F935F936F937F938F939F93AF93BF93CF
:10214000EF93FF93DF93CF93CDB7DEB7F89489E297
:1021500090E0FC018081882F90E08470907000975F
:1021600019F00E94BD0F02C00E94570F7894CF91C2
:10217000DF91FF91EF91BF91AF919F918F917F91EF
:102180006F915F914F913F912F910F900FBE0F90E4
:102190001F9018951F920F920FB60F921124DF9384
:1021A000CF93CDB7DEB7CF91DF910F900FBE0F90D9
:1021B0001F9018951F920F920FB60F9211242F9314
:1021C0003F934F935F936F937F938F939F93AF93BF
:1021D000BF93EF93FF93DF93CF93CDB7DEB780919B
:1021E0007407909175070197909375078093740712
:1021F00080917A0790917B07019690937B0780935B
:102200007A0780917407909175071816190634F0B3
:102210000E94CD1281E080933F0703C081E080934C
:102220001907CF91DF91FF91EF91BF91AF919F91EE
:102230008F917F916F915F914F913F912F910F906F
:102240000FBE0F901F901895DF93CF93CDB7DEB7D9
:1022500081E290E020EFFC01208382E290E020EE1A
:10226000FC0120838EE790E02FE0FC0120838AE2CE
:1022700090E02AE230E0F90120812B7FFC012083ED
:102280008BE290E02BE230E0F90120812B7FFC0112
:1022900020838BE290E02BE230E0F90120812F7E59
:1022A000FC0120838AE290E02AE230E0F9012081FB
:1022B0002061FC0120838BE290E02BE230E0F90109
:1022C00020812F7EFC0120838BE290E02BE230E026
:1022D000F9012081277FFC0120838AE290E02AE235
:1022E00030E0F90120812860FC0120838BE290E03E
:1022F0002BE230E0F9012081277FFC01208389E671
:1023000090E021E0FC0120838DE390E0FC0110824D
:102310001092190780E890E0FC01108281E890E0BB
:1023200028E0FC01208382E890E0FC01108288E82C
:1023300090E020E33AE2FC013183208384E890E0DE
:10234000FC01118210828FE690E0FC01108284E48F
:1023500090E022E0FC01208387E490E02FEFFC0175
:10236000208386E490E0FC01108285E490E0FC018B
:1023700010828EE690E0FC0110821092730780EBD1
:1023800090E022E0FC01208381EB90E0FC011082D0
:1023900086EB90E0FC01108283EB90E02CEFFC01D7
:1023A000208382EB90E0FC01108280E790E0FC014A
:1023B00010828AE790E027E0FC01208310926707F3
:1023C0001092720710927907109278077894CF9143
:1023D000DF910895DF93CF93CDB7DEB78AE790E022
:1023E00027E0FC012083109267071092720780910A
:1023F0006807813031F48CE790E021E4FC01208310
:1024000005C08CE790E022E4FC0120838AE790E09D
:102410002FEAFC0120838BE790E023E0FC0120837E
:1024200085E490E025E0FC0120838EE690E022E048
:10243000FC012083CF91DF910895DF93CF93CDB737
:10244000DEB78AE790E027E0FC01208385E490E096
:10245000FC0110828EE690E0FC011082CF91DF91AA
:102460000895DF93CF93CDB7DEB70E94E91A8CE3CE
:1024700090E0FC0110828DE390E021E0FC012083DC
:10248000CF91DF910895DF93CF93CDB7DEB78DE382
:1024900090E0FC011082F8940E94BD0F7894CF91D7
:1024A000DF910895DF93CF9300D0CDB7DEB7F894D6
:1024B00080917807909179079A83898378948981AC
:1024C0009A810F900F90CF91DF910895DF93CF9372
:1024D00000D000D000D0CDB7DEB780E090E0DC01C6
:1024E00089839A83AB83BC830E9452129E838D831F
:1024F0008D819E81AA2797FDA095BA2FBC01CD01A1
:102500000E944332DC01CB01BC01CD0120E030E070
:1025100040EA50E40E94F732DC01CB01BC01CD015E
:1025200020E030EC4FE754E40E94A831DC01CB01FD
:1025300089839A83AB83BC8389819A81AB81BC8177
:10254000BC01CD0126960FB6F894DEBF0FBECDBFFD
:10255000CF91DF910895DF93CF9300D0CDB7DEB751
:102560009A83898310923F0789819A819093750796
:102570008093740710927B0710927A078FE690E0A1
:1025800022E0FC01208381E890E02DE0FC01208323
:102590000F900F90CF91DF910895DF93CF93CDB738
:1025A000DEB781E890E028E0FC0120838FE690E030
:1025B000FC011082CF91DF910895DF93CF93CDB7C7
:1025C000DEB78BE290E02BE230E0F9012081277F3B
:1025D000FC012083CF91DF910895DF93CF93CDB796
:1025E000DEB78BE290E02BE230E0F9012081286039
:1025F000FC012083CF91DF910895DF93CF93CDB776
:10260000DEB78BE290E0FC018081882F90E088703B
:102610009070009719F00E94DD1202C00E94ED1226
:10262000CF91DF910895DF93CF9300D0CDB7DEB780
:102630001A82198288E290E028E230E0F9012081D4
:10264000237FFC01208382E290E022E230E0F90166
:1026500020812F73FC01208382E290E022E230E0AF
:10266000F90120812068FC01208388E090E00E942D
:10267000362B86E290E0FC018081807F8A838A810C
:10268000882329F18A81882314F482E389838A814B
:10269000992787FD909580749070009711F080E3E2
:1026A00089838A81992787FD909580729070009721
:1026B00011F088E389838A81992787FD909580713D
:1026C0009070009709F4CDC085E38983CAC082E287
:1026D00090E022E230E0F90120812F77FC01208395
:1026E00088E290E028E230E0F90120812460FC01DA
:1026F000208388E090E00E94362B86E290E0FC0187
:102700008081807F8A838A81882329F18A81882336
:1027100014F481E389838A81992787FD90958074D9
:102720009070009711F085E089838A81992787FD51
:10273000909580729070009711F087E389838A8169
:10274000992787FD909580719070009709F489C052
:1027500084E3898386C088E290E028E230E0F901D2
:1027600020812B7FFC01208388E290E028E230E08A
:10277000F90120812860FC01208388E090E00E941C
:10278000362B86E290E0FC018081807F8A838A81FB
:10279000882329F18A81882314F483E389838A8139
:1027A000992787FD909580749070009711F086E0CE
:1027B00089838A81992787FD909580729070009710
:1027C00011F089E389838A81992787FD909580712B
:1027D0009070009709F445C086E3898342C088E27F
:1027E00090E028E230E0F9012081277FFC0120837E
:1027F00082E290E022E230E0F90120812064FC01D5
:10280000208388E090E00E94362B86E290E0FC0175
:102810008081807F8A838A81882319F18A81882335
:1028200014F481E089838A81992787FD90958074CB
:102830009070009711F082E089838A81992787FD43
:10284000909580729070009711F083E089838A815F
:10285000992787FD909580719070009711F084E022
:10286000898389810F900F90CF91DF910895DF9335
:10287000CF93CDB7DEB710927C0781E080937D07C0
:1028800087E290E027E230E0F90120812C60FC0132
:10289000208387E290E027E230E0F90120812F7069
:1028A000FC01208381E290E021E230E0F901208107
:1028B000206CFC01208388E290E028E230E0F901FE
:1028C00020812C60FC01208388E290E028E230E047
:1028D000F90120812F70FC01208382E290E022E246
:1028E00030E0F9012081206CFC0120838DE690E02E
:1028F00020EFFC01208388E690E028E630E0F90133
:1029000020812460FC0120837894CF91DF91089589
:102910001F920F920FB60F9211242F933F934F9354
:102920005F936F937F938F939F93AF93BF93EF9337
:10293000FF93DF93CF93CDB7DEB788E690E0FC013D
:1029400010828DE690E0FC01108286E290E0FC01AE
:102950008081882F90E0807F9070009759F080915F
:102960007D07882321F00E94131380937C07109227
:102970007D0703C081E080937D0788E290E028E234
:1029800030E0F90120812C60FC01208382E290E09C
:1029900022E230E0F9012081206CFC0120830E94BA
:1029A0002F2B8BE390E0FC0110828DE690E020EF6E
:1029B000FC01208388E690E028E630E0F9012081E0
:1029C0002460FC012083CF91DF91FF91EF91BF91B3
:1029D000AF919F918F917F916F915F914F913F91B7
:1029E0002F910F900FBE0F901F901895DF93CF93EC
:1029F0000F92CDB7DEB7F89480917C07898310924F
:102A00007C07789489810F90CF91DF9108951F936F
:102A1000DF93CF93CDB7DEB728970FB6F894DEBF1C
:102A20000FBECDBF80E090E0A4E3B2E489839A8337
:102A3000AB83BC83209163073091640780915D076D
:102A400090915E07A901481B590BCA01AA2797FD5F
:102A5000A095BA2FBC01CD010E944332DC01CB010D
:102A60008D839E83AF83B8878D819E81AF81B8852A
:102A7000BF7711E0BC01CD0120E030E040E85FE32A
:102A80000E94F33218160CF010E01123A9F06981AE
:102A90007A818B819C812D813E814F8158850E9456
:102AA000A831DC01CB0180937E0790937F07A09330
:102AB0008007B09381070BC080E090E0DC01809339
:102AC0007E0790937F07A0938007B0938107289695
:102AD0000FB6F894DEBF0FBECDBFCF91DF911F912F
:102AE0000895DF93CF9300D00F92CDB7DEB78B83DD
:102AF0008EE897E060E070E044E050E00E945D39CD
:102B00008B8180938E072EE837E080E1B90141E0A8
:102B10000E949330992787FD90959A8389838981B4
:102B20009A810F900F900F90CF91DF910895DF93CE
:102B3000CF9300D00F92CDB7DEB78B83198286E892
:102B400092E00E94B0398AE997E060E070E048E0E6
:102B500050E00E945D392AE937E080E1B90146E0A2
:102B60000E94E630898380919F078A8381E02B81D0
:102B70009A81291709F080E089838B81682F772754
:102B800067FD70958A81482F552747FD50958981AB
:102B9000282F332727FD30958DB79EB708970FB69E
:102BA000F8949EBF0FBE8DBF8DB79EB70196E6EA23
:102BB000F2E0DC01ED93FC93FC0173836283DC01A2
:102BC00015965C934E931497FC01378326830E94DD
:102BD0009B398DB79EB708960FB6F8949EBF0FBE6F
:102BE0008DBF89810F900F900F90CF91DF91089545
:102BF000DF93CF9300D00F92CDB7DEB78B831982CE
:102C00001A820AC08B810E9471158B810E949715D0
:102C100089838A818F5F8A838981882319F48A81D5
:102C2000823084F389810F900F900F90CF91DF91C4
:102C30000895DF93CF93CDB7DEB72B970FB6F894F7
:102C4000DEBF0FBECDBF8AE997E060E070E048E0EC
:102C500050E00E945D392AE937E080E1B90146E0A1
:102C60000E94E630898389818F3F09F08CC0809172
:102C70009F078A8380919A07809326078AE997E0C5
:102C800001969C838B838B819C81FC018081918147
:102C90009E838D8380919D078F838F81882349F543
:102CA0008D819E81AA2797FDA095BA2FBC01CD01E9
:102CB0000E944332DC01CB01BC01CD012DEC3CEC88
:102CC0004CE85FE30E94F732DC01CB01BC01CD018F
:102CD00020E030E040E256E40E94A831DC01CB0164
:102CE0008093270790932807A0932907B0932A077A
:102CF00028C08D819E81AA2797FDA095BA2FBC017F
:102D0000CD010E944332DC01CB01BC01CD012DEC91
:102D10003CEC4CE85FE30E94F732DC01CB01BC01E4
:102D2000CD0120E030E040E054E40E94A831DC0115
:102D3000CB018093270790932807A0932907B0938E
:102D40002A078091270790912807A0912907B09121
:102D50002A0788879987AA87BB878A81813019F4D7
:102D600081E0809346078A818830C9F48BE297E03E
:102D70002FEE32E0B90144E150E00E94543981E085
:102D8000809343070CC08BE297E023E033E0B90166
:102D90004CE050E00E94543981E0809343072B9629
:102DA0000FB6F894DEBF0FBECDBFCF91DF9108956F
:102DB000DF93CF930F92CDB7DEB780919A078093C0
:102DC000260780919F0789838981883089F48FE065
:102DD00093E00E94B0398BE297E020E333E0B90141
:102DE00044E150E00E94543981E08093430706C0DB
:102DF0008981833019F083E00E9471150F90CF9183
:102E0000DF910895DF93CF93CDB7DEB781E0809354
:102E1000B307CF91DF910895DF93CF9300D0CDB763
:102E2000DEB78091B307853030F48091B3078F5FB0
:102E30008093B30712C08AE997E060E070E048E051
:102E400050E00E945D392AE937E080E1B90146E0AF
:102E50000E94BC3081E08093B3070E942F0F9A83B9
:102E6000898389819A818F719070009711F40E94F3
:102E7000111B0F900F90CF91DF910895AF92BF92E9
:102E8000CF92DF92EF92FF920F931F93DF93CF9336
:102E9000CDB7DEB760970FB6F894DEBF0FBECDBFDB
:102EA00069837A838B839C832D833E834F835887EA
:102EB000E986FA860B871C87AD86BE86CF86D88AC0
:102EC0008D819E81AF81B8858093A6079093A707D7
:102ED000A093A807B093A90789819A81AB81BC818F
:102EE0008093860790938707A0938807B0938907FC
:102EF00089859A85AB85BC858093AB079093AC0799
:102F0000A093AD07B093AE078D859E85AF85B88938
:102F10008093960790939707A0939807B09399078B
:102F20008D8D9E8DAF8DB8A180938207909383077E
:102F3000A0938407B093850789A19AA1ABA1BCA1F6
:102F40008093A2079093A307A093A407B093A5072B
:102F500060E070E080E89FE329A13AA14BA15CA169
:102F60000E94A831DC01CB018093920790939307D4
:102F7000A0939407B093950780E090E0DC018093E4
:102F8000B4079093B507A093B607B093B707109214
:102F9000AA070E94071580E090E0DC018093AF074C
:102FA0009093B007A093B107B093B20760960FB6A5
:102FB000F894DEBF0FBECDBFCF91DF911F910F916F
:102FC000FF90EF90DF90CF90BF90AF900895EF9279
:102FD000FF920F931F93DF93CF93CDB7DEB7609728
:102FE0000FB6F894DEBF0FBECDBF6D877E878F878B
:102FF000988B8D859E85AF85B889BF772091820794
:1030000030918307409184075091850711E0BC01FE
:10301000CD010E94A43188230CF010E0112349F067
:1030200080E090E0A0E8BFE389839A83AB83BC8310
:1030300012C080E090E0DC0189839A83AB83BC837B
:1030400080E090E0DC018093B4079093B507A093F3
:10305000B607B093B7078091A2079091A307A091FC
:10306000A407B091A507BC01CD0129813A814B810C
:103070005C810E94F732DC01CB01BC01CD012D85C2
:103080003E854F8558890E94F732DC01CB012091A3
:10309000B4073091B5074091B6075091B707BC010E
:1030A000CD010E944031DC01CB018093B4079093A5
:1030B000B507A093B607B093B7078091AA078823F6
:1030C00059F481E08093AA0780E090E0DC018987D1
:1030D0009A87AB87BC8722C020918A0730918B07E3
:1030E00040918C0750918D076D857E858F859889DD
:1030F0000E943F31DC01CB01209192073091930770
:103100004091940750919507BC01CD010E94F73280
:10311000DC01CB0189879A87AB87BC878D859E852B
:10312000AF85B88980938A0790938B07A0938C070B
:10313000B0938D078091A6079091A707A091A8074B
:10314000B091A907BC01CD012D853E854F855889D9
:103150000E94F732DC01CB017C018D018091AB072D
:103160009091AC07A091AD07B091AE072091B40744
:103170003091B5074091B6075091B707BC01CD011A
:103180000E94F732DC01CB019C01AD01C801B701FF
:103190000E944031DC01CB017C018D0180919607BA
:1031A00090919707A0919807B0919907BC01CD0124
:1031B00029853A854B855C850E94F732DC01CB017D
:1031C0009C01AD01C801B7010E944031DC01CB0177
:1031D0002091860730918707409188075091890791
:1031E000BC01CD010E94F732DC01CB018D839E83AF
:1031F000AF83B88711E06D817E818F81988520E053
:1032000030E040EF51E40E94F33218160CF010E069
:10321000112349F080E090E0A0EFB1E48D839E831C
:10322000AF83B88718C011E06D817E818F8198854A
:1032300020E030E040EF51EC0E94A43188230CF0F4
:1032400010E0112341F080E090E0A0EFB1EC8D831D
:103250009E83AF83B8878D819E81AF81B885BC0185
:10326000CD0160960FB6F894DEBF0FBECDBFCF91F3
:10327000DF911F910F91FF90EF900895DF93CF930F
:10328000CDB7DEB72E970FB6F894DEBF0FBECDBF19
:103290000E9452129A83898380915D0790915E0704
:1032A00029813A81A901481B590BCA01AA2797FD18
:1032B000A095BA2FBC01CD010E944332DC01CB01A5
:1032C00020917E0730917F074091800750918107C0
:1032D000BC01CD010E94F732DC01CB01BC01CD0164
:1032E00020E030E040E751E40E944031DC01CB01B6
:1032F0008B839C83AD83BE8380917E0790917F07F3
:10330000A0918007B09181078F839887A987BA879A
:103310008B819C81AD81BE818B879C87AD87BE8769
:10332000E0915D07F0915E0760916307709164071B
:103330008DB79EB740970FB6F8949EBF0FBE8DBF56
:103340008DB79EB7019624E433E0DC012D933C93C6
:1033500029813A81DC0113963C932E9312972F8199
:10336000388549855A85DC0114962D933D934D93FC
:103370005C931797DC011996FC93EE931897FC0168
:10338000738762872B853C854D855E85DC011C96A5
:103390002D933D934D935C931F970E949B39EDB7FE
:1033A000FEB770960FB6F894FEBF0FBEEDBF00D00B
:1033B00000D000D08DB79EB7019624E733E0DC0142
:1033C0002D933C932FE030E0FC01338322832CE3E8
:1033D00030E0DC0115963C932E9314970E949B39A4
:1033E000EDB7FEB736960FB6F894FEBF0FBEEDBF31
:1033F0008B819C81AD81BE8180935F079093600734
:10340000A0936107B09362078B819C81AD81BE81DF
:10341000BC01CD012E960FB6F894DEBF0FBECDBF16
:10342000CF91DF910895DF93CF93CDB7DEB72C977F
:103430000FB6F894DEBF0FBECDBF0E943E19DC016F
:10344000CB0120911E0730911F074091200750911A
:103450002107BC01CD010E943F31DC01CB018983F2
:103460009A83AB83BC8389819A81AB81BC81BC0187
:10347000CD010E94E717DC01CB012091AF0730910D
:10348000B0074091B1075091B207BC01CD010E9435
:103490004031DC01CB018D839E83AF83B8876D8182
:1034A0007E818F8198850E941032DC01CB019A8742
:1034B000898789859A85AA2797FDA095BA2FBC018F
:1034C000CD010E9443329B01AC016D817E818F81D1
:1034D00098850E943F31DC01CB018093AF07909328
:1034E000B007A093B107B093B20720914107309184
:1034F000420789859A85820F931F9C878B878B85CE
:103500009C850E94C40F2C960FB6F894DEBF0FBEA8
:10351000CDBFCF91DF910895AF92BF92CF92DF924E
:10352000EF92FF920F931F93DF93CF93CDB7DEB748
:103530008DB79EB708970FB6F8949EBF0FBE8DBF8C
:103540002DB73EB72F5F3F4F80E090E0A0EAB0E498
:10355000F90180839183A283B3838AEA93E1A6E38E
:10356000BFE3F90184839583A683B78366E676E695
:1035700086EE9EEB2DEC3CEC4CE85FE30F2EFDEC71
:10358000EF2EFCECFF2EFCE40F2FFEE31F2FF02D9F
:103590000F2EFDECAF2EFCECBF2EFCE4CF2EFEE395
:1035A000DF2EF02D0E943E178DB79EB708960FB6FE
:1035B000F8949EBF0FBE8DBF10924607CF91DF914A
:1035C0001F910F91FF90EF90DF90CF90BF90AF9041
:1035D0000895DF93CF93CDB7DEB780E090E0DC01B4
:1035E0008093AF079093B007A093B107B093B20751
:1035F00080E090E0DC018093B4079093B507A0933E
:10360000B607B093B70780E090E0DC0180938A07AB
:1036100090938B07A0938C07B0938D07CF91DF9188
:103620000895DF93CF93CDB7DEB72E970FB6F894FA
:10363000DEBF0FBECDBF80917E0790917F07A09126
:103640008007B091810789839A83AB83BC831E82F4
:103650001D8280915D0790915E072D813E81A901B9
:10366000481B590BCA01AA2797FDA095BA2FBC0188
:10367000CD010E944332DC01CB0120917E073091C5
:103680007F074091800750918107BC01CD010E94C6
:10369000F732DC01CB01BC01CD0120E030E040E796
:1036A00051E40E944031DC01CB018F839887A987C8
:1036B000BA878F819885A985BA858B879C87AD87C6
:1036C000BE878CE893E00E94B03940916C0750911E
:1036D0006D0720916507309166078DB79EB70A97F1
:1036E0000FB6F8949EBF0FBE8DBF8DB79EB70196E3
:1036F00067E973E0FC01718360836FE070E0FC01B7
:10370000738362836CE370E0FC0175836483FC0166
:1037100057834683FC01318720870E949B394DB730
:103720005EB7465F5F4F0FB6F8945EBF0FBE4DBFEA
:1037300040915D0750915E072091630730916407C7
:1037400000D000D000D08DB79EB701966AEC73E030
:10375000FC0171836083FC0153834283FC01358348
:1037600024830E949B394DB75EB74A5F5F4F0FB607
:10377000F8945EBF0FBE4DBF80912607482F50E0E2
:103780008DB79EB70C970FB6F8949EBF0FBE8DBF36
:103790002DB73EB72F5F3F4F83EE93E0F901918342
:1037A00080838B859C85AD85BE85F901828393835B
:1037B000A483B58389819A81AB81BC81F901868319
:1037C0009783A087B187F901538742870E949B396D
:1037D0004DB75EB7445F5F4F0FB6F8945EBF0FBE44
:1037E0004DBF2E960FB6F894DEBF0FBECDBFCF9162
:1037F000DF910895DF93CF93CDB7DEB761970FB612
:10380000F894DEBF0FBECDBF0E946612DC01CB0173
:1038100089839A83AB83BC834091410750914207CF
:103820008DB79EB70A970FB6F8949EBF0FBE8DBF97
:103830002DB73EB72F5F3F4FCE010596F90191831B
:10384000808382E194E0F9019383828389819A8164
:10385000AB81BC81F90184839583A683B783F90189
:10386000518740870E94E5398DB79EB70A960FB6FB
:10387000F8949EBF0FBE8DBF83E066E00E942503D3
:10388000CE0105960E94050361960FB6F894DEBF3F
:103890000FBECDBFCF91DF910895DF93CF93CDB70A
:1038A000DEB766970FB6F894DEBF0FBECDBF0E949D
:1038B00052129A8389830E946612DC01CB018B83AA
:1038C0009C83AD83BE8360914107709142078DB7A1
:1038D0009EB70C970FB6F8949EBF0FBE8DBF8DB7E5
:1038E0009EB701969E01295F3F4FFC0131832083E3
:1038F0002EE134E0FC01338322832B813C814D8116
:103900005E81FC01248335834683578329813A8174
:10391000FC0131872087FC01738762870E94E539AB
:103920008DB79EB70C960FB6F8949EBF0FBE8DBF95
:103930000E94FA02CE0107960E94050366960FB612
:10394000F894DEBF0FBECDBFCF91DF910895DF9316
:10395000CF93CDB7DEB764970FB6F894DEBF0FBE36
:10396000CDBF8091270790912807A0912907B0919A
:103970002A0789839A83AB83BC8380912607882F8B
:1039800090E02DB73EB72A5030400FB6F8943EBFB6
:103990000FBE2DBF2DB73EB72F5F3F4FAE014B5F20
:1039A0005F4FF901518340834FE254E0F9015383A3
:1039B0004283F9019583848389819A81AB81BC819B
:1039C000F90186839783A087B1870E94E5392DB7D7
:1039D0003EB7265F3F4F0FB6F8943EBF0FBE2DBFD8
:1039E0000E94FA02CE0105960E94050364960FB666
:1039F000F894DEBF0FBECDBFCF91DF910895DF9366
:103A0000CF93CDB7DEB72A970FB6F894DEBF0FBEBF
:103A1000CDBF80912607282F30E000D000D000D005
:103A20008DB79EB70196AE014F5F5F4FFC0151838A
:103A300040834DE354E0FC0153834283FC01358312
:103A400024830E94E5398DB79EB706960FB6F89489
:103A50009EBF0FBE8DBF83E060E10E942503CE01B3
:103A600001960E9405032A960FB6F894DEBF0FBE9A
:103A7000CDBFCF91DF910895DF93CF93CDB7DEB760
:103A80000E94EF0282E494E00E94050383E060E07C
:103A90000E94250386E594E00E940503CF91DF9103
:103AA0000895DF93CF93CDB7DEB70E94EF028BE688
:103AB00094E00E9405030E94FA0282E794E00E94CB
:103AC0000503CF91DF910895DF93CF93CDB7DEB794
:103AD0000E94EF028FE794E00E9405030E94FA0221
:103AE0008BE297E00E940503CF91DF910895DF9369
:103AF000CF93CDB7DEB727970FB6F894DEBF0FBED2
:103B0000CDBF9F838E830E94EF028BE894E00E94DA
:103B1000050300D000D000D08DB79EB701969E015E
:103B20002F5F3F4FFC013183208320E934E0FC010B
:103B3000338322832E813F81FC01358324830E94BD
:103B4000E5398DB79EB706960FB6F8949EBF0FBEA7
:103B50008DBFCE0101960E94050384E994E00E9486
:103B6000050383E060E00E9425038FE994E00E9452
:103B7000050327960FB6F894DEBF0FBECDBFCF91D9
:103B8000DF910895DF93CF93CDB7DEB78FE090E05C
:103B90000E94771DCF91DF910895DF93CF93CDB72A
:103BA000DEB78CE390E00E94771DCF91DF910895FE
:103BB000DF93CF93CDB7DEB70E94EF02CF91DF91B5
:103BC0000895DF93CF93CDB7DEB70E94EF0283EB6A
:103BD00094E00E9405030E94FA0284EC94E00E94A3
:103BE000050383E060E00E9425038CEC94E00E94D2
:103BF0000503CF91DF910895DF93CF93CDB7DEB763
:103C00002C970FB6F894DEBF0FBECDBF80915F0733
:103C100090916007A0916107B091620789839A83B0
:103C2000AB83BC838DB79EB708970FB6F8949EBF41
:103C30000FBE8DBF2DB73EB72F5F3F4FCE0105960C
:103C4000F9019183808389ED94E0F9019383828364
:103C500089819A81AB81BC81F90184839583A68394
:103C6000B7830E94E5398DB79EB708960FB6F894D2
:103C70009EBF0FBE8DBF81E060E00E942503CE0194
:103C800005960E9405032C960FB6F894DEBF0FBE72
:103C9000CDBFCF91DF910895DF93CF93CDB7DEB73E
:103CA00061970FB6F894DEBF0FBECDBF0E942F0FF5
:103CB0009A83898389819A812CE330E0B9010E943B
:103CC000E0369B01C901AA2797FDA095BA2F8B83E7
:103CD0009C83AD83BE838B819C8198878F839981E0
:103CE0002B8184EC289F802D1124890F8987898559
:103CF000282F332727FD30958DB79EB708970FB62D
:103D0000F8949EBF0FBE8DBF8DB79EB70196AE01D2
:103D1000465F5F4FFC015183408340EE54E0FC015D
:103D2000538342834F815885FC0155834483FC01B2
:103D3000378326830E94E5398DB79EB708960FB664
:103D4000F8949EBF0FBE8DBF81E069E00E942503FD
:103D5000CE010A960E94050361960FB6F894DEBF65
:103D60000FBECDBFCF91DF910895DF93CF93CDB735
:103D7000DEB761970FB6F894DEBF0FBECDBF0E94CD
:103D8000430F9A83898389819A812CE330E0B901BA
:103D90000E94E0369B01C901AA2797FDA095BA2F82
:103DA0008B839C83AD83BE838B819C8198878F831B
:103DB00099812B8184EC289F802D1124890F89877C
:103DC0008985282F332727FD30958DB79EB7089713
:103DD0000FB6F8949EBF0FBE8DBF8DB79EB70196EC
:103DE000AE01465F5F4FFC015183408340EE54E0DB
:103DF000FC01538342834F815885FC0155834483E2
:103E0000FC01378326830E94E5398DB79EB708965B
:103E10000FB6F8949EBF0FBE8DBF81E066E00E9492
:103E20002503CE010A960E94050361960FB6F89409
:103E3000DEBF0FBECDBFCF91DF910895DF93CF934B
:103E4000CDB7DEB70E94EF0289EE94E00E94050331
:103E500080E061E10E94250388EB97E00E94050362
:103E600083E060E00E94250382EF94E00E94050356
:103E7000CF91DF910895DF93CF93CDB7DEB70E9446
:103E8000EF0289EF94E00E9405030E94FA0285E0A8
:103E900095E00E94050380E061E10E94250388EB24
:103EA00097E00E94050383E060E00E94250384E11F
:103EB00095E00E940503CF91DF910895DF93CF93A2
:103EC000CDB7DEB780E060E00E94250384E295E094
:103ED0000E940503CF91DF910895DF93CF93CDB773
:103EE000DEB780E060E00E9425038FE295E00E944B
:103EF0000503CF91DF910895DF93CF930F92CDB754
:103F0000DEB7898381E062E00E9425038091150776
:103F10000E946B03809169070E946B0380916A077E
:103F20000E946B03898188235CF08981833044F48B
:103F300089818E5F982F81E0692F0E944C0302C017
:103F40000E9460030F90CF91DF910895DF93CF938C
:103F50000F92CDB7DEB7898381E068E00E94250328
:103F6000809140070E946B03809145070E946B037C
:103F70008DE60E946B03809123070E946B03809162
:103F800047070E946B03898188235CF08981853013
:103F900044F48981885F982F81E0692F0E944C0347
:103FA00002C00E9460030F90CF91DF910895DF93CC
:103FB000CF93CDB7DEB70E94EF028AE395E00E946F
:103FC00005030E94FA0281E495E00E94050382E065
:103FD00060E00E9425038DE495E00E94050382E0E5
:103FE00061E10E94250389E595E00E94050383E0D5
:103FF00060E00E9425038DE595E00E940503CF91C6
:10400000DF910895DF93CF930F92CDB7DEB7898309
:1040100082E06DE00E942503809124070E946B03DB
:1040200080916B070E946B03898188235CF08981F2
:10403000823044F48981835F982F82E0692F0E9447
:104040004C0302C00E9460030F90CF91DF9108954E
:10405000DF93CF930F92CDB7DEB7898381E06DE018
:104060000E94250380912507882329F086E695E0A4
:104070000E94050304C08AE695E00E940503898139
:1040800088235CF08981181644F08981835F982F1A
:1040900081E0692F0E944C0302C00E9460030F90D0
:1040A000CF91DF910895DF93CF93CDB7DEB783E053
:1040B00068E00E9425038EE695E00E940503CF91FB
:1040C000DF910895DF93CF93CDB7DEB783E068E04B
:1040D0000E94250389E795E00E940503CF91DF91B7
:1040E0000895DF93CF93CDB7DEB783E068E00E94F9
:1040F000250380E895E00E940503CF91DF910895A4
:10410000DF93CF93CDB7DEB780916807882351F452
:1041100088EB97E027E835E0B90144E050E00E94E1
:10412000543909C088EB97E02BE835E0B90144E049
:1041300050E00E945439CF91DF910895DF93CF93DF
:10414000CDB7DEB70E94EF028FE895E00E9405032D
:10415000809125078823A1F080E06EE00E9425036E
:1041600086E995E00E940503809124070E946B0375
:1041700080916B070E946B038AE995E00E9405031A
:1041800081E060E00E9425038CE995E00E94050330
:1041900083E060E00E94250382EA95E00E94050327
:1041A000CF91DF910895DF93CF9300D000D000D05E
:1041B000CDB7DEB781E060E00E94250320911607AD
:1041C0003091170700D000D000D08DB79EB7019670
:1041D000AE014F5F5F4FFC015183408346EB55E0DA
:1041E000FC0153834283FC01358324830E94E5391B
:1041F0008DB79EB706960FB6F8949EBF0FBE8DBFC3
:10420000CE0101960E94050326960FB6F894DEBFF4
:104210000FBECDBFCF91DF910895DF93CF93CDB780
:10422000DEB70E94EF0280911307909114070E945D
:10423000050382E060E00E9425038AEB95E00E947E
:10424000050383E060E00E9425038FE994E00E946B
:1042500005030E94D320CF91DF910895DF93CF9380
:1042600000D000D000D0CDB7DEB79E838D831982F9
:1042700064C18D819E81FC01258136818981882FD1
:1042800090E0880F991FAC01440F551F440F551F34
:10429000440F551FBA01681B790BCB01820F931F86
:1042A000FC0114868BE090E09C838B8340C08D8161
:1042B0009E81FC01258136818981882F90E0880FBD
:1042C000991FAC01440F551F440F551F440F551F34
:1042D000BA01681B790BCB01280F391F8D819E8194
:1042E000FC01458156818981882F90E0880F991FB4
:1042F000BC01660F771F660F771F660F771FFB01E4
:10430000E81BF90BCF01480F591F8B819C81019746
:10431000840F951FFC0140818B819C81820F931F2C
:10432000FC0140838B819C8101979C838B838B81D3
:104330009C81181619060CF4BACF8D819E81FC0160
:10434000258136818981882F90E0880F991FAC01E3
:10435000440F551F440F551F440F551FBA01681BCA
:10436000790BCB01820F931F2981FC0120838D8162
:104370009E81FC01258136818981882F90E0880FFC
:10438000991FAC01440F551F440F551F440F551F73
:10439000BA01681B790BCB01820F931FFC012485A6
:1043A0002F5FFC01248789818A83ACC08BE090E079
:1043B0009C838B8340C08D819E81FC012581368149
:1043C0008981882F90E0880F991FAC01440F551FF9
:1043D000440F551F440F551FBA01681B790BCB01C1
:1043E000280F391F8D819E81FC014581568189816D
:1043F000882F90E0880F991FBC01660F771F660F0A
:10440000771F660F771FFB01E81BF90BCF01480FE1
:10441000591F8B819C810197840F951FFC0140815E
:104420008B819C81820F931FFC0140838B819C8137
:1044300001979C838B838B819C81181619060CF441
:10444000BACF8D819E81FC01258136818981882F9B
:1044500090E0880F991FAC01440F551F440F551F62
:10446000440F551FBA01681B790BCB01A901480FF6
:10447000591F8D819E81FC01628173818A81282F61
:1044800030E0C901880F991F820F931F880F991F71
:10449000880F991F860F971FFC018181FA01808385
:1044A0008D819E81FC01258136818981882F90E054
:1044B000880F991FAC01440F551F440F551F440F1F
:1044C000551FBA01681B790BCB01820F931FFC01AA
:1044D00024852F5FFC0124878D819E81FC01428110
:1044E00053818A81282F30E0C901880F991F820FDC
:1044F000931F880F991F880F991F840F951FFC0128
:1045000081818A838D819E81FC01428153818A81D0
:10451000282F30E0C901880F991F820F931F880F41
:10452000991F880F991F840F951FFC0181818F3F70
:1045300009F03CCF89818F5F89838D819E81FC0149
:1045400091818981891708F494CE26960FB6F89444
:10455000DEBF0FBECDBFCF91DF910895DF93CF9324
:1045600000D00F92CDB7DEB79B838A8319821DC01E
:104570008A819B81FC01258136818981882F90E089
:10458000880F991FAC01440F551F440F551F440F4E
:10459000551FBA01681B790BCB01820F931F2FEFB8
:1045A000FC01258789818F5F89838A819B81FC013A
:1045B000918189818917E0F20F900F900F90CF9130
:1045C000DF910895DF93CF9300D000D0CDB7DEB751
:1045D0009B838A836C838A819B81FC014281538106
:1045E0008C81282F30E0C901880F991F820F931FFB
:1045F000880F991F880F991F840F951FFC018681D2
:1046000097810097C1F08A819B81FC01428153818F
:104610008C81282F30E0C901880F991F820F931FCA
:10462000880F991F880F991F840F951FFC018681A1
:104630009781FC0109958A819B81FC01428153810C
:104640008C81282F30E0C901880F991F820F931F9A
:10465000880F991F880F991F840F951FFC01808573
:1046600091850097C1F08A819B81FC014281538131
:104670008C81282F30E0C901880F991F820F931F6A
:10468000880F991F880F991F840F951FFC01808543
:104690009185FC0109958A819B812C81FC012483F1
:1046A0008A819B81FC01428153818C81282F30E0DB
:1046B000C901880F991F820F931F880F991F880FB8
:1046C000991F840F951FFC018281898385C08A818F
:1046D0009B81FC01428153818981282F332727FD4B
:1046E0003095C901880F991F820F931F880F991F5A
:1046F000880F991F840F951FFC0186819781009771
:10470000D1F08A819B81FC01428153818981282FCC
:10471000332727FD3095C901880F991F820F931FFA
:10472000880F991F880F991F840F951FFC018681A0
:104730009781FC0109958A819B81FC01428153810B
:104740008981282F332727FD3095C901880F991FAC
:10475000820F931F880F991F880F991F840F951F31
:10476000FC01808591850097D1F08A819B81FC01B5
:10477000428153818981282F332727FD3095C90134
:10478000880F991F820F931F880F991F880F991FF9
:10479000840F951FFC0180859185FC010995298175
:1047A0008A819B81FC0124838A819B81FC01428157
:1047B00053818981282F332727FD3095C901880F20
:1047C000991F820F931F880F991F880F991F840FBD
:1047D000951FFC018281898389818F3F09F077CF02
:1047E0000F900F900F900F90CF91DF910895DF936E
:1047F000CF9300D000D000D0CDB7DEB79A838983A5
:104800007C836B834D832E8389819A812D81FC016A
:10481000218389819A812B813C81FC01338322830E
:1048200089819A81FC018181882F90E0880F991FEE
:104830009C01220F331F220F331F220F331FA901A8
:10484000481B590BCA010E943E379C0189819A81FD
:10485000FC013683258389819A810E942E218981DA
:104860009A810E94AE2289819A816E810E94E22201
:1048700089819A812FEFFC01238B26960FB6F8943D
:10488000DEBF0FBECDBFCF91DF910895DF93CF93F1
:1048900000D0CDB7DEB79A83898389819A81FC01E4
:1048A000858196810E94D8370F900F90CF91DF912C
:1048B0000895DF93CF9300D000D000D0CDB7DEB7FE
:1048C0009C838B836D834E83198219828B819C819B
:1048D000FC01258136818E81882F90E0880F991FF9
:1048E000AC01440F551F440F551F440F551FBA010B
:1048F000681B790BCB01820F931FFC0184858150CB
:104900008A8327C08B819C81FC01258136818E8121
:10491000882F90E0880F991FAC01440F551F440F5A
:10492000551F440F551FBA01681B790BCB01280F87
:10493000391F8A81992787FD9095820F931FFC016B
:1049400090818D81981711F481E089838A8181504B
:104950008A838A818823B4F6898126960FB6F894D3
:10496000DEBF0FBECDBFCF91DF910895DF93CF9310
:1049700000D000D00F92CDB7DEB79D838C838C81A1
:104980009D812FEFFC01238B8C819D81079660E038
:1049900070E04CE050E00E945D391A828C819D816C
:1049A000FC018481898354C08C819D81FC018389B1
:1049B000282F2F5F8C819D81FC01238B8C819D8111
:1049C000FC018389992787FD909549812C813D8140
:1049D000820F931F0796FC0140838C819D81FC010F
:1049E000428153818981282F332727FD3095C901C2
:1049F000880F991F820F931F880F991F880F991F87
:104A0000840F951FFC0184819581FC0109958B839E
:104A10009091C90581E02B81291709F080E08A83F4
:104A20008C819D81FC01428153818981282F33270C
:104A300027FD3095C901880F991F820F931F880F9A
:104A4000991F880F991F840F951FFC01818189830D
:104A500089818F3F31F09A8181E08927882309F08D
:104A6000A3CF8A810F900F900F900F900F90CF914E
:104A7000DF910895DF93CF93CDB7DEB728970FB6B8
:104A8000F894DEBF0FBECDBF9D838C836E835887A5
:104A90004F838FEF8B831A821982A0C02C813D81B6
:104AA00089819A81820F931F0796FC0180818B83F5
:104AB0008C819D81FC01428153818B81282F30E0C4
:104AC000C901880F991F820F931F880F991F880FA4
:104AD000991F840F951FFC01828593850097C1F073
:104AE0008C819D81FC01428153818B81282F30E094
:104AF000C901880F991F820F931F880F991F880F74
:104B0000991F840F951FFC0182859385FC010995EF
:104B10008F8198852B81FC0120838C819D81FC01F4
:104B2000428153818C819D81FC01628173818B81E3
:104B3000282F30E0C901880F991F820F931F880F1B
:104B4000991F880F991F860F971FFC018181282FBD
:104B5000332727FD3095C901880F991F820F931FB6
:104B6000880F991F880F991F840F951FFC0183815F
:104B7000882379F18C819D81FC01458156818C814E
:104B80009D81FC01628173818B81282F30E0C901F6
:104B9000880F991F820F931F880F991F880F991FE5
:104BA000860F971FFC018181992787FD9095880FBB
:104BB000991F9C01220F331F220F331F220F331F17
:104BC000B901681B790BCB01840F951F2B81FC0168
:104BD000258789819A8101969A8389838C819D8119
:104BE000FC018389282F332727FD309589819A81FD
:104BF000281739070CF052CF8C819D81FC0142812E
:104C000053818B81282F30E0C901880F991F820FB3
:104C1000931F880F991F880F991F840F951FFC0100
:104C200081818B83A7C08C819D81FC01428153814E
:104C30008B81282F30E0C901880F991F820F931FA5
:104C4000880F991F880F991F840F951FFC0182857B
:104C500093850097C1F08C819D81FC014281538135
:104C60008B81282F30E0C901880F991F820F931F75
:104C7000880F991F880F991F840F951FFC0182854B
:104C80009385FC0109958F8198852B81FC012083F8
:104C90008C819D81FC01428153818B81282F30E0E2
:104CA000C901880F991F820F931F880F991F880FC2
:104CB000991F840F951FFC0181818B838C819D81BD
:104CC000FC01428153818C819D81FC016281738151
:104CD0008B81282F30E0C901880F991F820F931F05
:104CE000880F991F880F991F860F971FFC018181DC
:104CF000282F332727FD3095C901880F991F820F70
:104D0000931F880F991F880F991F840F951FFC010F
:104D10008381882379F18C819D81FC0145815681B5
:104D20008C819D81FC01628173818B81282F30E011
:104D3000C901880F991F820F931F880F991F880F31
:104D4000991F860F971FFC018181992787FD9095F8
:104D5000880F991F9C01220F331F220F331F220F30
:104D6000331FB901681B790BCB01840F951F2B8171
:104D7000FC0125872B818C819D81622F4E810E94B1
:104D80005924982F81E08927882309F04CCF9B81F3
:104D90008E81981709F091C08C819D81FC01428120
:104DA00053818B81282F30E0C901880F991F820F12
:104DB000931F880F991F880F991F840F951FFC015F
:104DC000828593850097C1F08C819D81FC01428191
:104DD00053818B81282F30E0C901880F991F820FE2
:104DE000931F880F991F880F991F840F951FFC012F
:104DF00082859385FC0109958C819D812B81FC0125
:104E000020838C819D81FC01428153818C819D8115
:104E1000FC01628173818B81282F30E0C901880FEA
:104E2000991F820F931F880F991F880F991F860F54
:104E3000971FFC018181282F332727FD3095C90159
:104E4000880F991F820F931F880F991F880F991F32
:104E5000840F951FFC018381882379F18C819D81CA
:104E6000FC01458156818C819D81FC0162817381A9
:104E70008B81282F30E0C901880F991F820F931F63
:104E8000880F991F880F991F860F971FFC0181813A
:104E9000992787FD9095880F991F9C01220F331F3A
:104EA000220F331F220F331FB901681B790BCB016F
:104EB000840F951F2B81FC01258728960FB6F89447
:104EC000DEBF0FBECDBFCF91DF910895DF93CF93AB
:104ED00000D000D000D0CDB7DEB79C838B836D832C
:104EE0004E838E8189838B819C81FC014281538119
:104EF0008B819C81FC01258136818D81882F90E0FA
:104F0000880F991FBC01660F771F660F771F660F0A
:104F1000771FFB01E81BF90BCF01280F391F89818F
:104F2000882F90E0820F931FFC018081282F332768
:104F300027FD3095C901880F991F820F931F880F95
:104F4000991F880F991F840F951FFC0180859185FB
:104F50000097B9F18B819C81FC01428153818B8147
:104F60009C81FC01258136818D81882F90E0880FFE
:104F7000991FBC01660F771F660F771F660F771F9B
:104F8000FB01E81BF90BCF01280F391F8981882FFE
:104F900090E0820F931FFC018081282F332727FD8B
:104FA0003095C901880F991F820F931F880F991F91
:104FB000880F991F840F951FFC0180859185FC0146
:104FC000099589818F5F89838981282F30E08B81C2
:104FD0009C81FC01458156818D81882F90E0880F4E
:104FE000991FBC01660F771F660F771F660F771F2B
:104FF000FB01E81BF90BCF01840F951FFC01848591
:10500000992787FD90950197821793070CF06BCF36
:105010008D818A837CC08B819C81FC0125813681B6
:105020008A81882F90E0880F991FAC01440F551F8B
:10503000440F551F440F551FBA01681B790BCB0154
:10504000820F931FFC0185858F3FD9F08B819C8156
:10505000FC01258136818A81882F90E0880F991F75
:10506000AC01440F551F440F551F440F551FBA0183
:10507000681B790BCB01820F931FFC0185858A8306
:1050800016C08B819C81FC01428153818A81282F2B
:1050900030E0C901880F991F820F931F880F991F55
:1050A000880F991F840F951FFC0182818A838B8151
:1050B0009C81FC01428153818A81282F30E0C90103
:1050C000880F991F820F931F880F991F880F991FB0
:1050D000840F951FFC01808591850097C1F08B811D
:1050E0009C81FC01428153818A81282F30E0C901D3
:1050F000880F991F820F931F880F991F880F991F80
:10510000840F951FFC0180859185FC0109958B8199
:105110009C81FC01258136818A81882F90E0880F4F
:10512000991FAC01440F551F440F551F440F551FC5
:10513000BA01681B790BCB01820F931FFC01858597
:105140008F3F09F068CF8B819C81FC0142815381A4
:105150008A81282F30E0C901880F991F820F931F81
:10516000880F991F880F991F840F951FFC0182815A
:105170008F3F09F050CF8A8126960FB6F894DEBF94
:105180000FBECDBFCF91DF910895DF93CF93CDB701
:10519000DEB728970FB6F894DEBF0FBECDBF9E8353
:1051A0008D836F8348878FEF898328858D819E81CA
:1051B000622F4F810E945924882309F450C01A821B
:1051C00030C08D819E81FC01258136818F81882FA1
:1051D00090E0880F991FAC01440F551F440F551FD5
:1051E000440F551FBA01681B790BCB01280F391FDB
:1051F0008A81992787FD9095820F931FFC018081FA
:10520000282F332727FD30958885882F90E0281791
:10521000390721F48A8189830000DDC08A818F5F8C
:105220008A838D819E81FC01258136818F81882F23
:1052300090E0880F991FAC01440F551F440F551F74
:10524000440F551FBA01681B790BCB01820F931FC6
:10525000FC0194858A8189170CF4B3CFBCC08D8181
:105260009E81FC01258136818F81882F90E0880FF7
:10527000991FAC01440F551F440F551F440F551F74
:10528000BA01681B790BCB01820F931FFC01648567
:105290008D819E81FC01258136818D819E81FC015D
:1052A0008081882F90E0880F991FAC01440F551F13
:1052B000440F551F440F551FFA01E81BF90BCF018E
:1052C000820F931FFC0184858617E4F48D819E81F3
:1052D000FC01258136818885882F90E0880F991FF1
:1052E000AC01440F551F440F551F440F551FBA0101
:1052F000681B790BCB01820F931FFC0184858150C1
:105300008C831BC08D819E81FC01258136818F811C
:10531000882F90E0880F991FAC01440F551F440F50
:10532000551F440F551FBA01681B790BCB01820F23
:10533000931FFC01848581508C831B8245C08B8127
:1053400089838D819E81FC01258136818885882F06
:1053500090E0880F991FAC01440F551F440F551F53
:10536000440F551FBA01681B790BCB01280F391F59
:105370008B81992787FD9095820F931FFC01608197
:105380008D819E81FC01258136818F81882F90E05F
:10539000880F991FAC01440F551F440F551F440F30
:1053A000551FFA01E81BF90BCF01280F391F8B811C
:1053B000992787FD9095820F931FFC0180816817C4
:1053C00049F48B818F5F8B839B818C8189170CF0D3
:1053D000B6CF01C0000029818D819E816F81422F4F
:1053E0000E946627282F8D819E81FC0124832896A8
:1053F0000FB6F894DEBF0FBECDBFCF91DF910895F9
:10540000DF93CF9300D00F92CDB7DEB79A83898315
:105410006B8300008FE390E0FC018081882F90E097
:10542000827090700097B1F781E490E029813A8111
:10543000FC013183208380E490E02B81FC012083F8
:10544000F894FA9AF99A78940F900F900F90CF9160
:10545000DF910895DF93CF9300D0CDB7DEB79A8365
:10546000898300008FE390E0FC018081882F90E029
:10547000827090700097B1F781E490E029813A81C1
:10548000FC01318320838FE390E02FE330E0F901CA
:1054900020812160FC01208380E490E0FC01808178
:1054A0000F900F90CF91DF910895DF93CF9300D0AD
:1054B00000D000D0CDB7DEB79D838C836E83198278
:1054C0008C819D819B838A832E818A819B81622F1F
:1054D0000E94002A8A819B810E942A2A89839E81B8
:1054E0008981981711F18E81482F50E08981282FEA
:1054F00030E000D000D000D08DB79EB701966AECA6
:1055000075E0FC0171836083FC0153834283FC01DD
:10551000358324830E949B398DB79EB706960FB6BC
:10552000F8949EBF0FBE8DBF16C08981282F30E032
:1055300000D000D08DB79EB7019643EF55E0FC0137
:1055400051834083FC01338322830E949B390F9057
:105550000F900F900F9026960FB6F894DEBF0FBEF7
:10556000CDBFCF91DF910895DF93CF9300D000D0CE
:105570000F92CDB7DEB79D838C838C819D819A83FA
:10558000898389819A810E942A2A8B838B810F903B
:105590000F900F900F900F90CF91DF910895DF93B0
:1055A000CF93CDB7DEB727970FB6F894DEBF0FBE07
:1055B000CDBF9F838E838E819F819A8389831D8235
:1055C0001C8289819A810E942A2A8B838B81882F51
:1055D00090E09D838C8389819A8101960E942A2A7A
:1055E0008B83CE01049601962B81FC0120838C8154
:1055F0009D8127960FB6F894DEBF0FBECDBFCF9129
:10560000DF910895DF93CF9300D000D000D0CDB7C5
:10561000DEB79C838B837E836D838B819C819A8391
:1056200089838D819E81282F89819A81622F0E9492
:10563000002A89819A8101969E012B5F3F4F2F5F3F
:105640003F4FF9012081622F0E94002A26960FB653
:10565000F894DEBF0FBECDBFCF91DF910895DF93E9
:10566000CF93CDB7DEB7CF91DF910895DF93CF937E
:1056700000D00F92CDB7DEB79B838A8319820000DA
:1056800021E08A819B81009709F420E08A819B8137
:1056900001979B838A83222399F70F900F900F9095
:1056A000CF91DF910895DF93CF93CDB7DEB780918F
:1056B0001507482F552747FD509524E630E0429FB7
:1056C000C001439F900D529F900D11249C01205CBE
:1056D000324180916907992787FD9095880F991F1E
:1056E000AC01440F551F440F551F840F951F805E5A
:1056F0009140280F391F80916A07992787FD90955F
:10570000C097820F931FAA2797FDA095BA2FBC01BF
:10571000CD010E944332DC01CB0180931E079093A0
:105720001F07A0932007B0932107CF91DF91089521
:10573000DF93CF930F92CDB7DEB789838981282F6E
:10574000332727FD309500D000D08DB79EB7019646
:105750004AE056E0FC0151834083FC0133832283FD
:105760000E949B390F900F900F900F90298184E039
:1057700090E0622F0E94552A8981809315070E942C
:10578000532B0F90CF91DF910895DF93CF930F921A
:10579000CDB7DEB789838981282F332727FD309540
:1057A00000D000D08DB79EB701964BE156E0FC01CA
:1057B00051834083FC01338322830E949B390F90E5
:1057C0000F900F900F90298185E090E0622F0E944A
:1057D000552A8981809369070E94532B0F90CF919E
:1057E000DF910895DF93CF930F92CDB7DEB7898312
:1057F0008981282F332727FD309500D000D08DB721
:105800009EB701964BE256E0FC0151834083FC01B8
:10581000338322830E949B390F900F900F900F903B
:10582000298186E090E0622F0E94552A8981809329
:105830006A070E94532B0F90CF91DF910895DF9359
:10584000CF93CDB7DEB780914007482F552747FD4E
:10585000509528E532E0429FC001439F900D529F32
:10586000900D11249C012058304780914507682FE6
:10587000772767FD70954CE350E0649FC001659FFA
:10588000900D749F900D112480549B40280F391F58
:1058900080912307992787FD9095880F991FAC0168
:1058A000440F551F440F551F840F951F805E914074
:1058B000280F391F80914707992787FD9095C0973A
:1058C000820F931F90931B0780931A07CF91DF914C
:1058D0000895DF93CF930F92CDB7DEB789832981E7
:1058E00087E090E0622F0E94552A898180934007CB
:1058F0000E941F2C0F90CF91DF910895DF93CF93DB
:105900000F92CDB7DEB78983298188E090E0622FBE
:105910000E94552A8981809345070E941F2C0F9071
:10592000CF91DF910895DF93CF930F92CDB7DEB77C
:105930008983298189E090E0622F0E94552A89811C
:10594000809323070E941F2C0F90CF91DF91089521
:10595000DF93CF930F92CDB7DEB7898329818AE099
:1059600090E0622F0E94552A8981809347070E9408
:105970001F2C0F90CF91DF910895DF93CF93CDB778
:10598000DEB70E94521290935E0780935D0780916C
:105990005D0790915E079C018BE090E0B9010E9449
:1059A000022BCF91DF910895DF93CF93CDB7DEB770
:1059B0000E9452129093640780936307809163075B
:1059C000909164079C018DE090E0B9010E94022B48
:1059D000CF91DF910895DF93CF93CDB7DEB780915C
:1059E0005D0790915E079C018BE090E0B9010E94F9
:1059F000022BCF91DF910895DF93CF93CDB7DEB720
:105A000080916307909164079C018DE090E0B9015B
:105A10000E94022BCF91DF910895DF93CF93CDB7F2
:105A2000DEB7809141079091420790936D07809374
:105A30006C0720916C0730916D078FE090E0B90101
:105A40000E94022BCF91DF910895DF93CF93CDB7C2
:105A5000DEB780914107909142079093660780934B
:105A60006507209165073091660781E190E0B901F3
:105A70000E94022BCF91DF910895DF93CF930F9275
:105A8000CDB7DEB789838981809368072091680745
:105A900084E190E0622F0E94552A0F90CF91DF9110
:105AA0000895DF93CF93CDB7DEB780912407880F99
:105AB000982F990F990F980F80916B07890F80513C
:105AC00080932207CF91DF910895DF93CF930F92B8
:105AD000CDB7DEB78983898180932507298185E148
