:100000000C94BF000C94B30C0C94DC000C94DC003A
:100010000C94DC000C94DC000C944C100C94DC0070
:100020000C94DC000C94110C0C94DC000C94DC009F
:100030000C94DC000C94FC0C0C94DC000C94DC00A4
:100040000C94EC0C0C94DC000C94DC000C94DC00A4
:100050000C94DC000C94DC000C94DC000C94DC00B0
:100060000C94840C0C94DC000C9419280C94DC0087
:100070000C94DC000C94DC000C94DC006E616E00CF
:10008000696E660000407A10F35A00A0724E18099B
:100090000010A5D4E80000E87648170000E40B54EF
:1000A000020000CA9A3B000000E1F50500008096BE
:1000B0009800000040420F000000A08601000000F0
:1000C000102700000000E8030000000064000000AA
:1000D00000000A00000000000100000000002C7673
:1000E000D888DC674F0823DFC1DFAE59E1B1B7968E
:1000F000E5E3E453C63AE651997696E8E6C28426EB
:10010000EB898C9B62ED407C6FFCEFBC9C9F40F2C6
:10011000BAA56FA5F490055A2AF75C936B6CF96742
:100120006DC11BFCE0E40D47FEF520E6B500D0ED07
:10013000902E0300943577050080841E080000206F
:100140004E0A000000C80C333333330F986E12830D
:100150001141EF8D2114893BE65516CFFEE6DB18E1
:10016000D1844B381BF77C1D901DA4BBE4242032A6
:1001700084725E228100C9F124ECA1E53D2711249F
:100180001FBECFEFD8E0DEBFCDBF14E0A0E0B1E0EE
:10019000E2E6F6E602C005900D92A63FB107D9F758
:1001A00015E0A6EFB4E001C01D92A33AB107E1F754
:1001B0000E9434010C942F330C940000DF93CF93F2
:1001C00000D0CDB7DEB79A83898385EC90E0298192
:1001D0003A81232F3327FC01208384EC90E029818E
:1001E000FC01208380EC90E020EC30E0F9012081DC
:1001F0002C7FFC01208381EC90E028E1FC0120832E
:1002000082EC90E026E0FC0120830F900F90CF91CC
:10021000DF910895DF93CF9300D00F92CDB7DEB773
:1002200089837B836A83000080EC90E0FC018081FD
:10023000882F90E0807290700097B1F389818A30A6
:1002400031F420E031E08DE0B9010E940A0186EC32
:1002500090E02981FC01208380E090E00F900F90D6
:100260000F90CF91DF910895DF93CF93CDB7DEB795
:1002700029970FB6F894DEBF0FBECDBF8BE090E09C
:100280000E94DE0080E091E09093A00580939F059E
:100290008EE091E00E9479320E9436270E94B902D6
:1002A0000E94FB0F0E943D0D0E94EE280E94331613
:1002B0000E94891B0E94400B01C000008091240510
:1002C000882361F08CE090E09B838A838AE295E04A
:1002D0009E012E5F3F4FB9010E94610B8091250561
:1002E000813071F4109225058BE090E09B838A8326
:1002F0008AE295E09E012E5F3F4FB9010E94610B9B
:1003000080912905813011F41092290580914805CA
:10031000882371F0109248058AE090E09B838A83DD
:100320008AE295E09E012E5F3F4FB9010E94610B6A
:100330008091FD04882371F01092FD0486E090E026
:100340009B838A838AE295E09E012E5F3F4FB9012D
:100350000E94610B80912005882371F01092200586
:1003600085E090E09B838A838AE295E09E012E5F80
:100370003F4FB9010E94610B0E94BA1089838981A5
:10038000882309F457C08981482F552747FD509588
:100390008981282F332727FD309500D000D000D049
:1003A0008DB79EB7019667E171E0FC0171836083B0
:1003B000FC0153834283FC01358324830E94643211
:1003C0008DB79EB706960FB6F8949EBF0FBE8DBF31
:1003D0008981833021F481E090E09B838A83898145
:1003E000813021F487E090E09B838A838981823089
:1003F00021F488E090E09B838A838981853021F411
:1004000083E090E09B838A838981863021F484E0B5
:1004100090E09B838A838981803324F01B821A8237
:1004200089818C838AE295E09E012E5F3F4FB9015E
:100430000E94610B80912705882309F43ECF10921A
:10044000270589E090E09B838A838AE295E09E01FC
:100450002E5F3F4FB9010E94610B30CFDF93CF93E6
:1004600000D000D0CDB7DEB78A836B834C8384E2A3
:1004700090E0FC01108285E290E0FC0110828BE2AA
:1004800090E02BE230E0F90120812F71FC01208304
:100490008BE290E02BE230E0F90120812F77FC0124
:1004A00020838BE290E02BE230E0F9012081206490
:1004B000FC01208381E089831AC08BE290E02BE26B
:1004C00030E0F90120812062FC0120830E947E251A
:1004D00083E290E0FC018081807889838BE290E068
:1004E0002BE230E0F90120812F7DFC0120838981FE
:1004F000882319F784E290E02FEFFC01208385E246
:1005000090E02A81FC0120838B81882349F08BE2D3
:1005100090E02BE230E0F90120812068FC0120838B
:100520008BE290E02BE230E0F90120812F7BFC018F
:1005300020830E947E258BE290E02BE230E0F901DF
:1005400020812062FC0120830E947E258BE290E0C6
:100550002BE230E0F90120812F7DFC01208389818D
:100560008F5F89830F900F900F900F90CF91DF9145
:100570000895DF93CF93CDB7DEB78AE290E02AE209
:1005800030E0F9012081206EFC0120838BE290E0B5
:100590002BE230E0F90120812F71FC01208384E2FD
:1005A00090E0FC01108285E290E0FC01108281E085
:1005B00060E040E20E942E0288E360E040E20E9498
:1005C0002E028CE060E040E20E942E0286E060E0B5
:1005D00040E20E942E02CF91DF910895DF93CF93E6
:1005E0000F92CDB7DEB78983998181E060E0492F12
:1005F0000E942E020F90CF91DF910895DF93CF9349
:100600000F92CDB7DEB78983998180EC60E0492FE6
:100610000E942E020F90CF91DF910895DF93CF9328
:1006200000D000D0CDB7DEB79B838A836C830BC02C
:1006300089819C8161E0492F0E942E028A819B81E1
:1006400001969B838A838A819B81FC0180818983B7
:100650008981882369F70F900F900F900F90CF91A9
:10066000DF910895DF93CF9300D000D0CDB7DEB7F0
:100670008A836B834C8380E889838A81813011F47B
:1006800080EC89838A81823011F484E989838A81AC
:10069000833011F484ED898399818B81890F89835B
:1006A00089819C8160E0492F0E942E020F900F905B
:1006B0000F900F90CF91DF910895DF93CF9300D0EB
:1006C0000F92CDB7DEB789836A834B8389816A81B4
:1006D0004B810E9432038FE060E040E20E942E02D4
:1006E0000F900F900F90CF91DF910895DF93CF93EC
:1006F000CDB7DEB78CE060E040E20E942E02CF91E1
:10070000DF910895DF93CF9300D0CDB7DEB7898313
:100710006A8389819A8161E0492F0E942E020F909D
:100720000F90CF91DF910895DF93CF93CDB7DEB7D0
:100730008091B904CF91DF910895DF93CF9300D0DA
:100740000F92CDB7DEB78091B904898380914F05B0
:1007500090915005FC01808191818C309105C9F404
:100760008FE08A8380910005909101059E012D5FA5
:100770003F4F6FE0A9010E94CC1F8091000590912E
:1007800001052B816A81422F0E9457238091BA0470
:10079000898389810F900F900F90CF91DF910895F9
:1007A000DF93CF93CDB7DEB781E291E00E9479323B
:1007B0000E94831986E090E00E94A90ECF91DF91FC
:1007C0000895DF93CF93CDB7DEB789E391E00E9420
:1007D00079320E94C70E0E947919CF91DF91089556
:1007E000DF93CF9300D000D00F92CDB7DEB78091CA
:1007F000B904898380914F0590915005FC01808157
:10080000918185309105C9F489E08A838091000542
:10081000909101059E012C5F3F4F69E0A9010E9464
:10082000CC1F80910005909101052C816A81422F97
:100830000E9457238091BA04898380914F0590913B
:100840005005FC01808191818330910551F08091A8
:100850004F0590915005FC01808191818730910571
:10086000C9F483E08B8380910005909101059E017E
:100870002B5F3F4F63E0A9010E94CC1F80910005D0
:10088000909101052D816B81422F0E945723809109
:10089000BA04898380914F0590915005FC018081B5
:1008A00091818630910541F40E94471A8091BA04E3
:1008B000898381E08093FC0489810F900F900F90D1
:1008C0000F900F90CF91DF910895DF93CF93CDB725
:1008D000DEB78FEF9FE70E94A90ECF91DF910895B9
:1008E000DF93CF93CDB7DEB70E94C70ECF91DF91D4
:1008F0000895DF93CF9300D00F92CDB7DEB78091EC
:10090000B904898380914F0590915005FC01808145
:10091000918188309105C9F489E08A83809100052E
:10092000909101059E012D5F3F4F69E0A9010E9452
:10093000CC1F80910005909101052B816A81422F87
:100940000E9457238091BA04898389810F900F9068
:100950000F90CF91DF910895DF93CF93CDB7DEB79E
:100960000E94EA18CF91DF910895DF93CF93CDB71E
:10097000DEB7CF91DF910895DF93CF9300D000D001
:100980000F92CDB7DEB78091B904898380914F056E
:1009900090915005FC018081918184309105E1F4B2
:1009A00085E08A8380910005909101059E012C5F6E
:1009B0003F4F65E0A9010E94CC1F81E00E942227E1
:1009C00080910005909101052C816A81422F0E943F
:1009D00057238091BA04898380914F0590915005E7
:1009E000FC018081918183309105E1F485E08B8366
:1009F00080910005909101059E012B5F3F4F65E0BE
:100A0000A9010E94CC1F80E00E942227809100054E
:100A1000909101052D816B81422F0E945723809177
:100A2000BA04898380914F0590915005FC01808123
:100A300091818630910531F481E08093FC048091AE
:100A4000BA04898389810F900F900F900F900F90B7
:100A5000CF91DF910895DF93CF93CDB7DEB70E949A
:100A6000D1181092270582E00E94BC11882361F4FE
:100A70008CE095E028E431E0B9014EE050E00E94BE
:100A80001D3281E080932405CF91DF910895DF939B
:100A9000CF93CDB7DEB7CF91DF910895DF93CF939A
:100AA00000D00F92CDB7DEB78B8380914F05909128
:100AB0005005FC018081918184309105C9F486E064
:100AC000898380910005909101059E012E5F3F4F23
:100AD00066E0A9010E94CC1F80910005909101055C
:100AE0002A816981422F0E9457238091BA048B8307
:100AF0008B810F900F900F90CF91DF910895DF932E
:100B0000CF9300D00F92CDB7DEB78091B90489831F
:100B100080914F0590915005FC0180819181893031
:100B20009105C9F486E08A838091000590910105C2
:100B30009E012D5F3F4F66E0A9010E94CC1F80916E
:100B40000005909101052B816A81422F0E94572355
:100B50008091BA04898380914F0590915005FC01E2
:100B6000808191818630910539F40E94DD110E94C7
:100B700038188091BA04898389810E944E0589833F
:100B800089810F900F900F90CF91DF910895DF939F
:100B9000CF93CDB7DEB70E94E80D0E942F0ECF9104
:100BA000DF910895DF93CF93CDB7DEB70E94410E5A
:100BB0000E941B0ECF91DF910895DF93CF9300D059
:100BC0000F92CDB7DEB78091B9048B8380914F052A
:100BD00090915005FC0180819181009709F065C0DA
:100BE00080912205909123059A83898380914F05F6
:100BF00090915005FC018281992787FD9095833360
:100C0000910501F1843391053CF48133910571F034
:100C10008233910589F030C08833910501F1893321
:100C2000910519F187339105A1F026C089819A8138
:100C300001969A83898320C089819A810A969A8332
:100C400089831AC089819A818C599F4F9A8389839D
:100C500013C089819A8101979A8389830DC0898104
:100C60009A810A979A83898307C089819A818456D9
:100C700090409A838983000089819A81992314F492
:100C80001A82198289819A81F3E08B329F0724F0BE
:100C90008AE293E09A83898389819A810E94FD0B7D
:100CA0000E94DC178091BA048B8380914F0590914C
:100CB0005005FC01808191818630910529F40E94C4
:100CC000DC178091BA048B838B810F900F900F906B
:100CD000CF91DF910895DF93CF93CDB7DEB70E9418
:100CE000631980E090E00E94FD0BCF91DF910895A1
:100CF000DF93CF93CDB7DEB70E947919CF91DF9103
:100D00000895DF93CF9300D000D00F92CDB7DEB718
:100D10008091B904898380914F0590915005FC0121
:100D20008081918183309105C9F488E08A83809124
:100D30000005909101059E012C5F3F4F68E0A901DD
:100D40000E94CC1F80910005909101052C816A8141
:100D5000422F0E9457238091BA04898380914F05C6
:100D600090915005FC018081918184309105E9F4D6
:100D700088E08B8380910005909101059E012B5F97
:100D80003F4F68E0A9010E94CC1F0E94F2260E94FA
:100D9000C42680910005909101052D816B81422F21
:100DA0000E9457238091BA04898389810F900F9004
:100DB0000F900F900F90CF91DF910895DF93CF9315
:100DC000CDB7DEB70E946E19CF91DF910895DF9302
:100DD000CF93CDB7DEB70E947919CF91DF910895F7
:100DE000DF93CF9300D000D00F92CDB7DEB78091C4
:100DF000B904898380914F0590915005FC01808151
:100E0000918183309105C9F489E08A83809100053E
:100E1000909101059E012C5F3F4F69E0A9010E945E
:100E2000CC1F80910005909101052C816A81422F91
:100E30000E9457238091BA04898380914F05909135
:100E40005005FC018081918184309105E9F489E0AD
:100E50008B8380910005909101059E012B5F3F4F90
:100E600069E0A9010E94CC1F0E940A270E94DB268C
:100E700080910005909101052D816B81422F0E9488
:100E800057238091BA04898389810F900F900F9026
:100E90000F900F90CF91DF910895DF93CF93CDB74F
:100EA000DEB70E94DA128FEF9FE70E94A90E83E05F
:100EB0000E94BC11882361F48CE095E028E431E0C5
:100EC000B9014EE050E00E941D3281E0809324057C
:100ED000CF91DF910895DF93CF93CDB7DEB70E9416
:100EE000C70E80912405882389F481E00E94BC11FB
:100EF000882361F48CE095E028E431E0B9014EE00C
:100F000050E00E941D3281E0809324050E947919EF
:100F1000CF91DF910895DF93CF9300D00F92CDB79B
:100F2000DEB78091B904898380914F059091500577
:100F3000FC018081918187309105C9F48DE08A831D
:100F400080910005909101059E012D5F3F4F6DE05E
:100F5000A9010E94CC1F80910005909101052B8171
:100F60006A81422F0E9457238091BA04898380911D
:100F70004F0590915005FC0180819181853091054C
:100F800039F48FEF9FE70E94A90E8091BA048983FC
:100F900080914F0590915005FC01808191818630B0
:100FA000910529F40E94E4128091BA048983898111
:100FB0000F900F900F90CF91DF910895DF93CF9313
:100FC000CDB7DEB70E94D51A8FEF0E94221B8FEF9C
:100FD0000E94511BCF91DF910895DF93CF93CDB73E
:100FE000DEB7CF91DF910895DF93CF9300D000D08B
:100FF0000F92CDB7DEB78091B904898380914F05F8
:1010000090915005FC018081918183309105C9F454
:101010008BE08A8380910005909101059E012C5FF1
:101020003F4F6BE0A9010E94CC1F80910005909179
:1010300001052C816A81422F0E9457238091BA04B6
:10104000898380914F0590915005FC0180819181A9
:1010500084309105C9F48CE08B83809100059091D8
:1010600001059E012B5F3F4F6CE0A9010E94CC1F40
:1010700080910005909101052D816B81422F0E9486
:1010800057238091BA04898380914F059091500530
:10109000FC01808191818B30910521F40E949C128A
:1010A0000E94921889810F900F900F900F900F90CF
:1010B000CF91DF910895DF93CF93CDB7DEB70E9434
:1010C000001B10924E0580914E050E94221BCF916D
:1010D000DF910895DF93CF93CDB7DEB78FEF0E94F6
:1010E000221BCF91DF910895DF93CF93CDB7DEB769
:1010F00027970FB6F894DEBF0FBECDBF8091B9041D
:10110000898380914F0590915005FC0180819181E8
:1011100084309105C9F48CE08A8380910005909118
:1011200001059E012B5F3F4F6CE0A9010E94CC1F7F
:1011300080910005909101052D816A81422F0E94C6
:1011400057238091BA04898380914F05909150056F
:10115000FC018081918183309105C9F48AE08B8301
:1011600080910005909101059E012A5F3F4F6AE042
:10117000A9010E94CC1F80910005909101052E814C
:101180006B81422F0E9457238091BA0489838091FA
:101190004F0590915005FC0180819181009709F0E5
:1011A0005BC080914F0590915005FC0182818A338C
:1011B0000CF052C080914F0590915005FC01828146
:1011C00080330CF449C080914E05992787FD909596
:1011D0008130910571F082309105A1F0009781F581
:1011E00080914F0590915005FC0182810E949A19CF
:1011F00027C080914F0590915005FC0182810E948B
:10120000A7191EC080914F0590915005FC01828165
:101210000E94B4198AE08C838091000590910105A9
:101220009E01295F3F4F6AE0A9010E94CC1F809177
:101230000005909101052F816C81422F0E94572358
:1012400080914E058F5F80934E0580914E050E94E0
:10125000221B8091BA048983898127960FB6F8945E
:10126000DEBF0FBECDBFCF91DF910895DF93CF9347
:10127000CDB7DEB70E94111B10924E0580914E052E
:101280000E94511BCF91DF910895DF93CF93CDB78B
:10129000DEB78FEF0E94511BCF91DF910895DF934E
:1012A000CF93CDB7DEB727970FB6F894DEBF0FBE4A
:1012B000CDBF8091B904898380914F0590915005ED
:1012C000FC018081918183309105C9F48BE08A8390
:1012D00080910005909101059E012B5F3F4F6BE0CF
:1012E000A9010E94CC1F80910005909101052D81DC
:1012F0006A81422F0E9457238091BA04898380918A
:101300004F0590915005FC018081918184309105B9
:10131000C9F48AE08B8380910005909101059E01BC
:101320002A5F3F4F6AE0A9010E94CC1F809100050F
:10133000909101052E816B81422F0E94572380914D
:10134000BA04898380914F0590915005FC018081FA
:101350009181009709F07FC080914F0590915005D1
:10136000FC0182818A330CF076C080914F05909108
:101370005005FC01828180330CF46DC080914E05D4
:10138000992787FD909581309105B1F082309105C4
:101390001CF4009741F053C083309105D9F084309C
:1013A000910579F14CC080914F0590915005FC0159
:1013B00082810E94C11943C080914F0590915005D0
:1013C000FC0182810E94CE1980914E058F5F80932F
:1013D0004E0535C080914F0590915005FC018281EA
:1013E00086334CF480914F0590915005FC01828129
:1013F0000E94DB1924C080914E05815080934E05D8
:101400001EC080914F0590915005FC0182810E9481
:10141000E8198AE08C8380910005909101059E0176
:10142000295F3F4F6AE0A9010E94CC1F809100050F
:10143000909101052F816C81422F0E94572380914A
:101440004E058F5F80934E0580914E050E94511B83
:101450008091BA048983898127960FB6F894DEBFFC
:101460000FBECDBFCF91DF910895DF93CF93CDB75E
:10147000DEB786E591E00E9479320E94B21A80912F
:10148000FE049091FF040E94A90E80914C0590915A
:101490004D050E94FD0B0E94E80D0E942F0ECF917A
:1014A000DF910895DF93CF93CDB7DEB784E691E067
:1014B0000E9479320E94C70E0E94410E0E941B0EAC
:1014C0000E947919CF91DF910895DF93CF9300D0D7
:1014D00000D00F92CDB7DEB78091B9048983809197
:1014E0004F0590915005FC018081918188309105D4
:1014F000C9F489E08A8380910005909101059E01DD
:101500002C5F3F4F69E0A9010E94CC1F809100052C
:10151000909101052C816A81422F0E94572380916E
:10152000BA04898380914F0590915005FC01808118
:10153000918185309105C9F48EE08B8380910005FF
:10154000909101059E012B5F3F4F6EE0A9010E9423
:10155000CC1F80910005909101052D816B81422F58
:101560000E9457238091BA04898380914F059091FE
:101570005005FC01808191818630910549F40E94DB
:10158000F5190E94471A0E9487178091BA0489832F
:1015900080914F0590915005FC01808191818A30A6
:1015A000910529F40E94BA158091BA048983898132
:1015B0000F900F900F900F900F90CF91DF910895A3
:1015C000DF93CF93CDB7DEB70E94A71BCF91DF91FA
:1015D0000895DF93CF93CDB7DEB7CF91DF91089514
:1015E000DF93CF9300D00F92CDB7DEB78091B904CF
:1015F000898380914F0590915005FC0180819181F4
:1016000083309105C9F489E08A8380910005909127
:1016100001059E012D5F3F4F69E0A9010E94CC1F8B
:1016200080910005909101052B816A81422F0E94D3
:1016300057238091BA04898389810F900F900F906E
:10164000CF91DF910895DF93CF93CDB7DEB70E949E
:101650000119CF91DF910895DF93CF93CDB7DEB716
:10166000CF91DF910895DF93CF930F92CDB7DEB77F
:101670008091B904898389810F90CF91DF9108957A
:10168000DF93CF93CDB7DEB78AE295E09093010563
:10169000809300058AE295E021E731E0B90140E15D
:1016A00020E00E94891ECF91DF910895DF93CF93B0
:1016B000CDB7DEB78AE295E00E94D81ECF91DF91C8
:1016C0000895DF93CF9300D000D0CDB7DEB79A83D3
:1016D00089837C836B838B819C819093500580935D
:1016E0004F0589819A810E94481F0F900F900F909B
:1016F0000F90CF91DF910895DF93CF9300D0CDB7B6
:10170000DEB7F89480915305909154059A838983AC
:10171000789489819A810F900F90CF91DF910895ED
:10172000DF93CF93CDB7DEB780915205882309F0C0
:101730005AC087E390E0FC011082809122059091CD
:101740002305181619060CF04EC0809122059091C1
:1017500023052AE233E0A901481B590BCA019093E3
:1017600056058093550580915505909156058F300B
:10177000910534F48FE090E09093560580935505E1
:1017800080915505909156058C3F91058CF482EB24
:1017900090E020915505309156053CEF532F521B98
:1017A000252FFC01208310925605109255050EC07E
:1017B00080915505909156058C5F90409093560509
:1017C0008093550582EB90E0FC01108280E790E069
:1017D00022E0FC01208381EB90E025E0FC012083E6
:1017E00081E080935205CF91DF910895DF93CF93ED
:1017F000CDB7DEB7CF91DF910895DF93CF9300D0BF
:10180000CDB7DEB79A838983F89489819A819093C2
:1018100023058093220578940F900F90CF91DF914C
:1018200008951F920F920FB60F9211242F933F939A
:101830004F935F936F937F938F939F93AF93BF93D8
:10184000EF93FF93DF93CF93CDB7DEB7F8948091FA
:10185000550590915605009709F581EB90E0FC0144
:10186000108280E790E0FC0110828BE290E02BE296
:1018700030E0F90120812061FC0120838AE090E0C2
:101880000E9485258BE290E02BE230E0F901208177
:101890002F7EFC0120831092520522C080915505B5
:1018A000909156058C3F91058CF482EB90E020914D
:1018B0005505309156053CEFF32FF21B2F2FFC01FD
:1018C000208310925605109255050AC08091550547
:1018D000909156058C5F90409093560580935505E6
:1018E0007894CF91DF91FF91EF91BF91AF919F914C
:1018F0008F917F916F915F914F913F912F910F90B9
:101900000FBE0F901F9018951F920F920FB60F9257
:1019100011248F939F93EF93FF93DF93CF93CDB7D2
:10192000DEB788E790E0FC018081918190935805B3
:1019300080935705809151058F5F80935105809169
:1019400051058E3129F41092510581E080934805AC
:10195000CF91DF91FF91EF919F918F910F900FBEEB
:101960000F901F9018951F920F920FB60F9211248F
:101970002F933F934F935F936F937F938F939F9397
:10198000AF93BF93EF93FF93DF93CF93CDB7DEB7C2
:10199000F89489E290E0FC018081882F90E08470C7
:1019A0009070009719F00E94F60B02C00E94900BF5
:1019B0007894CF91DF91FF91EF91BF91AF919F917B
:1019C0008F917F916F915F914F913F912F910F90E8
:1019D0000FBE0F901F9018951F920F920FB60F9287
:1019E0001124DF93CF93CDB7DEB7CF91DF910F9066
:1019F0000FBE0F901F9018951F920F920FB60F9267
:101A000011242F933F934F935F936F937F938F9303
:101A10009F93AF93BF93EF93FF93DF93CF93CDB794
:101A2000DEB780915305909154050197909354052A
:101A3000809353058091530590915405181619060B
:101A400034F00E94C70E81E08093200503C081E03E
:101A50008093FD04CF91DF91FF91EF91BF91AF9102
:101A60009F918F917F916F915F914F913F912F91B6
:101A70000F900FBE0F901F901895DF93CF93CDB7A7
:101A8000DEB781E290E020EFFC01208382E290E06B
:101A900020EEFC0120838EE790E02FE0FC01208304
:101AA0008AE290E02AE230E0F90120812B7FFC01FC
:101AB00020838BE290E02BE230E0F90120812B7F44
:101AC000FC0120838BE290E02BE230E0F9012081E1
:101AD0002F7EFC0120838AE290E02AE230E0F901C7
:101AE00020812061FC0120838BE290E02BE230E03A
:101AF000F90120812F7EFC01208389E690E021E01E
:101B0000FC0120838DE390E0FC0110821092FD0423
:101B100080E890E0FC01108281E890E028E0FC0180
:101B2000208382E890E0FC01108288E890E020E3C6
:101B30003AE2FC013183208384E890E0FC011182C9
:101B400010828FE690E0FC01108284E490E022E0B5
:101B5000FC01208387E490E02FEFFC01208386E4E2
:101B600090E0FC01108285E490E0FC0110828EE69A
:101B700090E0FC0110821092520580EB90E022E090
:101B8000FC01208381EB90E0FC01108286EB90E069
:101B9000FC01108283EB90E02CEFFC01208382EBB0
:101BA00090E0FC01108280E790E0FC0110828AE75F
:101BB00090E027E0FC012083109248051092510527
:101BC00010925805109257057894CF91DF9108959F
:101BD000DF93CF93CDB7DEB78AE790E027E0FC0133
:101BE000208310924805109251058091490581305B
:101BF00031F48CE790E021E4FC01208305C08CE700
:101C000090E022E4FC0120838AE790E02FEAFC01C7
:101C100020838BE790E023E0FC01208385E490E0C3
:101C200025E0FC0120838EE690E022E0FC01208389
:101C3000CF91DF910895DF93CF93CDB7DEB78AE7D9
:101C400090E027E0FC01208385E490E0FC01108215
:101C50008EE690E0FC011082CF91DF910895DF9332
:101C6000CF93CDB7DEB70E9490168CE390E0FC01D5
:101C700010828DE390E021E0FC012083CF91DF9181
:101C80000895DF93CF93CDB7DEB78DE390E0FC01ED
:101C90001082F8940E94F60B7894CF91DF9108950A
:101CA000DF93CF9300D0CDB7DEB7F894809157057E
:101CB000909158059A838983789489819A810F90AD
:101CC0000F90CF91DF910895DF93CF9300D000D094
:101CD00000D0CDB7DEB780E090E0DC0189839A8345
:101CE000AB83BC830E94500E9E838D838D819E8129
:101CF000AA2797FDA095BA2FBC01CD010E940C2BFD
:101D0000DC01CB01BC01CD0120E030E040EA50E431
:101D10000E94C02BDC01CB01BC01CD0120E030ECE6
:101D20004FE754E40E94712ADC01CB0189839A8336
:101D3000AB83BC8389819A81AB81BC81BC01CD011D
:101D400026960FB6F894DEBF0FBECDBFCF91DF91C0
:101D50000895DF93CF9300D0CDB7DEB79A83898300
:101D60001092200589819A819093540580935305A0
:101D70008FE690E022E0FC01208381E890E02DE0F6
:101D8000FC0120830F900F90CF91DF910895DF9396
:101D9000CF93CDB7DEB781E890E028E0FC01208347
:101DA0008FE690E0FC011082CF91DF910895DF93E0
:101DB000CF9300D0CDB7DEB71A82198288E290E0C7
:101DC00028E230E0F9012081237FFC01208382E2B8
:101DD00090E022E230E0F90120812F73FC012083A2
:101DE00082E290E022E230E0F90120812068FC01EB
:101DF000208388E090E00E94852586E290E0FC0147
:101E00008081807F8A838A81882329F18A8188233F
:101E100014F482E389838A81992787FD90958074E1
:101E20009070009711F080E389838A81992787FD5C
:101E3000909580729070009711F088E389838A8171
:101E4000992787FD909580719070009709F4CDC017
:101E500085E38983CAC082E290E022E230E0F901A2
:101E600020812F77FC01208388E290E028E230E097
:101E7000F90120812460FC01208388E090E00E9429
:101E8000852586E290E0FC018081807F8A838A81BB
:101E9000882329F18A81882314F481E389838A8144
:101EA000992787FD909580749070009711F085E0D8
:101EB00089838A81992787FD909580729070009719
:101EC00011F087E389838A81992787FD9095807136
:101ED0009070009709F489C084E3898386C088E202
:101EE00090E028E230E0F90120812B7FFC01208383
:101EF00088E290E028E230E0F90120812860FC01CE
:101F0000208388E090E00E94852586E290E0FC0135
:101F10008081807F8A838A81882329F18A8188232E
:101F200014F483E389838A81992787FD90958074CF
:101F30009070009711F086E089838A81992787FD48
:101F4000909580729070009711F089E389838A815F
:101F5000992787FD909580719070009709F445C08E
:101F600086E3898342C088E290E028E230E0F9010C
:101F70002081277FFC01208382E290E022E230E092
:101F8000F90120812064FC01208388E090E00E9418
:101F9000852586E290E0FC018081807F8A838A81AA
:101FA000882319F18A81882314F481E089838A8146
:101FB000992787FD909580749070009711F082E0CA
:101FC00089838A81992787FD909580729070009708
:101FD00011F083E089838A81992787FD909580712C
:101FE0009070009711F084E0898389810F900F90A1
:101FF000CF91DF910895DF93CF93CDB7DEB71092E5
:10200000590581E080935A0587E290E027E230E0AD
:10201000F90120812C60FC01208387E290E027E217
:1020200030E0F90120812F70FC01208381E290E0F3
:1020300021E230E0F9012081206CFC01208388E25C
:1020400090E028E230E0F90120812C60FC0120833F
:1020500088E290E028E230E0F90120812F70FC0155
:10206000208382E290E022E230E0F9012081206CBE
:10207000FC0120838DE690E020EFFC01208388E6C0
:1020800090E028E630E0F90120812460FC01208303
:102090007894CF91DF9108951F920F920FB60F920F
:1020A00011242F933F934F935F936F937F938F935D
:1020B0009F93AF93BF93EF93FF93DF93CF93CDB7EE
:1020C000DEB788E690E0FC0110828DE690E0FC012E
:1020D000108286E290E0FC018081882F90E0807F72
:1020E0009070009759F080915A05882321F00E9442
:1020F000D70E8093590510925A0503C081E0809352
:102100005A0588E290E028E230E0F90120812C6055
:10211000FC01208382E290E022E230E0F90120819C
:10212000206CFC0120830E947E258BE390E0FC0163
:1021300010828DE690E020EFFC01208388E690E09D
:1021400028E630E0F90120812460FC012083CF9152
:10215000DF91FF91EF91BF91AF919F918F917F910F
:102160006F915F914F913F912F910F900FBE0F9004
:102170001F901895DF93CF930F92CDB7DEB7F894E9
:1021800080915905898310925905789489810F901F
:10219000CF91DF9108951F93DF93CF93CDB7DEB733
:1021A00028970FB6F894DEBF0FBECDBF80E090E059
:1021B000A8ECB1E489839A83AB83BC832091440566
:1021C0003091450580913E0590913F05A901481B3E
:1021D000590BCA01AA2797FDA095BA2FBC01CD01C2
:1021E0000E940C2BDC01CB018D839E83AF83B887CB
:1021F0008D819E81AF81B885BF7711E0BC01CD0193
:1022000020E030E040E85FE30E94BC2B18160CF0A1
:1022100010E01123A9F069817A818B819C812D8145
:102220003E814F8158850E94712ADC01CB01809349
:102230005B0590935C05A0935D05B0935E050BC0B4
:1022400080E090E0DC0180935B0590935C05A093B7
:102250005D05B0935E0528960FB6F894DEBF0FBEFD
:10226000CDBFCF91DF911F910895DF93CF9300D021
:102270000F92CDB7DEB78B838BE695E060E070E020
:1022800044E050E00E9426328B8180936B052BE660
:1022900035E080E1B90141E00E945C29992787FD82
:1022A00090959A83898389819A810F900F900F90DE
:1022B000CF91DF910895DF93CF9300D00F92CDB7E8
:1022C000DEB78B83198281E392E00E94793287E73F
:1022D00095E060E070E048E050E00E94263227E799
:1022E00035E080E1B90146E00E94AF298983809101
:1022F0007C058A8381E02B819A81291709F080E08F
:1023000089838B81682F772767FD70958A81482F95
:10231000552747FD50958981282F332727FD309574
:102320008DB79EB708970FB6F8949EBF0FBE8DBFAE
:102330008DB79EB70196E1E5F2E0DC01ED93FC93E9
:10234000FC0173836283DC0115965C934E931497B2
:10235000FC01378326830E9464328DB79EB70896AE
:102360000FB6F8949EBF0FBE8DBF89810F900F905E
:102370000F90CF91DF910895DF93CF9300D00F920C
:10238000CDB7DEB78B8319821A820AC08B810E9477
:1023900035118B810E945B1189838A818F5F8A83CB
:1023A0008981882319F48A81823084F389810F908E
:1023B0000F900F90CF91DF910895DF93CF93CDB71A
:1023C000DEB72B970FB6F894DEBF0FBECDBF87E701
:1023D00095E060E070E048E050E00E94263227E798
:1023E00035E080E1B90146E00E94AF298983898107
:1023F0008F3F09F08CC080917C058A83809177059E
:102400008093070587E795E001969C838B838B81FA
:102410009C81FC01808191819E838D8380917A05CE
:102420008F838F81882349F58D819E81AA2797FD0F
:10243000A095BA2FBC01CD010E940C2BDC01CB0171
:10244000BC01CD012DEC3CEC4CE85FE30E94C02BBD
:10245000DC01CB01BC01CD0120E030E040E256E4DC
:102460000E94712ADC01CB01809308059093090535
:10247000A0930A05B0930B0528C08D819E81AA27E1
:1024800097FDA095BA2FBC01CD010E940C2BDC0159
:10249000CB01BC01CD012DEC3CEC4CE85FE30E948C
:1024A000C02BDC01CB01BC01CD0120E030E040E0DD
:1024B00054E40E94712ADC01CB01809308059093BB
:1024C0000905A0930A05B0930B058091080590912A
:1024D0000905A0910A05B0910B0588879987AA87FD
:1024E000BB878A81813019F481E0809327058A8136
:1024F0008830C9F48CE095E02AE932E0B90144E182
:1025000050E00E941D3281E0809324050CC08CE0D5
:1025100095E02EEA32E0B9014CE050E00E941D3215
:1025200081E0809324052B960FB6F894DEBF0FBE92
:10253000CDBFCF91DF910895DF93CF930F92CDB7A9
:10254000DEB7809177058093070580917805882F05
:1025500090E0A0E0B0E0BC01CD010E940A2BDC01BC
:10256000CB018093080590930905A0930A05B093C9
:102570000B0580917C0589838981883089F48AEBF9
:1025800092E00E9479328CE095E02BED32E0B901C7
:1025900044E150E00E941D3281E08093240506C092
:1025A0008981833019F083E00E9435110F90CF911B
:1025B000DF910895DF93CF93CDB7DEB781E08093AD
:1025C0009005CF91DF910895DF93CF9300D0CDB7E1
:1025D000DEB780919005853030F4809190058F5F53
:1025E0008093900512C087E795E060E070E048E0D6
:1025F00050E00E94263227E735E080E1B90146E04D
:102600000E94852981E0809390050E947C0B9A832B
:10261000898389819A818F719070009711F40E944B
:10262000B8160F900F90CF91DF910895AF92BF929F
:10263000CF92DF92EF92FF920F931F93DF93CF938E
:10264000CDB7DEB760970FB6F894DEBF0FBECDBF33
:1026500069837A838B839C832D833E834F83588742
:10266000E986FA860B871C87AD86BE86CF86D88A18
:102670008D819E81AF81B885809383059093840579
:10268000A0938505B093860589819A81AB81BC8131
:102690008093630590936405A0936505B0936605E8
:1026A00089859A85AB85BC8580938805909389053B
:1026B000A0938A05B0938B058D859E85AF85B889DB
:1026C0008093730590937405A0937505B093760578
:1026D0008D8D9E8DAF8DB8A180935F059093600521
:1026E000A0936105B093620589A19AA1ABA1BCA199
:1026F00080937F0590938005A0938105B093820518
:1027000060E070E080E89FE329A13AA14BA15CA1C1
:102710000E94712ADC01CB0180936F0590937005B4
:10272000A0937105B093720580E090E0DC01809386
:10273000910590939205A0939305B0939405109200
:1027400087050E94CB1080E090E0DC0180938C052F
:1027500090938D05A0938E05B0938F0560960FB66C
:10276000F894DEBF0FBECDBFCF91DF911F910F91C7
:10277000FF90EF90DF90CF90BF90AF900895EF92D1
:10278000FF920F931F93DF93CF93CDB7DEB7609780
:102790000FB6F894DEBF0FBECDBF6D877E878F87E3
:1027A000988B8D859E85AF85B889BF7720915F0511
:1027B00030916005409161055091620511E0BC01C6
:1027C000CD010E946D2A88230CF010E0112349F0FE
:1027D00080E090E0A0E8BFE389839A83AB83BC8369
:1027E00012C080E090E0DC0189839A83AB83BC83D4
:1027F00080E090E0DC018093910590939205A09396
:102800009305B093940580917F0590918005A091E8
:102810008105B0918205BC01CD0129813A814B81AE
:102820005C810E94C02BDC01CB01BC01CD012D8558
:102830003E854F8558890E94C02BDC01CB01209139
:102840009105309192054091930550919405BC01FA
:10285000CD010E94092ADC01CB0180939105909360
:102860009205A0939305B0939405809187058823E2
:1028700059F481E08093870580E090E0DC018D834E
:102880009E83AF83B88722C0209167053091680589
:102890004091690550916A056D857E858F8598897F
:1028A0000E94082ADC01CB0120916F053091700550
:1028B0004091710550917205BC01CD010E94C02B61
:1028C000DC01CB018D839E83AF83B8878D859E8588
:1028D000AF85B8898093670590936805A0936905D3
:1028E000B0936A058091830590918405A091850538
:1028F000B0918605BC01CD012D853E854F85588957
:102900000E94C02BDC01CB017C018D0180918805E8
:1029100090918905A0918A05B0918B052091910530
:10292000309192054091930550919405BC01CD01E1
:102930000E94C02BDC01CB019C01AD01C801B70195
:102940000E94092ADC01CB017C018D018091730575
:1029500090917405A0917505B0917605BC01CD01EB
:102960002D813E814F8158850E94C02BDC01CB0117
:102970009C01AD01C801B7010E94092ADC01CB010D
:10298000209163053091640540916505509166057D
:10299000BC01CD010E94C02BDC01CB0189879A8745
:1029A000AB87BC8789859A85AB85BC85BC01CD0189
:1029B00060960FB6F894DEBF0FBECDBFCF91DF910A
:1029C0001F910F91FF90EF900895DF93CF93CDB7B4
:1029D000DEB72E970FB6F894DEBF0FBECDBF0E94B4
:1029E000500E9A83898380913E0590913F052981FD
:1029F0003A81A901481B590BCA01AA2797FDA09546
:102A0000BA2FBC01CD010E940C2BDC01CB0120911F
:102A10005B0530915C0540915D0550915E05BC0100
:102A2000CD010E94C02BDC01CB01BC01CD0120E017
:102A300030E040E751E40E94092ADC01CB018B839E
:102A40009C83AD83BE8380915B0590915C05A091D2
:102A50005D05B0915E058F839887A987BA878B81C2
:102A60009C81AD81BE818B879C87AD87BE87E091BD
:102A70003E05F0913F0560914405709145058DB785
:102A80009EB740970FB6F8949EBF0FBE8DBF8DB70F
:102A90009EB701962FEE32E0DC012D933C93298105
:102AA0003A81DC0113963C932E9312972F8138853F
:102AB00049855A85DC0114962D933D934D935C9383
:102AC0001797DC011996FC93EE931897FC01738716
:102AD00062872B853C854D855E85DC011C962D9398
:102AE0003D934D935C931F970E946432EDB7FEB700
:102AF00070960FB6F894FEBF0FBEEDBF00D000D0A9
:102B000000D08DB79EB701962FE133E0DC012D9305
:102B10003C932FE030E0FC013383228328E230E055
:102B2000DC0115963C932E9314970E946432EDB706
:102B3000FEB736960FB6F894FEBF0FBEEDBF8B8181
:102B40009C81AD81BE818093400590934105A09307
:102B50004205B09343058B819C81AD81BE81BC0150
:102B6000CD012E960FB6F894DEBF0FBECDBFCF912C
:102B7000DF910895DF93CF93CDB7DEB72C970FB6D3
:102B8000F894DEBF0FBECDBF0E94E514DC01CB017F
:102B900020910205309103054091040550910505EF
:102BA000BC01CD010E94082ADC01CB0189839A83F4
:102BB000AB83BC8389819A81AB81BC81BC01CD018F
:102BC0000E94BF13DC01CB0120918C0530918D0553
:102BD00040918E0550918F05BC01CD010E94092ABC
:102BE000DC01CB018D839E83AF83B8876D817E81AD
:102BF0008F8198850E94D92ADC01CB019A87898729
:102C000089859A85AA2797FDA095BA2FBC01CD0189
:102C10000E940C2B9B01AC016D817E818F81988578
:102C20000E94082ADC01CB0180938C0590938D05CE
:102C3000A0938E05B0938F05209122053091230536
:102C400089859A85820F931F9C878B878B859C85AE
:102C50000E94FD0B2C960FB6F894DEBF0FBECDBFC1
:102C6000CF91DF910895AF92BF92CF92DF92EF9212
:102C7000FF920F931F93DF93CF93CDB7DEB78DB73E
:102C80009EB708970FB6F8949EBF0FBE8DBF2DB7A5
:102C90003EB72F5F3F4F80E090E0A0EAB0E4F9013B
:102CA00080839183A283B3838AEA93E1A6E3BFE39F
:102CB000F90184839583A683B78360E070E080E0A8
:102CC0009FEB2DEC3CEC4CE85FE30F2EFDECEF2E80
:102CD000FCECFF2EFCE40F2FFEE31F2FF02D0F2E38
:102CE000F8EBAF2EFEE1BF2EF5E0CF2EFEE3DF2E98
:102CF000F02D0E9416138DB79EB708960FB6F89464
:102D00009EBF0FBE8DBF10922705CF91DF911F91FF
:102D10000F91FF90EF90DF90CF90BF90AF9008950C
:102D2000DF93CF93CDB7DEB780E090E0DC018093F6
:102D30008C0590938D05A0938E05B0938F0580E050
:102D400090E0DC018093910590939205A093930508
:102D5000B093940580E090E0DC0180936705909348
:102D60006805A0936905B0936A05CF91DF91089536
:102D7000DF93CF93CDB7DEB72E970FB6F894DEBFB3
:102D80000FBECDBF80915B0590915C05A0915D0564
:102D9000B0915E0589839A83AB83BC831E821D82BA
:102DA00080913E0590913F052D813E81A901481BF0
:102DB000590BCA01AA2797FDA095BA2FBC01CD01D6
:102DC0000E940C2BDC01CB0120915B0530915C054E
:102DD00040915D0550915E05BC01CD010E94C02B64
:102DE000DC01CB01BC01CD0120E030E040E751E443
:102DF0000E94092ADC01CB018F839887A987BA87B3
:102E00008F819885A985BA858B879C87AD87BE877A
:102E100087E393E00E94793200D000D000D08DB7D4
:102E20009EB701962FE133E0FC01318320832FE030
:102E300030E0FC013383228328E230E0FC0135835B
:102E400024830E9464324DB75EB74A5F5F4F0FB66E
:102E5000F8945EBF0FBE4DBF40913E0550913F05B7
:102E6000209144053091450500D000D000D08DB7A9
:102E70009EB7019662E473E0FC0171836083FC01FC
:102E800053834283FC01358324830E9464324DB70F
:102E90005EB74A5F5F4F0FB6F8945EBF0FBE4DBF7F
:102EA0008DB79EB70A970FB6F8949EBF0FBE8DBF21
:102EB0002DB73EB72F5F3F4F8BE593E0F90191832C
:102EC00080838B859C85AD85BE85F9018283938344
:102ED000A483B58389819A81AB81BC81F901868302
:102EE0009783A087B1870E9464324DB75EB7465F73
:102EF0005F4F0FB6F8945EBF0FBE4DBF2E960FB654
:102F0000F894DEBF0FBECDBFCF91DF910895DF9360
:102F1000CF93CDB7DEB761970FB6F894DEBF0FBE83
:102F2000CDBF0E94640EDC01CB0189839A83AB8301
:102F3000BC8340912205509123058DB79EB70A9717
:102F40000FB6F8949EBF0FBE8DBF2DB73EB72F5F53
:102F50003F4FCE010596F901918380838BE793E083
:102F6000F9019383828389819A81AB81BC81F901C4
:102F700084839583A683B783F901518740870E9494
:102F8000AE328DB79EB70A960FB6F8949EBF0FBEAD
:102F90008DBF83E066E040E20E943203CE010596D9
:102FA00060E20E940E0361960FB6F894DEBF0FBE7A
:102FB000CDBFCF91DF910895DF93CF93CDB7DEB72B
:102FC00066970FB6F894DEBF0FBECDBF0E94500EBD
:102FD0009A8389830E94640EDC01CB018B839C83DE
:102FE000AD83BE8360912205709123058DB79EB796
:102FF0000C970FB6F8949EBF0FBE8DBF8DB79EB7CE
:1030000001969E01295F3F4FFC013183208327E811
:1030100033E0FC01338322832B813C814D815E812F
:10302000FC01248335834683578329813A81FC013F
:1030300031872087FC01738762870E94AE328DB78B
:103040009EB70C960FB6F8949EBF0FBE8DBF80E260
:103050000E94FE02CE01079660E20E940E03669671
:103060000FB6F894DEBF0FBECDBFCF91DF910895AC
:10307000DF93CF93CDB7DEB764970FB6F894DEBF7A
:103080000FBECDBF8091080590910905A0910A055A
:10309000B0910B0589839A83AB83BC83809107052C
:1030A000882F90E02DB73EB72A5030400FB6F894E5
:1030B0003EBF0FBE2DBF2DB73EB72F5F3F4FAE01B6
:1030C0004B5F5F4FF9015183408348E953E0F901B9
:1030D00053834283F9019583848389819A81AB81EB
:1030E000BC81F90186839783A087B1870E94AE32A5
:1030F0002DB73EB7265F3F4F0FB6F8943EBF0FBEC9
:103100002DBF80E20E94FE02CE01059660E20E9481
:103110000E0364960FB6F894DEBF0FBECDBFCF91FD
:10312000DF910895DF93CF93CDB7DEB760970FB6E9
:10313000F894DEBF0FBECDBF80910705282F30E089
:1031400000D000D000D08DB79EB70196AE014F5F82
:103150005F4FFC015183408346EA53E0FC015383F7
:103160004283FC01358324830E94AE328DB79EB723
:1031700006960FB6F8949EBF0FBE8DBF83E068E041
:1031800040E20E943203CE01019660E20E940E03EB
:1031900060960FB6F894DEBF0FBECDBFCF91DF9122
:1031A0000895DF93CF93CDB7DEB780E20E94EE02A1
:1031B00083EB93E060E20E940E0383E060E040E274
:1031C0000E94320387EC93E060E20E940E03CF91ED
:1031D000DF910895DF93CF93CDB7DEB780E20E94F1
:1031E000EE028CED93E060E20E940E0380E20E940A
:1031F000FE0283EE93E060E20E940E03CF91DF9126
:103200000895DF93CF93CDB7DEB780E20E94EE0240
:1032100080EF93E060E20E940E0380E20E94FE02D3
:103220008CE095E060E20E940E03CF91DF9108955B
:10323000DF93CF9300D000D0CDB7DEB79C838B83D4
:1032400080E20E94EE028CEF93E060E20E940E03A7
:1032500000D000D000D08DB79EB701969E012F5FA1
:103260003F4FFC013183208321E034E0FC013383B4
:1032700022832B813C81FC01358324830E94AE3262
:103280008DB79EB706960FB6F8949EBF0FBE8DBF42
:10329000CE01019660E20E940E0385E094E060E2B8
:1032A0000E940E0383E060E040E20E94320380E16E
:1032B00094E060E20E940E030F900F900F900F9029
:1032C000CF91DF910895DF93CF93CDB7DEB78FE035
:1032D00090E00E941819CF91DF910895DF93CF936A
:1032E000CDB7DEB788E290E00E941819CF91DF9148
:1032F0000895DF93CF93CDB7DEB780E20E94EE0250
:10330000CF91DF910895DF93CF93CDB7DEB780E201
:103310000E94EE0284E294E060E20E940E0380E2EA
:103320000E94FE0285E394E060E20E940E03CF91CA
:10333000DF910895DF93CF930F92CDB7DEB78983E6
:1033400089810E94E7250F90CF91DF910895DF9347
:10335000CF930F92CDB7DEB7898389810E94FC2578
:103360000F90CF91DF910895DF93CF930F92CDB758
:10337000DEB7898389810E9411260F90CF91DF915A
:103380000895DF93CF930F92CDB7DEB789838981FC
:103390000E9470260F90CF91DF910895DF93CF9315
:1033A0000F92CDB7DEB7898389810E9485260F9061
:1033B000CF91DF910895DF93CF930F92CDB7DEB712
:1033C000898389810E949A260F90CF91DF91089579
:1033D000DF93CF930F92CDB7DEB7898389810E94A7
:1033E000AF260F90CF91DF910895DF93CF93CDB7A4
:1033F000DEB72C970FB6F894DEBF0FBECDBF80911D
:10340000400590914105A0914205B0914305898303
:103410009A83AB83BC838DB79EB708970FB6F89499
:103420009EBF0FBE8DBF2DB73EB72F5F3F4FCE0162
:103430000596F901918380838DE394E0F9019383EC
:10344000828389819A81AB81BC81F90184839583D0
:10345000A683B7830E94AE328DB79EB708960FB68B
:10346000F8949EBF0FBE8DBF81E060E040E20E94F5
:103470003203CE01059660E20E940E032C960FB631
:10348000F894DEBF0FBECDBFCF91DF910895DF93DB
:10349000CF93CDB7DEB761970FB6F894DEBF0FBEFE
:1034A000CDBF0E947C0B9A83898389819A812CE30A
:1034B00030E0B9010E94A92F9B01C901AA2797FDFD
:1034C000A095BA2F8B839C83AD83BE838B819C8117
:1034D00098878F8399812B8184EC289F802D1124DC
:1034E000890F89878985282F332727FD30958DB748
:1034F0009EB708970FB6F8949EBF0FBE8DBF8DB7CD
:103500009EB70196AE01465F5F4FFC015183408339
:1035100044E454E0FC01538342834F815885FC010D
:1035200055834483FC01378326830E94AE328DB7D6
:103530009EB708960FB6F8949EBF0FBE8DBF81E070
:1035400069E040E20E943203CE010A9660E20E94E6
:103550000E0361960FB6F894DEBF0FBECDBFCF91BC
:10356000DF910895DF93CF93CDB7DEB780E20E945D
:10357000EE028DE494E060E20E940E0380E061E1DF
:1035800040E20E94320385E995E060E20E940E036A
:1035900083E060E040E20E94320386E594E060E26E
:1035A0000E940E03CF91DF910895DF93CF93CDB7A3
:1035B000DEB780E20E94EE028DE594E060E20E94B8
:1035C0000E0380E20E94FE0289E694E060E20E941F
:1035D0000E0380E061E140E20E94320385E995E05C
:1035E00060E20E940E0383E060E040E20E9432034A
:1035F00088E794E060E20E940E03CF91DF91089586
:10360000DF93CF93CDB7DEB780E060E040E20E9469
:10361000320380E894E060E20E940E03CF91DF91D4
:103620000895DF93CF93CDB7DEB780E060E040E24E
:103630000E9432038BE894E060E20E940E03CF9177
:10364000DF910895DF93CF930F92CDB7DEB78983D3
:1036500081E062E040E20E9432038091FB0460E27C
:103660000E94820380914A0560E20E948203809159
:103670004B0560E20E9482038981882364F089817E
:1036800083304CF489818E5F982F81E0692F40E26E
:103690000E945D0302C00E9476030F90CF91DF91DC
:1036A0000895DF93CF930F92CDB7DEB7898381E082
:1036B00068E040E20E9432038091210560E20E94AE
:1036C00082038091260560E20E9482038DE660E21B
:1036D0000E9482038091060560E20E94820380912D
:1036E000280560E20E9482038981882364F0898131
:1036F00085304CF48981885F982F81E0692F40E202
:103700000E945D0302C00E9476030F90CF91DF916B
:103710000895DF93CF93CDB7DEB780914905882315
:1037200051F485E995E026E934E0B90144E050E040
:103730000E941D3209C085E995E02AE934E0B9010B
:1037400044E050E00E941D32CF91DF910895DF9355
:10375000CF93CDB7DEB780E20E94EE028EE994E00F
:1037600060E20E940E0383E060E040E20E943203C8
:1037700085EA94E060E20E940E03CF91DF91089504
:10378000DF93CF9300D000D000D0CDB7DEB79E83BB
:103790008D83198264C18D819E81FC0125813681D2
:1037A0008981882F90E0880F991FAC01440F551F25
:1037B000440F551F440F551FBA01681B790BCB01ED
:1037C000820F931FFC0114868BE090E09C838B8317
:1037D00040C08D819E81FC01258136818981882FA1
:1037E00090E0880F991FAC01440F551F440F551FDF
:1037F000440F551FBA01681B790BCB01280F391FE5
:103800008D819E81FC01458156818981882F90E0C0
:10381000880F991FBC01660F771F660F771F660F11
:10382000771FFB01E81BF90BCF01480F591F8B8154
:103830009C810197840F951FFC0140818B819C81A5
:10384000820F931FFC0140838B819C8101979C8395
:103850008B838B819C81181619060CF4BACF8D814D
:103860009E81FC01258136818981882F90E0880F17
:10387000991FAC01440F551F440F551F440F551F8E
:10388000BA01681B790BCB01820F931F2981FC01C0
:1038900020838D819E81FC01258136818981882F3D
:1038A00090E0880F991FAC01440F551F440F551F1E
:1038B000440F551FBA01681B790BCB01820F931F70
:1038C000FC0124852F5FFC01248789818A83ACC099
:1038D0008BE090E09C838B8340C08D819E81FC01B6
:1038E000258136818981882F90E0880F991FAC014E
:1038F000440F551F440F551F440F551FBA01681B35
:10390000790BCB01280F391F8D819E81FC014581E8
:1039100056818981882F90E0880F991FBC01660F1E
:10392000771F660F771F660F771FFB01E81BF90BE8
:10393000CF01480F591F8B819C810197840F951FE0
:10394000FC0140818B819C81820F931FFC0140838D
:103950008B819C8101979C838B838B819C81181622
:1039600019060CF4BACF8D819E81FC012581368128
:103970008981882F90E0880F991FAC01440F551F53
:10398000440F551F440F551FBA01681B790BCB011B
:10399000A901480F591F8D819E81FC0162817381AD
:1039A0008A81282F30E0C901880F991F820F931F49
:1039B000880F991F880F991F860F971FFC0181811F
:1039C000FA0180838D819E81FC0125813681898168
:1039D000882F90E0880F991FAC01440F551F440FAA
:1039E000551F440F551FBA01681B790BCB01820F7D
:1039F000931FFC0124852F5FFC0124878D819E810C
:103A0000FC01428153818A81282F30E0C901880F4F
:103A1000991F820F931F880F991F880F991F840F7A
:103A2000951FFC0181818A838D819E81FC014281E9
:103A300053818A81282F30E0C901880F991F820F96
:103A4000931F880F991F880F991F840F951FFC01E2
:103A500081818F3F09F03CCF89818F5F89838D8180
:103A60009E81FC0191818981891708F494CE269664
:103A70000FB6F894DEBF0FBECDBFCF91DF91089592
:103A8000DF93CF9300D00F92CDB7DEB79B838A83AD
:103A900019821DC08A819B81FC0125813681898123
:103AA000882F90E0880F991FAC01440F551F440FD9
:103AB000551F440F551FBA01681B790BCB01820FAC
:103AC000931F2FEFFC01258789818F5F89838A816E
:103AD0009B81FC01918189818917E0F20F900F9001
:103AE0000F90CF91DF910895DF93CF9300D000D056
:103AF000CDB7DEB79B838A836C838A819B81FC016F
:103B0000428153818C81282F30E0C901880F991F91
:103B1000820F931F880F991F880F991F840F951F7D
:103B2000FC01868197810097C1F08A819B81FC010D
:103B3000428153818C81282F30E0C901880F991F61
:103B4000820F931F880F991F880F991F840F951F4D
:103B5000FC0186819781FC0109958A819B81FC018A
:103B6000428153818C81282F30E0C901880F991F31
:103B7000820F931F880F991F880F991F840F951F1D
:103B8000FC01808591850097C1F08A819B81FC01B1
:103B9000428153818C81282F30E0C901880F991F01
:103BA000820F931F880F991F880F991F840F951FED
:103BB000FC0180859185FC0109958A819B812C817E
:103BC000FC0124838A819B81FC01428153818C8189
:103BD000282F30E0C901880F991F820F931F880F8B
:103BE000991F880F991F840F951FFC01828189837B
:103BF00085C08A819B81FC01428153818981282F64
:103C0000332727FD3095C901880F991F820F931F15
:103C1000880F991F880F991F840F951FFC018681BB
:103C200097810097D1F08A819B81FC014281538169
:103C30008981282F332727FD3095C901880F991FC7
:103C4000820F931F880F991F880F991F840F951F4C
:103C5000FC0186819781FC0109958A819B81FC0189
:103C6000428153818981282F332727FD3095C9014F
:103C7000880F991F820F931F880F991F880F991F14
:103C8000840F951FFC01808591850097D1F08A8172
:103C90009B81FC01428153818981282F332727FD95
:103CA0003095C901880F991F820F931F880F991FA4
:103CB000880F991F840F951FFC0180859185FC0159
:103CC000099529818A819B81FC0124838A819B81BA
:103CD000FC01428153818981282F332727FD3095AC
:103CE000C901880F991F820F931F880F991F880F92
:103CF000991F840F951FFC018281898389818F3FE1
:103D000009F077CF0F900F900F900F90CF91DF9128
:103D10000895DF93CF9300D000D000D0CDB7DEB7A9
:103D20009A8389837C836B834D832E8389819A81D7
:103D30002D81FC01218389819A812B813C81FC01A9
:103D40003383228389819A81FC018181882F90E0CD
:103D5000880F991F9C01220F331F220F331F220F40
:103D6000331FA901481B590BCA010E9407309C014F
:103D700089819A81FC013683258389819A810E94F9
:103D8000C01B89819A810E94401D89819A816E8120
:103D90000E94741D89819A812FEFFC01238B269646
:103DA0000FB6F894DEBF0FBECDBFCF91DF9108955F
:103DB000DF93CF9300D0CDB7DEB79A838983898113
:103DC0009A81FC01858196810E94A1300F900F900D
:103DD000CF91DF910895DF93CF9300D000D000D032
:103DE000CDB7DEB79C838B836D834E831982198296
:103DF0008B819C81FC01258136818E81882F90E00A
:103E0000880F991FAC01440F551F440F551F440FD5
:103E1000551FBA01681B790BCB01820F931FFC0160
:103E2000848581508A8327C08B819C81FC012581F8
:103E300036818E81882F90E0880F991FAC01440F46
:103E4000551F440F551F440F551FBA01681B790BAE
:103E5000CB01280F391F8A81992787FD9095820F02
:103E6000931FFC0190818D81981711F481E0898363
:103E70008A8181508A838A818823B4F68981269633
:103E80000FB6F894DEBF0FBECDBFCF91DF9108957E
:103E9000DF93CF9300D000D00F92CDB7DEB79D83D4
:103EA0008C838C819D812FEFFC01238B8C819D81E4
:103EB000079660E070E04CE050E00E9426321A82E3
:103EC0008C819D81FC018481898354C08C819D817A
:103ED000FC018389282F2F5F8C819D81FC01238B1E
:103EE0008C819D81FC018389992787FD909549816B
:103EF0002C813D81820F931F0796FC0140838C81AA
:103F00009D81FC01428153818981282F332727FD20
:103F10003095C901880F991F820F931F880F991F31
:103F2000880F991F840F951FFC0184819581FC01E6
:103F300009958B839091BA0481E02B81291709F0B0
:103F400080E08A838C819D81FC014281538189813B
:103F5000282F332727FD3095C901880F991F820F1D
:103F6000931F880F991F880F991F840F951FFC01BD
:103F70008181898389818F3F31F09A8181E089270E
:103F8000882309F0A3CF8A810F900F900F900F9094
:103F90000F90CF91DF910895DF93CF93CDB7DEB728
:103FA00028970FB6F894DEBF0FBECDBF9D838C83DC
:103FB0006E8358874F838FEF8B831A821982A0C03C
:103FC0002C813D8189819A81820F931F0796FC0184
:103FD00080818B838C819D81FC01428153818B8107
:103FE000282F30E0C901880F991F820F931F880F77
:103FF000991F880F991F840F951FFC018285938557
:104000000097C1F08C819D81FC01428153818B819D
:10401000282F30E0C901880F991F820F931F880F46
:10402000991F880F991F840F951FFC018285938526
:10403000FC0109958F8198852B81FC0120838C815F
:104040009D81FC01428153818C819D81FC016281B3
:1040500073818B81282F30E0C901880F991F820F4F
:10406000931F880F991F880F991F860F971FFC01B8
:104070008181282F332727FD3095C901880F991F8B
:10408000820F931F880F991F880F991F840F951F08
:10409000FC018381882379F18C819D81FC0145811C
:1040A00056818C819D81FC01628173818B81282FD7
:1040B00030E0C901880F991F820F931F880F991F45
:1040C000880F991F860F971FFC018181992787FD13
:1040D0009095880F991F9C01220F331F220F331FC9
:1040E000220F331FB901681B790BCB01840F951F79
:1040F0002B81FC01258789819A8101969A83898386
:104100008C819D81FC018389282F332727FD3095E1
:1041100089819A81281739070CF052CF8C819D81B3
:10412000FC01428153818B81282F30E0C901880F27
:10413000991F820F931F880F991F880F991F840F53
:10414000951FFC0181818B83A7C08C819D81FC011F
:10415000428153818B81282F30E0C901880F991F3C
:10416000820F931F880F991F880F991F840F951F27
:10417000FC01828593850097C1F08C819D81FC01B3
:10418000428153818B81282F30E0C901880F991F0C
:10419000820F931F880F991F880F991F840F951FF7
:1041A000FC0182859385FC0109958F8198852B817F
:1041B000FC0120838C819D81FC01428153818B8194
:1041C000282F30E0C901880F991F820F931F880F95
:1041D000991F880F991F840F951FFC0181818B8384
:1041E0008C819D81FC01428153818C819D81FC01E8
:1041F000628173818B81282F30E0C901880F991F5C
:10420000820F931F880F991F880F991F860F971F82
:10421000FC018181282F332727FD3095C901880FA4
:10422000991F820F931F880F991F880F991F840F62
:10423000951FFC018381882379F18C819D81FC018C
:10424000458156818C819D81FC01628173818B81C6
:10425000282F30E0C901880F991F820F931F880F04
:10426000991F880F991F860F971FFC01818199273D
:1042700087FD9095880F991F9C01220F331F220FF5
:10428000331F220F331FB901681B790BCB01840F39
:10429000951F2B81FC0125872B818C819D81622FAD
:1042A0004E810E94EB1E982F81E08927882309F018
:1042B0004CCF9B818E81981709F091C08C819D8194
:1042C000FC01428153818B81282F30E0C901880F86
:1042D000991F820F931F880F991F880F991F840FB2
:1042E000951FFC01828593850097C1F08C819D818B
:1042F000FC01428153818B81282F30E0C901880F56
:10430000991F820F931F880F991F880F991F840F81
:10431000951FFC0182859385FC0109958C819D8107
:104320002B81FC0120838C819D81FC014281538182
:104330008C819D81FC01628173818B81282F30E00B
:10434000C901880F991F820F931F880F991F880F2B
:10435000991F860F971FFC018181282F332727FD86
:104360003095C901880F991F820F931F880F991FDD
:10437000880F991F840F951FFC018381882379F191
:104380008C819D81FC01458156818C819D81FC0140
:10439000628173818B81282F30E0C901880F991FBA
:1043A000820F931F880F991F880F991F860F971FE1
:1043B000FC018181992787FD9095880F991F9C01A9
:1043C000220F331F220F331F220F331FB901681B27
:1043D000790BCB01840F951F2B81FC012587289633
:1043E0000FB6F894DEBF0FBECDBFCF91DF91089519
:1043F000DF93CF9300D000D000D0CDB7DEB79C8341
:104400008B836D834E838E8189838B819C81FC019C
:10441000428153818B819C81FC01258136818D8174
:10442000882F90E0880F991FBC01660F771F660FD9
:10443000771F660F771FFB01E81BF90BCF01280FD1
:10444000391F8981882F90E0820F931FFC018081A2
:10445000282F332727FD3095C901880F991F820F18
:10446000931F880F991F880F991F840F951FFC01B8
:10447000808591850097B9F18B819C81FC014281F7
:1044800053818B819C81FC01258136818D81882F10
:1044900090E0880F991FBC01660F771F660F771F8A
:1044A000660F771FFB01E81BF90BCF01280F391F9F
:1044B0008981882F90E0820F931FFC018081282F33
:1044C000332727FD3095C901880F991F820F931F4D
:1044D000880F991F880F991F840F951FFC018085F5
:1044E0009185FC01099589818F5F89838981282FB6
:1044F00030E08B819C81FC01458156818D81882F24
:1045000090E0880F991FBC01660F771F660F771F19
:10451000660F771FFB01E81BF90BCF01840F951F76
:10452000FC018485992787FD909501978217930751
:104530000CF06BCF8D818A837CC08B819C81FC01C8
:10454000258136818A81882F90E0880F991FAC01E0
:10455000440F551F440F551F440F551FBA01681BC8
:10456000790BCB01820F931FFC0185858F3FD9F01A
:104570008B819C81FC01258136818A81882F90E086
:10458000880F991FAC01440F551F440F551F440F4E
:10459000551FBA01681B790BCB01820F931FFC01D9
:1045A00085858A8316C08B819C81FC014281538161
:1045B0008A81282F30E0C901880F991F820F931F2D
:1045C000880F991F880F991F840F951FFC01828106
:1045D0008A838B819C81FC01428153818A81282FAF
:1045E00030E0C901880F991F820F931F880F991F10
:1045F000880F991F840F951FFC0180859185009776
:10460000C1F08B819C81FC01428153818A81282FDA
:1046100030E0C901880F991F820F931F880F991FDF
:10462000880F991F840F951FFC0180859185FC01DF
:1046300009958B819C81FC01258136818A81882F97
:1046400090E0880F991FAC01440F551F440F551F70
:10465000440F551FBA01681B790BCB01820F931FC2
:10466000FC0185858F3F09F068CF8B819C81FC011F
:10467000428153818A81282F30E0C901880F991F18
:10468000820F931F880F991F880F991F840F951F02
:10469000FC0182818F3F09F050CF8A8126960FB6A8
:1046A000F894DEBF0FBECDBFCF91DF910895DF93A9
:1046B000CF93CDB7DEB728970FB6F894DEBF0FBE05
:1046C000CDBF9E838D836F8348878FEF8983288535
:1046D0008D819E81622F4F810E94EB1E882309F4F9
:1046E00050C01A8230C08D819E81FC0125813681A7
:1046F0008F81882F90E0880F991FAC01440F551FC0
:10470000440F551F440F551FBA01681B790BCB018D
:10471000280F391F8A81992787FD9095820F931F53
:10472000FC018081282F332727FD30958885882F2D
:1047300090E02817390721F48A8189830000DDC0C1
:104740008A818F5F8A838D819E81FC0125813681DC
:104750008F81882F90E0880F991FAC01440F551F5F
:10476000440F551F440F551FBA01681B790BCB012D
:10477000820F931FFC0194858A8189170CF4B3CFB3
:10478000BCC08D819E81FC01258136818F81882F5F
:1047900090E0880F991FAC01440F551F440F551F1F
:1047A000440F551FBA01681B790BCB01820F931F71
:1047B000FC0164858D819E81FC01258136818D817E
:1047C0009E81FC018081882F90E0880F991FAC01A9
:1047D000440F551F440F551F440F551FFA01E81B86
:1047E000F90BCF01820F931FFC0184858617E4F437
:1047F0008D819E81FC01258136818885882F90E0FE
:10480000880F991FAC01440F551F440F551F440FCB
:10481000551FBA01681B790BCB01820F931FFC0156
:10482000848581508C831BC08D819E81FC012581F4
:1048300036818F81882F90E0880F991FAC01440F3B
:10484000551F440F551F440F551FBA01681B790BA4
:10485000CB01820F931FFC01848581508C831B82C6
:1048600045C08B8189838D819E81FC0125813681A4
:104870008885882F90E0880F991FAC01440F551F41
:10488000440F551F440F551FBA01681B790BCB010C
:10489000280F391F8B81992787FD9095820F931FD1
:1048A000FC0160818D819E81FC01258136818F8193
:1048B000882F90E0880F991FAC01440F551F440FBB
:1048C000551F440F551FFA01E81BF90BCF01280FA4
:1048D000391F8B81992787FD9095820F931FFC01CB
:1048E0008081681749F48B818F5F8B839B818C81DA
:1048F00089170CF0B6CF01C0000029818D819E81FF
:104900006F81422F0E94F821282F8D819E81FC010A
:10491000248328960FB6F894DEBF0FBECDBFCF918B
:10492000DF910895DF93CF9300D00F92CDB7DEB71C
:104930009A8389836B8300008FE390E0FC01808180
:10494000882F90E0827090700097B1F781E490E03A
:1049500029813A81FC013183208380E490E02B811E
:10496000FC012083F894FA9AF99A78940F900F90AA
:104970000F90CF91DF910895DF93CF9300D0CDB703
:10498000DEB79A83898300008FE390E0FC01808189
:10499000882F90E0827090700097B1F781E490E0EA
:1049A00029813A81FC01318320838FE390E02FE35A
:1049B00030E0F90120812160FC01208380E490E057
:1049C000FC0180810F900F90CF91DF910895DF93CC
:1049D000CF9300D000D00F92CDB7DEB79C838B83EE
:1049E0006D838B819C819A8389832D8189819A81B2
:1049F000622F0E9492240F900F900F900F900F90B3
:104A0000CF91DF910895DF93CF9300D000D00F9224
:104A1000CDB7DEB79D838C838C819D819A838983FA
:104A200089819A810E94BC248B838B810F900F9087
:104A30000F900F900F90CF91DF910895DF93CF9358
:104A4000CDB7DEB727970FB6F894DEBF0FBECDBF48
:104A50009F838E838E819F819A8389831D821C828E
:104A600089819A810E94BC248B838B81882F90E05E
:104A70009D838C8389819A8101960E94BC248B83BB
:104A8000CE01049601962B81FC0120838C819D81AF
:104A900027960FB6F894DEBF0FBECDBFCF91DF9142
:104AA0000895DF93CF9300D000D000D0CDB7DEB70C
:104AB0009C838B837E836D838B819C819A83898386
:104AC0008D819E81282F89819A81622F0E94922454
:104AD00089819A8101969E012B5F3F4F2F5F3F4F47
:104AE000F9012081622F0E94922426960FB6F89435
:104AF000DEBF0FBECDBFCF91DF910895DF93CF937F
:104B0000CDB7DEB7CF91DF910895DF93CF9300D07B
:104B10000F92CDB7DEB79B838A831982000021E014
:104B20008A819B81009709F420E08A819B8101970B
:104B30009B838A83222399F70F900F900F90CF9138
:104B4000DF910895DF93CF93CDB7DEB78091FB045B
:104B5000482F552747FD509524E630E0429FC0017D
:104B6000439F900D529F900D11249C01205C324177
:104B700080914A05992787FD9095880F991FAC0170
:104B8000440F551F440F551F840F951F805E9140A1
:104B9000280F391F80914B05992787FD9095C09765
:104BA000820F931FAA2797FDA095BA2FBC01CD01B4
:104BB0000E940C2BDC01CB0180930205909303052E
:104BC000A0930405B0930505CF91DF910895DF937D
:104BD000CF930F92CDB7DEB78983298184E090E02F
:104BE000622F0E94E72489818093FB040E94A22502
:104BF0000F90CF91DF910895DF93CF930F92CDB7B0
:104C0000DEB78983298185E090E0622F0E94E72446
:104C1000898180934A050E94A2250F90CF91DF9150
:104C20000895DF93CF930F92CDB7DEB789832981A3
:104C300086E090E0622F0E94E724898180934B05F3
:104C40000E94A2250F90CF91DF910895DF93CF931B
:104C5000CDB7DEB780912105482F552747FD5095E8
:104C600028E532E0429FC001439F900D529F900D76
:104C700011249C012058304780912605682F772702
:104C800067FD70954CE350E0649FC001659F900DF7
:104C9000749F900D112480549B40280F391F8091E0
:104CA0000605992787FD9095880F991FAC01440F41
:104CB000551F440F551F840F951F805E9140280F8C
:104CC000391F80912805992787FD9095C097820FFD
:104CD000931F9093FF048093FE04CF91DF9108957A
:104CE000DF93CF930F92CDB7DEB78983298187E019
:104CF00090E0622F0E94E7248981809321050E9421
:104D000026260F90CF91DF910895DF93CF930F92D6
:104D1000CDB7DEB78983298188E090E0622F0E94B9
:104D2000E7248981809326050E9426260F90CF9143
:104D3000DF910895DF93CF930F92CDB7DEB78983CC
:104D4000298189E090E0622F0E94E7248981809385
:104D500006050E9426260F90CF91DF910895DF93DC
:104D6000CF930F92CDB7DEB7898329818AE090E097
:104D7000622F0E94E7248981809328050E942626BD
:104D80000F90CF91DF910895DF93CF93CDB7DEB72A
:104D90000E94500E90933F0580933E0580913E0502
:104DA00090913F059C018BE090E0B9010E94512554
:104DB000CF91DF910895DF93CF93CDB7DEB70E94F7
:104DC000500E909345058093440580914405909141
:104DD00045059C018DE090E0B9010E945125CF91DD
:104DE000DF910895DF93CF93CDB7DEB78091220591
:104DF0009091230590934D0580934C0520914C058F
:104E000030914D058FE090E0B9010E945125CF917E
:104E1000DF910895DF93CF93CDB7DEB78091220560
:104E20009091230590934705809346052091460570
:104E30003091470581E190E0B9010E945125CF9161
:104E4000DF910895DF93CF930F92CDB7DEB78983BB
:104E50008981809349052091490584E190E0622F82
:104E60000E94E7240F90CF91DF910895DF93CF93B5
:104E7000CDB7DEB784E090E00E9403258093FB0469
:104E80008091FB04803324F08091FB048A331CF072
:104E900080E30E94E72585E090E00E94032580934F
:104EA0004A0580914A05803324F080914A058A336F
:104EB0001CF080E30E94FC2586E090E00E94032520
:104EC00080934B0580914B05803324F080914B05F6
:104ED0008A331CF080E30E94112687E090E00E9454
:104EE00003258093210580912105803324F0809152
:104EF00021058A331CF080E30E94702688E090E050
:104F00000E9403258093260580912605803324F096
:104F1000809126058A331CF080E30E94852689E073
:104F200090E00E940325809306058091060580335A
:104F300024F08091060586331CF080E30E949A26B7
:104F40008AE090E00E94032580932805809128053F
:104F5000803324F0809128058A331CF080E30E947E
:104F6000AF260E9426260E94A2258BE090E00E9498
:104F70001E2590933F0580933E0580913E059091BC
:104F80003F052FEF8F3F920721F410923F051092BB
:104F90003E058DE090E00E941E259093450580938C
:104FA000440580914405909145052FEF8F3F92076E
:104FB00021F410924505109244058FE090E00E9484
:104FC0001E2590934D0580934C0580914C05909142
:104FD0004D052FEF8F3F920721F410924D0510924F
:104FE0004C0581E190E00E941E2590934705809337
:104FF000460580914605909147052FEF8F3F920718
:1050000021F4109247051092460584E190E00E9439
:1050100003258093490580914905823018F080E08E
:105020000E9422271092FC0410922405CF91DF9158
:1050300008951F920F920FB60F9211242F933F9352
:105040004F938F939F93EF93FF93DF93CF93CDB7BE
:10505000DEB789EB90E0FC018081882F90E0887FAB
:1050600090708832910569F18932910554F480314C
:105070009105D9F08831910521F188309105A9F089
:1050800094C08034910509F45AC0813491052CF400
:105090008833910509F483C088C080359105D9F122
:1050A0008835910509F45BC080C08BEB90E02091BE
:1050B000F604FC0120838CEB90E025E8FC012083C2
:1050C0007FC08091F9048823D1F08091F904815048
:1050D0008093F9042BEB30E08091F7049091F80471
:1050E000FC014081F901408301969093F80480937C
:1050F000F7048CEB90E025E8FC01208361C08CEB89
:1051000090E024E9FC0120838FEF8093FA0481E092
:105110008093290555C08091F7049091F8042BEBFA
:1051200030E0F9012081FC01208301969093F8047E
:105130008093F7048091F90481508093F904809161
:10514000F904823030F08CEB90E025ECFC012083F8
:1051500037C08CEB90E025E8FC01208331C08091C2
:10516000F7049091F8042BEB30E0F9012081FC0169
:10517000208301969093F8048093F7048091F904BA
:1051800081508093F9048CEB90E024E9FC012083AA
:105190008FEF8093FA0481E08093250511C08CEB9A
:1051A00090E025EAFC0120830BC089EB90E0FC0134
:1051B00080818093FA048CEB90E024E0FC01208352
:1051C000CF91DF91FF91EF919F918F914F913F91FF
:1051D0002F910F900FBE0F901F901895DF93CF93D4
:1051E000CDB7DEB710922905109225058BEB94E020
:1051F0000E9479321092F90489EB90E022E0FC01E0
:10520000208388EB90E022E2FC0120838BEB90E08E
:105210002FEFFC0120838CEB90E024E0FC01208345
:10522000CF91DF910895DF93CF93CDB7DEB784ECB4
:1052300094E00E9479328CEB90E0FC011082109295
:105240002905109225051092F9048BEB90E02FEFC1
:10525000FC0120838CEB90E024E0FC012083CF91C3
:10526000DF910895DF93CF9300D000D0CDB7DEB7A4
:1052700089837B836A834C8300000E94DD29882315
:10528000E1F71092290589818E7F8093F6048A8147
:105290009B819093F8048093F7048C818093F904A8
:1052A0008CEB90E025EAFC0120830F900F900F908B
:1052B0000F90CF91DF910895DF93CF9300D000D06E
:1052C000CDB7DEB789837B836A834C832A813B8198
:1052D0008981B9014C810E94322900008091290501
:1052E000882321F40E94DD298823C1F78091FA04E4
:1052F0008F3F11F00E9413298091FA040F900F90B4
:105300000F900F90CF91DF910895DF93CF9300D04E
:1053100000D0CDB7DEB789837B836A834C830000DE
:105320000E94DD298823E1F710922505898181609B
:105330008093F6048A819B819093F8048093F7040C
:105340008C818093F9048CEB90E025EAFC012083AA
:105350000F900F900F900F90CF91DF910895DF93F2
:10536000CF9300D000D0CDB7DEB789837B836A832B
:105370004C832A813B818981B9014C810E94852916
:10538000000080912505882321F40E94DD298823CF
:10539000C1F78091FA048F3F19F00E94132904C0CD
:1053A0008AED94E00E9479328091FA040F900F9078
:1053B0000F900F90CF91DF910895DF93CF93CDB7EA
:1053C000DEB78CEB90E0FC018081882F90E081704B
:1053D000907021E0009709F420E0822FCF91DF91B7
:1053E0000895DF93CF93CDB7DEB78091FA048F3F56
:1053F00011F481E001C080E0CF91DF910895DF9347
:10540000CF93CDB7DEB78091FA04CF91DF910895A5
:105410005058BB27AA270ED075C166D130F06BD18A
:1054200020F031F49F3F11F41EF45BC10EF4E095BF
:10543000E7FB51C1E92F77D180F3BA1762077307F1
:105440008407950718F071F49EF58FC10EF4E0956E
:105450000B2EBA2FA02D0B01B90190010C01CA012E
:10546000A0011124FF27591B99F0593F50F4503ED9
:1054700068F11A16F040A22F232F342F4427585FCB
:10548000F3CF469537952795A795F0405395C9F7E3
:105490007EF41F16BA0B620B730B840BBAF091509B
:1054A000A1F0FF0FBB1F661F771F881FC2F70EC03A
:1054B000BA0F621F731F841F48F48795779567950D
:1054C000B795F7959E3F08F0B3CF9395880F08F0F6
:1054D0009927EE0F979587950895D9D008F481E024
:1054E00008950CD00FC107D140F0FED030F021F468
:1054F0005F3F19F0F0C0511139C1F3C014D198F3D6
:105500009923C9F35523B1F3951B550BBB27AA2744
:1055100062177307840738F09F5F5F4F220F331FB6
:10552000441FAA1FA9F333D00E2E3AF0E0E830D082
:1055300091505040E695001CCAF729D0FE2F27D085
:10554000660F771F881FBB1F261737074807AB0753
:10555000B0E809F0BB0B802DBF01FF2793585F4FC8
:105560002AF09E3F510568F0B6C000C15F3FECF3E2
:10557000983EDCF3869577956795B795F7959F5F8D
:10558000C9F7880F911D9695879597F90895E1E0E1
:10559000660F771F881FBB1F621773078407BA0740
:1055A00020F0621B730B840BBA0BEE1F88F7E0959B
:1055B000089504D06894B111D9C00895BCD088F082
:1055C0009F5790F0B92F9927B751A0F0D1F0660FEF
:1055D000771F881F991F1AF0BA95C9F712C0B1300A
:1055E00081F0C3D0B1E00895C0C0672F782F88271D
:1055F000B85F39F0B93FCCF3869577956795B39549
:10560000D9F73EF490958095709561957F4F8F4FB7
:105610009F4F0895E89409C097FB3EF490958095BC
:10562000709561957F4F8F4F9F4F9923A9F0F92F68
:1056300096E9BB279395F695879577956795B795E6
:10564000F111F8CFFAF4BB0F11F460FF1BC06F5FCC
:105650007F4F8F4F9F4F16C0882311F096E911C0DE
:10566000772321F09EE8872F762F05C0662371F0FF
:1056700096E8862F70E060E02AF09A95660F771F13
:10568000881FDAF7880F9695879597F90895990FEF
:105690000008550FAA0BE0E8FEEF16161706E807FC
:1056A000F907C0F012161306E407F50798F0621B1D
:1056B000730B840B950B39F40A2661F0232B242BF2
:1056C000252B21F408950A2609F4A140A6958FEF11
:1056D000811D811D089597F99F6780E870E060E063
:1056E00008959FEF80EC089500240A94161617067B
:1056F00018060906089500240A94121613061406C3
:1057000005060895092E0394000C11F4882352F025
:10571000BB0F40F4BF2B11F460FF04C06F5F7F4FDD
:105720008F4F9F4F089557FD9058440F551F59F0C4
:105730005F3F71F04795880F97FB991F61F09F3F7E
:1057400079F087950895121613061406551FF2CFA7
:105750004695F1DF08C0161617061806991FF1CFF7
:1057600086957105610508940895E894BB2766271E
:105770007727CB0197F908958ADF08F48FEF089512
:105780000BD0C0CFB1DF28F0B6DF18F0952309F0B9
:10579000A2CFA7CF1124EACFC6DFA0F3959FD1F304
:1057A000950F50E0551F629FF001729FBB27F00DCF
:1057B000B11D639FAA27F00DB11DAA1F649F662724
:1057C000B00DA11D661F829F2227B00DA11D621F73
:1057D000739FB00DA11D621F839FA00D611D221F2D
:1057E000749F3327A00D611D231F849F600D211D11
:1057F000822F762F6A2F11249F5750408AF0E1F0B4
:1058000088234AF0EE0FFF1FBB1F661F771F881FFC
:1058100091505040A9F79E3F510570F05CCFA6CF44
:105820005F3FECF3983EDCF3869577956795B795E7
:10583000F795E7959F5FC1F7FE2B880F911D969511
:10584000879597F90895A3E1B0E0E9E2FCE20C94B2
:10585000BC2F6C017F876E87FC01178216828381C3
:1058600081FD04C06FC34C855D8504C01E01089492
:10587000211C311CF6019381EE85FF8593FD8591F6
:1058800093FF8191FF87EE87882309F457C3853200
:1058900041F493FD859193FF8191FF87EE878532D7
:1058A00059F490E0B6014A8B5B8B0E9438324A89EA
:1058B0005B895D874C87D7CF10E0FF2400E0003282
:1058C000B0F48B3269F08C3228F4803251F083329C
:1058D00071F40BC08D3239F0803349F401602CC073
:1058E0000260046029C0086027C0006125C007FD70
:1058F0002EC0282F20532A3098F406FF08C0812F8D
:10590000880F182F110F110F180F120F15C08F2DA0
:10591000880FF82EFF0CFF0CF80EF20E00620CC080
:105920008E3221F406FD0AC3006406C08C3611F4E1
:10593000006802C0883659F4EE85FF8593FD859195
:1059400093FF8191FF87EE87882309F0B8CF982FC6
:105950009554933018F40061805E06C0982F9556D8
:10596000933008F09BC10F7E06FF16E06FE3E62E32
:10597000E022853619F4F0E4EF2A07C0863619F4E0
:1059800020E8E22A02C011111150E7FE06C01C33C4
:1059900040F4912E939427E00BC0183030F4212F5F
:1059A00006C027E03CE3932E03C027E017E09924CC
:1059B000CA0104969D878C87FA016081718182817A
:1059C0009381A101092D0E943A315C016980262D45
:1059D00030E0398B288B60FE03C0388933FF06C066
:1059E000E1FC06C0E2FE06C000E205C00DE203C015
:1059F0000BE201C000E0888999898C709070009753
:105A0000C1F1002311F084E001C083E08F1558F448
:105A1000F81AE3FC09C080E290E0B6010E94383237
:105A2000FA94C9F701C0FF24002329F0802F90E0E9
:105A3000B6010E943832888983FD03C000E810E077
:105A40000EC00CE710E00BC0A114B10409F08052A5
:105A500090E0B6010E9438320F5F1F4F05C0AE2C98
:105A6000BB2490E1A922BB24F8018491882361F72B
:105A700062C2E7FE0EC09A0CF889F4FF04C08A8166
:105A8000813309F49A94191454F5292D293050F5CD
:105A90002DC0E6FC2BC0812F90E08A159B054CF0B1
:105AA0003CEFA3163FEFB30624F080E8E82A01C0DC
:105AB0001150112349F0E2E0F0E0EC0FFD1FE10F7F
:105AC000F11D80818033A1F3E7FE10C0912E9394E5
:105AD000812F90E0A816B90644F41A1907C099243A
