:100000000C94BF000C94B50C0C94DC000C94DC0038
:100010000C94DC000C94DC000C944E100C94DC006E
:100020000C94DC000C94130C0C94DC000C94DC009D
:100030000C94DC000C94FE0C0C94DC000C94DC00A2
:100040000C94EE0C0C94DC000C94DC000C94DC00A2
:100050000C94DC000C94DC000C94DC000C94DC00B0
:100060000C94860C0C94DC000C94EE290C94DC00AF
:100070000C94DC000C94DC000C94DC006E616E00CF
:10008000696E660000407A10F35A00A0724E18099B
:100090000010A5D4E80000E87648170000E40B54EF
:1000A000020000CA9A3B000000E1F50500008096BE
:1000B0009800000040420F000000A08601000000F0
:1000C000102700000000E8030000000064000000AA
:1000D00000000A00000000000100000000002C7673
:1000E000D888DC674F0823DFC1DFAE59E1B1B7968E
:1000F000E5E3E453C63AE651997696E8E6C28426EB
:10010000EB898C9B62ED407C6FFCEFBC9C9F40F2C6
:10011000BAA56FA5F490055A2AF75C936B6CF96742
:100120006DC11BFCE0E40D47FEF520E6B500D0ED07
:10013000902E0300943577050080841E080000206F
:100140004E0A000000C80C333333330F986E12830D
:100150001141EF8D2114893BE65516CFFEE6DB18E1
:10016000D1844B381BF77C1D901DA4BBE4242032A6
:1001700084725E228100C9F124ECA1E53D2711249F
:100180001FBECFEFD8E0DEBFCDBF16E0A0E0B1E0EC
:10019000ECE0FAE602C005900D92AC38B107D9F751
:1001A00017E0ACE8B6E001C01D92A933B107E1F752
:1001B0000E9434010C9404350C940000DF93CF931B
:1001C00000D0CDB7DEB79A83898385EC90E0298192
:1001D0003A81232F3327FC01208384EC90E029818E
:1001E000FC01208380EC90E020EC30E0F9012081DC
:1001F0002C7FFC01208381EC90E028E1FC0120832E
:1002000082EC90E026E0FC0120830F900F90CF91CC
:10021000DF910895DF93CF9300D00F92CDB7DEB773
:1002200089837B836A83000080EC90E0FC018081FD
:10023000882F90E0807290700097B1F389818A30A6
:1002400031F420E031E08DE0B9010E940A0186EC32
:1002500090E02981FC01208380E090E00F900F90D6
:100260000F90CF91DF910895DF93CF93CDB7DEB795
:1002700029970FB6F894DEBF0FBECDBF8BE090E09C
:100280000E94DE0080E091E090933607809335076E
:100290008EE091E00E944E340E9471280E94B902C3
:1002A0000E94FD0F0E943F0D0E94C32A0E94661605
:1002B0000E94D61B0E94420B01C000008091BA062A
:1002C000882361F08CE090E09B838A8380EC96E049
:1002D0009E012E5F3F4FB9010E94630B8091BB06C8
:1002E000813071F41092BB068BE090E09B838A838F
:1002F00080EC96E09E012E5F3F4FB9010E94630B98
:100300008091BF06813011F41092BF068091DE0605
:10031000882371F01092DE068AE090E09B838A8346
:1003200080EC96E09E012E5F3F4FB9010E94630B67
:1003300080919306882371F01092930686E090E0F6
:100340009B838A8380EC96E09E012E5F3F4FB9012C
:100350000E94630B8091B606882371F01092B60656
:1003600085E090E09B838A8380EC96E09E012E5F7F
:100370003F4FB9010E94630B0E94BC1089838981A1
:10038000882309F457C08981482F552747FD509588
:100390008981282F332727FD309500D000D000D049
:1003A0008DB79EB7019667E171E0FC0171836083B0
:1003B000FC0153834283FC01358324830E9439343A
:1003C0008DB79EB706960FB6F8949EBF0FBE8DBF31
:1003D0008981833021F481E090E09B838A83898145
:1003E000813021F487E090E09B838A838981823089
:1003F00021F488E090E09B838A838981853021F411
:1004000083E090E09B838A838981863021F484E0B5
:1004100090E09B838A838981803324F01B821A8237
:1004200089818C8380EC96E09E012E5F3F4FB9015D
:100430000E94630B8091BD06882309F43ECF109281
:10044000BD0689E090E09B838A8380EC96E09E0164
:100450002E5F3F4FB9010E94630B30CFDF93CF93E4
:1004600000D000D0CDB7DEB78A836B834C8384E2A3
:1004700090E0FC01108285E290E0FC0110828BE2AA
:1004800090E02BE230E0F90120812F71FC01208304
:100490008BE290E02BE230E0F90120812F77FC0124
:1004A00020838BE290E02BE230E0F9012081206490
:1004B000FC01208381E089831AC08BE290E02BE26B
:1004C00030E0F90120812062FC0120830E940E2689
:1004D00083E290E0FC018081807889838BE290E068
:1004E0002BE230E0F90120812F7DFC0120838981FE
:1004F000882319F784E290E02FEFFC01208385E246
:1005000090E02A81FC0120838B81882349F08BE2D3
:1005100090E02BE230E0F90120812068FC0120838B
:100520008BE290E02BE230E0F90120812F7BFC018F
:1005300020830E940E268BE290E02BE230E0F9014E
:1005400020812062FC0120830E940E268BE290E035
:100550002BE230E0F90120812F7DFC01208389818D
:100560008F5F89830F900F900F900F90CF91DF9145
:100570000895DF93CF93CDB7DEB78AE290E02AE209
:1005800030E0F9012081206EFC0120838BE290E0B5
:100590002BE230E0F90120812F71FC01208384E2FD
:1005A00090E0FC01108285E290E0FC01108281E085
:1005B00060E040E20E942E0288E360E040E20E9498
:1005C0002E028CE060E040E20E942E0286E060E0B5
:1005D00040E20E942E02CF91DF910895DF93CF93E6
:1005E0000F92CDB7DEB78983998181E060E0492F12
:1005F0000E942E020F90CF91DF910895DF93CF9349
:100600000F92CDB7DEB78983998180EC60E0492FE6
:100610000E942E020F90CF91DF910895DF93CF9328
:1006200000D000D0CDB7DEB79B838A836C830BC02C
:1006300089819C8161E0492F0E942E028A819B81E1
:1006400001969B838A838A819B81FC0180818983B7
:100650008981882369F70F900F900F900F90CF91A9
:10066000DF910895DF93CF9300D000D0CDB7DEB7F0
:100670008A836B834C8380E889838A81813011F47B
:1006800080EC89838A81823011F484E989838A81AC
:10069000833011F484ED898399818B81890F89835B
:1006A00089819C8160E0492F0E942E020F900F905B
:1006B0000F900F90CF91DF910895DF93CF9300D0EB
:1006C0000F92CDB7DEB789836A834B8389816A81B4
:1006D0004B810E9432038FE060E040E20E942E02D4
:1006E0000F900F900F90CF91DF910895DF93CF93EC
:1006F000CDB7DEB78CE060E040E20E942E02CF91E1
:10070000DF910895DF93CF9300D0CDB7DEB7898313
:100710006A8389819A8161E0492F0E942E020F909D
:100720000F90CF91DF910895DF93CF93CDB7DEB7D0
:100730008091FB04CF91DF910895DF93CF9300D098
:100740000F92CDB7DEB78091FB0489838091E506D7
:100750009091E606FC01808191818C309105C9F46D
:100760008FE08A8380919606909197069E012D5F77
:100770003F4F6FE0A9010E94192080919606909149
:1007800097062B816A81422F0E94A4238091FC044A
:10079000898389810F900F900F90CF91DF910895F9
:1007A000DF93CF93CDB7DEB781E291E00E944E3464
:1007B0000E94D01986E090E00E94AB0ECF91DF91AD
:1007C0000895DF93CF93CDB7DEB789E391E00E9420
:1007D0004E340E94C90E0E94C619CF91DF91089530
:1007E000DF93CF9300D000D00F92CDB7DEB78091CA
:1007F000FB0489838091E5069091E606FC018081E7
:10080000918185309105C9F489E08A8380919606AB
:10081000909197069E012C5F3F4F69E0A9010E94CD
:10082000192080919606909197062C816A81422F1B
:100830000E94A4238091FC0489838091E506909115
:10084000E606FC01808191818330910551F0809111
:10085000E5069091E606FC01808191818730910543
:10086000C9F483E08B8380919606909197069E0150
:100870002B5F3F4F63E0A9010E94192080919606EB
:10088000909197062D816B81422F0E94A423809125
:10089000FC0489838091E5069091E606FC01808145
:1008A00091818630910541F40E94941A8091FC0454
:1008B000898381E08093920689810F900F900F9039
:1008C0000F900F90CF91DF910895DF93CF93CDB725
:1008D000DEB78FEF9FE70E94AB0ECF91DF910895B7
:1008E000DF93CF93CDB7DEB70E94C90ECF91DF91D2
:1008F0000895DF93CF9300D00F92CDB7DEB78091EC
:10090000FB0489838091E5069091E606FC018081D5
:10091000918188309105C9F489E08A838091960697
:10092000909197069E012D5F3F4F69E0A9010E94BB
:10093000192080919606909197062B816A81422F0B
:100940000E94A4238091FC04898389810F900F90D9
:100950000F90CF91DF910895DF93CF93CDB7DEB79E
:100960000E943719CF91DF910895DF93CF93CDB7D0
:10097000DEB7CF91DF910895DF93CF9300D000D001
:100980000F92CDB7DEB78091FB0489838091E50695
:100990009091E606FC018081918184309105E1F41B
:1009A00085E08A8380919606909197069E012C5F40
:1009B0003F4F65E0A9010E94192081E00E945D2857
:1009C00080919606909197062C816A81422F0E9411
:1009D000A4238091FC0489838091E5069091E6062A
:1009E000FC018081918183309105E1F485E08B8366
:1009F00080919606909197069E012B5F3F4F65E090
:100A0000A9010E94192080E00E945D28809196062D
:100A1000909197062D816B81422F0E94A423809193
:100A2000FC0489838091E5069091E606FC018081B3
:100A300091818630910531F481E080939206809116
:100A4000FC04898389810F900F900F900F900F9075
:100A5000CF91DF910895DF93CF93CDB7DEB70E949A
:100A60001E191092BD0682E00E94BE11882361F417
:100A700082EA96E028E431E0B9014EE050E00E94BD
:100A8000F23381E08093BA06CF91DF910895DF932E
:100A9000CF93CDB7DEB7CF91DF910895DF93CF939A
:100AA00000D00F92CDB7DEB78B838091E506909191
:100AB000E606FC018081918184309105C9F486E0CD
:100AC000898380919606909197069E012E5F3F4FF5
:100AD00066E0A9010E9419208091960690919706E0
:100AE0002A816981422F0E94A4238091FC048B8378
:100AF0008B810F900F900F90CF91DF910895DF932E
:100B0000CF9300D00F92CDB7DEB78091FB048983DD
:100B10008091E5069091E606FC0180819181893003
:100B20009105C9F486E08A83809196069091970694
:100B30009E012D5F3F4F66E0A9010E941920809120
:100B40009606909197062B816A81422F0E94A423DA
:100B50008091FC0489838091E5069091E606FC0172
:100B6000808191818630910539F40E94DF110E94C5
:100B700085188091FC04898389810E944E058983B0
:100B800089810F900F900F90CF91DF910895DF939F
:100B9000CF93CDB7DEB70E94EA0D0E94310ECF9100
:100BA000DF910895DF93CF93CDB7DEB70E94430E58
:100BB0000E941D0ECF91DF910895DF93CF9300D057
:100BC0000F92CDB7DEB78091FB048B838091E50651
:100BD0009091E606FC0180819181009709F065C043
:100BE0008091B8069091B9069A8389838091E50631
:100BF0009091E606FC018281992787FD90958333C9
:100C0000910501F1843391053CF48133910571F034
:100C10008233910589F030C08833910501F1893321
:100C2000910519F187339105A1F026C089819A8138
:100C300001969A83898320C089819A810A969A8332
:100C400089831AC089819A818C599F4F9A8389839D
:100C500013C089819A8101979A8389830DC0898104
:100C60009A810A979A83898307C089819A818456D9
:100C700090409A838983000089819A81992314F492
:100C80001A82198289819A81F3E08B329F0724F0BE
:100C90008AE293E09A83898389819A810E94FF0B7B
:100CA0000E9429188091FC048B838091E506909125
:100CB000E606FC01808191818630910529F40E942D
:100CC00029188091FC048B838B810F900F900F90DB
:100CD000CF91DF910895DF93CF93CDB7DEB70E9418
:100CE000B01980E090E00E94FF0BCF91DF91089552
:100CF000DF93CF93CDB7DEB70E94C619CF91DF91B6
:100D00000895DF93CF9300D000D00F92CDB7DEB718
:100D10008091FB0489838091E5069091E606FC01B1
:100D20008081918183309105C9F488E08A83809124
:100D30009606909197069E012C5F3F4F68E0A901AF
:100D40000E94192080919606909197062C816A81C5
:100D5000422F0E94A4238091FC0489838091E506A0
:100D60009091E606FC018081918184309105E9F43F
:100D700088E08B8380919606909197069E012B5F69
:100D80003F4F68E0A9010E9419200E942D280E946F
:100D9000FF2780919606909197062D816B81422FB7
:100DA0000E94A4238091FC04898389810F900F9075
:100DB0000F900F900F90CF91DF910895DF93CF9315
:100DC000CDB7DEB70E94BB19CF91DF910895DF93B5
:100DD000CF93CDB7DEB70E94C619CF91DF910895AA
:100DE000DF93CF9300D000D00F92CDB7DEB78091C4
:100DF000FB0489838091E5069091E606FC018081E1
:100E0000918183309105C9F489E08A8380919606A7
:100E1000909197069E012C5F3F4F69E0A9010E94C7
:100E2000192080919606909197062C816A81422F15
:100E30000E94A4238091FC0489838091E50690910F
:100E4000E606FC018081918184309105F9F489E006
:100E50008B8380919606909197069E012B5F3F4F62
:100E600069E0A9010E9419200E9445280E941628C5
:100E70000E94CD1080919606909197062D816B81EE
:100E8000422F0E94A4238091FC04898389810F90C2
:100E90000F900F900F900F90CF91DF910895DF93F7
:100EA000CF93CDB7DEB70E94DC128FEF9FE70E9491
:100EB000AB0E83E00E94BE11882361F482EA96E0C3
:100EC00028E431E0B9014EE050E00E94F23381E0C5
:100ED0008093BA06CF91DF910895DF93CF93CDB77A
:100EE000DEB70E94C90E8091BA06882389F481E09A
:100EF0000E94BE11882361F482EA96E028E431E082
:100F0000B9014EE050E00E94F23381E08093BA06CE
:100F10000E94C619CF91DF910895DF93CF9300D03F
:100F20000F92CDB7DEB78091FB0489838091E506EF
:100F30009091E606FC018081918187309105C9F48A
:100F40008DE08A8380919606909197069E012D5F91
:100F50003F4F6DE0A9010E94192080919606909163
:100F600097062B816A81422F0E94A4238091FC0462
:100F700089838091E5069091E606FC01808191814C
:100F80008530910539F48FEF9FE70E94AB0E809179
:100F9000FC0489838091E5069091E606FC0180813E
:100FA00091818630910529F40E94E6128091FC041B
:100FB000898389810F900F900F90CF91DF910895D1
:100FC000DF93CF93CDB7DEB70E94221B8FEF0E9435
:100FD0006F1B8FEF0E949E1BCF91DF910895DF93CF
:100FE000CF93CDB7DEB7CF91DF910895DF93CF9345
:100FF00000D000D00F92CDB7DEB78091FB0489837B
:101000008091E5069091E606FC0180819181833014
:101010009105C9F48BE08A8380919606909197069A
:101020009E012C5F3F4F6BE0A9010E941920809127
:101030009606909197062C816A81422F0E94A423E4
:101040008091FC0489838091E5069091E606FC017D
:101050008081918184309105C9F48CE08B838091EB
:101060009606909197069E012B5F3F4F6CE0A90179
:101070000E94192080919606909197062D816B8190
:10108000422F0E94A4238091FC0489838091E5066D
:101090009091E606FC01808191818B30910521F4CD
:1010A0000E949E120E94DF1889810F900F900F906E
:1010B0000F900F90CF91DF910895DF93CF93CDB72D
:1010C000DEB70E944D1B1092E4068091E4060E9458
:1010D0006F1BCF91DF910895DF93CF93CDB7DEB72C
:1010E0008FEF0E946F1BCF91DF910895DF93CF9315
:1010F000CDB7DEB727970FB6F894DEBF0FBECDBFD2
:101100008091FB0489838091E5069091E606FC01BD
:101110008081918184309105C9F48CE08A8380912B
:101120009606909197069E012B5F3F4F6CE0A901B8
:101130000E94192080919606909197062D816A81D0
:10114000422F0E94A4238091FC0489838091E506AC
:101150009091E606FC018081918183309105C9F46C
:101160008AE08B8380919606909197069E012A5F74
:101170003F4F6AE0A9010E94192080919606909144
:1011800097062E816B81422F0E94A4238091FC043C
:1011900089838091E5069091E606FC01808191812A
:1011A000009709F05BC08091E5069091E606FC018E
:1011B00082818A330CF052C08091E5069091E60658
:1011C000FC01828180330CF449C08091E4069927A8
:1011D00087FD90958130910571F082309105A1F0E5
:1011E000009781F58091E5069091E606FC018281E9
:1011F0000E94E71927C08091E5069091E606FC0160
:1012000082810E94F4191EC08091E5069091E60645
:10121000FC0182810E94011A8AE08C8380919606EB
:10122000909197069E01295F3F4F6AE0A9010E94B5
:10123000192080919606909197062F816C81422FFC
:101240000E94A4238091E4068F5F8093E40680913E
:10125000E4060E946F1B8091FC0489838981279694
:101260000FB6F894DEBF0FBECDBFCF91DF910895CA
:10127000DF93CF93CDB7DEB70E945E1B1092E406DA
:101280008091E4060E949E1BCF91DF910895DF9329
:10129000CF93CDB7DEB78FEF0E949E1BCF91DF912A
:1012A0000895DF93CF93CDB7DEB727970FB6F894A5
:1012B000DEBF0FBECDBF8091FB0489838091E50620
:1012C0009091E606FC018081918183309105C9F4FB
:1012D0008BE08A8380919606909197069E012B5F02
:1012E0003F4F6BE0A9010E941920809196069091D2
:1012F00097062D816A81422F0E94A4238091FC04CD
:1013000089838091E5069091E606FC0180819181B8
:1013100084309105C9F48AE08B8380919606909180
:1013200097069E012A5F3F4F6AE0A9010E9419209B
:1013300080919606909197062E816B81422F0E9494
:10134000A4238091FC0489838091E5069091E606B0
:10135000FC0180819181009709F07FC08091E506B2
:101360009091E606FC0182818A330CF076C0809170
:10137000E5069091E606FC01828180330CF46DC095
:101380008091E406992787FD909581309105B1F011
:10139000823091051CF4009741F053C083309105D1
:1013A000D9F08430910579F14CC08091E506909197
:1013B000E606FC0182810E940E1A43C08091E50678
:1013C0009091E606FC0182810E941B1A8091E4063E
:1013D0008F5F8093E40635C08091E5069091E60624
:1013E000FC01828186334CF48091E5069091E606FB
:1013F000FC0182810E94281A24C08091E406815059
:101400008093E4061EC08091E5069091E606FC01FB
:1014100082810E94351A8AE08C8380919606909191
:1014200097069E01295F3F4F6AE0A9010E9419209B
:1014300080919606909197062F816C81422F0E9491
:10144000A4238091E4068F5F8093E4068091E406F4
:101450000E949E1B8091FC048983898127960FB688
:10146000F894DEBF0FBECDBFCF91DF910895DF931B
:10147000CF93CDB7DEB786E591E00E944E340E944F
:10148000FF1A80919406909195060E94AB0E809170
:10149000E2069091E3060E94FF0B0E94EA0D0E9473
:1014A000310ECF91DF910895DF93CF93CDB7DEB7A3
:1014B00084E691E00E944E340E94C90E0E94430EC1
:1014C0000E941D0E0E94C619CF91DF910895DF93EF
:1014D000CF9300D000D00F92CDB7DEB78091FB0440
:1014E00089838091E5069091E606FC0180819181D7
:1014F00088309105C9F489E08A838091960690919D
:1015000097069E012C5F3F4F69E0A9010E941920B8
:1015100080919606909197062C816A81422F0E94B5
:10152000A4238091FC0489838091E5069091E606CE
:10153000FC018081918185309105C9F48EE08B8317
:1015400080919606909197069E012B5F3F4F6EE02B
:10155000A9010E94192080919606909197062D81ED
:101560006B81422F0E94A4238091FC048983809187
:10157000E5069091E606FC01808191818630910517
:1015800049F40E94421A0E94941A0E94D417809132
:10159000FC0489838091E5069091E606FC01808138
:1015A00091818A30910529F40E94ED158091FC0407
:1015B000898389810F900F900F900F900F90CF919A
:1015C000DF910895DF93CF93CDB7DEB70E94F41B70
:1015D000CF91DF910895DF93CF93CDB7DEB7CF9151
:1015E000DF910895DF93CF9300D00F92CDB7DEB790
:1015F0008091FB0489838091E5069091E606FC01C9
:101600008081918183309105C9F489E08A8380913A
:101610009606909197069E012D5F3F4F69E0A901C4
:101620000E94192080919606909197062B816A81DD
:10163000422F0E94A4238091FC04898389810F900A
:101640000F900F90CF91DF910895DF93CF93CDB797
:10165000DEB70E944E19CF91DF910895DF93CF93AB
:10166000CDB7DEB7CF91DF910895DF93CF930F927F
:10167000CDB7DEB78091FB04898389810F90CF912C
:10168000DF910895DF93CF93CDB7DEB780EC96E07E
:10169000909397068093960680EC96E021E731E0E0
:1016A000B90140E120E00E94D61ECF91DF9108955C
:1016B000DF93CF93CDB7DEB780EC96E00E94251F75
:1016C000CF91DF910895DF93CF9300D000D0CDB7B5
:1016D000DEB79A8389837C836B838B819C81909313
:1016E000E6068093E50689819A810E94951F0F90F6
:1016F0000F900F900F90CF91DF910895DF93CF93CC
:1017000000D0CDB7DEB7F8948091E9069091EA0653
:101710009A838983789489819A810F900F90CF91D1
:10172000DF910895DF93CF93CDB7DEB78091E806C0
:10173000882309F05AC087E390E0FC011082809171
:10174000B8069091B906181619060CF04EC0809193
:10175000B8069091B9062AE233E0A901481B590B5B
:10176000CA019093EC068093EB068091EB06909172
:10177000EC068F30910534F48FE090E09093EC0606
:101780008093EB068091EB069091EC068C3F9105DF
:101790008CF482EB90E02091EB063091EC063CEF6C
:1017A000532F521B252FFC0120831092EC06109220
:1017B000EB060EC08091EB069091EC068C5F90409A
:1017C0009093EC068093EB0682EB90E0FC01108294
:1017D00080E790E022E0FC01208381EB90E025E0AF
:1017E000FC01208381E08093E806CF91DF9108958A
:1017F000DF93CF93CDB7DEB7CF91DF910895DF931D
:10180000CF9300D0CDB7DEB79A838983F8948981CE
:101810009A819093B9068093B80678940F900F90B0
:10182000CF91DF9108951F920F920FB60F9211245E
:101830002F933F934F935F936F937F938F939F93D8
:10184000AF93BF93EF93FF93DF93CF93CDB7DEB703
:10185000F8948091EB069091EC06009709F581EBE6
:1018600090E0FC01108280E790E0FC0110828BE2A6
:1018700090E02BE230E0F90120812061FC0120831F
:101880008AE090E00E9415268BE290E02BE230E0A7
:10189000F90120812F7EFC0120831092E80622C0EE
:1018A0008091EB069091EC068C3F91058CF482EBD5
:1018B00090E02091EB063091EC063CEFF32FF21B09
:1018C0002F2FFC0120831092EC061092EB060AC029
:1018D0008091EB069091EC068C5F90409093EC0623
:1018E0008093EB067894CF91DF91FF91EF91BF91B8
:1018F000AF919F918F917F916F915F914F913F91A8
:101900002F910F900FBE0F901F9018951F920F925E
:101910000FB60F9211248F939F93EF93FF93DF9352
:10192000CF93CDB7DEB788E790E0FC01808191814D
:101930009093EE068093ED068091E7068F5F80938B
:10194000E7068091E7068E3129F41092E70681E0E0
:101950008093DE06CF91DF91FF91EF919F918F9160
:101960000F900FBE0F901F9018951F920F920FB6F9
:101970000F9211242F933F934F935F936F937F9315
:101980008F939F93AF93BF93EF93FF93DF93CF9387
:10199000CDB7DEB7F89489E290E0FC018081882F12
:1019A00090E084709070009719F00E94F80B02C0CC
:1019B0000E94920B7894CF91DF91FF91EF91BF91AC
:1019C000AF919F918F917F916F915F914F913F91D7
:1019D0002F910F900FBE0F901F9018951F920F928E
:1019E0000FB60F921124DF93CF93CDB7DEB7CF910F
:1019F000DF910F900FBE0F901F9018951F920F92BE
:101A00000FB60F9211242F933F934F935F936F93D1
:101A10007F938F939F93AF93BF93EF93FF93DF9346
:101A2000CF93CDB7DEB78091E9069091EA06019792
:101A30009093EA068093E9068091E9069091EA0680
:101A40001816190634F00E94C90E81E08093B6067C
:101A500003C081E080939306CF91DF91FF91EF91D6
:101A6000BF91AF919F918F917F916F915F914F91B6
:101A70003F912F910F900FBE0F901F901895DF93FD
:101A8000CF93CDB7DEB781E290E020EFFC01208359
:101A900082E290E020EEFC0120838EE790E02FE0D0
:101AA000FC0120838AE290E02AE230E0F901208103
:101AB0002B7FFC0120838BE290E02BE230E0F901E8
:101AC00020812B7FFC0120838BE290E02BE230E031
:101AD000F90120812F7EFC0120838AE290E02AE236
:101AE00030E0F90120812061FC0120838BE290E04D
:101AF0002BE230E0F90120812F7EFC01208389E672
:101B000090E021E0FC0120838DE390E0FC01108255
:101B10001092930680E890E0FC01108281E890E04A
:101B200028E0FC01208382E890E0FC01108288E834
:101B300090E020E33AE2FC013183208384E890E0E6
:101B4000FC01118210828FE690E0FC01108284E497
:101B500090E022E0FC01208387E490E02FEFFC017D
:101B6000208386E490E0FC01108285E490E0FC0193
:101B700010828EE690E0FC0110821092E80680EB65
:101B800090E022E0FC01208381EB90E0FC011082D8
:101B900086EB90E0FC01108283EB90E02CEFFC01DF
:101BA000208382EB90E0FC01108280E790E0FC0152
:101BB00010828AE790E027E0FC0120831092DE0685
:101BC0001092E7061092EE061092ED067894CF91EF
:101BD000DF910895DF93CF93CDB7DEB78AE790E02A
:101BE00027E0FC0120831092DE061092E706809128
:101BF000DF06813031F48CE790E021E4FC012083A2
:101C000005C08CE790E022E4FC0120838AE790E0A5
:101C10002FEAFC0120838BE790E023E0FC01208386
:101C200085E490E025E0FC0120838EE690E022E050
:101C3000FC012083CF91DF910895DF93CF93CDB73F
:101C4000DEB78AE790E027E0FC01208385E490E09E
:101C5000FC0110828EE690E0FC011082CF91DF91B2
:101C60000895DF93CF93CDB7DEB70E94C3168CE300
:101C700090E0FC0110828DE390E021E0FC012083E4
:101C8000CF91DF910895DF93CF93CDB7DEB78DE38A
:101C900090E0FC011082F8940E94F80B7894CF91A8
:101CA000DF910895DF93CF9300D0CDB7DEB7F894DE
:101CB0008091ED069091EE069A83898378948981CC
:101CC0009A810F900F90CF91DF910895DF93CF937A
:101CD00000D000D000D0CDB7DEB780E090E0DC01CE
:101CE00089839A83AB83BC830E94520E9E838D832B
:101CF0008D819E81AA2797FDA095BA2FBC01CD01A9
:101D00000E94E12CDC01CB01BC01CD0120E030E0E0
:101D100040EA50E40E94952DDC01CB01BC01CD01CD
:101D200020E030EC4FE754E40E94462CDC01CB016C
:101D300089839A83AB83BC8389819A81AB81BC817F
:101D4000BC01CD0126960FB6F894DEBF0FBECDBF05
:101D5000CF91DF910895DF93CF9300D0CDB7DEB759
:101D60009A8389831092B60689819A819093EA06B4
:101D70008093E9068FE690E022E0FC01208381E871
:101D800090E02DE0FC0120830F900F90CF91DF9128
:101D90000895DF93CF93CDB7DEB781E890E028E0D8
:101DA000FC0120838FE690E0FC011082CF91DF914F
:101DB0000895DF93CF9300D0CDB7DEB71A82198292
:101DC00088E290E028E230E0F9012081237FFC01E5
:101DD000208382E290E022E230E0F90120812F733B
:101DE000FC01208382E290E022E230E0F9012081D0
:101DF0002068FC01208388E090E00E94152686E29E
:101E000090E0FC018081807F8A838A81882329F188
:101E10008A81882314F482E389838A81992787FD44
:101E2000909580749070009711F080E389838A8187
:101E3000992787FD909580729070009711F088E344
:101E400089838A81992787FD90958071907000978A
:101E500009F4CDC085E38983CAC082E290E022E222
:101E600030E0F90120812F77FC01208388E290E0A7
:101E700028E230E0F90120812460FC01208388E021
:101E800090E00E94152686E290E0FC018081807F30
:101E90008A838A81882329F18A81882314F481E343
:101EA00089838A81992787FD909580749070009727
:101EB00011F085E089838A81992787FD909580724A
:101EC0009070009711F087E389838A81992787FDB5
:101ED000909580719070009709F489C084E389839C
:101EE00086C088E290E028E230E0F90120812B7F73
:101EF000FC01208388E290E028E230E0F9012081B3
:101F00002860FC01208388E090E00E94152686E28C
:101F100090E0FC018081807F8A838A81882329F177
:101F20008A81882314F483E389838A81992787FD32
:101F3000909580749070009711F086E089838A8173
:101F4000992787FD909580729070009711F089E332
:101F500089838A81992787FD909580719070009779
:101F600009F445C086E3898342C088E290E028E214
:101F700030E0F9012081277FFC01208382E290E09C
:101F800022E230E0F90120812064FC01208388E016
:101F900090E00E94152686E290E0FC018081807F1F
:101FA0008A838A81882319F18A81882314F481E045
:101FB00089838A81992787FD909580749070009716
:101FC00011F082E089838A81992787FD909580723C
:101FD0009070009711F083E089838A81992787FDAB
:101FE000909580719070009711F084E089838981C9
:101FF0000F900F90CF91DF910895DF93CF93CDB7DE
:10200000DEB71092EF0681E08093F00687E290E061
:1020100027E230E0F90120812C60FC01208387E277
:1020200090E027E230E0F90120812F70FC0120834D
:1020300081E290E021E230E0F9012081206CFC0196
:10204000208388E290E028E230E0F90120812C60D2
:10205000FC01208388E290E028E230E0F901208151
:102060002F70FC01208382E290E022E230E0F9014F
:102070002081206CFC0120838DE690E020EFFC01A4
:10208000208388E690E028E630E0F9012081246092
:10209000FC0120837894CF91DF9108951F920F92D5
:1020A0000FB60F9211242F933F934F935F936F932B
:1020B0007F938F939F93AF93BF93EF93FF93DF93A0
:1020C000CF93CDB7DEB788E690E0FC0110828DE6B5
:1020D00090E0FC01108286E290E0FC018081882F74
:1020E00090E0807F9070009759F08091F0068823EF
:1020F00021F00E94D90E8093EF061092F00603C0E3
:1021000081E08093F00688E290E028E230E0F90177
:1021100020812C60FC01208382E290E022E230E00A
:10212000F9012081206CFC0120830E940E268BE3A4
:1021300090E0FC0110828DE690E020EFFC0120830E
:1021400088E690E028E630E0F90120812460FC0177
:102150002083CF91DF91FF91EF91BF91AF919F913C
:102160008F917F916F915F914F913F912F910F9040
:102170000FBE0F901F901895DF93CF930F92CDB79E
:10218000DEB7F8948091EF0689831092EF06789479
:1021900089810F90CF91DF9108951F93DF93CF93A3
:1021A000CDB7DEB728970FB6F894DEBF0FBECDBF10
:1021B00080E090E0A8ECB1E489839A83AB83BC8390
:1021C0002091DA063091DB068091D4069091D506F5
:1021D000A901481B590BCA01AA2797FDA095BA2F40
:1021E000BC01CD010E94E12CDC01CB018D839E83DB
:1021F000AF83B8878D819E81AF81B885BF7711E0AD
:10220000BC01CD0120E030E040E85FE30E94912D69
:1022100018160CF010E01123A9F069817A818B81E6
:102220009C812D813E814F8158850E94462CDC0186
:10223000CB018093F1069093F206A093F306B0933E
:10224000F4060BC080E090E0DC018093F1069093EF
:10225000F206A093F306B093F40628960FB6F8940E
:10226000DEBF0FBECDBFCF91DF911F910895DF93E9
:10227000CF9300D00F92CDB7DEB78B8381E097E08C
:1022800060E070E044E050E00E94FB338B8180937B
:10229000010721E037E080E1B90141E00E94312BE4
:1022A000992787FD90959A83898389819A810F90D8
:1022B0000F900F90CF91DF910895DF93CF9300D0CF
:1022C0000F92CDB7DEB78B83198281E392E00E9433
:1022D0004E348DE097E060E070E048E050E00E940E
:1022E000FB332DE037E080E1B90146E00E94842B0A
:1022F0008983809112078A8381E02B819A81291733
:1023000009F080E089838B81682F772767FD7095BE
:102310008A81482F552747FD50958981282F3327DB
:1023200027FD30958DB79EB708970FB6F8949EBFDE
:102330000FBE8DBF8DB79EB70196E1E5F2E0DC01DF
:10234000ED93FC93FC0173836283DC0115965C932F
:102350004E931497FC01378326830E9439348DB73E
:102360009EB708960FB6F8949EBF0FBE8DBF8981A9
:102370000F900F900F90CF91DF910895DF93CF933F
:1023800000D00F92CDB7DEB78B8319821A820AC0B4
:102390008B810E9437118B810E945D1189838A8114
:1023A0008F5F8A838981882319F48A81823084F33C
:1023B00089810F900F900F90CF91DF910895DF9357
:1023C000CF93CDB7DEB72B970FB6F894DEBF0FBE15
:1023D000CDBF8DE097E060E070E048E050E00E9403
:1023E000FB332DE037E080E1B90146E00E94842B09
:1023F000898389818F3F09F08CC0809112078A837D
:1024000080910D0780939D068DE097E001969C8357
:102410008B838B819C81FC01808191819E838D8344
:10242000809110078F838F81882349F58D819E814C
:10243000AA2797FDA095BA2FBC01CD010E94E12CDF
:10244000DC01CB01BC01CD012DEC3CEC4CE85FE3A1
:102450000E94952DDC01CB01BC01CD0120E030E0D4
:1024600040E256E40E94462CDC01CB0180939E069C
:1024700090939F06A093A006B093A10628C08D81DB
:102480009E81AA2797FDA095BA2FBC01CD010E947D
:10249000E12CDC01CB01BC01CD012DEC3CEC4CE886
:1024A0005FE30E94952DDC01CB01BC01CD0120E052
:1024B00030E040E054E40E94462CDC01CB018093E4
:1024C0009E0690939F06A093A006B093A1068091CC
:1024D0009E0690919F06A091A006B091A1068887C4
:1024E0009987AA87BB878A81813019F481E080931C
:1024F000BD068A818830C9F482EA96E02AE932E092
:10250000B90144E150E00E94F23381E08093BA06C1
:102510000CC082EA96E02EEA32E0B9014CE050E0CD
:102520000E94F23381E08093BA062B960FB6F8949E
:10253000DEBF0FBECDBFCF91DF910895DF93CF9364
:102540000F92CDB7DEB780910D0780939D068091E5
:102550000E07882F90E0A0E0B0E0BC01CD010E9402
:10256000DF2CDC01CB0180939E0690939F06A09305
:10257000A006B093A10680911207898389818830D3
:1025800089F48AEB92E00E944E3482EA96E02BEDC9
:1025900032E0B90144E150E00E94F23381E08093DF
:1025A000BA0606C08981833019F083E00E94371192
:1025B0000F90CF91DF910895DF93CF93CDB7DEB722
:1025C00081E080932607CF91DF910895DF93CF9329
:1025D00000D0CDB7DEB780912607853030F48091EA
:1025E00026078F5F8093260712C08DE097E060E09A
:1025F00070E048E050E00E94FB332DE037E080E1DE
:10260000B90146E00E945A2B81E0809326070E9480
:102610007E0B9A83898389819A818F71907000974C
:1026200011F40E94EB160F900F90CF91DF91089557
:10263000AF92BF92CF92DF92EF92FF920F931F93D0
:10264000DF93CF93CDB7DEB760970FB6F894DEBFB8
:102650000FBECDBF69837A838B839C832D833E839A
:102660004F835887E986FA860B871C87AD86BE861E
:10267000CF86D88A8D819E81AF81B88580931907D6
:1026800090931A07A0931B07B0931C0789819A8126
:10269000AB81BC818093F9069093FA06A093FB0668
:1026A000B093FC0689859A85AB85BC8580931E070F
:1026B00090931F07A0932007B09321078D859E85D7
:1026C000AF85B8898093090790930A07A0930B07F9
:1026D000B0930C078D8D9E8DAF8DB8A18093F506BC
:1026E0009093F606A093F706B093F80689A19AA1F5
:1026F000ABA1BCA18093150790931607A093170771
:10270000B093180760E070E080E89FE329A13AA148
:102710004BA15CA10E94462CDC01CB0180930507F4
:1027200090930607A0930707B093080780E090E016
:10273000DC018093270790932807A0932907B09383
:102740002A0710921D070E94CD1080E090E0DC0166
:102750008093220790932307A0932407B093250723
:1027600060960FB6F894DEBF0FBECDBFCF91DF915C
:102770001F910F91FF90EF90DF90CF90BF90AF909F
:102780000895EF92FF920F931F93DF93CF93CDB7EE
:10279000DEB760970FB6F894DEBF0FBECDBF6D8772
:1027A0007E878F87988B8D859E85AF85B889BF770B
:1027B0002091F5063091F6064091F7065091F80603
:1027C00011E0BC01CD010E94422C88230CF010E0E6
:1027D000112349F080E090E0A0E8BFE389839A8369
:1027E000AB83BC8312C080E090E0DC0189839A83D4
:1027F000AB83BC8380E090E0DC018093270790935B
:102800002807A0932907B0932A0780911507909174
:102810001607A0911707B0911807BC01CD012981B7
:102820003A814B815C810E94952DDC01CB01BC017A
:10283000CD012D853E854F8558890E94952DDC015F
:10284000CB0120912707309128074091290750910B
:102850002A07BC01CD010E94DE2BDC01CB01809355
:10286000270790932807A0932907B0932A07809100
:102870001D07882359F481E080931D0780E090E0D4
:10288000DC0189879A87AB87BC8722C02091FD062F
:102890003091FE064091FF06509100076D857E85C0
:1028A0008F8598890E94DD2BDC01CB0120910507E3
:1028B000309106074091070750910807BC01CD01F0
:1028C0000E94952DDC01CB0189879A87AB87BC8755
:1028D0008D859E85AF85B8898093FD069093FE0611
:1028E000A093FF06B09300078091190790911A07F3
:1028F000A0911B07B0911C07BC01CD012D853E8521
:102900004F8558890E94952DDC01CB017C018D01FA
:1029100080911E0790911F07A0912007B091210779
:1029200020912707309128074091290750912A07C5
:10293000BC01CD010E94952DDC01CB019C01AD01B4
:10294000C801B7010E94DE2BDC01CB017C018D01A7
:102950008091090790910A07A0910B07B0910C078D
:10296000BC01CD0129853A854B855C850E94952D5A
:10297000DC01CB019C01AD01C801B7010E94DE2B37
:10298000DC01CB012091F9063091FA064091FB065B
:102990005091FC06BC01CD010E94952DDC01CB01BC
:1029A0008D839E83AF83B88711E06D817E818F8197
:1029B000988520E030E040EF51E40E94912D1816F8
:1029C0000CF010E0112349F080E090E0A0EFB1E4BA
:1029D0008D839E83AF83B88718C011E06D817E819F
:1029E0008F81988520E030E040EF51EC0E94422C2E
:1029F00088230CF010E0112341F080E090E0A0EF7C
:102A0000B1EC8D839E83AF83B8878D819E81AF812A
:102A1000B885BC01CD0160960FB6F894DEBF0FBE3D
:102A2000CDBFCF91DF911F910F91FF90EF9008954F
:102A3000DF93CF93CDB7DEB72E970FB6F894DEBFF6
:102A40000FBECDBF0E94520E9A8389838091D40617
:102A50009091D50629813A81A901481B590BCA01D9
:102A6000AA2797FDA095BA2FBC01CD010E94E12CA9
:102A7000DC01CB012091F1063091F2064091F30682
:102A80005091F406BC01CD010E94952DDC01CB01D3
:102A9000BC01CD0120E030E040E751E40E94DE2B94
:102AA000DC01CB018B839C83AD83BE838091F106D7
:102AB0009091F206A091F306B091F4068F83988767
:102AC000A987BA878B819C81AD81BE818B879C87CA
:102AD000AD87BE87E091D406F091D5066091DA0605
:102AE0007091DB068DB79EB740970FB6F8949EBFE6
:102AF0000FBE8DBF8DB79EB701962FEE32E0DC0181
:102B00002D933C9329813A81DC0113963C932E93BB
:102B100012972F81388549855A85DC0114962D93AB
:102B20003D934D935C931797DC011996FC93EE93BC
:102B30001897FC01738762872B853C854D855E85E0
:102B4000DC011C962D933D934D935C931F970E943F
:102B50003934EDB7FEB770960FB6F894FEBF0FBECE
:102B6000EDBF00D000D000D08DB79EB701962FE109
:102B700033E0DC012D933C932FE030E0FC01338304
:102B8000228328E230E0DC0115963C932E931497C3
:102B90000E943934EDB7FEB736960FB6F894FEBFF3
:102BA0000FBEEDBF8B819C81AD81BE818093D60627
:102BB0009093D706A093D806B093D9068B819C81B9
:102BC000AD81BE81BC01CD012E960FB6F894DEBF5B
:102BD0000FBECDBFCF91DF910895DF93CF93CDB7D7
:102BE000DEB72C970FB6F894DEBF0FBECDBF0E94A4
:102BF0001815DC01CB01209198063091990640917F
:102C00009A0650919B06BC01CD010E94DD2BDC0190
:102C1000CB0189839A83AB83BC8389819A81AB8101
:102C2000BC81BC01CD010E94C113DC01CB0120910C
:102C30002207309123074091240750912507BC01BA
:102C4000CD010E94DE2BDC01CB018D839E83AF83FF
:102C5000B8876D817E818F8198850E94AE2CDC01C2
:102C6000CB019A87898789859A85AA2797FDA095A0
:102C7000BA2FBC01CD010E94E12C9B01AC016D81FA
:102C80007E818F8198850E94DD2BDC01CB018093B2
:102C9000220790932307A0932407B0932507209140
:102CA000B8063091B90689859A85820F931F9C8753
:102CB0008B878B859C850E94FF0B2C960FB6F89412
:102CC000DEBF0FBECDBFCF91DF910895AF92BF920F
:102CD000CF92DF92EF92FF920F931F93DF93CF93E8
:102CE000CDB7DEB78DB79EB708970FB6F8949EBFE5
:102CF0000FBE8DBF2DB73EB72F5F3F4F80E090E0F6
:102D0000A0EAB0E4F90180839183A283B3838AEAC5
:102D100093E1A6E3BFE3F90184839583A683B78398
:102D200066E676E686EE9EEB2DEC3CEC4CE85FE347
:102D30000F2EFDECEF2EFCECFF2EFCE40F2FFEE33C
:102D40001F2FF02D0F2EFDECAF2EFCECBF2EFCE460
:102D5000CF2EFEE3DF2EF02D0E9418138DB79EB705
:102D600008960FB6F8949EBF0FBE8DBF1092BD0699
:102D7000CF91DF911F910F91FF90EF90DF90CF9057
:102D8000BF90AF900895DF93CF93CDB7DEB780E0CB
:102D900090E0DC018093220790932307A0932407FF
:102DA000B093250780E090E0DC01809327079093A3
:102DB0002807A0932907B0932A0780E090E0DC0160
:102DC0008093FD069093FE06A093FF06B093000744
:102DD000CF91DF910895DF93CF93CDB7DEB72E97D4
:102DE0000FB6F894DEBF0FBECDBF8091F106909173
:102DF000F206A091F306B091F40689839A83AB831F
:102E0000BC831E821D828091D4069091D5062D81AF
:102E10003E81A901481B590BCA01AA2797FDA0951D
:102E2000BA2FBC01CD010E94E12CDC01CB01209125
:102E3000F1063091F2064091F3065091F406BC0180
:102E4000CD010E94952DDC01CB01BC01CD0120E01C
:102E500030E040E751E40E94DE2BDC01CB018F83A0
:102E60009887A987BA878F819885A985BA858B8726
:102E70009C87AD87BE8787E393E00E944E344091E4
:102E8000E2065091E3062091DC063091DD068DB715
:102E90009EB70A970FB6F8949EBF0FBE8DBF8DB731
:102EA0009EB7019662E473E0FC01718360836FE07A
:102EB00070E0FC017383628368E270E0FC0175835B
:102EC0006483FC0157834683FC01318720870E947D
:102ED00039344DB75EB7465F5F4F0FB6F8945EBFAB
:102EE0000FBE4DBF4091D4065091D5062091DA0611
:102EF0003091DB0600D000D000D08DB79EB7019690
:102F000065E773E0FC0171836083FC0153834283B6
:102F1000FC01358324830E9439344DB75EB74A5F84
:102F20005F4F0FB6F8945EBF0FBE4DBF80919D06F8
:102F3000482F50E08DB79EB70C970FB6F8949EBF00
:102F40000FBE8DBF2DB73EB72F5F3F4F8EE893E08A
:102F5000F901918380838B859C85AD85BE85F901C0
:102F600082839383A483B58389819A81AB81BC8159
:102F7000F90186839783A087B187F9015387428738
:102F80000E9439344DB75EB7445F5F4F0FB6F89477
:102F90005EBF0FBE4DBF2E960FB6F894DEBF0FBEBC
:102FA000CDBFCF91DF910895DF93CF93CDB7DEB73B
:102FB00061970FB6F894DEBF0FBECDBF0E94660EBC
:102FC000DC01CB0189839A83AB83BC834091B80633
:102FD0005091B9068DB79EB70A970FB6F8949EBF69
:102FE0000FBE8DBF2DB73EB72F5F3F4FCE01059669
:102FF000F901918380838DEB93E0F90193838283C0
:1030000089819A81AB81BC81F90184839583A683F0
:10301000B783F901518740870E9483348DB79EB7EB
:103020000A960FB6F8949EBF0FBE8DBF83E066E090
:1030300040E20E943203CE01059660E20E940E0338
:1030400061960FB6F894DEBF0FBECDBFCF91DF9172
:103050000895DF93CF93CDB7DEB766970FB6F89498
:10306000DEBF0FBECDBF0E94520E9A8389830E949D
:10307000660EDC01CB018B839C83AD83BE836091A4
:10308000B8067091B9068DB79EB70C970FB6F89435
:103090009EBF0FBE8DBF8DB79EB701969E01295F63
:1030A0003F4FFC013183208329EC33E0FC01338363
:1030B00022832B813C814D815E81FC0124833583F9
:1030C0004683578329813A81FC0131872087FC019F
:1030D000738762870E9483348DB79EB70C960FB6B4
:1030E000F8949EBF0FBE8DBF80E20E94FE02CE010B
:1030F000079660E20E940E0366960FB6F894DEBF54
:103100000FBECDBFCF91DF910895DF93CF93CDB7A1
:10311000DEB764970FB6F894DEBF0FBECDBF8091C7
:103120009E0690919F06A091A006B091A10689836A
:103130009A83AB83BC8380919D06882F90E02DB746
:103140003EB72A5030400FB6F8943EBF0FBE2DBF99
:103150002DB73EB72F5F3F4FAE014B5F5F4FF90179
:10316000518340834AED53E0F90153834283F901CF
:103170009583848389819A81AB81BC81F90186839F
:103180009783A087B1870E9483342DB73EB7265F0F
:103190003F4F0FB6F8943EBF0FBE2DBF80E20E9496
:1031A000FE02CE01059660E20E940E0364960FB601
:1031B000F894DEBF0FBECDBFCF91DF910895DF93AE
:1031C000CF93CDB7DEB760970FB6F894DEBF0FBED2
:1031D000CDBF80919D06282F30E000D000D000D0D8
:1031E0008DB79EB70196AE014F5F5F4FFC015183D3
:1031F000408348EE53E0FC0153834283FC01358356
:1032000024830E9483348DB79EB706960FB6F89438
:103210009EBF0FBE8DBF83E068E040E20E94320394
:10322000CE01019660E20E940E0360960FB6F894FC
:10323000DEBF0FBECDBFCF91DF910895DF93CF9357
:10324000CDB7DEB780E20E94EE0285EF93E060E248
:103250000E940E0383E060E040E20E94320389E0B6
:1032600094E060E20E940E03CF91DF910895DF9316
:10327000CF93CDB7DEB780E20E94EE028EE194E0FC
:1032800060E20E940E0380E20E94FE0285E294E06A
:1032900060E20E940E03CF91DF910895DF93CF93F8
:1032A000CDB7DEB780E20E94EE0282E394E060E2F6
:1032B0000E940E0380E20E94FE0282EA96E060E233
:1032C0000E940E03CF91DF910895DF93CF9300D03A
:1032D00000D0CDB7DEB79C838B8380E20E94EE02E4
:1032E0008EE394E060E20E940E0300D000D000D094
:1032F0008DB79EB701969E012F5F3F4FFC01318332
:10330000208323E434E0FC01338322832B813C813E
:10331000FC01358324830E9483348DB79EB70696C3
:103320000FB6F8949EBF0FBE8DBFCE01019660E22E
:103330000E940E0387E494E060E20E940E0383E0A3
:1033400060E040E20E94320382E594E060E20E9485
:103350000E030F900F900F900F90CF91DF91089573
:10336000DF93CF93CDB7DEB78FE090E00E94651971
:10337000CF91DF910895DF93CF93CDB7DEB788E289
:1033800090E00E946519CF91DF910895DF93CF936C
:10339000CDB7DEB780E20E94EE02CF91DF910895B3
:1033A000DF93CF93CDB7DEB780E20E94EE0286E6D0
:1033B00094E060E20E940E0380E20E94FE0287E732
:1033C00094E060E20E940E03CF91DF910895DF93B5
:1033D000CF930F92CDB7DEB7898389810E94DA2619
:1033E0000F90CF91DF910895DF93CF930F92CDB7D8
:1033F000DEB7898389810E9407270F90CF91DF91E3
:103400000895DF93CF930F92CDB7DEB7898389817B
:103410000E9434270F90CF91DF910895DF93CF93CF
:103420000F92CDB7DEB7898389810E94AB270F90B9
:10343000CF91DF910895DF93CF930F92CDB7DEB791
:10344000898389810E94C0270F90CF91DF910895D1
:10345000DF93CF930F92CDB7DEB7898389810E9426
:10346000D5270F90CF91DF910895DF93CF930F92DF
:10347000CDB7DEB7898389810E94EA270F90CF916B
:10348000DF910895DF93CF93CDB7DEB72C970FB6BA
:10349000F894DEBF0FBECDBF8091D6069091D706BF
:1034A000A091D806B091D90689839A83AB83BC8357
:1034B0008DB79EB708970FB6F8949EBF0FBE8DBF0D
:1034C0002DB73EB72F5F3F4FCE010596F90191838F
:1034D00080838FE794E0F9019383828389819A81C5
:1034E000AB81BC81F90184839583A683B7830E9455
:1034F00083348DB79EB708960FB6F8949EBF0FBE63
:103500008DBF81E060E040E20E943203CE0105966B
:1035100060E20E940E032C960FB6F894DEBF0FBE39
:10352000CDBFCF91DF910895DF93CF93CDB7DEB7B5
:1035300061970FB6F894DEBF0FBECDBF0E947E0B21
:103540009A83898389819A812CE330E0B9010E94B2
:103550007E319B01C901AA2797FDA095BA2F8B83C5
:103560009C83AD83BE838B819C8198878F83998157
:103570002B8184EC289F802D1124890F89878985D0
:10358000282F332727FD30958DB79EB708970FB6A4
:10359000F8949EBF0FBE8DBF8DB79EB70196AE014A
:1035A000465F5F4FFC015183408346E854E0FC01D5
:1035B000538342834F815885FC0155834483FC012A
:1035C000378326830E9483348DB79EB708960FB643
:1035D000F8949EBF0FBE8DBF81E069E040E20E947B
:1035E0003203CE010A9660E20E940E0361960FB686
:1035F000F894DEBF0FBECDBFCF91DF910895DF936A
:10360000CF93CDB7DEB780E20E94EE028FE894E060
:1036100060E20E940E0380E061E140E20E9432031A
:103620008BE297E060E20E940E0383E060E040E2FC
:103630000E94320388E994E060E20E940E03CF9179
:10364000DF910895DF93CF93CDB7DEB780E20E947C
:10365000EE028FE994E060E20E940E0380E20E9495
:10366000FE028BEA94E060E20E940E0380E061E1DA
:1036700040E20E9432038BE297E060E20E940E0378
:1036800083E060E040E20E9432038AEB94E060E273
:103690000E940E03CF91DF910895DF93CF93CDB7B2
:1036A000DEB780E060E040E20E94320382EC94E00A
:1036B00060E20E940E03CF91DF910895DF93CF93D4
:1036C000CDB7DEB780E060E040E20E9432038DECCF
:1036D00094E060E20E940E03CF91DF910895DF93A2
:1036E000CF930F92CDB7DEB7898381E062E040E2ED
:1036F0000E9432038091910660E20E9482038091D1
:10370000E00660E20E9482038091E10660E20E948E
:1037100082038981882364F0898183304CF4898114
:103720008E5F982F81E0692F40E20E945D0302C006
:103730000E9476030F90CF91DF910895DF93CF938E
:103740000F92CDB7DEB7898381E068E040E20E9446
:1037500032038091B70660E20E9482038091BC062A
:1037600060E20E9482038DE660E20E948203809103
:103770009C0660E20E9482038091BE0660E20E9485
:1037800082038981882364F0898185304CF48981A2
:10379000885F982F81E0692F40E20E945D0302C09C
:1037A0000E9476030F90CF91DF910895DF93CF931E
:1037B000CDB7DEB78091DF06882351F48BE297E026
:1037C00028ED34E0B90144E050E00E94F23309C032
:1037D0008BE297E02CED34E0B90144E050E00E9428
:1037E000F233CF91DF910895DF93CF93CDB7DEB75A
:1037F00080E20E94EE0280EE94E060E20E940E03FE
:1038000083E060E040E20E94320387EE94E060E2F1
:103810000E940E03CF91DF910895DF93CF9300D0E4
:1038200000D000D0CDB7DEB79E838D83198264C1EE
:103830008D819E81FC01258136818981882F90E0D0
:10384000880F991FAC01440F551F440F551F440F9B
:10385000551FBA01681B790BCB01820F931FFC0126
:1038600014868BE090E09C838B8340C08D819E8189
:10387000FC01258136818981882F90E0880F991F6E
:10388000AC01440F551F440F551F440F551FBA017B
:10389000681B790BCB01280F391F8D819E81FC019C
:1038A000458156818981882F90E0880F991FBC013E
:1038B000660F771F660F771F660F771FFB01E81BE8
:1038C000F90BCF01480F591F8B819C810197840F01
:1038D000951FFC0140818B819C81820F931FFC010D
:1038E00040838B819C8101979C838B838B819C81FE
:1038F000181619060CF4BACF8D819E81FC01258122
:1039000036818981882F90E0880F991FAC01440F80
:10391000551F440F551F440F551FBA01681B790BE3
:10392000CB01820F931F2981FC0120838D819E8111
:10393000FC01258136818981882F90E0880F991FAD
:10394000AC01440F551F440F551F440F551FBA01BA
:10395000681B790BCB01820F931FFC0124852F5F1D
:10396000FC01248789818A83ACC08BE090E09C8332
:103970008B8340C08D819E81FC01258136818981A8
:10398000882F90E0880F991FAC01440F551F440FFA
:10399000551F440F551FBA01681B790BCB01280F27
:1039A000391F8D819E81FC01458156818981882F37
:1039B00090E0880F991FBC01660F771F660F771F75
:1039C000660F771FFB01E81BF90BCF01480F591F4A
:1039D0008B819C810197840F951FFC0140818B8115
:1039E0009C81820F931FFC0140838B819C810197F6
:1039F0009C838B838B819C81181619060CF4BACF9B
:103A00008D819E81FC01258136818981882F90E0FE
:103A1000880F991FAC01440F551F440F551F440FC9
:103A2000551FBA01681B790BCB01A901480F591F1B
:103A30008D819E81FC01628173818A81282F30E013
:103A4000C901880F991F820F931F880F991F880F34
:103A5000991F860F971FFC018181FA0180838D8158
:103A60009E81FC01258136818981882F90E0880F15
:103A7000991FAC01440F551F440F551F440F551F8C
:103A8000BA01681B790BCB01820F931FFC012485BF
:103A90002F5FFC0124878D819E81FC01428153812F
:103AA0008A81282F30E0C901880F991F820F931F48
:103AB000880F991F880F991F840F951FFC01818122
:103AC0008A838D819E81FC01428153818A81282FC6
:103AD00030E0C901880F991F820F931F880F991F2B
:103AE000880F991F840F951FFC0181818F3F09F07A
:103AF0003CCF89818F5F89838D819E81FC0191817B
:103B00008981891708F494CE26960FB6F894DEBF03
:103B10000FBECDBFCF91DF910895DF93CF9300D03B
:103B20000F92CDB7DEB79B838A8319821DC08A812D
:103B30009B81FC01258136818981882F90E0880F47
:103B4000991FAC01440F551F440F551F440F551FBB
:103B5000BA01681B790BCB01820F931F2FEFFC0179
:103B6000258789818F5F89838A819B81FC0191816F
:103B700089818917E0F20F900F900F90CF91DF911C
:103B80000895DF93CF9300D000D0CDB7DEB79B83ED
:103B90008A836C838A819B81FC01428153818C8161
:103BA000282F30E0C901880F991F820F931F880FBB
:103BB000991F880F991F840F951FFC01868197819B
:103BC0000097C1F08A819B81FC01428153818C81E5
:103BD000282F30E0C901880F991F820F931F880F8B
:103BE000991F880F991F840F951FFC01868197816B
:103BF000FC0109958A819B81FC01428153818C8162
:103C0000282F30E0C901880F991F820F931F880F5A
:103C1000991F880F991F840F951FFC01808591853E
:103C20000097C1F08A819B81FC01428153818C8184
:103C3000282F30E0C901880F991F820F931F880F2A
:103C4000991F880F991F840F951FFC01808591850E
:103C5000FC0109958A819B812C81FC0124838A8146
:103C60009B81FC01428153818C81282F30E0C90166
:103C7000880F991F820F931F880F991F880F991F14
:103C8000840F951FFC018281898385C08A819B8175
:103C9000FC01428153818981282F332727FD3095EC
:103CA000C901880F991F820F931F880F991F880FD2
:103CB000991F840F951FFC01868197810097D1F091
:103CC0008A819B81FC01428153818981282F33277E
:103CD00027FD3095C901880F991F820F931F880F08
:103CE000991F880F991F840F951FFC01868197816A
:103CF000FC0109958A819B81FC0142815381898164
:103D0000282F332727FD3095C901880F991F820F6F
:103D1000931F880F991F880F991F840F951FFC010F
:103D2000808591850097D1F08A819B81FC01428139
:103D300053818981282F332727FD3095C901880FAA
:103D4000991F820F931F880F991F880F991F840F47
:103D5000951FFC0180859185FC01099529818A8147
:103D60009B81FC0124838A819B81FC0142815381D8
:103D70008981282F332727FD3095C901880F991F86
:103D8000820F931F880F991F880F991F840F951F0B
:103D9000FC018281898389818F3F09F077CF0F9061
:103DA0000F900F900F90CF91DF910895DF93CF93F5
:103DB00000D000D000D0CDB7DEB79A8389837C8352
:103DC0006B834D832E8389819A812D81FC01218310
:103DD00089819A812B813C81FC01338322838981F3
:103DE0009A81FC018181882F90E0880F991F9C01A6
:103DF000220F331F220F331F220F331FA901481B2D
:103E0000590BCA010E94DC319C0189819A81FC0115
:103E10003683258389819A810E940D1C89819A812C
:103E20000E948D1D89819A816E810E94C11D8981A8
:103E30009A812FEFFC01238B26960FB6F894DEBFF4
:103E40000FBECDBFCF91DF910895DF93CF9300D008
:103E5000CDB7DEB79A83898389819A81FC018581F8
:103E600096810E9476320F900F90CF91DF91089546
:103E7000DF93CF9300D000D000D0CDB7DEB79C83C6
:103E80008B836D834E83198219828B819C81FC0107
:103E9000258136818E81882F90E0880F991FAC0193
:103EA000440F551F440F551F440F551FBA01681B7F
:103EB000790BCB01820F931FFC01848581508A838B
:103EC00027C08B819C81FC01258136818E81882FC2
:103ED00090E0880F991FAC01440F551F440F551FE8
:103EE000440F551FBA01681B790BCB01280F391FEE
:103EF0008A81992787FD9095820F931FFC019081FD
:103F00008D81981711F481E089838A8181508A8399
:103F10008A818823B4F6898126960FB6F894DEBF8D
:103F20000FBECDBFCF91DF910895DF93CF9300D027
:103F300000D00F92CDB7DEB79D838C838C819D819D
:103F40002FEFFC01238B8C819D81079660E070E050
:103F50004CE050E00E94FB331A828C819D81FC0171
:103F60008481898354C08C819D81FC018389282FA1
:103F70002F5F8C819D81FC01238B8C819D81FC01B5
:103F80008389992787FD909549812C813D81820FF6
:103F9000931F0796FC0140838C819D81FC01428127
:103FA00053818981282F332727FD3095C901880F38
:103FB000991F820F931F880F991F880F991F840FD5
:103FC000951FFC0184819581FC0109958B8390915B
:103FD000FC0481E02B81291709F080E08A838C8121
:103FE0009D81FC01428153818981282F332727FD40
:103FF0003095C901880F991F820F931F880F991F51
:10400000880F991F840F951FFC0181818983898105
:104010008F3F31F09A8181E08927882309F0A3CF6F
:104020008A810F900F900F900F900F90CF91DF919A
:104030000895DF93CF93CDB7DEB728970FB6F894E6
:10404000DEBF0FBECDBF9D838C836E8358874F83A9
:104050008FEF8B831A821982A0C02C813D818981C8
:104060009A81820F931F0796FC0180818B838C813C
:104070009D81FC01428153818B81282F30E0C90151
:10408000880F991F820F931F880F991F880F991F00
:10409000840F951FFC01828593850097C1F08C8168
:1040A0009D81FC01428153818B81282F30E0C90121
:1040B000880F991F820F931F880F991F880F991FD0
:1040C000840F951FFC0182859385FC0109958F81E2
:1040D00098852B81FC0120838C819D81FC0142818C
:1040E00053818C819D81FC01628173818B81282F9A
:1040F00030E0C901880F991F820F931F880F991F05
:10410000880F991F860F971FFC018181282F332765
:1041100027FD3095C901880F991F820F931F880FC3
:10412000991F880F991F840F951FFC018381882395
:1041300079F18C819D81FC01458156818C819D8125
:10414000FC01628173818B81282F30E0C901880FC7
:10415000991F820F931F880F991F880F991F860F31
:10416000971FFC018181992787FD9095880F991FE2
:104170009C01220F331F220F331F220F331FB9015F
:10418000681B790BCB01840F951F2B81FC012587C0
:1041900089819A8101969A8389838C819D81FC0112
:1041A0008389282F332727FD309589819A81281705
:1041B00039070CF052CF8C819D81FC0142815381E3
:1041C0008B81282F30E0C901880F991F820F931F20
:1041D000880F991F880F991F840F951FFC018181FB
:1041E0008B83A7C08C819D81FC01428153818B818F
:1041F000282F30E0C901880F991F820F931F880F65
:10420000991F880F991F840F951FFC018285938544
:104210000097C1F08C819D81FC01428153818B818B
:10422000282F30E0C901880F991F820F931F880F34
:10423000991F880F991F840F951FFC018285938514
:10424000FC0109958F8198852B81FC0120838C814D
:104250009D81FC01428153818B81282F30E0C9016F
:10426000880F991F820F931F880F991F880F991F1E
:10427000840F951FFC0181818B838C819D81FC01C2
:10428000428153818C819D81FC01628173818B818C
:10429000282F30E0C901880F991F820F931F880FC4
:1042A000991F880F991F860F971FFC018181282F66
:1042B000332727FD3095C901880F991F820F931F5F
:1042C000880F991F880F991F840F951FFC01838108
:1042D000882379F18C819D81FC01458156818C81F7
:1042E0009D81FC01628173818B81282F30E0C9019F
:1042F000880F991F820F931F880F991F880F991F8E
:10430000860F971FFC018181992787FD9095880F63
:10431000991F9C01220F331F220F331F220F331FBF
:10432000B901681B790BCB01840F951F2B81FC0110
:1043300025872B818C819D81622F4E810E94381FA1
:10434000982F81E08927882309F04CCF9B818E81AB
:10435000981709F091C08C819D81FC0142815381A5
:104360008B81282F30E0C901880F991F820F931F7E
:10437000880F991F880F991F840F951FFC01828554
:1043800093850097C1F08C819D81FC01428153810E
:104390008B81282F30E0C901880F991F820F931F4E
:1043A000880F991F880F991F840F951FFC01828524
:1043B0009385FC0109958C819D812B81FC012083D3
:1043C0008C819D81FC01428153818C819D81FC0106
:1043D000628173818B81282F30E0C901880F991F7A
:1043E000820F931F880F991F880F991F860F971FA1
:1043F000FC018181282F332727FD3095C901880FC3
:10440000991F820F931F880F991F880F991F840F80
:10441000951FFC018381882379F18C819D81FC01AA
:10442000458156818C819D81FC01628173818B81E4
:10443000282F30E0C901880F991F820F931F880F22
:10444000991F880F991F860F971FFC01818199275B
:1044500087FD9095880F991F9C01220F331F220F13
:10446000331F220F331FB901681B790BCB01840F57
:10447000951F2B81FC01258728960FB6F894DEBF87
:104480000FBECDBFCF91DF910895DF93CF9300D0C2
:1044900000D000D0CDB7DEB79C838B836D834E8375
:1044A0008E8189838B819C81FC01428153818B8128
:1044B0009C81FC01258136818D81882F90E0880FB9
:1044C000991FBC01660F771F660F771F660F771F56
:1044D000FB01E81BF90BCF01280F391F8981882FB9
:1044E00090E0820F931FFC018081282F332727FD46
:1044F0003095C901880F991F820F931F880F991F4C
:10450000880F991F840F951FFC0180859185009766
:10451000B9F18B819C81FC01428153818B819C810B
:10452000FC01258136818D81882F90E0880F991FAD
:10453000BC01660F771F660F771F660F771FFB01A1
:10454000E81BF90BCF01280F391F8981882F90E0D4
:10455000820F931FFC018081282F332727FD309580
:10456000C901880F991F820F931F880F991F880F09
:10457000991F840F951FFC0180859185FC01099589
:1045800089818F5F89838981282F30E08B819C818D
:10459000FC01458156818D81882F90E0880F991FFD
:1045A000BC01660F771F660F771F660F771FFB0131
:1045B000E81BF90BCF01840F951FFC018485992717
:1045C00087FD90950197821793070CF06BCF8D8133
:1045D0008A837CC08B819C81FC01258136818A8104
:1045E000882F90E0880F991FAC01440F551F440F8E
:1045F000551F440F551FBA01681B790BCB01820F61
:10460000931FFC0185858F3FD9F08B819C81FC0134
:10461000258136818A81882F90E0880F991FAC010F
:10462000440F551F440F551F440F551FBA01681BF7
:10463000790BCB01820F931FFC0185858A8316C0FD
:104640008B819C81FC01428153818A81282F30E03B
:10465000C901880F991F820F931F880F991F880F18
:10466000991F840F951FFC0182818A838B819C8115
:10467000FC01428153818A81282F30E0C901880FD3
:10468000991F820F931F880F991F880F991F840FFE
:10469000951FFC01808591850097C1F08B819C81DD
:1046A000FC01428153818A81282F30E0C901880FA3
:1046B000991F820F931F880F991F880F991F840FCE
:1046C000951FFC0180859185FC0109958B819C815A
:1046D000FC01258136818A81882F90E0880F991FFF
:1046E000AC01440F551F440F551F440F551FBA010D
:1046F000681B790BCB01820F931FFC0185858F3FCF
:1047000009F068CF8B819C81FC01428153818A81B1
:10471000282F30E0C901880F991F820F931F880F3F
:10472000991F880F991F840F951FFC0182818F3F6D
:1047300009F050CF8A8126960FB6F894DEBF0FBEDF
:10474000CDBFCF91DF910895DF93CF93CDB7DEB783
:1047500028970FB6F894DEBF0FBECDBF9E838D8322
:104760006F8348878FEF898328858D819E81622F93
:104770004F810E94381F882309F450C01A8230C02C
:104780008D819E81FC01258136818F81882F90E06B
:10479000880F991FAC01440F551F440F551F440F3C
:1047A000551FBA01681B790BCB01280F391F8A816D
:1047B000992787FD9095820F931FFC018081282FF8
:1047C000332727FD30958885882F90E028173907F3
:1047D00021F48A8189830000DDC08A818F5F8A830A
:1047E0008D819E81FC01258136818F81882F90E00B
:1047F000880F991FAC01440F551F440F551F440FDC
:10480000551FBA01681B790BCB01820F931FFC0166
:1048100094858A8189170CF4B3CFBCC08D819E81A9
:10482000FC01258136818F81882F90E0880F991FA8
:10483000AC01440F551F440F551F440F551FBA01BB
:10484000681B790BCB01820F931FFC0164858D815E
:104850009E81FC01258136818D819E81FC018081B4
:10486000882F90E0880F991FAC01440F551F440F0B
:10487000551F440F551FFA01E81BF90BCF01820F9A
:10488000931FFC0184858617E4F48D819E81FC01D1
:10489000258136818885882F90E0880F991FAC018B
:1048A000440F551F440F551F440F551FBA01681B75
:1048B000790BCB01820F931FFC01848581508C837F
:1048C0001BC08D819E81FC01258136818F81882FBF
:1048D00090E0880F991FAC01440F551F440F551FDE
:1048E000440F551FBA01681B790BCB01820F931F30
:1048F000FC01848581508C831B8245C08B81898318
:104900008D819E81FC01258136818885882F90E0EC
:10491000880F991FAC01440F551F440F551F440FBA
:10492000551FBA01681B790BCB01280F391F8B81EA
:10493000992787FD9095820F931FFC0160818D81DF
:104940009E81FC01258136818F81882F90E0880F20
:10495000991FAC01440F551F440F551F440F551F9D
:10496000FA01E81BF90BCF01280F391F8B8199271A
:1049700087FD9095820F931FFC018081681749F491
:104980008B818F5F8B839B818C8189170CF0B6CFD5
:1049900001C0000029818D819E816F81422F0E947C
:1049A0004522282F8D819E81FC01248328960FB6F5
:1049B000F894DEBF0FBECDBFCF91DF910895DF9396
:1049C000CF9300D00F92CDB7DEB79A8389836B83E4
:1049D00000008FE390E0FC018081882F90E08270DE
:1049E00090700097B1F781E490E029813A81FC0151
:1049F0003183208380E490E02B81FC012083F894B4
:104A0000FA9AF99A78940F900F900F90CF91DF91C6
:104A10000895DF93CF9300D0CDB7DEB79A83898313
:104A200000008FE390E0FC018081882F90E082708D
:104A300090700097B1F781E490E029813A81FC0100
:104A4000318320838FE390E02FE330E0F901208170
:104A50002160FC01208380E490E0FC0180810F90C4
:104A60000F90CF91DF910895DF93CF9300D000D0C6
:104A700000D0CDB7DEB79D838C836E8319828C8185
:104A80009D819B838A832E818A819B81622F0E94D4
:104A9000DF248A819B810E94092589839E818981E7
:104AA000981711F18E81482F50E08981282F30E02E
:104AB00000D000D000D08DB79EB701966DEF74E0A6
:104AC000FC0171836083FC0153834283FC013583C5
:104AD00024830E9439348DB79EB706960FB6F8949A
:104AE0009EBF0FBE8DBF16C08981282F30E000D039
:104AF00000D08DB79EB7019646E255E0FC01518388
:104B00004083FC01338322830E9439340F900F903D
:104B10000F900F9026960FB6F894DEBF0FBECDBF54
:104B2000CF91DF910895DF93CF9300D000D00F9203
:104B3000CDB7DEB79D838C838C819D819A838983D9
:104B400089819A810E9409258B838B810F900F9018
:104B50000F900F900F90CF91DF910895DF93CF9337
:104B6000CDB7DEB727970FB6F894DEBF0FBECDBF27
:104B70009F838E838E819F819A8389831D821C826D
:104B800089819A810E9409258B838B81882F90E0EF
:104B90009D838C8389819A8101960E9409258B834C
:104BA000CE01049601962B81FC0120838C819D818E
:104BB00027960FB6F894DEBF0FBECDBFCF91DF9121
:104BC0000895DF93CF9300D000D000D0CDB7DEB7EB
:104BD0009C838B837E836D838B819C819A83898365
:104BE0008D819E81282F89819A81622F0E94DF24E6
:104BF00089819A8101969E012B5F3F4F2F5F3F4F26
:104C0000F9012081622F0E94DF2426960FB6F894C6
:104C1000DEBF0FBECDBFCF91DF910895DF93CF935D
:104C2000CDB7DEB7CF91DF910895DF93CF9300D05A
:104C30000F92CDB7DEB79B838A831982000021E0F3
:104C40008A819B81009709F420E08A819B810197EA
:104C50009B838A83222399F70F900F900F90CF9117
:104C6000DF910895DF93CF9300D00F92CDB7DEB7D9
:104C700084E090E00E94932589838981282F33273F
:104C800027FD309500D000D08DB79EB701964DE33B
:104C900055E0FC0151834083FC01338322830E9451
:104CA00039340F900F900F900F9085E090E00E94A4
:104CB00093258A838A81282F332727FD309500D0BA
:104CC00000D08DB79EB7019647E555E0FC015183B2
:104CD0004083FC01338322830E9439340F900F906C
:104CE0000F900F9086E090E00E9493258B838B813C
:104CF000282F332727FD309500D000D08DB79EB7E1
:104D0000019640E755E0FC0151834083FC01338369
:104D100022830E9439340F900F900F900F900F90C4
:104D20000F900F90CF91DF910895DF93CF93CDB780
:104D3000DEB780919106482F552747FD509524E610
:104D400030E0429FC001439F900D529F900D11246F
:104D50009C01205C32418091E006992787FD909567
:104D6000880F991FAC01440F551F440F551F840F26
:104D7000951F805E9140280F391F8091E106992789
:104D800087FD9095C097820F931FAA2797FDA09546
:104D9000BA2FBC01CD010E94E12CDC01CB01809334
:104DA000980690939906A0939A06B0939B06CF918C
:104DB000DF910895DF93CF930F92CDB7DEB789834C
:104DC0008981282F332727FD309500D000D08DB75B
:104DD0009EB7019647E855E0FC0151834083FC01F2
:104DE000338322830E9439340F900F900F900F90DD
:104DF000298184E090E0622F0E943425898180938C
:104E000091060E9495260F90CF91DF910895DF9330
:104E1000CF930F92CDB7DEB789838981282F3327AF
:104E200027FD309500D000D08DB79EB7019648E998
:104E300055E0FC0151834083FC01338322830E94AF
:104E400039340F900F900F900F90298185E090E0FA
:104E5000622F0E94342589818093E0060E94952666
:104E60000F90CF91DF910895DF93CF930F92CDB73D
:104E7000DEB789838981282F332727FD309500D01D
:104E800000D08DB79EB7019648EA55E0FC015183EA
:104E90004083FC01338322830E9439340F900F90AA
:104EA0000F900F90298186E090E0622F0E943425B8
:104EB00089818093E1060E9495260F90CF91DF9122
:104EC0000895DF93CF93CDB7DEB78091B706482F13
:104ED000552747FD509528E532E0429FC001439F8A
:104EE000900D529F900D11249C01205830478091C5
:104EF000BC06682F772767FD70954CE350E0649FF0
:104F0000C001659F900D749F900D112480549B40AB
:104F1000280F391F80919C06992787FD9095880F4F
:104F2000991FAC01440F551F440F551F840F951F47
:104F3000805E9140280F391F8091BE06992787FD1A
:104F40009095C097820F931F909395068093940637
:104F5000CF91DF910895DF93CF930F92CDB7DEB756
:104F60008983298187E090E0622F0E94342589811E
:104F70008093B7060E9461270F90CF91DF9108952B
:104F8000DF93CF930F92CDB7DEB78983298188E075
:104F900090E0622F0E94342589818093BC060E9494
:104FA00061270F90CF91DF910895DF93CF930F92F8
:104FB000CDB7DEB78983298189E090E0622F0E9416
:104FC0003425898180939C060E9461270F90CF91A0
:104FD000DF910895DF93CF930F92CDB7DEB789832A
:104FE00029818AE090E0622F0E9434258981809394
:104FF000BE060E9461270F90CF91DF910895DF9345
:10500000CF93CDB7DEB70E94520E9093D506809312
:10501000D4068091D4069091D5069C018BE090E057
:10502000B9010E94E125CF91DF910895DF93CF93DD
:10503000CDB7DEB70E94520E9093DB068093DA065E
:105040008091DA069091DB069C018DE090E0B90139
:105050000E94E125CF91DF910895DF93CF93CDB7E3
:10506000DEB78091B8069091B9069093E3068093DD
:10507000E2062091E2063091E3068FE090E0B9016C
:105080000E94E125CF91DF910895DF93CF93CDB7B3
:10509000DEB78091B8069091B9069093DD068093B3
:1050A000DC062091DC063091DD0681E190E0B9015B
:1050B0000E94E125CF91DF910895DF93CF930F9266
:1050C000CDB7DEB7898389818093DF062091DF0623
:1050D00084E190E0622F0E9434250F90CF91DF9100
:1050E0000895DF93CF93CDB7DEB784E090E00E94C0
:1050F00093258093910680919106282F332727FDD1
:10510000309500D000D08DB79EB7019646EB55E0A4
:10511000FC0151834083FC01338322830E94393494
:105120000F900F900F900F9080919106803324F094
:10513000809191068A33E4F080919106282F3327DD
:1051400027FD309500D000D08DB79EB701964AEC70
:1051500055E0FC0151834083FC01338322830E948C
:1051600039340F900F900F900F9080E30E94DA2651
:1051700085E090E00E9493258093E0068091E00610
:10518000282F332727FD309500D000D08DB79EB74C
:10519000019649EE55E0FC0151834083FC013383C5
:1051A00022830E9439340F900F900F900F908091BE
:1051B000E006803324F08091E0068A33E4F08091A9
:1051C000E006282F332727FD309500D000D08DB77B
:1051D0009EB701964CEF55E0FC0151834083FC01E2
:1051E000338322830E9439340F900F900F900F90D9
:1051F00080E30E94072786E090E00E949325809339
:10520000E1068091E106282F332727FD309500D055
:1052100000D08DB79EB701964AE156E0FC0151835C
:105220004083FC01338322830E9439340F900F9016
:105230000F900F908091E106803324F08091E10679
:105240008A33E4F08091E106282F332727FD30953B
:1052500000D000D08DB79EB701964BE256E0FC011E
:1052600051834083FC01338322830E9439340F90A1
:105270000F900F900F9080E30E94342787E496E010
:105280000E944E3487E090E00E9493258093B706F9
:105290008091B706803324F08091B7068A331CF0E2
:1052A00080E30E94AB2788E090E00E9493258093E2
:1052B000BC068091BC06803324F08091BC068A3302
:1052C0001CF080E30E94C02789E090E00E949325B3
:1052D00080939C0680919C06803324F080919C06EC
:1052E00086331CF080E30E94D5278AE090E00E947C
:1052F00093258093BE068091BE06803324F0809172
:10530000BE068A331CF080E30E94EA270E946127D0
:105310000E9495268BE090E00E94AE259093D506E2
:105320008093D4068091D4069091D506FFEF8F3FED
:105330009F0721F41092D5061092D4068DE090E0DC
:105340000E94AE259093DB068093DA068091DA0600
:105350009091DB062FEF8F3F920721F41092DB062E
:105360001092DA068FE090E00E94AE259093E3065B
:105370008093E2068091E2069091E306EFEF8F3F83
:105380009E0721F41092E3061092E20681E190E07C
:105390000E94AE259093DD068093DC068091DC06AA
:1053A0009091DD06FFEF8F3F9F0721F41092DD06FD
:1053B0001092DC0684E190E00E9493258093DF0642
:1053C0008091DF06823018F080E00E945D28109204
:1053D00092061092BA06CF91DF9108951F920F9214
:1053E0000FB60F9211242F933F934F938F939F9358
:1053F000EF93FF93DF93CF93CDB7DEB789EB90E0C8
:10540000FC018081882F90E0887F90708832910520
:1054100069F18932910554F480319105D9F08831D0
:10542000910521F188309105A9F094C0803491054F
:1054300009F45AC0813491052CF48833910509F49C
:1054400083C088C080359105D9F18835910509F46C
:105450005BC080C08BEB90E020918C06FC01208328
:105460008CEB90E025E8FC0120837FC080918F06C3
:105470008823D1F080918F06815080938F062BEB8B
:1054800030E080918D0690918E06FC014081F901FB
:105490004083019690938E0680938D068CEB90E06E
:1054A00025E8FC01208361C08CEB90E024E9FC013D
:1054B00020838FEF8093900681E08093BF0655C0D4
:1054C00080918D0690918E062BEB30E0F9012081C2
:1054D000FC012083019690938E0680938D06809127
:1054E0008F06815080938F0680918F06823030F036
:1054F0008CEB90E025ECFC01208337C08CEB90E036
:1055000025E8FC01208331C080918D0690918E06A4
:105510002BEB30E0F9012081FC0120830196909370
:105520008E0680938D0680918F06815080938F0622
:105530008CEB90E024E9FC0120838FEF80939006B0
:1055400081E08093BB0611C08CEB90E025EAFC0162
:1055500020830BC089EB90E0FC0180818093900652
:105560008CEB90E024E0FC012083CF91DF91FF9150
:10557000EF919F918F914F913F912F910F900FBE7F
:105580000F901F901895DF93CF93CDB7DEB7109291
:10559000BF061092BB0681E596E00E944E34109241
:1055A0008F0689EB90E022E0FC01208388EB90E0FD
:1055B00022E2FC0120838BEB90E02FEFFC012083A3
:1055C0008CEB90E024E0FC012083CF91DF910895E3
:1055D000DF93CF93CDB7DEB78AE596E00E944E34D5
:1055E0008CEB90E0FC0110821092BF061092BB067B
:1055F00010928F068BEB90E02FEFFC0120838CEB59
:1056000090E024E0FC012083CF91DF910895DF93A7
:10561000CF9300D000D0CDB7DEB789837B836A8378
:105620004C8300000E94B22B8823E1F71092BF0642
:1056300089818E7F80938C068A819B8190938E06D0
:1056400080938D068C8180938F068CEB90E025EA09
:10565000FC0120830F900F900F900F90CF91DF915E
:105660000895DF93CF9300D000D0CDB7DEB7898304
:105670007B836A834C832A813B818981B9014C8178
:105680000E94072B00008091BF06882321F40E940E
:10569000B22B8823C1F7809190068F3F11F00E94B2
:1056A000E82A809190060F900F900F900F90CF9165
:1056B000DF910895DF93CF9300D000D0CDB7DEB750
:1056C00089837B836A834C8300000E94B22B8823EA
:1056D000E1F71092BB068981816080938C068A81F4
:1056E0009B8190938E0680938D068C8180938F068C
:1056F0008CEB90E025EAFC0120830F900F900F9037
:105700000F90CF91DF910895DF93CF9300D000D019
:10571000CDB7DEB789837B836A834C832A813B8143
:105720008981B9014C810E945A2B00008091BB06EF
:10573000882321F40E94B22B8823C1F78091900620
:105740008F3F19F00E94E82A04C080E796E00E948B
:105750004E34809190060F900F900F900F90CF9144
:10576000DF910895DF93CF93CDB7DEB78CEB90E058
:10577000FC018081882F90E08170907021E000977B
:1057800009F420E0822FCF91DF910895DF93CF932A
:10579000CDB7DEB7809190068F3F11F481E001C054
:1057A00080E0CF91DF910895DF93CF93CDB7DEB73F
:1057B00080919006CF91DF9108955058BB27AA277A
:1057C0000ED075C166D130F06BD120F031F49F3F1F
:1057D00011F41EF45BC10EF4E095E7FB51C1E92F13
:1057E00077D180F3BA17620773078407950718F01B
:1057F00071F49EF58FC10EF4E0950B2EBA2FA02DFB
:105800000B01B90190010C01CA01A0011124FF276D
:10581000591B99F0593F50F4503E68F11A16F04068
:10582000A22F232F342F4427585FF3CF4695379567
:105830002795A795F0405395C9F77EF41F16BA0B2C
:10584000620B730B840BBAF09150A1F0FF0FBB1FDA
:10585000661F771F881FC2F70EC0BA0F621F731F23
:10586000841F48F4879577956795B795F7959E3F80
:1058700008F0B3CF9395880F08F09927EE0F97950E
:1058800087950895D9D008F481E008950CD00FC110
:1058900007D140F0FED030F021F45F3F19F0F0C0A6
:1058A000511139C1F3C014D198F39923C9F3552389
:1058B000B1F3951B550BBB27AA2762177307840703
:1058C00038F09F5F5F4F220F331F441FAA1FA9F3B9
:1058D00033D00E2E3AF0E0E830D091505040E695AB
:1058E000001CCAF729D0FE2F27D0660F771F881F0C
:1058F000BB1F261737074807AB07B0E809F0BB0BFB
:10590000802DBF01FF2793585F4F2AF09E3F51051E
:1059100068F0B6C000C15F3FECF3983EDCF38695BB
:1059200077956795B795F7959F5FC9F7880F911D94
:105930009695879597F90895E1E0660F771F881F80
:10594000BB1F621773078407BA0720F0621B730B33
:10595000840BBA0BEE1F88F7E095089504D0689485
:10596000B111D9C00895BCD088F09F5790F0B92FDD
:105970009927B751A0F0D1F0660F771F881F991FA4
:105980001AF0BA95C9F712C0B13081F0C3D0B1E0B6
:105990000895C0C0672F782F8827B85F39F0B93FC6
:1059A000CCF3869577956795B395D9F73EF49095A6
:1059B0008095709561957F4F8F4F9F4F0895E89424
:1059C00009C097FB3EF490958095709561957F4F47
:1059D0008F4F9F4F9923A9F0F92F96E9BB279395F5
:1059E000F695879577956795B795F111F8CFFAF405
:1059F000BB0F11F460FF1BC06F5F7F4F8F4F9F4F36
:105A000016C0882311F096E911C0772321F09EE893
:105A1000872F762F05C0662371F096E8862F70E0F9
:105A200060E02AF09A95660F771F881FDAF7880FD3
:105A30009695879597F90895990F0008550FAA0B29
:105A4000E0E8FEEF16161706E807F907C0F0121691
:105A50001306E407F50798F0621B730B840B950B94
:105A600039F40A2661F0232B242B252B21F40895E9
:105A70000A2609F4A140A6958FEF811D811D089586
:105A800097F99F6780E870E060E008959FEF80ECF1
:105A9000089500240A941616170618060906089594
:105AA00000240A9412161306140605060895092EFA
:105AB0000394000C11F4882352F0BB0F40F4BF2B69
:105AC00011F460FF04C06F5F7F4F8F4F9F4F0895A9
:105AD00057FD9058440F551F59F05F3F71F047959F
