:100000000C943E000C94E00B0C945B000C945B0091
:100010000C945B000C945B000C94BD0E0C945B0084
:100020000C945B000C94470B0C945B000C945B00ED
:100030000C945B000C94280C0C945B000C945B00FB
:100040000C94180C0C945B000C945B000C945B00FB
:100050000C945B000C945B000C945B000C945B00B4
:100060000C94B20B0C945B000C9420220C945B005B
:100070000C945B000C945B000C945B0011241FBE7D
:10008000C0E0D8E0DEBFCDBF13E0A0E0B1E0E0E625
:10009000F5E502C005900D92A631B107D9F713E03E
:1000A000A6E1B3E001C01D92A03CB107E1F70E94B8
:1000B000AA000C94AE2A0C940000DF93CF9300D0DA
:1000C000CDB7DEB79A838983E5ECF0E089819A8128
:1000D000892F99278083E4ECF0E089818083A0EC6C
:1000E000B0E0E0ECF0E080818C7F8C93E1ECF0E01C
:1000F00088E18083E2ECF0E086E080830F900F904F
:10010000CF91DF910895DF93CF9300D00F92CDB7B9
:10011000DEB789837B836A83E0ECF0E08081882FFF
:1001200090E0807290700097B9F389818A3031F441
:1001300020E031E08DE0B9010E948300E6ECF0E0C0
:100140008981808380E090E00F900F900F90CF9195
:10015000DF910895DF93CF93CDB7DEB729970FB620
:10016000F894DEBF0FBECDBF8BE090E00E945D0033
:1001700080E091E09093BD038093BC038EE091E01A
:100180000E9470270E94E3200E9404020E94690CD2
:100190000E9413230E94CE120E94A4160E947E0A7F
:1001A0000E94E22180914903882371F01092490353
:1001B0008CE090E09B838A838FE493E09E012E5F26
:1001C0003F4FB9010E949F0A80914A03813071F428
:1001D00010924A038BE090E09B838A838FE493E044
:1001E0009E012E5F3F4FB9010E949F0A80914E03EE
:1001F000813011F410924E0380916D03882371F0C9
:1002000010926D038AE090E09B838A838FE493E0F1
:100210009E012E5F3F4FB9010E949F0A80912503E6
:10022000882371F01092250386E090E09B838A83F7
:100230008FE493E09E012E5F3F4FB9010E949F0A19
:1002400080914503882371F01092450385E090E08A
:100250009B838A838FE493E09E012E5F3F4FB90119
:100260000E949F0A0E94160F89838981882391F139
:100270008981833021F481E090E09B838A838981A6
:10028000813021F487E090E09B838A8389818230EA
:1002900021F488E090E09B838A838981853021F472
:1002A00083E090E09B838A838981863021F484E017
:1002B00090E09B838A838981803324F01B821A8299
:1002C00089818C838FE493E09E012E5F3F4FB901BB
:1002D0000E949F0A80914C03882371F010924C0376
:1002E00089E090E09B838A838FE493E09E012E5FF8
:1002F0003F4FB9010E949F0A80912403882309F48B
:100300004FCF1092240383E090E09B838A838FE495
:1003100093E09E012E5F3F4FB9010E949F0A40CF9C
:10032000DF93CF9300D000D0CDB7DEB78A836B8345
:100330004C83E4E2F0E01082E5E2F0E01082ABE210
:10034000B0E0EBE2F0E080818F718C93ABE2B0E043
:10035000EBE2F0E080818F778C93ABE2B0E0EBE2F0
:10036000F0E0808180648C9381E0898315C0ABE2EA
:10037000B0E0EBE2F0E0808180628C930E94201F6D
:10038000E3E2F0E0808180788983ABE2B0E0EBE2E9
:10039000F0E080818F7D8C938981882341F7E4E2AE
:1003A000F0E08FEF8083E5E2F0E08A8180838B814B
:1003B000882339F0ABE2B0E0EBE2F0E080818068C6
:1003C0008C93ABE2B0E0EBE2F0E080818F7B8C932A
:1003D0000E94201FABE2B0E0EBE2F0E0808180629F
:1003E0008C930E94201FABE2B0E0EBE2F0E0808152
:1003F0008F7D8C9389818F5F89830F900F900F90F1
:100400000F90CF91DF910895DF93CF93CDB7DEB7F3
:10041000AAE2B0E0EAE2F0E08081806E8C93ABE289
:10042000B0E0EBE2F0E080818F718C93E4E2F0E0E9
:100430001082E5E2F0E0108281E060E040E20E949C
:10044000900188E360E040E20E9490018CE060E06F
:1004500040E20E94900186E060E040E20E9490014C
:10046000CF91DF910895DF93CF930F92CDB7DEB791
:100470008983998181E060E0492F0E9490010F906B
:10048000CF91DF910895DF93CF930F92CDB7DEB771
:100490008983998180EC60E0492F0E9490010F9040
:1004A000CF91DF910895DF93CF9300D000D0CDB7E7
:1004B000DEB79B838A836C830BC089819C8161E05A
:1004C000492F0E9490018A819B8101969B838A8398
:1004D000EA81FB81808189838981882371F70F906C
:1004E0000F900F900F90CF91DF910895DF93CF93EE
:1004F00000D000D0CDB7DEB78A836B834C838A816E
:10050000882311F4198202C080E4898399818B8148
:10051000890F8058898389819C8160E0492F0E94DE
:1005200090010F900F900F900F90CF91DF91089551
:10053000DF93CF9300D00F92CDB7DEB789836A8364
:100540004B8389816A814B810E9476028FE060E053
:1005500040E20E9490010F900F900F90CF91DF9199
:100560000895DF93CF93CDB7DEB78CE060E040E233
:100570000E949001CF91DF910895DF93CF9300D037
:10058000CDB7DEB789836A8389819A8161E0492F7B
:100590000E9490010F900F90CF91DF910895DF930B
:1005A000CF93CDB7DEB780910603CF91DF91089549
:1005B000DF93CF9300D00F92CDB7DEB780910603C3
:1005C0008A83E0917403F0917503808191818F306B
:1005D0009105C9F48FE089838091280390912903C4
:1005E0009E012D5F3F4F6FE0A9010E94981A8091F4
:1005F0002803909129032B816981422F0E94F81DC5
:10060000809107038A838A810F900F900F90CF917A
:10061000DF910895DF93CF93CDB7DEB787E191E007
:100620000E9470270E94C51486E090E00E94950DFC
:10063000CF91DF910895DF93CF93CDB7DEB78FE2EF
:1006400091E00E9470270E94B10D0E94BB14CF91CF
:10065000DF910895DF93CF9300D000D00F92CDB7F4
:10066000DEB7809106038B83E0917403F0917503EC
:100670008081918185309105C9F489E08A838091D8
:100680002803909129039E012C5F3F4F69E0A90147
:100690000E94981A80912803909129032C816A81E5
:1006A000422F0E94F81D809107038B83E091740311
:1006B000F0917503808191818330910549F0E0913B
:1006C0007403F09175038081918187309105C9F49D
:1006D00083E0898380912803909129039E012B5FF9
:1006E0003F4F63E0A9010E94981A809128039091DE
:1006F00029032D816981422F0E94F81D80910703F3
:100700008B83E0917403F091750380819181863031
:10071000910541F40E948515809107038B8381E048
:10072000809324038B810F900F900F900F900F9068
:10073000CF91DF910895DF93CF93CDB7DEB78FEFE1
:100740009FE70E94950DCF91DF910895DF93CF939E
:10075000CDB7DEB70E94B10DCF91DF910895DF9341
:10076000CF9300D00F92CDB7DEB7809106038A8376
:10077000E0917403F0917503808191818830910537
:10078000C9F489E0898380912803909129039E010F
:100790002D5F3F4F69E0A9010E94981A80912803BC
:1007A000909129032B816981422F0E94F81D80912D
:1007B00007038A838A810F900F900F90CF91DF916A
:1007C0000895DF93CF93CDB7DEB70E943A14CF914F
:1007D000DF910895DF93CF93CDB7DEB7CF91DF914F
:1007E0000895DF93CF9300D000D00F92CDB7DEB73E
:1007F000809106038B83E0917403F09175038081EF
:10080000918184309105E1F485E08A838091280309
:10081000909129039E012C5F3F4F65E0A9010E9442
:10082000981A81E00E94CF2080912803909129039B
:100830002C816A81422F0E94F81D809107038B83CF
:10084000E0917403F091750380819181833091056B
:10085000E1F485E0898380912803909129039E012A
:100860002B5F3F4F65E0A9010E94981A80E00E942B
:10087000CF2080912803909129032D816981422FF7
:100880000E94F81D809107038B83E0917403F0911F
:100890007503808191818630910531F481E08093E8
:1008A0002403809107038B838B810F900F900F900F
:1008B0000F900F90CF91DF910895DF93CF93CDB735
:1008C000DEB70E942B1410924C0381E00E948C0F23
:1008D000CF91DF910895DF93CF93CDB7DEB780E05E
:1008E0000E948C0FCF91DF910895DF93CF9300D0BA
:1008F00000D00F92CDB7DEB78B83E0917403F091F7
:1009000075038081918184309105C9F486E08983E3
:1009100080912803909129039E012E5F3F4F66E04E
:10092000A9010E94981A80912803909129032A8195
:100930006981422F0E94F81D809107038B83E0910B
:100940007403F0917503808191818B30910511F4CE
:100950000E94BE0FE0917403F09175038081918134
:100960000097A9F5E0917403F09175038281282F17
:10097000332727FD30953D832C838C819D818233E5
:100980009105D1F02C813D812333310534F48C81E4
:100990009D818133910561F01AC02C813D812733FF
:1009A000310571F08C819D818833910569F00FC00C
:1009B00084E00E948C0F0BC083E00E948C0F07C064
:1009C00086E00E948C0F03C085E00E948C0F8B8113
:1009D0000F900F900F900F900F90CF91DF9108958F
:1009E000DF93CF9300D00F92CDB7DEB7809106038F
:1009F0008A83E0917403F09175038081918189303D
:100A00009105C9F486E08983809128039091290398
:100A10009E012D5F3F4F66E0A9010E94981A8091C8
:100A20002803909129032B816981422F0E94F81D90
:100A3000809107038A83E0917403F09175038081AC
:100A400091818630910539F40E94A80F0E94D91334
:100A5000809107038A838A810E9475048A838A8130
:100A60000F900F900F90CF91DF910895DF93CF9368
:100A7000CDB7DEB70E94E00C0E941D0DCF91DF9133
:100A80000895DF93CF93CDB7DEB70E942D0D0E945E
:100A90000C0DCF91DF910895DF93CF9300D000D05C
:100AA0000F92CDB7DEB7809106038983E09174037E
:100AB000F091750380819181009709F074C0809155
:100AC0004703909148039B838A83E0917403F091DC
:100AD00075038281282F332727FD30953D832C8392
:100AE0008C819D818333910561F12C813D8124337B
:100AF00031055CF48C819D8181339105B1F02C81AD
:100B00003D8122333105B9F035C08C819D81883318
:100B1000910521F12C813D812933310529F18C8109
:100B20009D8187339105A1F025C08A819B81019623
:100B30009B838A831FC08A819B810A969B838A83B9
:100B400019C08A819B818C599F4F9B838A8312C0D5
:100B50008A819B8101979B838A830CC08A819B81B8
:100B60000A979B838A8306C08A819B818456904022
:100B70009B838A838A819B81992314F41B821A8226
:100B80008A819B8123E08B32920724F08AE293E0F2
:100B90009B838A838A819B810E94330B0E948B13E3
:100BA000809107038983E0917403F091750380813C
:100BB00091818630910529F40E948B13809107035F
:100BC000898389810F900F900F900F900F90CF9194
:100BD000DF910895DF93CF93CDB7DEB70E94A514C0
:100BE00080E090E00E94330BCF91DF910895DF9376
:100BF000CF93CDB7DEB70E94BB14CF91DF9108959C
:100C0000DF93CF9300D000D00F92CDB7DEB78091A5
:100C100006038B83E0917403F091750380819181C9
:100C200083309105C9F488E08A83809128039091EC
:100C300029039E012C5F3F4F68E0A9010E94981A8A
:100C400080912803909129032C816A81422F0E9470
:100C5000F81D809107038B83E0917403F091750375
:100C60008081918184309105E9F488E089838091C5
:100C70002803909129039E012B5F3F4F68E0A90153
:100C80000E94981A0E949D200E946F208091280344
:100C9000909129032D816981422F0E94F81D809136
:100CA00007038B838B810F900F900F900F900F9005
:100CB000CF91DF910895DF93CF93CDB7DEB70E9438
:100CC000B014CF91DF910895DF93CF93CDB7DEB706
:100CD0000E94BB14CF91DF910895DF93CF9300D092
:100CE00000D00F92CDB7DEB7809106038B83E091E1
:100CF0007403F09175038081918183309105C9F46B
:100D000089E08A8380912803909129039E012C5FBA
:100D10003F4F69E0A9010E94981A809128039091A1
:100D200029032C816A81422F0E94F81D80910703BC
:100D30008B83E0917403F0917503808191818430FD
:100D40009105E9F489E08983809128039091290332
:100D50009E012B5F3F4F69E0A9010E94981A0E94F3
:100D6000B6200E94862080912803909129032D812E
:100D70006981422F0E94F81D809107038B838B812C
:100D80000F900F900F900F900F90CF91DF910895DB
:100D9000DF93CF93CDB7DEB78FEF9FE70E94950D1E
:100DA0000E94EE0FCF91DF910895DF93CF93CDB7DF
:100DB000DEB70E94B10D0E94BB14CF91DF91089560
:100DC000DF93CF9300D00F92CDB7DEB780910603AB
:100DD0008A83E0917403F09175038081918187305B
:100DE0009105C9F48DE089838091280390912903AE
:100DF0009E012D5F3F4F6DE0A9010E94981A8091DE
:100E00002803909129032B816981422F0E94F81DAC
:100E1000809107038A83E0917403F09175038081C8
:100E200091818530910539F48FEF9FE70E94950DF0
:100E3000809107038A83E0917403F09175038081A8
:100E400091818630910529F40E94F80F8091070363
:100E50008A838A810F900F900F90CF91DF91089530
:100E6000DF93CF93CDB7DEB70E9404168FEF0E94B9
:100E70003D168FEF0E946C16CF91DF910895DF939E
:100E8000CF93CDB7DEB7CF91DF910895DF93CF93A6
:100E900000D000D00F92CDB7DEB7809106038B83D0
:100EA000E0917403F0917503808191818330910505
:100EB000C9F48BE08A8380912803909129039E01D5
:100EC0002C5F3F4F6BE0A9010E94981A8091280384
:100ED000909129032C816A81422F0E94F81D8091F4
:100EE00007038B83E0917403F091750380819181F6
:100EF00084309105C9F48CE0898380912803909116
:100F000029039E012B5F3F4F6CE0A9010E94981AB4
:100F100080912803909129032D816981422F0E949D
:100F2000F81D809107038B838B810F900F900F909A
:100F30000F900F90CF91DF910895DF93CF93CDB7AE
:100F4000DEB70E941B1610927303809173030E94F8
:100F50003D16CF91DF910895DF93CF93CDB7DEB7E4
:100F60008FEF0E943D16CF91DF910895DF93CF93CD
:100F7000CDB7DEB729970FB6F894DEBF0FBECDBF51
:100F8000809106038C83E0917403F0917503808156
:100F9000918184309105C9F48CE08B838091280382
:100FA000909129039E012B5F3F4F6CE0A9010E94A5
:100FB000981A80912803909129032D816B81422FEB
:100FC0000E94F81D809107038C83E0917403F091D7
:100FD00075038081918183309105C9F48AE08A8309
:100FE00080912803909129039E012A5F3F4F6AE078
:100FF000A9010E94981A80912803909129032E81BB
:101000006A81422F0E94F81D809107038C83E09132
:101010007403F091750380819181009709F05FC09E
:10102000E0917403F091750382818A330CF057C00C
:10103000E0917403F0917503828180330CF44FC00A
:1010400080917303282F332727FD30953987288710
:10105000888599858130910589F0288539852230E8
:101060003105A1F088859985009769F5E0917403B1
:10107000F091750382810E94DC1425C0E091740315
:10108000F091750382810E94E9141DC0E091740300
:10109000F091750382810E94F6148AE08983809121
:1010A0002803909129039E01295F3F4F6AE0A9011F
:1010B0000E94981A80912803909129032F816981B9
:1010C000422F0E94F81D809173038F5F80937303FA
:1010D000809173030E943D16809107038C838C815D
:1010E00029960FB6F894DEBF0FBECDBFCF91DF912A
:1010F0000895DF93CF93CDB7DEB70E942C161092E0
:101100007303809173030E946C16CF91DF91089551
:10111000DF93CF93CDB7DEB78FEF0E946C16CF91E0
:10112000DF910895DF93CF93CDB7DEB729970FB640
:10113000F894DEBF0FBECDBF809106038C83E09193
:101140007403F09175038081918183309105C9F416
:101150008BE08B8380912803909129039E012B5F64
:101160003F4F6BE0A9010E94981A8091280390914B
:1011700029032D816B81422F0E94F81D8091070366
:101180008C83E0917403F0917503808191818430A8
:101190009105C9F48AE08A838091280390912903FC
:1011A0009E012A5F3F4F6AE0A9010E94981A809130
:1011B0002803909129032E816A81422F0E94F81DF5
:1011C000809107038C83E0917403F0917503808113
:1011D0009181009709F085C0E0917403F091750347
:1011E00082818A330CF07DC0E0917403F091750325
:1011F000828180330CF475C080917303282F3327CC
:1012000027FD309539872887888599858130910514
:10121000E9F028853985223031052CF488859985B7
:10122000009761F052C02885398523303105D9F007
:10123000888599858430910559F147C0E091740300
:10124000F091750382810E9403153FC0E091740301
:10125000F091750382810E941015809173038F5F56
:101260008093730332C0E0917403F091750382811F
:10127000863344F4E0917403F091750382810E94F7
:101280001D1523C0809173038150809373031DC08B
:10129000E0917403F091750382810E942A158AE01F
:1012A000898380912803909129039E01295F3F4FF4
:1012B0006AE0A9010E94981A80912803909129035D
:1012C0002F816981422F0E94F81D809173038F5FE7
:1012D00080937303809173030E946C1680910703BF
:1012E0008C838C8129960FB6F894DEBF0FBECDBFDC
:1012F000CF91DF910895DF93CF93CDB7DEB78EE323
:1013000091E00E9470270E94F5158091260390912C
:1013100027030E94950D80917103909172030E94A2
:10132000330B0E94E00C0E941D0DCF91DF910895B8
:10133000DF93CF93CDB7DEB78CE491E00E947027A6
:101340000E94B10D0E942D0D0E940C0D0E94BB1435
:10135000CF91DF910895DF93CF9300D000D00F920B
:10136000CDB7DEB7809106038B83E0917403F091D3
:1013700075038081918188309105C9F489E08A8361
:1013800080912803909129039E012C5F3F4F69E0D3
:10139000A9010E94981A80912803909129032C8119
:1013A0006A81422F0E94F81D809107038B83E09190
:1013B0007403F09175038081918185309105C9F4A2
:1013C0008EE0898380912803909129039E012B5FF1
:1013D0003F4F6EE0A9010E94981A809128039091D6
:1013E00029032D816981422F0E94F81D80910703F6
:1013F0008B83E0917403F091750380819181863035
:10140000910549F40E9437150E9485150E944113E9
:10141000809107038B83E0917403F09175038081C1
:1014200091818A30910511F40E9455128B810F90A1
:101430000F900F900F900F90CF91DF910895DF9351
:10144000CF93CDB7DEB70E94AB16CF91DF91089551
:10145000DF93CF93CDB7DEB7CF91DF910895DF93C0
:10146000CF9300D00F92CDB7DEB7809106038A8369
:10147000E0917403F091750380819181833091052F
:10148000C9F489E0898380912803909129039E0102
:101490002D5F3F4F69E0A9010E94981A80912803AF
:1014A000909129032B816981422F0E94F81D809120
:1014B00007038A838A810F900F900F90CF91DF915D
:1014C0000895DF93CF93CDB7DEB70E945114CF912B
:1014D000DF910895DF93CF93CDB7DEB7CF91DF9142
:1014E0000895DF93CF930F92CDB7DEB780910603B7
:1014F000898389810F90CF91DF910895DF93CF93F6
:10150000CDB7DEB78FE493E090932903809328034F
:101510008FE493E029E531E0B90140E120E00E9449
:101520006719CF91DF910895DF93CF93CDB7DEB7E1
:101530008FE493E00E94AF19CF91DF910895DF937C
:10154000CF9300D000D0CDB7DEB79A8389837C8358
:101550006B838B819C819093750380937403898145
:101560009A810E941B1A0F900F900F900F90CF91AD
:10157000DF910895DF93CF9300D0CDB7DEB7F89415
:1015800080917803909179039A83898378948981F3
:101590009A810F900F90CF91DF910895DF93CF93B1
:1015A000CDB7DEB780917703882309F052C0E7E317
:1015B000F0E01082809147039091480318161906B5
:1015C0000CF047C020914703309148038AE293E032
:1015D000821B930B90937B0380937A0380917A0311
:1015E00090917B038F30910534F48FE090E09093DD
:1015F0007B0380937A0380917A0390917B038C3FE5
:1016000091057CF4E2EBF0E080917A0390917B030A
:10161000982F8CEF891B808310927B0310927A03A2
:101620000DC080917A0390917B038C5F90409093E2
:101630007B0380937A03E2EBF0E01082E0E7F0E0D6
:1016400082E08083E1EBF0E085E0808381E08093BD
:101650007703CF91DF910895DF93CF93CDB7DEB7B6
:10166000CF91DF910895DF93CF9300D0CDB7DEB750
:101670009A838983F89489819A819093480380930F
:10168000470378940F900F90CF91DF9108951F92A8
:101690000F920FB60F9211242F933F934F935F93A6
:1016A0006F937F938F939F93AF93BF93EF93FF932A
:1016B000DF93CF93CDB7DEB7F89480917A03909102
:1016C0007B030097D9F4E1EBF0E01082E0E7F0E073
:1016D0001082ABE2B0E0EBE2F0E0808180618C93BD
:1016E0008AE090E00E94271FABE2B0E0EBE2F0E07E
:1016F00080818F7E8C931092770320C080917A0333
:1017000090917B038C3F91057CF4E2EBF0E08091BB
:101710007A0390917B03982F8CEF891B8083109222
:101720007B0310927A030AC080917A0390917B0325
:101730008C5F904090937B0380937A037894CF9151
:10174000DF91FF91EF91BF91AF919F918F917F9129
:101750006F915F914F913F912F910F900FBE0F901E
:101760001F9018951F920F920FB60F9211248F930E
:101770009F93EF93FF93DF93CF93CDB7DEB7E8E767
:10178000F0E08081918190937D0380937C03809130
:1017900076038F5F80937603809176038E3129F4F0
:1017A0001092760381E080936D03CF91DF91FF91DA
:1017B000EF919F918F910F900FBE0F901F901895F2
:1017C0001F920F920FB60F9211242F933F934F93B6
:1017D0005F936F937F938F939F93AF93BF93EF9399
:1017E000FF93DF93CF93CDB7DEB7F894E9E2F0E053
:1017F0008081882F90E084709070009719F00E948B
:101800002C0B02C00E94CE0A7894CF91DF91FF91F9
:10181000EF91BF91AF919F918F917F916F915F9168
:101820004F913F912F910F900FBE0F901F901895E1
:101830001F920F920FB60F921124DF93CF93CDB763
:10184000DEB7CF91DF910F900FBE0F901F901895CC
:101850001F920F920FB60F9211242F933F934F9325
:101860005F936F937F938F939F93AF93BF93EF9308
:10187000FF93DF93CF93CDB7DEB78091780390913C
:10188000790301979093790380937803809178038B
:10189000909179031816190634F00E94B10D81E079
:1018A0008093450303C081E080932503CF91DF91AE
:1018B000FF91EF91BF91AF919F918F917F916F9128
:1018C0005F914F913F912F910F900FBE0F901F90FE
:1018D0001895DF93CF93CDB7DEB7E1E2F0E080EF6C
:1018E0008083E2E2F0E080EE8083EEE7F0E08FE0DC
:1018F0008083AAE2B0E0EAE2F0E0808180618C932C
:10190000ABE2B0E0EBE2F0E080818F7E8C93AAE264
:10191000B0E0EAE2F0E080818B7F8C93ABE2B0E054
:10192000EBE2F0E080818B7F8C93E9E6F0E081E0F0
:101930008083EDE3F0E0108210922503E0E8F0E010
:101940001082E1E8F0E088E08083E2E8F0E01082D5
:10195000E8E8F0E080E39AE291838083E4E8F0E055
:1019600011821082EFE6F0E01082E4E4F0E082E021
:101970008083E7E4F0E08FEF8083E6E4F0E010821C
:10198000E5E4F0E01082EEE6F0E0108210927703DA
:10199000E0EBF0E082E08083E1EBF0E01082E6EB48
:1019A000F0E01082E3EBF0E08CEF8083E2EBF0E01C
:1019B0001082E0E7F0E010827894CF91DF910895F3
:1019C000DF93CF93CDB7DEB7EAE7F0E087E080831F
:1019D00010926D031092760380916E03813029F48A
:1019E000ECE7F0E081E4808304C0ECE7F0E080E421
:1019F0008083EAE7F0E08FEA8083EBE7F0E083E0C2
:101A00008083E5E4F0E085E08083EEE6F0E082E0CC
:101A10008083CF91DF910895DF93CF93CDB7DEB769
:101A2000EAE7F0E087E08083E5E4F0E01082EEE6AC
:101A3000F0E01082CF91DF910895DF93CF93CDB77F
:101A4000DEB70E941613ECE3F0E01082EDE3F0E065
:101A500081E08083CF91DF910895DF93CF93CDB75D
:101A6000DEB7EDE3F0E01082F8940E942C0B78943E
:101A7000CF91DF910895DF93CF9300D0CDB7DEB73C
:101A8000F89480917C0390917D039A838983789464
:101A900089819A810F900F90CF91DF910895DF9304
:101AA000CF9300D000D000D0CDB7DEB780E090E07B
:101AB000A0E0B0E089839A83AB83BC830E943B0D96
:101AC0009E838D838D819E81AA2797FDA095BA2F35
:101AD000BC01CD010E94E024DC01CB01BC01CD01A1
:101AE00020E030E040EA50E40E949425DC01CB0184
:101AF000BC01CD0120E030EC4FE754E40E944524C6
:101B0000DC01CB0189839A83AB83BC8389819A8171
:101B1000AB81BC81BC01CD0126960FB6F894DEBF27
:101B20000FBECDBFCF91DF910895DF93CF9300D04B
:101B3000CDB7DEB79A8389831092450389819A8154
:101B40009093790380937803EFE6F0E082E080835E
:101B5000E1E8F0E08DE080830F900F90CF91DF916E
:101B60000895DF93CF93CDB7DEB7E1E8F0E088E0EA
:101B70008083EFE6F0E01082CF91DF910895DF934C
:101B8000CF9300D0CDB7DEB71A821982E8E2F0E039
:101B900082E0808388E090E00E94271FE6E2F0E088
:101BA0008081807F8A838A81882329F18A818823A2
:101BB00014F482E389838A81992787FD9095807444
:101BC0009070009711F080E389838A81992787FDBF
:101BD000909580729070009711F088E389838A81D4
:101BE000992787FD909580719070009709F49FC0A8
:101BF00085E389839CC0E8E2F0E084E0808388E0AC
:101C000090E00E94271FE6E2F0E08081807F8A83D7
:101C10008A81882329F18A81882314F481E38983C6
:101C20008A81992787FD909580749070009711F0B4
:101C300085E089838A81992787FD909580729070CD
:101C4000009711F087E389838A81992787FD909512
:101C500080719070009709F46AC084E3898367C03B
:101C6000E8E2F0E088E0808388E090E00E94271FAF
:101C7000E6E2F0E08081807F8A838A81882321F1F7
:101C80008A81882314F483E389838A81992787FDD5
:101C9000909580749070009711F086E089838A8116
:101CA000992787FD909580729070009711F089E3D5
:101CB00089838A81992787FD90958071907000971C
:101CC000B1F186E3898333C0E8E2F0E081E080830C
:101CD00088E090E00E94271FE6E2F0E08081807FAC
:101CE0008A838A81882319F18A81882314F481E008
:101CF00089838A81992787FD9095807490700097D9
:101D000011F082E089838A81992787FD90958072FE
:101D10009070009711F083E089838A81992787FD6D
:101D2000909580719070009711F084E0898389818B
:101D30000F900F90CF91DF910895DF93CF93CDB7A0
:101D4000DEB710927E0381E080937F03E7E2F0E04C
:101D50008FE08083E8E2F0E08FE08083EDE6F0E062
:101D600080EF8083A8E6B0E0E8E6F0E08081846060
:101D70008C937894CF91DF9108951F920F920FB6B4
:101D80000F9211242F933F934F935F936F937F9301
:101D90008F939F93AF93BF93EF93FF93DF93CF9373
:101DA000CDB7DEB7E8E6F0E01082EDE6F0E01082B5
:101DB000E6E2F0E08081882F90E0807F90700097CD
:101DC00059F080917F03882321F00E94BF0D8093FA
:101DD0007E0310927F0303C081E080937F03E8E2DB
:101DE000F0E08FE080830E94201FEBE3F0E01082A0
:101DF000EDE6F0E080EF8083A8E6B0E0E8E6F0E012
:101E0000808184608C93CF91DF91FF91EF91BF919E
:101E1000AF919F918F917F916F915F914F913F9182
:101E20002F910F900FBE0F901F901895DF93CF93B7
:101E30000F92CDB7DEB7F89480917E03898310921C
:101E40007E03789489810F90CF91DF910895DF937D
:101E5000CF93CDB7DEB728970FB6F894DEBF0FBE8D
:101E6000CDBF80E090E0ACE0B2E489839A83AB839D
:101E7000BC832091690330916A0380916303909140
:101E80006403A901481B590BCA01AA2797FDA09515
:101E9000BA2FBC01CD010E94E024DC01CB018D836F
:101EA0009E83AF83B8878D819E81AF81B885BF77D0
:101EB000BC01CD0120E030E040E85FE30E949025C6
:101EC0001816ACF469817A818B819C812D813E81C9
:101ED0004F8158850E944524DC01CB01809380030B
:101EE00090938103A0938203B09383030CC080E09E
:101EF00090E0A0E0B0E08093800390938103A093F2
:101F00008203B093830328960FB6F894DEBF0FBE0A
:101F1000CDBFCF91DF910895DF93CF930F92CDB7CF
:101F2000DEB7898380E993E060E070E044E050E050
:101F30000E944B2789818093900320E933E080E160
:101F4000B90141E00E9463230F90CF91DF91089582
:101F5000DF93CF93CDB7DEB78CE993E060E070E01C
:101F600048E050E00E944B272CE933E080E1B901C2
:101F700046E00E948223CF91DF910895DF93CF93B3
:101F80000F92CDB7DEB780919C0380932F03809191
:101F90009D03882F90E0A0E0B0E0BC01CD010E943D
:101FA000DE24DC01CB018093300390933103A093B6
:101FB0003203B09333038091A203898389818823FC
:101FC00019F481E080934C038981873019F481E012
:101FD000809349030F90CF91DF910895DF93CF93C2
:101FE000CDB7DEB781E08093B103CF91DF91089543
:101FF000DF93CF93CDB7DEB7CF91DF910895AF9246
:10200000BF92CF92DF92EF92FF920F931F93DF93D5
:10201000CF93CDB7DEB760970FB6F894DEBF0FBE93
:10202000CDBF69837A838B839C832D833E834F83CB
:102030005887E986FA860B871C87AD86BE86CF86D1
:10204000D88A89819A81AB81BC81809388039093DF
:102050008903A0938A03B0938B038D819E81AF8106
:10206000B8858093A9039093AA03A093AB03B09380
:10207000AC0389859A85AB85BC8580939803909342
:102080009903A0939A03B0939B038D859E85AF859A
:10209000B8898093840390938503A0938603B093BB
:1020A00087038D8D9E8DAF8DB8A18093A4039093EF
:1020B000A503A093A603B093A70360E070E080E8B7
:1020C0009FE32D8D3E8D4F8D58A10E944524DC014C
:1020D000CB018093940390939503A0939603B093C0
:1020E000970380E090E0A0E0B0E08093B20390938B
:1020F000B303A093B403B093B5031092A8030E9456
:10210000270F80E090E0A0E0B0E08093AD039093D3
:10211000AE03A093AF03B093B00360960FB6F894EC
:10212000DEBF0FBECDBFCF91DF911F910F91FF900A
:10213000EF90DF90CF90BF90AF900895EF92FF9215
:102140000F931F93DF93CF93CDB7DEB760970FB692
:10215000F894DEBF0FBECDBF6D877E878F87988BCB
:102160008D859E85AF85B889BF7720918403309196
:1021700085034091860350918703BC01CD010E94E5
:10218000412488234CF480E090E0A0E8BFE38987F5
:102190009A87AB87BC8714C080E090E0A0E0B0E0F5
:1021A00089879A87AB87BC8780E090E0A0E0B0E0A9
:1021B0008093B2039093B303A093B403B093B50399
:1021C0008091A4039091A503A091A603B091A703C9
:1021D000BC01CD0129853A854B855C850E949425FB
:1021E000DC01CB01BC01CD012D853E854F85588991
:1021F0000E949425DC01CB012091B2033091B303FE
:102200004091B4035091B503BC01CD010E94DD2380
:10221000DC01CB018093B2039093B303A093B4038A
:10222000B093B5038091A803882361F481E0809383
:10223000A80380E090E0A0E0B0E089839A83AB83BC
:10224000BC8322C020918C0330918D0340918E037A
:1022500050918F036D857E858F8598890E94DC2340
:10226000DC01CB01209194033091950340919603BA
:1022700050919703BC01CD010E949425DC01CB0154
:1022800089839A83AB83BC838D859E85AF85B8890E
:1022900080938C0390938D03A0938E03B0938F0350
:1022A0008091A9039091AA03A091AB03B091AC03D4
:1022B0002091B2033091B3034091B4035091B50320
:1022C000BC01CD010E949425DC01CB01BC01CD01F4
:1022D0002D853E854F8558890E94DD23DC01CB0189
:1022E0007C018D018091980390919903A0919A03AC
:1022F000B0919B03BC01CD0129813A814B815C8166
:102300000E949425DC01CB019C01AD01C801B701FD
:102310000E94DD23DC01CB012091880330918903E9
:1023200040918A0350918B03BC01CD010E949425FA
:10233000DC01CB018D839E83AF83B8878D819E8125
:10234000AF81B885BC01CD0160960FB6F894DEBFB1
:102350000FBECDBFCF91DF911F910F91FF90EF90F6
:102360000895DF93CF93CDB7DEB72E970FB6F894CD
:10237000DEBF0FBECDBF0E943B0D9E878D87209193
:102380006303309164038D859E85821B930BAA277E
:1023900097FDA095BA2FBC01CD010E94E024DC017D
:1023A000CB012091800330918103409182035091B1
:1023B0008303BC01CD010E949425DC01CB01BC014B
:1023C000CD0120E030E040EA51E40E94DD23DC0151
:1023D000CB0189879A87AB87BC87809180039091D6
:1023E0008103A0918203B09183038D839E83AF8389
:1023F000B88789859A85AB85BC8589839A83AB83A9
:10240000BC83209163033091640340916903509130
:102410006A038DB79EB740970FB6F8949EBF0FBE64
:102420008DBFEDB7FEB7319689E192E0918380834D
:102430008D859E85938382838D819E81AF81B885B2
:1024400084839583A683B783318720875387428708
:1024500089819A81AB81BC8184879587A687B7875C
:102460000E945B278DB79EB740960FB6F8949EBF2B
:102470000FBE8DBF89859A85AB85BC85809365032A
:1024800090936603A0936703B093680389859A8548
:10249000AB85BC85BC01CD012E960FB6F894DEBF8E
:1024A0000FBECDBFCF91DF910895DF93CF93CDB70E
:1024B000DEB72C970FB6F894DEBF0FBECDBF0E94DB
:1024C000B111DC01CB0120912A0330912B03409103
:1024D0002C0350912D03BC01CD010E94DC23DC01B3
:1024E000CB0189879A87AB87BC8789859A85AB851D
:1024F000BC85BC01CD010E949E10DC01CB01209166
:10250000AD033091AE034091AF035091B003BC01D5
:10251000CD010E94DD23DC01CB018D839E83AF833F
:10252000B8876D817E818F8198850E94AD24DC0102
:10253000CB019A83898389819A81AA2797FDA095E7
:10254000BA2FBC01CD010E94E0249B01AC016D813A
:102550007E818F8198850E94DC23DC01CB018093F2
:10256000AD039093AE03A093AF03B093B00320915B
:1025700047033091480389819A81820F931F9C837E
:102580008B838B819C810E94330B2C960FB6F89421
:10259000DEBF0FBECDBFCF91DF910895AF92BF9246
:1025A000CF92DF92EF92FF920F931F93DF93CF931F
:1025B000CDB7DEB700D000D0EDB7FEB731968AEACE
:1025C00093E1A6E3BFE380839183A283B38360E0BA
:1025D00070E080E09FEB2DEC3CEC4CE45EE30F2ED2
:1025E000F8EBEF2EFEE1FF2EF5E00F2FFEE31F2F9D
:1025F000F02D0F2EF0E0AF2EF0E0BF2EF0EACF2E40
:10260000F0E4DF2EF02D0E94FF0F0F900F900F903F
:102610000F9010924C03CF91DF911F910F91FF907B
:10262000EF90DF90CF90BF90AF900895DF93CF935E
:10263000CDB7DEB780E090E0A0E0B0E08093AD03DE
:102640009093AE03A093AF03B093B00380E090E00B
:10265000A0E0B0E08093B2039093B303A093B403DF
:10266000B093B50380E090E0A0E0B0E080938C03ED
:1026700090938D03A0938E03B0938F03CF91DF913E
:102680000895DF93CF93CDB7DEB72C970FB6F894AC
:10269000DEBF0FBECDBF0E944F0DDC01CB01898391
:1026A0009A83AB83BC838DB79EB708970FB6F89417
:1026B0009EBF0FBE8DBFEDB7FEB73196CE0105961A
:1026C0009183808382E492E09383828389819A81DB
:1026D000AB81BC8184839583A683B7830E94A527A1
:1026E0008DB79EB708960FB6F8949EBF0FBE8DBFEC
:1026F00080E069E040E20E947602CE01059660E249
:102700000E9453022C960FB6F894DEBF0FBECDBFC9
:10271000CF91DF910895DF93CF93CDB7DEB7649764
:102720000FB6F894DEBF0FBECDBF0E944F0DDC0187
:10273000CB0189839A83AB83BC832091470330917B
:1027400048038DB79EB70A970FB6F8949EBF0FBE89
:102750008DBFEDB7FEB73196CE010596918380838C
:1027600089E492E09383828389819A81AB81BC81E1
:1027700084839583A683B783318720870E94A5270A
:102780008DB79EB70A960FB6F8949EBF0FBE8DBF49
:1027900080E20E944302CE01059660E20E9453024D
:1027A00064960FB6F894DEBF0FBECDBFCF91DF9118
:1027B0000895DF93CF93CDB7DEB764970FB6F89443
:1027C000DEBF0FBECDBF8091300390913103A09149
:1027D0003203B091330389839A83AB83BC838091A6
:1027E0002F03282F30E08DB79EB70A970FB6F894C5
:1027F0009EBF0FBE8DBFEDB7FEB73196CE010596D9
:102800009183808386E592E093838283358324835A
:1028100089819A81AB81BC8186839783A087B187A8
:102820000E94A5278DB79EB70A960FB6F8949EBF53
:102830000FBE8DBF80E20E944302CE01059660E28A
:102840000E94530264960FB6F894DEBF0FBECDBF50
:10285000CF91DF910895DF93CF93CDB7DEB780E2BC
:102860000E94330284E692E060E20E945302CF911C
:10287000DF910895DF93CF93CDB7DEB780E20E945A
:10288000330283E792E060E20E94530280E20E94FA
:1028900043028AE792E060E20E945302CF91DF9107
:1028A0000895DF93CF93CDB7DEB780E20E94330265
:1028B00087E892E060E20E94530280E20E944302B5
:1028C00084E393E060E20E945302CF91DF91089588
:1028D000DF93CF9300D000D0CDB7DEB79C838B833E
:1028E00080E20E9433028DE892E060E20E9453028F
:1028F00000D000D000D0EDB7FEB73196CE010196E2
:102900009183808382E992E0938382838B819C818F
:10291000958384830E94A5278DB79EB706960FB630
:10292000F8949EBF0FBE8DBFCE01019660E20E945B
:10293000530286E992E060E20E9453020F900F90EA
:102940000F900F90CF91DF910895DF93CF93CDB784
:10295000DEB784E190E00E946814CF91DF91089582
:10296000DF93CF93CDB7DEB787E390E00E94681482
:10297000CF91DF910895DF93CF93CDB7DEB780E29B
:102980000E943302CF91DF910895DF93CF93CDB7AB
:10299000DEB780E20E94330281EA92E060E20E94A8
:1029A000530280E20E94430282EB92E060E20E94C6
:1029B0005302CF91DF910895DF93CF930F92CDB75C
:1029C000DEB7898389810E948E1F0F90CF91DF919E
:1029D0000895DF93CF930F92CDB7DEB789838981B6
:1029E0000E94A31F0F90CF91DF910895DF93CF93A3
:1029F0000F92CDB7DEB7898389810E94B81F0F90EF
:102A0000CF91DF910895DF93CF930F92CDB7DEB7CB
:102A1000898389810E941B200F90CF91DF910895B7
:102A2000DF93CF930F92CDB7DEB7898389810E9460
:102A300030200F90CF91DF910895DF93CF930F92C5
:102A4000CDB7DEB7898389810E9445200F90CF9151
:102A5000DF910895DF93CF930F92CDB7DEB78983CF
:102A600089810E945A200F90CF91DF910895DF93C2
:102A7000CF93CDB7DEB72C970FB6F894DEBF0FBE5D
:102A8000CDBF8091650390916603A0916703B091DB
:102A9000680389839A83AB83BC838DB79EB70897FD
:102AA0000FB6F8949EBF0FBE8DBFEDB7FEB731963F
:102AB000CE010596918380838AEB92E09383828393
:102AC00089819A81AB81BC8184839583A683B783F6
:102AD0000E94A5278DB79EB708960FB6F8949EBFA3
:102AE0000FBE8DBF81E060E040E20E947602CE0121
:102AF000059660E20E9453022C960FB6F894DEBF52
:102B00000FBECDBFCF91DF9108951F93DF93CF9379
:102B1000CDB7DEB761970FB6F894DEBF0FBECDBF5D
:102B20000E94BA0A99878887888599852CE330E0C6
:102B3000B9010E941626CB01AA2797FDA095BA2FAE
:102B40008C839D83AE83BF838C819D819B838A838D
:102B500018858C819D81AE81BF8124EC3FEF4FEFC2
:102B60005FEFBC01CD010E94F725DC01CB01810F95
:102B700089838981282F332727FD30958DB79EB70C
:102B800008970FB6F8949EBF0FBE8DBFEDB7FEB786
:102B90003196CE010A969183808381EC92E09383F3
:102BA00082838A819B8195838483378326830E94D5
:102BB000A5278DB79EB708960FB6F8949EBF0FBE97
:102BC0008DBF81E069E040E20E947602CE010A9664
:102BD00060E20E94530261960FB6F894DEBF0FBE0A
:102BE000CDBFCF91DF911F910895DF93CF93CDB7E4
:102BF000DEB780E20E9433028AEC92E060E20E943B
:102C00005302CF91DF910895DF93CF93CDB7DEB715
:102C100080E20E94330283ED92E060E20E94530260
:102C200080E20E9443028BED92E060E20E94530238
:102C3000CF91DF910895DF93CF93CDB7DEB780E0DA
:102C400060E040E20E9476028AEE92E060E20E943A
:102C50005302CF91DF910895DF93CF93CDB7DEB7C5
:102C600080E060E040E20E94760282EF92E060E263
:102C70000E945302CF91DF910895DF93CF930F927B
:102C8000CDB7DEB7898381E062E040E20E94760240
:102C90008091230360E20E94BD0280916F0360E295
:102CA0000E94BD028091700360E20E94BD02898192
:102CB000882364F0898183304CF489818E5F982F5A
:102CC00081E0692F40E20E94980202C00E94B10296
:102CD0000F90CF91DF910895DF93CF930F92CDB7EF
:102CE000DEB7898381E068E040E20E94760280914D
:102CF000460360E20E94BD0280914B0360E20E94A5
:102D0000BD028DE660E20E94BD0280912E0360E26A
:102D10000E94BD0280914D0360E20E94BD02898144
:102D2000882364F0898185304CF48981885F982FED
:102D300081E0692F40E20E94980202C00E94B10225
:102D40000F90CF91DF910895DF93CF93CDB7DEB78A
:102D5000CF91DF910895DF93CF93CDB7DEB780E2B7
:102D60000E9433028DEF92E060E20E94530280E203
:102D70000E94430284E093E060E20E945302CF91FC
:102D8000DF910895DF93CF9300D000D000D0CDB76E
:102D9000DEB79E838D831C8250C1ED81FE8145810B
:102DA00056818C81882F90E09C01220F331FC9012E
:102DB000880F991F880F991F880F991F821B930BEB
:102DC000FA01E80FF91F14868BE090E09A8389835B
:102DD0003EC0ED81FE81458156818C81882F90E037
:102DE0009C01220F331FC901880F991F880F991F5B
:102DF000880F991F821B930BBA01680F791FA98155
:102E0000BA81ED81FE81458156818C81882F90E0C9
:102E10009C01220F331FC901880F991F880F991F2A
:102E2000880F991F821B930B9A01280F391F8981E4
:102E30009A810197F901E80FF91F8081FB01EA0FE0
:102E4000FB1F808389819A8101979A838983898175
:102E50009A81181619060CF4BCCFED81FE814581CC
:102E600056818C81882F90E09C01220F331FC9016D
:102E7000880F991F880F991F880F991F821B930B2A
:102E8000FA01E80FF91F8C818083ED81FE81458175
:102E900056818C81882F90E09C01220F331FC9013D
:102EA000880F991F880F991F880F991F821B930BFA
:102EB000FA01E80FF91F84858F5F84878C818B83EB
:102EC000A2C08BE090E09A8389833EC0ED81FE81B1
:102ED000458156818C81882F90E09C01220F331F01
:102EE000C901880F991F880F991F880F991F821B8E
:102EF000930BBA01680F791FA981BA81ED81FE8118
:102F0000458156818C81882F90E09C01220F331FD0
:102F1000C901880F991F880F991F880F991F821B5D
:102F2000930B9A01280F391F89819A810197F90122
:102F3000E80FF91F8081FB01EA0FFB1F8083898165
:102F40009A8101979A83898389819A811816190633
:102F50000CF4BCCFED81FE81458156818C81882F98
:102F600090E09C01220F331FC901880F991F880F21
:102F7000991F880F991F821B930BDA01A80FB91FA5
:102F8000ED81FE81428153818B81282F30E0C90180
:102F9000880F991F820F931F880F991F880F991F01
:102FA000FA01E80FF91F81818C93ED81FE81458143
:102FB00056818C81882F90E09C01220F331FC9011C
:102FC000880F991F880F991F880F991F821B930BD9
:102FD000FA01E80FF91F84858F5F8487ED81FE81F8
:102FE000428153818B81282F30E0C901880F991FBE
:102FF000820F931F880F991F880F991FFA01E80FFE
:10300000F91F81818B83ED81FE81428153818B8108
:10301000282F30E0C901880F991F820F931F880F56
:10302000991F880F991FFA01E80FF91F81818F3FBF
:1030300009F047CF8C818F5F8C83ED81FE81918178
:103040008C81891708F4A9CE26960FB6F894DEBFB6
:103050000FBECDBFCF91DF910895DF93CF9300D006
:103060000F92CDB7DEB79B838A8319821BC0EA819A
:10307000FB81458156818981882F90E09C01220F38
:10308000331FC901880F991F880F991F880F991F37
:10309000821B930BFA01E80FF91F8FEF8587898157
:1030A0008F5F8983EA81FB81918189818917F8F299
:1030B0000F900F900F90CF91DF910895DF93CF93F2
:1030C00000D000D0CDB7DEB79B838A836C83EA81C2
:1030D000FB81428153818C81282F30E0C901880F08
:1030E000991F820F931F880F991F880F991FFA014C
:1030F000E80FF91F868197810097B9F0EA81FB817B
:10310000428153818C81282F30E0C901880F991F9B
:10311000820F931F880F991F880F991FFA01E80FDC
:10312000F91F0680F781E02D0995EA81FB81428134
:1031300053818C81282F30E0C901880F991F820F9D
:10314000931F880F991F880F991FFA01E80FF91F25
:10315000808591850097B9F0EA81FB814281538196
:103160008C81282F30E0C901880F991F820F931F8F
:10317000880F991F880F991FFA01E80FF91F008423
:10318000F185E02D0995EA81FB818C818483EA81B8
:10319000FB81428153818C81282F30E0C901880F47
:1031A000991F820F931F880F991F880F991FFA018B
:1031B000E80FF91F828189837FC0EA81FB81428108
:1031C00053818981282F332727FD3095C901880F26
:1031D000991F820F931F880F991F880F991FFA015B
:1031E000E80FF91F868197810097C9F0EA81FB817A
:1031F000428153818981282F332727FD3095C901CA
:10320000880F991F820F931F880F991F880F991F8E
:10321000FA01E80FF91F0680F781E02D0995EA8190
:10322000FB81428153818981282F332727FD3095E7
:10323000C901880F991F820F931F880F991F880F4C
:10324000991FFA01E80FF91F808591850097C9F051
:10325000EA81FB81428153818981282F332727FD11
:103260003095C901880F991F820F931F880F991FEE
:10327000880F991FFA01E80FF91F0084F185E02DEE
:1032800009958981EA81FB818483EA81FB814281FE
:1032900053818981282F332727FD3095C901880F55
:1032A000991F820F931F880F991F880F991FFA018A
:1032B000E80FF91F8281898389818F3F09F07DCFD3
:1032C0000F900F900F900F90CF91DF910895DF93A3
:1032D000CF9300D000D000D0CDB7DEB79A838983DA
:1032E0007C836B834D832E83E981FA818D81818379
:1032F000E981FA818B819C8193838283E981FA81C0
:103300008181882F90E09C01220F331FC901880F13
:10331000991F880F991F880F991F821B930B0E947A
:103320003D26E981FA819683858389819A810E946D
:10333000C21689819A810E942D1889819A816E8195
:103340000E945E18E981FA818FEF838B26960FB673
:10335000F894DEBF0FBECDBFCF91DF910895DF930C
:10336000CF9300D0CDB7DEB79A838983E981FA8104
:10337000858196810E94EA260F900F90CF91DF9170
:103380000895DF93CF9300D000D000D0CDB7DEB743
:103390009C838B836D834E831A821A82EB81FC811E
:1033A000458156818E81882F90E09C01220F331F2A
:1033B000C901880F991F880F991F880F991F821BB9
:1033C000930BFA01E80FF91F84858150898326C089
:1033D000EB81FC81458156818E81882F90E09C0194
:1033E000220F331FC901880F991F880F991F880F5B
:1033F000991F821B930B9A01280F391F89819927E6
:1034000087FD9095F901E80FF91F90818D8198173C
:1034100011F481E08A83898181508983898188239D
:10342000BCF68A8126960FB6F894DEBF0FBECDBFDC
:10343000CF91DF910895DF93CF9300D000D00F920A
:10344000CDB7DEB79D838C83EC81FD818FEF838BBD
:103450008C819D81079660E070E04CE050E00E9416
:103460004B271982EC81FD8184818A834FC0EC81D6
:10347000FD8183898F5FEC81FD81838BEC81FD81F0
:103480008389282F332727FD30954A818C819D81A0
:10349000820F931FFC0137964083EC81FD814281AE
:1034A00053818A81282F332727FD3095C901880F42
:1034B000991F820F931F880F991F880F991FFA0178
:1034C000E80FF91F0480F581E02D09958B83909119
:1034D000070319828B81891711F481E08983EC81BC
:1034E000FD81428153818A81282F332727FD309522
:1034F000C901880F991F820F931F880F991F880F8A
:10350000991FFA01E80FF91F81818A838A818F3F11
:1035100031F0898191E08927882309F0A8CF89813A
:103520000F900F900F900F900F90CF91DF91089513
:10353000DF93CF93CDB7DEB728970FB6F894DEBFF1
:103540000FBECDBF9D838C836E8358874F838FEFD3
:1035500089831B821A8298C02A813B818C819D813C
:10356000820F931FFC01379680818983EC81FD8156
:10357000428153818981282F30E0C901880F991F2A
:10358000820F931F880F991F880F991FFA01E80F68
:10359000F91F828593850097B9F0EC81FD81428106
:1035A00053818981282F30E0C901880F991F820F2C
:1035B000931F880F991F880F991FFA01E80FF91FB1
:1035C0000284F385E02D0995EF81F8858981808358
:1035D000EC81FD8162817381EC81FD8142815381A7
:1035E0008981282F30E0C901880F991F820F931F0E
:1035F000880F991F880F991FFA01E80FF91F818121
:10360000282F332727FD3095C901880F991F820F76
:10361000931F880F991F880F991FFB01E80FF91F4F
:103620008381882361F1EC81FD8165817681EC8164
:10363000FD81428153818981282F30E0C901880FA3
:10364000991F820F931F880F991F880F991FFA01E6
:10365000E80FF91F8181992787FD90959C01220F22
:10366000331FC901880F991F880F991F880F991F51
:10367000821B930BFB01E80FF91F898185878A81E3
:103680009B8101969B838A83EC81FD818389282F0E
:10369000332727FD30958A819B81281739070CF045
:1036A0005BCFEC81FD81428153818981282F30E0FD
:1036B000C901880F991F820F931F880F991F880FC8
:1036C000991FFA01E80FF91F818189839EC0EC815F
:1036D000FD81428153818981282F30E0C901880F03
:1036E000991F820F931F880F991F880F991FFA0146
:1036F000E80FF91F828593850097B9F0EC81FD8171
:10370000428153818981282F30E0C901880F991F98
:10371000820F931F880F991F880F991FFA01E80FD6
:10372000F91F0284F385E02D0995EF81F8858981E1
:103730008083EC81FD81428153818981282F30E093
:10374000C901880F991F820F931F880F991F880F37
:10375000991FFA01E80FF91F81818983EC81FD81AE
:1037600062817381EC81FD81428153818981282F9F
:1037700030E0C901880F991F820F931F880F991F8E
:10378000880F991FFA01E80FF91F8181282F33272D
:1037900027FD3095C901880F991F820F931F880F4D
:1037A000991F880F991FFB01E80FF91F8381882358
:1037B00061F1EC81FD8165817681EC81FD81428141
:1037C00053818981282F30E0C901880F991F820F0A
:1037D000931F880F991F880F991FFA01E80FF91F8F
:1037E0008181992787FD90959C01220F331FC90184
:1037F000880F991F880F991F880F991F821B930BA1
:10380000FB01E80FF91F8981858729818C819D81C2
:10381000622F4E810E94C119982F81E08927882349
:1038200009F055CF99818E81981709F089C0EC81F4
:10383000FD81428153818981282F30E0C901880FA1
:10384000991F820F931F880F991F880F991FFA01E4
:10385000E80FF91F828593850097B9F0EC81FD810F
:10386000428153818981282F30E0C901880F991F37
:10387000820F931F880F991F880F991FFA01E80F75
:10388000F91F0284F385E02D0995EC81FD81898182
:103890008083EC81FD8162817381EC81FD814281B5
:1038A00053818981282F30E0C901880F991F820F29
:1038B000931F880F991F880F991FFA01E80FF91FAE
:1038C0008181282F332727FD3095C901880F991F43
:1038D000820F931F880F991F880F991FFB01E80F14
:1038E000F91F8381882361F1EC81FD8165817681F7
:1038F000EC81FD81428153818981282F30E0C9010B
:10390000880F991F820F931F880F991F880F991F87
:10391000FA01E80FF91F8181992787FD90959C0195
:10392000220F331FC901880F991F880F991F880F15
:10393000991F821B930BFB01E80FF91F8981858773
:1039400028960FB6F894DEBF0FBECDBFCF91DF91A2
:103950000895DF93CF9300D000D000D0CDB7DEB76D
:103960009C838B836D834E838E818A83EB81FC8164
:1039700062817381EB81FC81458156818D81882F25
:1039800090E09C01220F331FC901880F991F880FF7
:10399000991F880F991F821B930B9A01280F391FBB
:1039A0008A81882F90E0F901E80FF91F8081282F84
:1039B000332727FD3095C901880F991F820F931F68
:1039C000880F991F880F991FFB01E80FF91F808549
:1039D00091850097A9F1EB81FC8162817381EB8174
:1039E000FC81458156818D81882F90E09C01220FBA
:1039F000331FC901880F991F880F991F880F991FBE
:103A0000821B930B9A01280F391F8A81882F90E01F
:103A1000F901E80FF91F8081282F332727FD309502
:103A2000C901880F991F820F931F880F991F880F54
:103A3000991FFB01E80FF91F0084F185E02D09951E
:103A40008A818F5F8A838A81682F70E0EB81FC8195
:103A5000458156818D81882F90E09C01220F331F74
:103A6000C901880F991F880F991F880F991F821B02
:103A7000930BFA01E80FF91F8485992787FD90952C
:103A80000197861797070CF071CF8D81898375C0D8
:103A9000EB81FC81458156818981882F90E09C01D2
:103AA000220F331FC901880F991F880F991F880F94
:103AB000991F821B930BFA01E80FF91F85858F3F31
:103AC000C9F0EB81FC81458156818981882F90E086
:103AD0009C01220F331FC901880F991F880F991F5E
:103AE000880F991F821B930BFA01E80FF91F858538
:103AF000898315C0EB81FC81428153818981282F04
:103B000030E0C901880F991F820F931F880F991FFA
:103B1000880F991FFA01E80FF91F82818983EB81D1
:103B2000FC81428153818981282F30E0C901880FAF
:103B3000991F820F931F880F991F880F991FFA01F1
:103B4000E80FF91F808591850097B9F0EB81FC8122
:103B5000428153818981282F30E0C901880F991F44
:103B6000820F931F880F991F880F991FFA01E80F82
:103B7000F91F0084F185E02D0995EB81FC814581D9
:103B800056818981882F90E09C01220F331FC90143
:103B9000880F991F880F991F880F991F821B930BFD
:103BA000FA01E80FF91F85858F3F09F071CFEB818E
:103BB000FC81428153818981282F30E0C901880F1F
:103BC000991F820F931F880F991F880F991FFA0161
:103BD000E80FF91F82818F3F09F05ACF898126961D
:103BE0000FB6F894DEBF0FBECDBFCF91DF91089521
:103BF000DF93CF93CDB7DEB728970FB6F894DEBF2B
:103C00000FBECDBF9E838D836F8348878FEF8C83DC
:103C100028858D819E81622F4F810E94C119882342
:103C200009F44CC01B822EC0ED81FE814581568176
:103C30008F81882F90E09C01220F331FC901880FCC
:103C4000991F880F991F880F991F821B930B9A0148
:103C5000280F391F8B81992787FD9095F901E80F6F
:103C6000F91F8081282F332727FD30958885882FDD
:103C700090E02817390719F48B818C83CEC08B8193
:103C80008F5F8B83ED81FE81458156818F81882FE7
:103C900090E09C01220F331FC901880F991F880FE4
:103CA000991F880F991F821B930BFA01E80FF91FC8
:103CB00094858B8189170CF4B7CFAFC0ED81FE815D
:103CC000458156818F81882F90E09C01220F331F00
:103CD000C901880F991F880F991F880F991F821B90
:103CE000930BFA01E80FF91F6485ED81FE81458190
:103CF0005681ED81FE818081882F90E09C01220F0A
:103D0000331FC901880F991F880F991F880F991FAA
:103D1000821B930BFA01E80FF91F84858617D4F4F0
:103D2000ED81FE81458156818885882F90E09C0138
:103D3000220F331FC901880F991F880F991F880F01
:103D4000991F821B930BFA01E80FF91F848581509C
:103D5000898319C0ED81FE81458156818F81882F2D
:103D600090E09C01220F331FC901880F991F880F13
:103D7000991F880F991F821B930BFA01E80FF91FF7
:103D80008485815089831A8243C08A818C83ED8126
:103D9000FE81458156818885882F90E09C01220F05
:103DA000331FC901880F991F880F991F880F991F0A
:103DB000821B930B9A01280F391F8A81992787FD4F
:103DC0009095F901E80FF91F6081ED81FE81458131
:103DD00056818F81882F90E09C01220F331FC901EB
:103DE000880F991F880F991F880F991F821B930BAB
:103DF0009A01280F391F8A81992787FD9095F9012B
:103E0000E80FF91F8081681741F48A818F5F8A83E8
:103E10009A81898189170CF0B8CF2C818D819E8180
:103E20006F81422F0E94A91CED81FE818483289618
:103E30000FB6F894DEBF0FBECDBFCF91DF910895CE
:103E4000DF93CF93CDB7DEB7CF91DF910895DF93A6
:103E5000CF9300D000D0CDB7DEB79B838A83198281
:103E60001C828A819B81009711F081E08C838A817A
:103E70009B8101979B838A838C81882389F70F908C
:103E80000F900F900F90CF91DF910895DF93CF9314
:103E9000CDB7DEB780912303282F332727FD309538
:103EA00084E690E0AC01249FC001259F900D349FD3
:103EB000900D1124AC01405C524180916F03992711
:103EC00087FD90959C01220F331FC901880F991F10
:103ED000880F991F820F931F805E91409A01280FCF
:103EE000391F80917003992787FD9095C097820FA5
:103EF000931FAA2797FDA095BA2FBC01CD010E9460
:103F0000E024DC01CB0180932A0390932B03A09340
:103F10002C03B0932D03CF91DF910895DF93CF93BE
:103F20000F92CDB7DEB78983298184E090E0622FBC
:103F30000E94B4298981809323030E94461F0F9019
:103F4000CF91DF910895DF93CF930F92CDB7DEB776
:103F50008983298185E090E0622F0E94B4298981BC
:103F600080936F030E94461F0F90CF91DF910895B9
:103F7000DF93CF930F92CDB7DEB78983298186E097
:103F800090E0622F0E94B4298981809370030E947F
:103F9000461F0F90CF91DF910895DF93CF93CDB758
:103FA000DEB780914603282F332727FD309588E51B
:103FB00092E0AC01249FC001259F900D349F900D8D
:103FC0001124AC014058504780914B03282F3327D0
:103FD00027FD30958CE390E0BC01269FC001279F10
:103FE000900D369F900D112480549B40480F591F0F
:103FF00080912E03992787FD90959C01220F331FF6
:10400000C901880F991F880F991F820F931F805E27
:1040100091409A01280F391F80914D03992787FD00
:104020009095C097820F931F909327038093260348
:10403000CF91DF910895DF93CF930F92CDB7DEB785
:104040008983298187E090E0622F0E94B4298981C9
:10405000809346030E94CD1F0F90CF91DF9108956A
:10406000DF93CF930F92CDB7DEB78983298188E0A4
:1040700090E0622F0E94B429898180934B030E94B3
:10408000CD1F0F90CF91DF910895DF93CF930F92C3
:10409000CDB7DEB78983298189E090E0622F0E9445
:1040A000B429898180932E030E94CD1F0F90CF9158
:1040B000DF910895DF93CF930F92CDB7DEB7898359
:1040C00029818AE090E0622F0E94B429898180933F
:1040D0004D030E94CD1F0F90CF91DF910895DF9384
:1040E000CF93CDB7DEB70E943B0D909364038093CE
:1040F000630380916303909164039C018BE090E0E3
:10410000B9010E94C229CF91DF910895DF93CF9327
:10411000CDB7DEB70E943B0D90936A03809369038D
:104120008091690390916A039C018DE090E0B90150
:104130000E94C229CF91DF910895DF93CF93CDB72D
:10414000DEB7809147039091480390937203809368
:10415000710380917103909172039C018FE090E054
:10416000B9010E94C229CF91DF910895DF93CF93C7
:10417000CDB7DEB7809147039091480390936C03CD
:1041800080936B0380916B0390916C039C0181E1A0
:1041900090E0B9010E94C229CF91DF910895DF9389
:1041A000CF930F92CDB7DEB78983898180936E0359
:1041B00020916E0384E190E0622F0E94B4290F9059
:1041C000CF91DF910895DF93CF93CDB7DEB784E031
:1041D00090E00E94A62980932303809123038033DB
:1041E00024F0809123038A331CF080E30E948E1F09
:1041F00085E090E00E94A62980936F0380916F0371
:10420000803324F080916F038A331CF080E30E9496
:10421000A31F86E090E00E94A629809370038091FE
:104220007003803324F0809170038A331CF080E3A4
:104230000E94B81F87E090E00E94A6298093460361
:1042400080914603803324F0809146038A331CF02A
:1042500080E30E941B2088E090E00E94A6298093C2
:104260004B0380914B03803324F080914B038A33BE
:104270001CF080E30E94302089E090E00E94A62993
:1042800080932E0380912E03803324F080912E039F
:1042900086331CF080E30E9445208AE090E00E9473
:1042A000A62980934D0380914D03803324F08091A3
:1042B0004D038A331CF080E30E945A200E94CD1FD8
:1042C0000E94461F8BE090E00E94AE299093640309
:1042D0008093630380916303909164032FEF8F3F7A
:1042E000920721F410926403109263038DE090E032
:1042F0000E94AE2990936A038093690380916903B9
:1043000090916A032FEF8F3F920721F410926A0376
:10431000109269038FE090E00E94AE29909372039F
:104320008093710380917103909172032FEF8F3FFF
:10433000920721F4109272031092710381E190E0D0
:104340000E94AE2990936C0380936B0380916B0362
:1043500090916C032FEF8F3F920721F410926C0322
:1043600010926B0384E190E00E94A62980936E0373
:1043700080916E03823018F080E00E94CF2010926E
:10438000240310924903CF91DF910895DF93CF93D7
:1043900000D0CDB7DEB78A838BE193E00E9452272D
:1043A0008983898188304CF48981992787FD90958C
:1043B000FC01E55EFC4F8A8180830F900F90CF91C6
:1043C000DF910895DF93CF93CDB7DEB728970FB66F
:1043D000F894DEBF0FBECDBFF8942BE133E0CE01E1
:1043E0000196B90148E050E00E9442278BE193E03A
:1043F00060E070E048E050E00E944B277894FE01B6
:1044000031968081882399F000D000D0EDB7FEB7B7
:10441000319688E093E091838083CE010196938367
:1044200082830E945B270F900F900F900F90289629
:104430000FB6F894DEBF0FBECDBFCF91DF910895C8
:104440001F920F920FB60F9211242F933F934F9309
:104450005F936F937F938F939F93AF93BF93EF93EC
:10446000FF93DF93CF9300D0CDB7DEB7E9EBF0E059
:104470008081882F90E09C01287F30703A832983C7
:1044800089819A818832910509F441C029813A8154
:104490002932310584F489819A818031910551F165
:1044A00029813A812831310591F189819A818830B9
:1044B000910501F19AC029813A812034310509F42E
:1044C00063C089819A81813491053CF429813A81C4
:1044D0002833310509F484C088C089819A818035E8
:1044E000910509F43EC029813A812835310509F446
:1044F00059C07BC083E70E94C621EBEBF0E08091BE
:1045000016038083ECEBF0E085E8808377C084E6D7
:104510000E94C621809119038823C1F0809119035C
:10452000815080931903ABEBB0E0E0911703F09159
:10453000180380818C93CF01019690931803809388
:104540001703ECEBF0E085E8808358C0ECEBF0E07B
:1045500084E980838FEF80931A0381E080934E0378
:104560004DC0A0911703B0911803EBEBF0E08081F0
:104570008C93CD010196909318038093170380913B
:10458000190381508093190380911903823028F018
:10459000ECEBF0E085EC808331C0ECEBF0E085E8FB
:1045A00080832CC0A0911703B0911803EBEBF0E0CF
:1045B00080818C93CD01019690931803809317030B
:1045C00080911903815080931903ECEBF0E084E9AA
:1045D00080838FEF80931A0381E080934A030EC09B
:1045E000ECEBF0E085EA808309C0E9EBF0E0808144
:1045F00080931A03ECEBF0E084E080830F900F903F
:10460000CF91DF91FF91EF91BF91AF919F918F91EA
:104610007F916F915F914F913F912F910F900FBEBE
:104620000F901F901895DF93CF93CDB7DEB7109200
:104630004E0310924A038BE193E060E070E048E0A3
:1046400050E00E944B278EE60E94C621109219036B
:10465000E9EBF0E082E08083E8EBF0E084E4808343
:10466000EBEBF0E08FEF8083ECEBF0E084E0808315
:10467000CF91DF910895DF93CF9300D000D0CDB7D5
:10468000DEB789837B836A834C830E94AA238823B5
:10469000E1F710924E0389818E7F809316038A8101
:1046A0009B8190931803809317038C818093190347
:1046B000ECEBF0E085EA80830F900F900F900F9065
:1046C000CF91DF910895DF93CF9300D000D0CDB785
:1046D000DEB789837B836A834C832A813B8189810E
:1046E000B9014C810E943B2302C00E94E2218091CB
:1046F0004E038823D1F30F900F900F900F90CF911E
:10470000DF910895DF93CF9300D000D0CDB7DEB70F
:1047100089837B836A834C830E94AA238823E1F7E1
:1047200010924A0389818160809316038A819B815C
:1047300090931803809317038C8180931903ECEBFB
:10474000F0E085EA80830F900F900F900F90CF914B
:10475000DF910895DF93CF930F92CDB7DEB7ECEBE7
:10476000F0E08081882F90E081709070882319F0AC
:1047700081E0898301C0198289810F90CF91DF91F7
:104780000895DF93CF930F92CDB7DEB780911A03D0
:104790008F3F19F481E0898301C0198289810F90CC
:1047A000CF91DF910895DF93CF93CDB7DEB780919E
:1047B0001A03CF91DF9108955058BB27AA270ED036
:1047C00075C166D130F06BD120F031F49F3F11F408
:1047D0001EF45BC10EF4E095E7FB51C1E92F77D1E0
:1047E00080F3BA17620773078407950718F071F40E
:1047F0009EF58FC10EF4E0950B2EBA2FA02D0B0164
:10480000B90190010C01CA01A0011124FF27591B15
:1048100099F0593F50F4503E68F11A16F040A22F1B
:10482000232F342F4427585FF3CF4695379527958C
:10483000A795F0405395C9F77EF41F16BA0B620B8B
:10484000730B840BBAF09150A1F0FF0FBB1F661FD2
:10485000771F881FC2F70EC0BA0F621F731F841F15
:1048600048F4879577956795B795F7959E3F08F03B
:10487000B3CF9395880F08F09927EE0F97958795FA
:104880000895D9D008F481E008950CD00FC107D164
:1048900040F0FED030F021F45F3F19F0F0C051112C
:1048A00039C1F3C014D198F39923C9F35523B1F357
:1048B000951B550BBB27AA2762177307840738F08F
:1048C0009F5F5F4F220F331F441FAA1FA9F333D0EE
:1048D0000E2E3AF0E0E830D091505040E695001CA2
:1048E000CAF729D0FE2F27D0660F771F881FBB1F5E
:1048F000261737074807AB07B0E809F0BB0B802D38
:10490000BF01FF2793585F4F2AF09E3F510568F083
:10491000B6C000C15F3FECF3983EDCF38695779517
:104920006795B795F7959F5FC9F7880F911D969585
:10493000879597F90895E1E0660F771F881FBB1FE1
:10494000621773078407BA0720F0621B730B840B8E
:10495000BA0BEE1F88F7E095089504D06894B11162
:10496000D9C00895BCD088F09F5790F0B92F9927EF
:10497000B751A0F0D1F0660F771F881F991F1AF06A
:10498000BA95C9F712C0B13081F0C3D0B1E0089533
:10499000C0C0672F782F8827B85F39F0B93FCCF3B4
:1049A000869577956795B395D9F73EF49095809560
:1049B000709561957F4F8F4F9F4F0895E89409C080
:1049C00097FB3EF490958095709561957F4F8F4F42
:1049D0009F4F9923A9F0F92F96E9BB279395F69558
:1049E000879577956795B795F111F8CFFAF4BB0FD6
:1049F00011F460FF1BC06F5F7F4F8F4F9F4F16C03A
:104A0000882311F096E911C0772321F09EE8872FC3
:104A1000762F05C0662371F096E8862F70E060E07F
:104A20002AF09A95660F771F881FDAF7880F9695F8
:104A3000879597F90895990F0008550FAA0BE0E89C
:104A4000FEEF16161706E807F907C0F01216130650
:104A5000E407F50798F0621B730B840B950B39F490
:104A60000A2661F0232B242B252B21F408950A26F6
:104A700009F4A140A6958FEF811D811D089597F936
:104A80009F6780E870E060E008959FEF80EC0895F4
:104A900000240A941616170618060906089500241D
:104AA0000A9412161306140605060895092E039497
:104AB000000C11F4882352F0BB0F40F4BF2B11F40B
:104AC00060FF04C06F5F7F4F8F4F9F4F089557FD6A
:104AD0009058440F551F59F05F3F71F04795880F6C
:104AE00097FB991F61F09F3F79F087950895121603
:104AF00013061406551FF2CF4695F1DF08C01616AF
:104B000017061806991FF1CF86957105610508945F
:104B10000895E894BB2766277727CB0197F9089576
:104B20008ADF08F48FEF08950BD0C0CFB1DF28F0F3
:104B3000B6DF18F0952309F0A2CFA7CF1124EACF52
:104B4000C6DFA0F3959FD1F3950F50E0551F629FEC
:104B5000F001729FBB27F00DB11D639FAA27F00DD6
:104B6000B11DAA1F649F6627B00DA11D661F829FFD
:104B70002227B00DA11D621F739FB00DA11D621FE2
:104B8000839FA00D611D221F749F3327A00D611DFF
:104B9000231F849F600D211D822F762F6A2F1124E1
:104BA0009F5750408AF0E1F088234AF0EE0FFF1F34
:104BB000BB1F661F771F881F91505040A9F79E3F6B
:104BC000510570F05CCFA6CF5F3FECF3983EDCF36D
:104BD000869577956795B795F795E7959F5FC1F7A8
:104BE000FE2B880F911D9695879597F90895629FE2
:104BF000D001739FF001829FE00DF11D649FE00DD5
:104C0000F11D929FF00D839FF00D749FF00D659F35
:104C1000F00D9927729FB00DE11DF91F639FB00D34
:104C2000E11DF91FBD01CF011124089597FB092E45
:104C300007260AD077FD04D00CD006D000201AF445
:104C4000709561957F4F0895F6F7909581959F4FE8
:104C50000895AA1BBB1B51E107C0AA1FBB1FA617C3
:104C6000B70710F0A61BB70B881F991F5A95A9F715
:104C700080959095BC01CD010895CF93DF93BC0141
:104C80008230910510F462E070E0A091B803B09119
:104C9000B903ED01E0E0F0E040E050E021C08881A0
:104CA00099818617970769F48A819B81309719F05B
:104CB0009383828304C09093B9038093B803FE0169
:104CC00034C06817790738F44115510519F0841775
:104CD000950708F4AC01FE018A819B819C01E901E2
:104CE0002097E9F641155105A9F1CA01861B970BDA
:104CF000049708F4BA01E0E0F0E02AC08D919C919D
:104D0000119784179507F9F46417750781F41296C3
:104D10008D919C911397309719F09383828304C0EF
:104D20009093B9038093B803FD0132964FC0CA0136
:104D3000861B970BFD01E80FF91F61937193029792
:104D40008D939C9343C0FD01828193819C01D90185
:104D50001097A1F68091B6039091B703892B41F487
:104D600080911103909112039093B7038093B6033F
:104D700040911303509114034115510541F44DB76F
:104D80005EB780910F0390911003481B590B20913F
:104D9000B6033091B70324173507B0F4CA01821B5C
:104DA000930B8617970780F0AB014E5F5F4F841718
:104DB000950750F0420F531F5093B7034093B6032B
:104DC000F9016193719302C0E0E0F0E0CF01DF915F
:104DD000CF910895CF93DF93009709F450C0EC0171
:104DE00022971B821A82A091B803B091B903109741
:104DF00009F140E050E0AC17BD0708F1BB83AA837E
:104E0000FE0121913191E20FF31FAE17BF0779F434
:104E10008D919C911197280F391F2E5F3F4F398339
:104E2000288312968D919C9113979B838A834115B9
:104E3000510571F4D093B903C093B80320C0129602
:104E40008D919C911397AD01009711F0DC01D3CFA8
:104E5000FA01D383C28321913191E20FF31FCE1760
:104E6000DF0769F488819981280F391F2E5F3F4F32
:104E7000FA01318320838A819B8193838283DF912E
:104E8000CF910895FB01DC0102C001900D924150C9
:104E90005040D8F70895DC0101C06D934150504057
:104EA000E0F70895FC0101900020E9F780959095C6
:104EB0008E0F9F1F0895A0E0B0E0E1E6F7E20C94AA
:104EC000872AFE013596619171918091BC03909182
:104ED000BD03AF010E94C9272096E2E00C94A32AEB
:104EE0000F931F93CF93DF938C01E091BC03F0915C
:104EF000BD03838181FF21C0C0E0D0E00DC0E091FF
:104F0000BC03F091BD0320853185BF01F9010995EE
:104F1000892B11F0CFEFDFEFF80181918F0188230A
:104F200071F7E091BC03F091BD03208531858AE0E3
:104F3000BF01F9010995892B11F0CFEFDFEFCE0109
:104F4000DF91CF911F910F910895AEE0B0E0EBEAB1
:104F5000F7E20C94852A0D891E8986E08C831A83DA
:104F600009838FEF9FE79E838D839E01275E3F4FCE
:104F7000CE0101966F89788DA9010E94C9272F81E2
:104F80003885020F131FF80110822E96E4E00C946E
:104F9000A12AABE0B0E0EFECF7E20C94772A3C01F9
:104FA0002B015A01FC0117821682838181FD03C007
:104FB0006FEF7FEFC6C19AE0892E1E010894211C75
:104FC000311CF3012381F20123FD859123FF81919F
:104FD0002F01882309F4B2C1853239F423FD85916C
:104FE00023FF81912F01853229F490E0B3010E94C3
:104FF000DD29E7CF982FFF24EE249924FFE1FF1548
:10500000D0F09B3269F09C3228F4903259F0933200
:1050100091F40EC09D3249F0903369F441E024C010
:1050200052E0F52A84E0F82A28C098E0F92A25C041
:10503000E0E1FE2A22C0F7FC29C0892F80538A3084
:1050400070F4F6FE05C0989C902C1124980E15C0A3
:10505000E89CE02C1124E80EF0E2FF2A0EC09E32FC
:1050600029F4F6FC6BC140E4F42A07C09C3619F41D
:1050700050E8F52A02C0983649F4F20123FD9591D3
:1050800023FF91912F01992309F0B8CF892F8554DF
:10509000833018F08052833038F444E050E0A40E9E
:1050A000B51E5FE359830FC0933631F0933779F023
:1050B000933509F056C020C0F5018081898342E014
:1050C00050E0A40EB51E610101E010E012C0F50130
:1050D000C080D180F6FC03C06FEF7FEF02C0692D66
:1050E00070E042E050E0A40EB51EC6010E94D22935
:1050F0008C015FE7F52214C0F501C080D180F6FC79
:1051000003C06FEF7FEF02C0692D70E042E050E016
:10511000A40EB51EC6010E94C7298C0150E8F52ACD
:10512000F3FE07C01AC080E290E0B3010E94DD29BF
:10513000EA948E2D90E008171907A8F30EC0F60127
:10514000F7FC8591F7FE81916F0190E0B3010E9419
:10515000DD29E110EA94015010400115110579F79D
:10516000EAC0943611F0993669F5F7FE08C0F501EA
:10517000208131814281538184E090E00AC0F501B1
:10518000808191819C01442737FD4095542F82E016
:1051900090E0A80EB91E9FE6F92257FF09C050956E
:1051A0004095309521953F4F4F4F5F4FE0E8FE2AE5
:1051B000CA01B901A1012AE030E00E94092AD82ED3
:1051C000D21840C0953729F41F2D1F7E2AE030E009
:1051D0001DC01F2D197F9F3661F0903720F4983540
:1051E00009F0ACC00FC0903739F0983709F0A6C06D
:1051F00004C028E030E00AC0106114FD146020E112
:1052000030E004C014FD166020E132E017FF08C052
:10521000F501608171818281938144E050E008C092
:10522000F50180819181BC0180E090E042E050E096
:10523000A40EB51EA1010E94092AD82ED2188FE70C
:10524000F82EF122F6FE0BC05EEFF522D91438F4E9
:10525000F4FE07C0F2FC05C08FEEF82202C01D2D3F
:1052600001C0192DF4FE0DC0FE01ED0DF11D808170
:10527000803319F499EEF92208C01F5FF2FE05C0D1
:1052800003C08F2D867809F01F5F0F2DF3FC14C02B
:10529000F0FE0FC01E1510F09D2C0BC09D2C9E0C17
:1052A000911A1E2D06C080E290E0B3010E94DD2914
:1052B0001F5F1E15C0F304C01E1510F4E11A01C0D3
:1052C000EE2404FF0FC080E390E0B3010E94DD29CB
:1052D00002FF1DC001FD03C088E790E00EC088E515
:1052E00090E00BC0802F867891F001FF02C08BE226
:1052F00001C080E2F7FC8DE290E0B3010E94DD295D
:1053000006C080E390E0B3010E94DD299A94D9148D
:10531000C0F3DA94F101ED0DF11D808190E0B3014D
:105320000E94DD29DD20A9F706C080E290E0B301EC
:105330000E94DD29EA94EE20C1F743CEF301668195
:105340007781CB012B96E2E10C94932AF999FECF59
:1053500092BD81BDF89A992780B50895A8E1B0E083
:1053600042E050E00C94692A262FF999FECF1FBA2B
:1053700092BD81BD20BD0FB6F894FA9AF99A0FBE7E
:10538000019608950E94B429272F0C94B529FC0199
:105390000590615070400110D8F7809590958E0F60
:1053A0009F1F0895FC016150704001900110D8F7D3
:1053B000809590958E0F9F1F08950F931F93CF9305
:1053C000DF938C01EB018B8181FF1BC082FF0DC03D
:1053D0002E813F818C819D812817390764F4E881F3
:1053E000F9810193F983E88306C0E885F985802F68
:1053F0000995892B31F48E819F8101969F838E833D
:1054000002C00FEF1FEFC801DF91CF911F910F91E5
:105410000895FA01AA27283051F1203181F1E8944A
:105420006F936E7F6E5F7F4F8F4F9F4FAF4FB1E097
:105430003ED0B4E03CD0670F781F891F9A1FA11D92
:10544000680F791F8A1F911DA11D6A0F711D811D93
:10545000911DA11D20D009F468943F912AE0269F58
:1054600011243019305D3193DEF6CF010895462FB7
:105470004770405D4193B3E00FD0C9F7F6CF462F98
:105480004F70405D4A3318F0495D31FD4052419301
:1054900002D0A9F7EACFB4E0A695979587957795BE
:1054A0006795BA95C9F700976105710508959B0145
:1054B000AC010A2E06945795479537952795BA95CE
:1054C000C9F7620F731F841F951FA01D0895DC018B
:1054D000CB01FC01F999FECF06C0F2BDE1BDF89AFF
:1054E000319600B40D9241505040B8F708952F9274
:1054F0003F924F925F926F927F928F929F92AF9264
:10550000BF92CF92DF92EF92FF920F931F93CF93B0
:10551000DF93CDB7DEB7CA1BDB0B0FB6F894DEBF47
:105520000FBECDBF09942A88398848885F846E846D
:105530007D848C849B84AA84B984C884DF80EE80B7
:10554000FD800C811B81AA81B981CE0FD11D0FB6C0
:10555000F894DEBF0FBECDBFED010895F894FFCFE4
:1055600000000002000000008300000000000A5359
:1055700054415254555000656E7472792041736BDA
:10558000466F7243616C6962726174696F6E006527
:105590007869742061736B2063616C696200656E69
:1055A0007472792052756E6E696E670065786974E1
:1055B0002052756E6E696E670000FF0100CF020019
:1055C000000000000001000200D8020000000000FE
:1055D000000201FF002A0300000A031B0303010469
:1055E00000AF0300009B03A6030403FF00F10300C8
:1055F00000E103EA030503FF00F00400005D046B13
:1056000004060307004C050000360541050706FFA8
:105610000000060000EA05F7050806FF006D060019
:10562000005B06640609010A00E0060000C806D512
:10563000060A09FF004607000030073F070B09FF75
:1056400000B60700009D07AC070C09FF0092080098
:1056500000790888080D01FF00AB0900007B09985C
:10566000090E01FF002F0A00001F0A280A0F00FF81
:1056700000710A0000610A6A0A61646341202569B9
:1056800020677261642025662063616C6F77202536
:105690006920636168692025692072657320256629
:1056A0000A0025352E3266560025352E32665620E4
:1056B00025356920440025336920502025352E33B7
:1056C0006620560063616C6962205A65726F202003
:1056D0002C230073656C65637400524D53202A2C93
:1056E000204156522023004572726F720053657438
:1056F0002000253269004120232C2A20536B697039
:105700000043616C6962726174653F202A3D59658E
:1057100073006F7220776169740025352E31664100
:10572000002533696D253032690052756E6E696EE1
:1057300067200041202020202054002A2020202003
:1057400020232020202020202000416D7073202065
:10575000540041202020202054696D65004A6F626A
:10576000204F4B002A0080400A0A25730A0A0020B5
:0657700000C00300000070
:00000001FF
