:100000000C943E000C946C0B0C945B000C945B0005
:100010000C945B000C945B000C94B40E0C945B008D
:100020000C945B000C94C20A0C945B000C945B0073
:100030000C945B000C94B40B0C945B000C945B0070
:100040000C94A40B0C945B000C945B000C945B0070
:100050000C945B000C945B000C945B000C945B00B4
:100060000C942D0B0C945B000C9438220C945B00C8
:100070000C945B000C945B000C945B0011241FBE7D
:10008000C0E0D8E0DEBFCDBF13E0A0E0B1E0ECEE11
:10009000F4E502C005900D92A431B107D9F713E041
:1000A000A4E1B3E001C01D92A53AB107E1F70E94B7
:1000B000AA000C94742A0C940000DF93CF9300D014
:1000C000CDB7DEB79A838983E5ECF0E089819A8128
:1000D000892F99278083E4ECF0E089818083A0EC6C
:1000E000B0E0E0ECF0E080818C7F8C93E1ECF0E01C
:1000F00088E18083E2ECF0E086E080830F900F904F
:10010000CF91DF910895DF93CF9300D00F92CDB7B9
:10011000DEB789837B836A83E0ECF0E08081882FFF
:1001200090E0807290700097B9F389818A3031F441
:1001300020E031E08DE0B9010E948300E6ECF0E0C0
:100140008981808380E090E00F900F900F90CF9195
:10015000DF910895DF93CF9300D000D0CDB7DEB705
:100160008BE090E00E945D0080E091E09093A2031C
:100170008093A1038EE091E00E9436270E944821DF
:100180000E94D6010E94940E0E94F50B0E94152336
:100190000E942D130E94F5160E94F90980913B03DD
:1001A000882371F010923B038BE090E09B838A835D
:1001B0008FE393E09E012E5F3F4FB9010E941A0A20
:1001C00080915D03882371F010925D038AE090E0D6
:1001D0009B838A838FE393E09E012E5F3F4FB9019B
:1001E0000E941A0A80911B03882371F010921B034E
:1001F00086E090E09B838A838FE393E09E012E5FED
:100200003F4FB9010E941A0A80913703882371F089
:100210001092370385E090E09B838A838FE393E01D
:100220009E012E5F3F4FB9010E941A0A0E940D0FD6
:1002300089838981882391F18981833021F481E048
:1002400090E09B838A838981813021F487E090E06C
:100250009B838A838981823021F488E090E09B83AC
:100260008A838981853021F483E090E09B838A83AF
:100270008981863021F484E090E09B838A838981A0
:10028000803324F01B821A8289818C838FE393E070
:100290009E012E5F3F4FB9010E941A0A80913D03D3
:1002A000882309F47BCF10923D0389E090E09B8383
:1002B0008A838FE393E09E012E5F3F4FB9010E9436
:1002C0001A0A6CCFDF93CF9300D000D0CDB7DEB742
:1002D0008A836B834C83E4E2F0E01082E5E2F0E095
:1002E0001082ABE2B0E0EBE2F0E080818F718C93A2
:1002F000ABE2B0E0EBE2F0E080818F778C93ABE291
:10030000B0E0EBE2F0E0808180648C9381E089834F
:1003100015C0ABE2B0E0EBE2F0E0808180628C934C
:100320000E94711FE3E2F0E0808180788983ABE274
:10033000B0E0EBE2F0E080818F7D8C9389818823AF
:1003400041F7E4E2F0E08FEF8083E5E2F0E08A81BC
:1003500080838B81882339F0ABE2B0E0EBE2F0E000
:10036000808180688C93ABE2B0E0EBE2F0E08081CA
:100370008F7B8C930E94711FABE2B0E0EBE2F0E068
:10038000808180628C930E94711FABE2B0E0EBE24F
:10039000F0E080818F7D8C9389818F5F89830F90BE
:1003A0000F900F900F90CF91DF910895DF93CF932F
:1003B000CDB7DEB7AAE2B0E0EAE2F0E08081806E7D
:1003C0008C93ABE2B0E0EBE2F0E080818F718C9334
:1003D000E4E2F0E01082E5E2F0E0108281E060E02B
:1003E00040E20E94620188E360E040E20E94620114
:1003F0008CE060E040E20E94620186E060E040E262
:100400000E946201CF91DF910895DF93CF930F9205
:10041000CDB7DEB78983998181E060E0492F0E94E2
:1004200062010F90CF91DF910895DF93CF930F92E8
:10043000CDB7DEB78983998180EC60E0492F0E94B7
:1004400062010F90CF91DF910895DF93CF9300D099
:1004500000D0CDB7DEB79B838A836C830BC08981C4
:100460009C8161E0492F0E9462018A819B810196F3
:100470009B838A83EA81FB818081898389818823A8
:1004800071F70F900F900F900F90CF91DF9108951B
:10049000DF93CF9300D000D0CDB7DEB78A836B83D4
:1004A0004C838A81882311F4198202C080E48983F5
:1004B00099818B81890F8058898389819C8160E033
:1004C000492F0E9462010F900F900F900F90CF91D3
:1004D000DF910895DF93CF9300D00F92CDB7DEB7B1
:1004E00089836A834B8389816A814B810E94480298
:1004F0008FE060E040E20E9462010F900F900F9049
:10050000CF91DF910895DF93CF93CDB7DEB78CE025
:1005100060E040E20E946201CF91DF910895DF9395
:10052000CF9300D0CDB7DEB789836A8389819A8162
:1005300061E0492F0E9462010F900F90CF91DF91EF
:100540000895DF93CF93CDB7DEB780910C03CF91A1
:10055000DF910895DF93CF9300D00F92CDB7DEB730
:1005600080910C038A83E0916403F091650380819C
:1005700091818F309105C9F48FE0898380911E03AA
:1005800090911F039E012D5F3F4F6FE0A9010E94D4
:10059000E91A80911E0390911F032B816981422FDC
:1005A0000E94491E80910D038A838A810F900F90CB
:1005B0000F90CF91DF910895DF93CF93CDB7DEB742
:1005C00087E191E00E9436270E94161586E090E0B0
:1005D0000E948C0DCF91DF910895DF93CF93CDB71B
:1005E000DEB78FE291E00E9436270E94A80D0E949C
:1005F0000C15CF91DF910895DF93CF9300D000D0F9
:100600000F92CDB7DEB780910C038B83E09164032A
:10061000F09165038081918185309105C9F489E06D
:100620008A8380911E0390911F039E012C5F3F4F90
:1006300069E0A9010E94E91A80911E0390911F03AD
:100640002C816A81422F0E94491E80910D038B8369
:10065000E0916403F091650380819181833091057D
:1006600049F0E0916403F0916503808191818730C6
:100670009105C9F483E0898380911E0390911F0343
:100680009E012B5F3F4F63E0A9010E94E91A809110
:100690001E0390911F032D816981422F0E94491EE4
:1006A00080910D038B83E0916403F0916503808159
:1006B00091818630910529F40E94D61580910D0311
:1006C0008B838B810F900F900F900F900F90CF9195
:1006D000DF910895DF93CF93CDB7DEB78FEF9FE71C
:1006E0000E948C0DCF91DF910895DF93CF93CDB70A
:1006F000DEB70E94A80DCF91DF910895DF93CF93CD
:1007000000D00F92CDB7DEB780910C038A83E091C1
:100710006403F09165038081918188309105C9F46B
:1007200089E0898380911E0390911F039E012D5FB4
:100730003F4F69E0A9010E94E91A80911E03909140
:100740001F032B816981422F0E94491E80910D0356
:100750008A838A810F900F900F90CF91DF91089537
:10076000DF93CF93CDB7DEB70E948B14CF91DF918B
:100770000895DF93CF93CDB7DEB7CF91DF91089582
:10078000DF93CF9300D000D00F92CDB7DEB780912A
:100790000C038B83E0916403F09165038081918168
:1007A00084309105E1F485E08A8380911E03909165
:1007B0001F039E012C5F3F4F65E0A9010E94E91ACB
:1007C00081E00E94342180911E0390911F032C81AF
:1007D0006A81422F0E94491E80910D038B83E09114
:1007E0006403F09165038081918183309105E1F488
:1007F00085E0898380911E0390911F039E012B5FEA
:100800003F4F65E0A9010E94E91A80E00E9434216F
:1008100080911E0390911F032D816981422F0E94B8
:10082000491E80910D038B83E0916403F091650371
:10083000808191818630910519F480910D038B831D
:100840008B810F900F900F900F900F90CF91DF91B1
:100850000895DF93CF93CDB7DEB70E947C1410923A
:100860003D03CF91DF910895DF93CF93CDB7DEB7EE
:10087000CF91DF910895DF93CF9300D00F92CDB742
:10088000DEB78B83E0916403F091650380819181F1
:1008900084309105C9F486E0898380911E0390918C
:1008A0001F039E012E5F3F4F66E0A9010E94E91AD7
:1008B00080911E0390911F032A816981422F0E941B
:1008C000491E80910D038B838B810F900F900F90A9
:1008D000CF91DF910895DF93CF9300D00F92CDB7E2
:1008E000DEB780910C038A83E0916403F091650385
:1008F0008081918189309105C9F486E08983809156
:100900001E0390911F039E012D5F3F4F66E0A901DA
:100910000E94E91A80911E0390911F032B81698127
:10092000422F0E94491E80910D038A83E091640347
:10093000F0916503808191818630910539F40E94A0
:100940002E100E94431480910D038A838A810E9495
:100950003B048A838A810F900F900F90CF91DF9193
:100960000895DF93CF93CDB7DEB70E946C0C0E9441
:10097000A90CCF91DF910895DF93CF93CDB7DEB768
:100980000E94B90C0E94980CCF91DF910895DF93DB
:10099000CF9300D000D00F92CDB7DEB780910C037B
:1009A0008983E0916403F0916503808191810097D0
:1009B00009F074C08091390390913A039B838A8334
:1009C000E0916403F09165038281282F332727FD8E
:1009D00030953D832C838C819D818333910561F11A
:1009E0002C813D81243331055CF48C819D818133E0
:1009F0009105B1F02C813D8122333105B9F035C02C
:100A00008C819D818833910521F12C813D81293391
:100A1000310529F18C819D8187339105A1F025C095
:100A20008A819B8101969B838A831FC08A819B81D7
:100A30000A969B838A8319C08A819B818C599F4F18
:100A40009B838A8312C08A819B8101979B838A83BF
:100A50000CC08A819B810A979B838A8306C08A8106
:100A60009B81845690409B838A838A819B819923B2
:100A700014F41B821A828A819B8123E08B329207B5
:100A800024F08AE293E09B838A838A819B810E947F
:100A9000AE0A0E94F51380910D038983E0916403EF
:100AA000F0916503808191818630910529F40E943F
:100AB000F51380910D03898389810F900F900F901A
:100AC0000F900F90CF91DF910895DF93CF93CDB723
:100AD000DEB70E94F61480E090E00E94AE0ACF914B
:100AE000DF910895DF93CF93CDB7DEB70E940C1549
:100AF000CF91DF910895DF93CF9300D000D00F9274
:100B0000CDB7DEB780910C038B83E0916403F09145
:100B100065038081918183309105C9F488E08A83DF
:100B200080911E0390911F039E012C5F3F4F68E050
:100B3000A9010E94E91A80911E0390911F032C8144
:100B40006A81422F0E94491E80910D038B83E091A0
:100B50006403F09165038081918184309105E9F40B
:100B600088E0898380911E0390911F039E012B5F73
:100B70003F4F68E0A9010E94E91A0E94EE200E94FE
:100B8000C02080911E0390911F032D816981422F07
:100B90000E94491E80910D038B838B810F900F90D3
:100BA0000F900F900F90CF91DF910895DF93CF9327
:100BB000CDB7DEB70E940115CF91DF910895DF9385
:100BC000CF93CDB7DEB70E940C15CF91DF9108957A
:100BD000DF93CF9300D000D00F92CDB7DEB78091D6
:100BE0000C038B83E0916403F09165038081918114
:100BF00083309105C9F489E08A8380911E03909126
:100C00001F039E012C5F3F4F69E0A9010E94E91A72
:100C100080911E0390911F032C816A81422F0E94B4
:100C2000491E80910D038B83E0916403F09165036D
:100C30008081918184309105E9F489E089838091F4
:100C40001E0390911F039E012B5F3F4F69E0A90196
:100C50000E94E91A0E9407210E94D72080911E035A
:100C600090911F032D816981422F0E94491E80911E
:100C70000D038B838B810F900F900F900F900F902F
:100C8000CF91DF910895DF93CF93CDB7DEB78FEF8C
:100C90009FE70E948C0D0E943C10CF91DF91089538
:100CA000DF93CF93CDB7DEB70E94A80D0E940C153D
:100CB000CF91DF910895DF93CF9300D00F92CDB7FE
:100CC000DEB780910C038A83E0916403F0916503A1
:100CD0008081918187309105C9F48DE0898380916D
:100CE0001E0390911F039E012D5F3F4F6DE0A901F0
:100CF0000E94E91A80911E0390911F032B81698144
:100D0000422F0E94491E80910D038A83E091640363
:100D1000F0916503808191818530910539F48FEFE1
:100D20009FE70E948C0D80910D038A83E0916403FC
:100D3000F0916503808191818630910529F40E94AC
:100D4000461080910D038A838A810F900F900F9037
:100D5000CF91DF910895DF93CF93CDB7DEB70E9497
:100D600055168FEF0E948E168FEF0E94BD16CF9101
:100D7000DF910895DF93CF93CDB7DEB7CF91DF91A9
:100D80000895DF93CF9300D000D00F92CDB7DEB798
:100D900080910C038B83E0916403F0916503808163
:100DA000918183309105C9F48BE08A8380911E0381
:100DB00090911F039E012C5F3F4F6BE0A9010E94A1
:100DC000E91A80911E0390911F032C816A81422FA2
:100DD0000E94491E80910D038B83E0916403F09182
:100DE00065038081918184309105C9F48CE0898309
:100DF00080911E0390911F039E012B5F3F4F6CE07B
:100E0000A9010E94E91A80911E0390911F032D8170
:100E10006981422F0E94491E80910D038B838B8133
:100E20000F900F900F900F900F90CF91DF9108953A
:100E3000DF93CF93CDB7DEB70E946C161092630399
:100E4000809163030E948E16CF91DF910895DF9306
:100E5000CF93CDB7DEB78FEF0E948E16CF91DF9183
:100E60000895DF93CF93CDB7DEB729970FB6F894E7
:100E7000DEBF0FBECDBF80910C038C83E091640375
:100E8000F09165038081918184309105C9F48CE0F3
:100E90008B8380911E0390911F039E012B5F3F4F18
:100EA0006CE0A9010E94E91A80911E0390911F0332
:100EB0002D816B81422F0E94491E80910D038C83EE
:100EC000E0916403F0916503808191818330910505
:100ED000C9F48AE08A8380911E0390911F039E01CA
:100EE0002A5F3F4F6AE0A9010E94E91A80911E0320
:100EF00090911F032E816A81422F0E94491E80918A
:100F00000D038C83E0916403F091650380819181EE
:100F1000009709F05FC0E0916403F091650382815E
:100F20008A330CF057C0E0916403F091650382812D
:100F300080330CF44FC080916303282F332727FDA3
:100F4000309539872887888599858130910589F082
:100F50002885398522303105A1F08885998500974B
:100F600069F5E0916403F091650382810E942D157B
:100F700025C0E0916403F091650382810E943A15D7
:100F80001DC0E0916403F091650382810E944715C2
:100F90008AE0898380911E0390911F039E01295F3F
:100FA0003F4F6AE0A9010E94E91A80911E039091C7
:100FB0001F032F816981422F0E94491E8091630384
:100FC0008F5F80936303809163030E948E168091EC
:100FD0000D038C838C8129960FB6F894DEBF0FBE6B
:100FE000CDBFCF91DF910895DF93CF93CDB7DEB71B
:100FF0000E947D1610926303809163030E94BD16C8
:10100000CF91DF910895DF93CF93CDB7DEB78FEF08
:101010000E94BD16CF91DF910895DF93CF93CDB796
:10102000DEB729970FB6F894DEBF0FBECDBF809113
:101030000C038C83E0916403F091650380819181BE
:1010400083309105C9F48BE08B8380911E039091CE
:101050001F039E012B5F3F4F6BE0A9010E94E91A1D
:1010600080911E0390911F032D816B81422F0E945E
:10107000491E80910D038C83E0916403F091650318
:101080008081918184309105C9F48AE08A838091BE
:101090001E0390911F039E012A5F3F4F6AE0A90142
:1010A0000E94E91A80911E0390911F032E816A818C
:1010B000422F0E94491E80910D038C83E0916403AE
:1010C000F091650380819181009709F085C0E091DE
:1010D0006403F091650382818A330CF07DC0E09156
:1010E0006403F0916503828180330CF475C08091B4
:1010F0006303282F332727FD309539872887888574
:10110000998581309105E9F02885398522303105AE
:101110002CF488859985009761F052C0288539851F
:1011200023303105D9F0888599858430910559F1AE
:1011300047C0E0916403F091650382810E945415D9
:101140003FC0E0916403F091650382810E946115C4
:10115000809163038F5F8093630332C0E0916403E7
:10116000F09165038281863344F4E0916403F09149
:10117000650382810E946E1523C0809163038150B4
:10118000809363031DC0E0916403F0916503828145
:101190000E947B158AE0898380911E0390911F0332
:1011A0009E01295F3F4F6AE0A9010E94E91A8091E0
:1011B0001E0390911F032F816981422F0E94491EB7
:1011C000809163038F5F80936303809163030E9428
:1011D000BD1680910D038C838C8129960FB6F894EF
:1011E000DEBF0FBECDBFCF91DF910895DF93CF93C8
:1011F000CDB7DEB78EE391E00E9436270E944616F7
:1012000080911C0390911D030E948C0D80916103BD
:10121000909162030E94AE0A0E946C0C0E94A90C7D
:10122000CF91DF910895DF93CF93CDB7DEB78CE4F4
:1012300091E00E9436270E94A80D0E94B90C0E94DE
:10124000980C0E940C15CF91DF910895DF93CF93F6
:1012500000D000D00F92CDB7DEB780910C038B8306
:10126000E0916403F091650380819181883091055C
:10127000C9F489E08A8380911E0390911F039E0127
:101280002C5F3F4F69E0A9010E94E91A80911E037B
:1012900090911F032C816A81422F0E94491E8091E8
:1012A0000D038B83E0916403F0916503808191814C
:1012B00085309105C9F48EE0898380911E03909159
:1012C0001F039E012B5F3F4F6EE0A9010E94E91AA8
:1012D00080911E0390911F032D816981422F0E94EE
:1012E000491E80910D038B83E0916403F0916503A7
:1012F000808191818630910549F40E9488150E9471
:10130000D6150E94AB1380910D038B83E09164038B
:10131000F0916503808191818A30910511F40E94DA
:10132000B4128B810F900F900F900F900F90CF9170
:10133000DF910895DF93CF93CDB7DEB70E94FC16FF
:10134000CF91DF910895DF93CF93CDB7DEB7CF91E3
:10135000DF910895DF93CF9300D00F92CDB7DEB722
:1013600080910C038A83E0916403F091650380818E
:10137000918183309105C9F489E0898380911E03AE
:1013800090911F039E012D5F3F4F69E0A9010E94CC
:10139000E91A80911E0390911F032B816981422FCE
:1013A0000E94491E80910D038A838A810F900F90BD
:1013B0000F90CF91DF910895DF93CF93CDB7DEB734
:1013C0000E94A214CF91DF910895DF93CF93CDB700
:1013D000DEB7CF91DF910895DF93CF930F92CDB712
:1013E000DEB780910C03898389810F90CF91DF91C3
:1013F0000895DF93CF93CDB7DEB78FE393E090935B
:101400001F0380931E038FE393E029E531E0B901C8
:1014100040E120E00E94B819CF91DF910895DF9359
:10142000CF93CDB7DEB78FE393E00E94001ACF9140
:10143000DF910895DF93CF9300D000D0CDB7DEB712
:101440009A8389837C836B838B819C8190936503D2
:101450008093640389819A810E946C1A0F900F9087
:101460000F900F90CF91DF910895DF93CF9300D02D
:10147000CDB7DEB7F89480916803909169039A83A1
:101480008983789489819A810F900F90CF91DF9111
:101490000895DF93CF93CDB7DEB78091670388239C
:1014A00009F052C0E7E3F0E0108280913903909197
:1014B0003A03181619060CF047C0209139033091F1
:1014C0003A038AE293E0821B930B90936B03809321
:1014D0006A0380916A0390916B038F30910534F415
:1014E0008FE090E090936B0380936A0380916A038E
:1014F00090916B038C3F91057CF4E2EBF0E08091DE
:101500006A0390916B03982F8CEF891B8083109254
:101510006B0310926A030DC080916A0390916B0374
:101520008C5F904090936B0380936A03E2EBF0E052
:101530001082E0E7F0E082E08083E1EBF0E085E01C
:10154000808381E080936703CF91DF910895DF93DB
:10155000CF93CDB7DEB7CF91DF910895DF93CF93CF
:1015600000D0CDB7DEB79A838983F89489819A81B8
:1015700090933A038093390378940F900F90CF9112
:10158000DF9108951F920F920FB60F9211242F939F
:101590003F934F935F936F937F938F939F93AF93FB
:1015A000BF93EF93FF93DF93CF93CDB7DEB7F8945C
:1015B00080916A0390916B030097D9F4E1EBF0E01E
:1015C0001082E0E7F0E01082ABE2B0E0EBE2F0E0A6
:1015D000808180618C938AE090E00E94781FABE26A
:1015E000B0E0EBE2F0E080818F7E8C931092670395
:1015F00020C080916A0390916B038C3F91057CF42D
:10160000E2EBF0E080916A0390916B03982F8CEFEE
:10161000891B808310926B0310926A030AC0809129
:101620006A0390916B038C5F904090936B0380935F
:101630006A037894CF91DF91FF91EF91BF91AF91C1
:101640009F918F917F916F915F914F913F912F91DA
:101650000F900FBE0F901F9018951F920F920FB60C
:101660000F9211248F939F93EF93FF93DF93CF9368
:10167000CDB7DEB7E8E7F0E08081918190936D030C
:1016800080936C03809166038F5F80936603EAE723
:10169000F0E087E08083EAE7F0E08FEA8083ECE720
:1016A000F0E080818D3C21F481E080935D0309C0EE
:1016B000809166038E3129F41092660381E0809355
:1016C0005D03CF91DF91FF91EF919F918F910F90EB
:1016D0000FBE0F901F9018951F920F920FB60F928A
:1016E00011242F933F934F935F936F937F938F9327
:1016F0009F93AF93BF93EF93FF93DF93CF93CDB7B8
:10170000DEB7F894E9E2F0E08081882F90E0847001
:101710009070009719F00E94A70A02C00E94490A1F
:101720007894CF91DF91FF91EF91BF91AF919F910D
:101730008F917F916F915F914F913F912F910F907A
:101740000FBE0F901F9018951F920F920FB60F9219
:101750001124DF93CF93CDB7DEB7CF91DF910F90F8
:101760000FBE0F901F9018951F920F920FB60F92F9
:1017700011242F933F934F935F936F937F938F9396
:101780009F93AF93BF93EF93FF93DF93CF93CDB727
:10179000DEB7809168039091690301979093690384
:1017A0008093680380916803909169031816190665
:1017B00034F00E94A80D81E08093370303C081E0DC
:1017C00080931B03CF91DF91FF91EF91BF91AF9178
:1017D0009F918F917F916F915F914F913F912F9149
:1017E0000F900FBE0F901F901895DF93CF93CDB73A
:1017F000DEB7E1E2F0E080EF8083E2E2F0E080EE4D
:101800008083EEE7F0E08FE08083AAE2B0E0EAE2D6
:10181000F0E0808180618C93ABE2B0E0EBE2F0E03D
:1018200080818F7E8C93AAE2B0E0EAE2F0E08081D2
:101830008B7F8C93ABE2B0E0EBE2F0E080818B7FBA
:101840008C93E9E6F0E081E08083EDE3F0E0108244
:1018500010921B03E0E8F0E01082E1E8F0E088E09D
:101860008083E2E8F0E01082E8E8F0E080E39AE2CA
:1018700091838083E4E8F0E011821082EFE6F0E0EB
:101880001082E4E4F0E082E08083E7E4F0E08FEFB0
:101890008083E6E4F0E01082E5E4F0E01082EEE61A
:1018A000F0E0108210926703E0EBF0E082E08083CA
:1018B000E1EBF0E01082E6EBF0E01082E3EBF0E029
:1018C0008CEF8083E2EBF0E01082E0E7F0E0108242
:1018D0007894CF91DF910895DF93CF93CDB7DEB7A2
:1018E000EAE7F0E087E0808310925D0310926603E0
:1018F00080915E03813029F4ECE7F0E081E480839D
:1019000004C0ECE7F0E080E48083EAE7F0E08FEAEF
:101910008083EBE7F0E083E08083E5E4F0E085E0BE
:101920008083EEE6F0E082E08083CF91DF9108953E
:10193000DF93CF93CDB7DEB7EAE7F0E087E08083AF
:10194000E5E4F0E01082EEE6F0E01082CF91DF9166
:101950000895DF93CF93CDB7DEB70E948013ECE3F9
:10196000F0E01082EDE3F0E081E08083CF91DF9141
:101970000895DF93CF93CDB7DEB7EDE3F0E01082AB
:10198000F8940E94A70A7894CF91DF910895DF938D
:10199000CF9300D0CDB7DEB7F89480916C039091CF
:1019A0006D039A838983789489819A810F900F902F
:1019B000CF91DF910895DF93CF9300D0CDB7DEB7FD
:1019C0009A83898389819A8180709270009799F0B7
:1019D00089819A8101979A83898389819A819C6FF1
:1019E000809590959A83898389819A819095819534
:1019F0009F4F9A83898389819A810F900F90CF910D
:101A0000DF910895DF93CF9300D0CDB7DEB70E946A
:101A1000C70C9A83898389819A810E94DB0C9A83FF
:101A2000898389819A810F900F90CF91DF910895DA
:101A3000DF93CF9300D000D000D0CDB7DEB780E0E9
:101A400090E0A0E0B0E089839A83AB83BC83ECE7AD
:101A5000F0E080818D3C49F50E94020D9E838D83CC
:101A60008D819E81AA2797FDA095BA2FBC01CD013B
:101A70000E94AF24DC01CB01BC01CD012AE037ED8F
:101A800043E250E40E946325DC01CB01BC01CD019F
:101A900020E030E040EA55E40E941424DC01CB0150
:101AA00089839A83AB83BC8328C00E94C70C9E8322
:101AB0008D838D819E81AA2797FDA095BA2FBC01A9
:101AC000CD010E94AF24DC01CB01BC01CD0120E09F
:101AD00030E040EA50E40E946325DC01CB01BC0108
:101AE000CD0120E030EC4FE754E40E941424DC01E7
:101AF000CB0189839A83AB83BC8389819A81AB8133
:101B0000BC81BC01CD0126960FB6F894DEBF0FBE96
:101B1000CDBFCF91DF910895DF93CF9300D0CDB7A4
:101B2000DEB79A8389831092370389819A819093D3
:101B3000690380936803EFE6F0E082E08083E1E8E8
:101B4000F0E08DE080830F900F90CF91DF910895AA
:101B5000DF93CF93CDB7DEB7E1E8F0E088E0808394
:101B6000EFE6F0E01082CF91DF910895DF93CF93FD
:101B700000D0CDB7DEB71A821982E8E2F0E082E049
:101B8000808388E090E00E94781FE6E2F0E08081A8
:101B9000807F8A838A81882329F18A81882314F4AB
:101BA00082E389838A81992787FD9095807490705C
:101BB000009711F080E389838A81992787FD9095AA
:101BC00080729070009711F088E389838A81992749
:101BD00087FD909580719070009709F49FC085E310
:101BE00089839CC0E8E2F0E084E0808388E090E0B4
:101BF0000E94781FE6E2F0E08081807F8A838A81FC
:101C0000882329F18A81882314F481E389838A81D6
:101C1000992787FD909580749070009711F085E06A
:101C200089838A81992787FD9095807290700097AB
:101C300011F087E389838A81992787FD90958071C8
:101C40009070009709F46AC084E3898367C0E8E272
:101C5000F0E088E0808388E090E00E94781FE6E270
:101C6000F0E08081807F8A838A81882321F18A81C4
:101C7000882314F483E389838A81992787FD9095CB
:101C800080749070009711F086E089838A8199278B
:101C900087FD909580729070009711F089E3898399
:101CA0008A81992787FD9095807190700097B1F196
:101CB00086E3898333C0E8E2F0E081E0808388E056
:101CC00090E00E94781FE6E2F0E08081807F8A83C6
:101CD0008A81882319F18A81882314F481E0898319
:101CE0008A81992787FD909580749070009711F0F4
:101CF00082E089838A81992787FD90958072907010
:101D0000009711F083E089838A81992787FD909558
:101D100080719070009711F084E0898389810F9021
:101D20000F90CF91DF910895DF93CF93CDB7DEB7BA
:101D300010926E0381E080936F03E7E2F0E08FE0A2
:101D40008083E8E2F0E08FE08083EDE6F0E080EF72
:101D50008083A8E6B0E0E8E6F0E0808184608C93C0
:101D60007894CF91DF9108951F920F920FB60F9242
:101D700011242F933F934F935F936F937F938F9390
:101D80009F93AF93BF93EF93FF93DF93CF93CDB721
:101D9000DEB7E8E6F0E01082EDE6F0E01082E6E281
:101DA000F0E08081882F90E0807F9070009759F05C
:101DB00080916F03882321F00E94B60D80936E03FB
:101DC00010926F0303C081E080936F03E8E2F0E0BC
:101DD0008FE080830E94711FEBE3F0E01082EDE65C
:101DE000F0E080EF8083A8E6B0E0E8E6F0E08081F4
:101DF00084608C93CF91DF91FF91EF91BF91AF9170
:101E00009F918F917F916F915F914F913F912F9112
:101E10000F900FBE0F901F901895DF93CF930F92E6
:101E2000CDB7DEB7F89480916E03898310926E036C
:101E3000789489810F90CF91DF910895DF93CF93AC
:101E4000CDB7DEB728970FB6F894DEBF0FBECDBF73
:101E500080E090E0ACE0B2E489839A83AB83BC83FA
:101E60002091590330915A03809153039091540368
:101E7000A901481B590BCA01AA2797FDA095BA2FA3
:101E8000BC01CD010E94AF24DC01CB018D839E8378
:101E9000AF83B8878D819E81AF81B885BF77BC0144
:101EA000CD0120E030E040E85FE30E945F25181696
:101EB000ACF469817A818B819C812D813E814F8137
:101EC00058850E941424DC01CB0180937003909309
:101ED0007103A0937203B09373030CC080E090E091
:101EE000A0E0B0E08093700390937103A09372031D
:101EF000B093730328960FB6F894DEBF0FBECDBF24
:101F0000CF91DF910895DF93CF930F92CDB7DEB7D6
:101F100089838981882341F0A2E2B0E0E2E2F0E027
:101F200080818F778C9307C0A2E2B0E0E2E2F0E01C
:101F3000808180688C930F90CF91DF910895DF931B
:101F4000CF930F92CDB7DEB789838981882341F083
:101F5000A2E2B0E0E2E2F0E080818F7B8C9307C0E8
:101F6000A2E2B0E0E2E2F0E0808180648C930F9026
:101F7000CF91DF910895DF93CF930F92CDB7DEB766
:101F800089838981882341F0A2E2B0E0E2E2F0E0B7
:101F900080818F7D8C9307C0A2E2B0E0E2E2F0E0A6
:101FA000808180628C930F90CF91DF910895DF93B1
:101FB000CF9300D0CDB7DEB789836A8381E00E94DA
:101FC000830F8981882349F081E00E94BB0F8091B3
:101FD00025038F5F8093250308C080E00E94BB0F1C
:101FE0008091250381508093250381E00E949F0FFB
:101FF0008A81882319F080E00E949F0F80E00E9470
:10200000830F8A81882329F0809125030E94202153
:1020100003C080E00E949F0F80E00E94BB0F0F90E2
:102020000F90CF91DF910895DF93CF93CDB7DEB7B7
:1020300086E293E029E132E0B9014DE050E00E94F0
:10204000112781E080933B03CF91DF910895DF93C7
:10205000CF93CDB7DEB7CF91DF910895DF93CF93C4
:10206000CDB7DEB7CF91DF910895DF93CF93CDB792
:10207000DEB7CF91DF910895DF93CF93CDB7DEB771
:1020800081E080939603CF91DF910895DF93CF9302
:10209000CDB7DEB780919603882311F40E942710F4
:1020A000809196038F5F809396038091960386308C
:1020B00010F010929603CF91DF910895AF92BF92E6
:1020C000CF92DF92EF92FF920F931F93DF93CF9304
:1020D000CDB7DEB760970FB6F894DEBF0FBECDBFA9
:1020E00069837A838B839C832D833E834F835887B8
:1020F000E986FA860B871C87AD86BE86CF86D88A8E
:1021000089819A81AB81BC81809378039093790314
:10211000A0937A03B0937B038D819E81AF81B885B4
:1021200080938E0390938F03A0939003B0939103B9
:1021300089859A85AB85BC858093850390938603BA
:10214000A0938703B09388038D859E85AF85B8895A
:102150008093740390937503A0937603B0937703F1
:102160008D8D9E8DAF8DB8A18093890390938A0346
:10217000A0938B03B0938C0360E070E080E89FE352
:102180002D8D3E8D4F8D58A10E941424DC01CB0172
:102190008093810390938203A0938303B09384037D
:1021A00080E090E0A0E0B0E08093970390939803E4
:1021B000A0939903B0939A0310928D030E941E0F6F
:1021C00080E090E0A0E0B0E08093920390939303CE
:1021D000A0939403B093950360960FB6F894DEBF76
:1021E0000FBECDBFCF91DF911F910F91FF90EF9068
:1021F000DF90CF90BF90AF900895EF92FF920F9332
:102200001F93DF93CF93CDB7DEB760970FB6F894E7
:10221000DEBF0FBECDBF6D877E878F87988B8D8584
:102220009E85AF85B889BF7720917403309175037F
:102230004091760350917703BC01CD010E94102498
:1022400088234CF480E090E0A0E8BFE389879A8778
:10225000AB87BC8714C080E090E0A0E0B0E0898745
:102260009A87AB87BC8780E090E0A0E0B0E08093E5
:10227000970390939803A0939903B0939A03809146
:10228000890390918A03A0918B03B0918C03BC01C8
:10229000CD0129853A854B855C850E946325DC014B
:1022A000CB01BC01CD012D853E854F8558890E940B
:1022B0006325DC01CB012091970330919803409175
:1022C000990350919A03BC01CD010E94AC23DC011B
:1022D000CB018093970390939803A0939903B093B5
:1022E0009A0380918D03882361F481E080938D03AC
:1022F00080E090E0A0E0B0E089839A83AB83BC8368
:1023000022C020917D0330917E0340917F03509144
:1023100080036D857E858F8598890E94AB23DC01C3
:10232000CB0120918103309182034091830350912E
:102330008403BC01CD010E946325DC01CB018983AC
:102340009A83AB83BC838D859E85AF85B889809346
:102350007D0390937E03A0937F03B09380038091CD
:102360008E0390918F03A0919003B09191032091DF
:102370009703309198034091990350919A03BC01BF
:10238000CD010E946325DC01CB01BC01CD012D856F
:102390003E854F8558890E94AC23DC01CB017C012E
:1023A0008D018091850390918603A0918703B09160
:1023B0008803BC01CD0129813A814B815C810E9457
:1023C0006325DC01CB019C01AD01C801B7010E946E
:1023D000AC23DC01CB01209178033091790340914B
:1023E0007A0350917B03BC01CD010E946325DC017F
:1023F000CB018D839E83AF83B8878D819E81AF8112
:10240000B885BC01CD0160960FB6F894DEBF0FBE53
:10241000CDBFCF91DF911F910F91FF90EF90089565
:10242000DF93CF93CDB7DEB72E970FB6F894DEBF0C
:102430000FBECDBF0E94C70C9E878D87209153038E
:10244000309154038D859E85821B930BAA2797FD9F
:10245000A095BA2FBC01CD010E94AF24DC01CB01B5
:102460002091700330917103409172035091730376
:10247000BC01CD010E946325DC01CB01BC01CD0173
:1024800020E030E040EA51E40E94AC23DC01CB01C3
:1024900089879A87AB87BC8780917003909171037D
:1024A000A0917203B09173038D839E83AF83B8872D
:1024B00089859A85AB85BC8589839A83AB83BC83E8
:1024C00020915303309154034091590350915A0382
:1024D0008DB79EB740970FB6F8949EBF0FBE8DBFC5
:1024E000EDB7FEB7319686E292E0918380838D85C9
:1024F0009E85938382838D819E81AF81B8858483FD
:102500009583A683B7833187208753874287898144
:102510009A81AB81BC8184879587A687B7870E9403
:1025200021278DB79EB740960FB6F8949EBF0FBE79
:102530008DBF89859A85AB85BC8580935503909323
:102540005603A0935703B093580389859A85AB85AA
:10255000BC85BC01CD012E960FB6F894DEBF0FBE30
:10256000CDBFCF91DF910895DF93CF93CDB7DEB785
:102570002C970FB6F894DEBF0FBECDBF0E9410128D
:10258000DC01CB01209120033091210340912203F3
:1025900050912303BC01CD010E94AB23DC01CB0190
:1025A00089879A87AB87BC8789859A85AB85BC85E7
:1025B000BC01CD010E94FD10DC01CB0120919203F2
:1025C000309193034091940350919503BC01CD0148
:1025D0000E94AC23DC01CB018D839E83AF83B8873F
:1025E0006D817E818F8198850E947C24DC01CB01E6
:1025F0009A83898389819A81AA2797FDA095BA2F0A
:10260000BC01CD010E94AF249B01AC016D817E8194
:102610008F8198850E94AB23DC01CB0180939203CC
:1026200090939303A0939403B0939503209139035F
:1026300030913A0389819A81820F931F9C838B8307
:102640008B819C810E94AE0A2C960FB6F894DEBF57
:102650000FBECDBFCF91DF910895AF92BF92CF92C1
:10266000DF92EF92FF920F931F93DF93CF93CDB73B
:10267000DEB700D000D0EDB7FEB731968AEA93E11D
:10268000A6E3BFE380839183A283B38360E070E01D
:1026900080E09FEB2DEC3CEC4CE45EE30F2EF8EB7E
:1026A000EF2EFEE1FF2EF5E00F2FFEE31F2FF02DA2
:1026B0000F2EF0E0AF2EF0E0BF2EF0EACF2EF0E4C8
:1026C000DF2EF02D0E945E100F900F900F900F9054
:1026D00010927C0310923D0380E00E94830F80E003
:1026E0000E949F0F80E00E94BB0FCF91DF911F914E
:1026F0000F91FF90EF90DF90CF90BF90AF90089533
:10270000DF93CF93CDB7DEB780E090E0A0E0B0E0FC
:102710008093920390939303A0939403B0939503B3
:1027200080E090E0A0E0B0E080939703909398035E
:10273000A0939903B0939A0380E090E0A0E0B0E00A
:1027400080937D0390937E03A0937F03B0938003D7
:10275000CF91DF910895DF93CF93CDB7DEB72C975C
:102760000FB6F894DEBF0FBECDBF0E94180DDC017E
:10277000CB0189839A83AB83BC838DB79EB70897BF
:102780000FB6F8949EBF0FBE8DBFEDB7FEB7319662
:10279000CE010596918380838FE492E093838283B8
:1027A00089819A81AB81BC8184839583A683B78319
:1027B0000E946B278DB79EB708960FB6F8949EBF00
:1027C0000FBE8DBF80E069E040E20E944802CE016A
:1027D000059660E20E9425022C960FB6F894DEBFA3
:1027E0000FBECDBFCF91DF910895DF93CF93CDB7CB
:1027F000DEB764970FB6F894DEBF0FBECDBF0E9460
:10280000180DDC01CB0189839A83AB83BC832091B3
:10281000390330913A038DB79EB70A970FB6F894F3
:102820009EBF0FBE8DBFEDB7FEB73196CE010596A8
:102830009183808386E592E09383828389819A8164
:10284000AB81BC8184839583A683B783318720873E
:102850000E946B278DB79EB70A960FB6F8949EBF5D
:102860000FBE8DBF80E20E941502CE01059660E288
:102870000E94250264960FB6F894DEBF0FBECDBF4E
:10288000CF91DF910895DF93CF93CDB7DEB76097F7
:102890000FB6F894DEBF0FBECDBF80912503282F61
:1028A00030E000D000D000D0EDB7FEB73196CE01B9
:1028B00001969183808383E692E0938382833583BC
:1028C00024830E946B278DB79EB706960FB6F894A7
:1028D0009EBF0FBE8DBF80E20E941502CE01019601
:1028E00060E20E94250260960FB6F894DEBF0FBE2C
:1028F000CDBFCF91DF910895DF93CF93CDB7DEB7F2
:1029000080E20E9405028AE692E060E20E942502CF
:10291000CF91DF910895DF93CF93CDB7DEB780E2FB
:102920000E94050289E792E060E20E94250280E2AF
:102930000E94150280E892E060E20E942502CF9199
:10294000DF910895DF93CF93CDB7DEB780E20E9489
:1029500005028DE892E060E20E94250280E20E947A
:10296000150286E293E060E20E942502CF91DF919A
:102970000895DF93CF9300D000D0CDB7DEB79C830E
:102980008B8380E20E94050283E992E060E20E946C
:10299000250200D000D000D0EDB7FEB73196CE01B1
:1029A00001969183808388E992E0938382838B816F
:1029B0009C81958384830E946B278DB79EB7069672
:1029C0000FB6F8949EBF0FBE8DBFCE01019660E298
:1029D0000E9425028CE992E060E20E9425020F909D
:1029E0000F900F900F90CF91DF910895DF93CF93C9
:1029F000CDB7DEB784E190E00E94B914CF91DF91AA
:102A00000895DF93CF93CDB7DEB787E390E00E94C0
:102A1000B914CF91DF910895DF93CF93CDB7DEB78F
:102A200080E20E940502CF91DF910895DF93CF935A
:102A3000CDB7DEB780E20E94050287EA92E060E24D
:102A40000E94250280E20E94150288EB92E060E27B
:102A50000E942502CF91DF910895DF93CF930F92CB
:102A6000CDB7DEB7898389810E94DF1F0F90CF9198
:102A7000DF910895DF93CF930F92CDB7DEB78983AF
:102A800089810E94F41F0F90CF91DF910895DF9309
:102A9000CF930F92CDB7DEB7898389810E94092039
:102AA0000F90CF91DF910895DF93CF930F92CDB721
:102AB000DEB7898389810E946C200F90CF91DF91CE
:102AC0000895DF93CF930F92CDB7DEB789838981C5
:102AD0000E9481200F90CF91DF910895DF93CF93D3
:102AE0000F92CDB7DEB7898389810E9496200F901F
:102AF000CF91DF910895DF93CF930F92CDB7DEB7DB
:102B0000898389810E94AB200F90CF91DF91089536
:102B1000DF93CF93CDB7DEB72C970FB6F894DEBF17
:102B20000FBECDBF8091550390915603A0915703DE
:102B3000B091580389839A83AB83BC838DB79EB7CA
:102B400008970FB6F8949EBF0FBE8DBFEDB7FEB7C6
:102B50003196CE0105969183808380EC92E0938339
:102B6000828389819A81AB81BC8184839583A6838A
:102B7000B7830E946B278DB79EB708960FB6F8945F
:102B80009EBF0FBE8DBF81E060E040E20E94480220
:102B9000CE01059660E20E9425022C960FB6F894AD
:102BA000DEBF0FBECDBFCF91DF9108951F93DF939E
:102BB000CF93CDB7DEB761970FB6F894DEBF0FBEE7
:102BC000CDBF0E94350A99878887888599852CE32F
:102BD00030E0B9010E94E525CB01AA2797FDA09519
:102BE000BA2F8C839D83AE83BF838C819D819B8311
:102BF0008A8318858C819D81AE81BF8124EC3FEF53
:102C00004FEF5FEFBC01CD010E94C625DC01CB0177
:102C1000810F89838981282F332727FD30958DB730
:102C20009EB708970FB6F8949EBF0FBE8DBFEDB745
:102C3000FEB73196CE010A969183808387EC92E0AD
:102C4000938382838A819B819583848337832683C0
:102C50000E946B278DB79EB708960FB6F8949EBF5B
:102C60000FBE8DBF81E069E040E20E944802CE01C4
:102C70000A9660E20E94250261960FB6F894DEBFC4
:102C80000FBECDBFCF91DF911F910895DF93CF93FA
:102C9000CDB7DEB780E20E94050280ED92E060E2EF
:102CA0000E942502CF91DF910895DF93CF93CDB796
:102CB000DEB780E20E94050289ED92E060E20E94A8
:102CC000250280E20E94150281EE92E060E20E94FD
:102CD0002502CF91DF910895DF93CF93CDB7DEB773
:102CE00080E060E040E20E94480280EF92E060E213
:102CF0000E942502CF91DF910895DF93CF93CDB746
:102D0000DEB780E060E040E20E94480288EF92E097
:102D100060E20E942502CF91DF910895DF93CF9367
:102D20000F92CDB7DEB7898381E062E040E20E9476
:102D300048028091190360E20E948F0280915F0334
:102D400060E20E948F028091600360E20E948F0225
:102D50008981882364F0898183304CF489818E5F76
:102D6000982F81E0692F40E20E946A0202C00E940F
:102D700083020F90CF91DF910895DF93CF930F924D
:102D8000CDB7DEB7898381E068E040E20E94480267
:102D90008091380360E20E948F0280913C0360E2E0
:102DA0000E948F028DE660E20E948F0280912403D0
:102DB00060E20E948F0280913E0360E20E948F02D7
:102DC0008981882364F0898185304CF48981885F0A
:102DD000982F81E0692F40E20E946A0202C00E949F
:102DE00083020F90CF91DF910895DF93CF93CDB7FA
:102DF000DEB7CF91DF910895DF93CF93CDB7DEB7E4
:102E000080E20E94050283E093E060E20E942502D6
:102E100080E20E9415028AE093E060E20E942502AF
:102E2000CF91DF910895DF93CF9300D000D000D0F1
:102E3000CDB7DEB79E838D831C8250C1ED81FE81AC
:102E4000458156818C81882F90E09C01220F331F91
:102E5000C901880F991F880F991F880F991F821B1E
:102E6000930BFA01E80FF91F14868BE090E09A8328
:102E700089833EC0ED81FE81458156818C81882FFA
:102E800090E09C01220F331FC901880F991F880F02
:102E9000991F880F991F821B930BBA01680F791F26
:102EA000A981BA81ED81FE81458156818C81882F6F
:102EB00090E09C01220F331FC901880F991F880FD2
:102EC000991F880F991F821B930B9A01280F391F96
:102ED00089819A810197F901E80FF91F8081FB012F
:102EE000EA0FFB1F808389819A8101979A838983E6
:102EF00089819A81181619060CF4BCCFED81FE81E8
:102F0000458156818C81882F90E09C01220F331FD0
:102F1000C901880F991F880F991F880F991F821B5D
:102F2000930BFA01E80FF91F8C818083ED81FE81FC
:102F3000458156818C81882F90E09C01220F331FA0
:102F4000C901880F991F880F991F880F991F821B2D
:102F5000930BFA01E80FF91F84858F5F84878C81BA
:102F60008B83A2C08BE090E09A8389833EC0ED8181
:102F7000FE81458156818C81882F90E09C01220F33
:102F8000331FC901880F991F880F991F880F991F38
:102F9000821B930BBA01680F791FA981BA81ED8159
:102FA000FE81458156818C81882F90E09C01220F03
:102FB000331FC901880F991F880F991F880F991F08
:102FC000821B930B9A01280F391F89819A810197DF
:102FD000F901E80FF91F8081FB01EA0FFB1F8083D5
:102FE00089819A8101979A83898389819A811816A8
:102FF00019060CF4BCCFED81FE81458156818C8190
:10300000882F90E09C01220F331FC901880F991F60
:10301000880F991F880F991F821B930BDA01A80F45
:10302000B91FED81FE81428153818B81282F30E0D1
:10303000C901880F991F820F931F880F991F880F4E
:10304000991FFA01E80FF91F81818C93ED81FE81B0
:10305000458156818C81882F90E09C01220F331F7F
:10306000C901880F991F880F991F880F991F821B0C
:10307000930BFA01E80FF91F84858F5F8487ED8138
:10308000FE81428153818B81282F30E0C901880F56
:10309000991F820F931F880F991F880F991FFA019C
:1030A000E80FF91F81818B83ED81FE81428153817D
:1030B0008B81282F30E0C901880F991F820F931F41
:1030C000880F991F880F991FFA01E80FF91F818156
:1030D0008F3F09F047CF8C818F5F8C83ED81FE811C
:1030E00091818C81891708F4A9CE26960FB6F894A1
:1030F000DEBF0FBECDBFCF91DF910895DF93CF9399
:1031000000D00F92CDB7DEB79B838A8319821BC094
:10311000EA81FB81458156818981882F90E09C015D
:10312000220F331FC901880F991F880F991F880F1D
:10313000991F821B930BFA01E80FF91F8FEF858708
:1031400089818F5F8983EA81FB81918189818917D8
:10315000F8F20F900F900F90CF91DF910895DF93C9
:10316000CF9300D000D0CDB7DEB79B838A836C832A
:10317000EA81FB81428153818C81282F30E0C90193
:10318000880F991F820F931F880F991F880F991F0F
:10319000FA01E80FF91F868197810097B9F0EA815B
:1031A000FB81428153818C81282F30E0C901880F37
:1031B000991F820F931F880F991F880F991FFA017B
:1031C000E80FF91F0680F781E02D0995EA81FB8160
:1031D000428153818C81282F30E0C901880F991FCB
:1031E000820F931F880F991F880F991FFA01E80F0C
:1031F000F91F808591850097B9F0EA81FB814281B2
:1032000053818C81282F30E0C901880F991F820FCC
:10321000931F880F991F880F991FFA01E80FF91F54
:103220000084F185E02D0995EA81FB818C818483FE
:10323000EA81FB81428153818C81282F30E0C901D2
:10324000880F991F820F931F880F991F880F991F4E
:10325000FA01E80FF91F828189837FC0EA81FB812F
:10326000428153818981282F332727FD3095C90159
:10327000880F991F820F931F880F991F880F991F1E
:10328000FA01E80FF91F868197810097C9F0EA815A
:10329000FB81428153818981282F332727FD309577
:1032A000C901880F991F820F931F880F991F880FDC
:1032B000991FFA01E80FF91F0680F781E02D0995A3
:1032C000EA81FB81428153818981282F332727FDA1
:1032D0003095C901880F991F820F931F880F991F7E
:1032E000880F991FFA01E80FF91F808591850097D3
:1032F000C9F0EA81FB81428153818981282F3327DC
:1033000027FD3095C901880F991F820F931F880FE1
:10331000991F880F991FFA01E80FF91F0084F185A2
:10332000E02D09958981EA81FB818483EA81FB8113
:10333000428153818981282F332727FD3095C90188
:10334000880F991F820F931F880F991F880F991F4D
:10335000FA01E80FF91F8281898389818F3F09F083
:103360007DCF0F900F900F900F90CF91DF91089528
:10337000DF93CF9300D000D000D0CDB7DEB79A83D3
:1033800089837C836B834D832E83E981FA818D81D0
:103390008183E981FA818B819C8193838283E98196
:1033A000FA818181882F90E09C01220F331FC9018F
:1033B000880F991F880F991F880F991F821B930BE5
:1033C0000E940C26E981FA819683858389819A81FE
:1033D0000E94131789819A810E947E1889819A819F
:1033E0006E810E94AF18E981FA818FEF838B269658
:1033F0000FB6F894DEBF0FBECDBFCF91DF91089519
:10340000DF93CF9300D0CDB7DEB79A838983E9816C
:10341000FA81858196810E94B9260F900F90CF91F5
:10342000DF910895DF93CF9300D000D000D0CDB7C7
:10343000DEB79C838B836D834E831A821A82EB8165
:10344000FC81458156818E81882F90E09C01220F5E
:10345000331FC901880F991F880F991F880F991F63
:10346000821B930BFA01E80FF91F84858150898331
:1034700026C0EB81FC81458156818E81882F90E0AA
:103480009C01220F331FC901880F991F880F991FB4
:10349000880F991F821B930B9A01280F391F89816E
:1034A000992787FD9095F901E80FF91F90818D818B
:1034B000981711F481E08A838981815089838981F9
:1034C0008823BCF68A8126960FB6F894DEBF0FBE1D
:1034D000CDBFCF91DF910895DF93CF9300D000D07F
:1034E0000F92CDB7DEB79D838C83EC81FD818FEF8A
:1034F000838B8C819D81079660E070E04CE050E00A
:103500000E941A271982EC81FD8184818A834FC031
:10351000EC81FD8183898F5FEC81FD81838BEC8160
:10352000FD818389282F332727FD30954A818C819F
:103530009D81820F931FFC0137964083EC81FD81B2
:10354000428153818A81282F332727FD3095C90175
:10355000880F991F820F931F880F991F880F991F3B
:10356000FA01E80FF91F0480F581E02D09958B839E
:1035700090910D0319828B81891711F481E0898361
:10358000EC81FD81428153818A81282F332727FDD9
:103590003095C901880F991F820F931F880F991FBB
:1035A000880F991FFA01E80FF91F81818A838A81A8
:1035B0008F3F31F0898191E08927882309F0A8CFD6
:1035C00089810F900F900F900F900F90CF91DF9106
:1035D0000895DF93CF93CDB7DEB728970FB6F89451
:1035E000DEBF0FBECDBF9D838C836E8358874F8314
:1035F0008FEF89831B821A8298C02A813B818C813C
:103600009D81820F931FFC01379680818983EC8115
:10361000FD81428153818981282F30E0C901880FC3
:10362000991F820F931F880F991F880F991FFA0106
:10363000E80FF91F828593850097B9F0EC81FD8131
:10364000428153818981282F30E0C901880F991F59
:10365000820F931F880F991F880F991FFA01E80F97
:10366000F91F0284F385E02D0995EF81F8858981A2
:103670008083EC81FD8162817381EC81FD814281D7
:1036800053818981282F30E0C901880F991F820F4B
:10369000931F880F991F880F991FFA01E80FF91FD0
:1036A0008181282F332727FD3095C901880F991F65
:1036B000820F931F880F991F880F991FFB01E80F36
:1036C000F91F8381882361F1EC81FD816581768119
:1036D000EC81FD81428153818981282F30E0C9012D
:1036E000880F991F820F931F880F991F880F991FAA
:1036F000FA01E80FF91F8181992787FD90959C01B8
:10370000220F331FC901880F991F880F991F880F37
:10371000991F821B930BFB01E80FF91F8981858795
:103720008A819B8101969B838A83EC81FD818389B9
:10373000282F332727FD30958A819B812817390749
:103740000CF05BCFEC81FD81428153818981282F70
:1037500030E0C901880F991F820F931F880F991FAE
:10376000880F991FFA01E80FF91F818189839EC094
:10377000EC81FD81428153818981282F30E0C9018C
:10378000880F991F820F931F880F991F880F991F09
:10379000FA01E80FF91F828593850097B9F0EC8153
:1037A000FD81428153818981282F30E0C901880F32
:1037B000991F820F931F880F991F880F991FFA0175
:1037C000E80FF91F0284F385E02D0995EF81F88554
:1037D00089818083EC81FD81428153818981282FF9
:1037E00030E0C901880F991F820F931F880F991F1E
:1037F000880F991FFA01E80FF91F81818983EC81F5
:10380000FD8162817381EC81FD81428153818981D7
:10381000282F30E0C901880F991F820F931F880F4E
:10382000991F880F991FFA01E80FF91F8181282F2E
:10383000332727FD3095C901880F991F820F931FE9
:10384000880F991F880F991FFB01E80FF91F8381CB
:10385000882361F1EC81FD8165817681EC81FD81B8
:10386000428153818981282F30E0C901880F991F37
:10387000820F931F880F991F880F991FFA01E80F75
:10388000F91F8181992787FD90959C01220F331F95
:10389000C901880F991F880F991F880F991F821BD4
:1038A000930BFB01E80FF91F8981858729818C81A2
:1038B0009D81622F4E810E94121A982F81E08927E4
:1038C000882309F055CF99818E81981709F089C016
:1038D000EC81FD81428153818981282F30E0C9012B
:1038E000880F991F820F931F880F991F880F991FA8
:1038F000FA01E80FF91F828593850097B9F0EC81F2
:10390000FD81428153818981282F30E0C901880FD0
:10391000991F820F931F880F991F880F991FFA0113
:10392000E80FF91F0284F385E02D0995EC81FD81F4
:1039300089818083EC81FD8162817381EC81FD81CD
:10394000428153818981282F30E0C901880F991F56
:10395000820F931F880F991F880F991FFA01E80F94
:10396000F91F8181282F332727FD3095C901880F42
:10397000991F820F931F880F991F880F991FFB01B2
:10398000E80FF91F8381882361F1EC81FD81658156
:103990007681EC81FD81428153818981282F30E03D
:1039A000C901880F991F820F931F880F991F880FD5
:1039B000991FFA01E80FF91F8181992787FD9095DA
:1039C0009C01220F331FC901880F991F880F991F6F
:1039D000880F991F821B930BFB01E80FF91F898148
:1039E000858728960FB6F894DEBF0FBECDBFCF9166
:1039F000DF910895DF93CF9300D000D000D0CDB7F2
:103A0000DEB79C838B836D834E838E818A83EB81AB
:103A1000FC8162817381EB81FC81458156818D81BE
:103A2000882F90E09C01220F331FC901880F991F36
:103A3000880F991F880F991F821B930B9A01280FDB
:103A4000391F8A81882F90E0F901E80FF91F8081E2
:103A5000282F332727FD3095C901880F991F820F22
:103A6000931F880F991F880F991FFB01E80FF91FFB
:103A7000808591850097A9F1EB81FC81628173813A
:103A8000EB81FC81458156818D81882F90E09C01DE
:103A9000220F331FC901880F991F880F991F880FA4
:103AA000991F821B930B9A01280F391F8A81882F37
:103AB00090E0F901E80FF91F8081282F332727FDB7
:103AC0003095C901880F991F820F931F880F991F86
:103AD000880F991FFB01E80FF91F0084F185E02D85
:103AE00009958A818F5F8A838A81682F70E0EB81D4
:103AF000FC81458156818D81882F90E09C01220FA9
:103B0000331FC901880F991F880F991F880F991FAC
:103B1000821B930BFA01E80FF91F8485992787FD13
:103B200090950197861797070CF071CF8D81898347
:103B300075C0EB81FC81458156818981882F90E099
:103B40009C01220F331FC901880F991F880F991FED
:103B5000880F991F821B930BFA01E80FF91F8585C7
:103B60008F3FC9F0EB81FC81458156818981882F87
:103B700090E09C01220F331FC901880F991F880F05
:103B8000991F880F991F821B930BFA01E80FF91FE9
:103B90008585898315C0EB81FC81428153818981B0
:103BA000282F30E0C901880F991F820F931F880FBB
:103BB000991F880F991FFA01E80FF91F82818983E5
:103BC000EB81FC81428153818981282F30E0C9013A
:103BD000880F991F820F931F880F991F880F991FB5
:103BE000FA01E80FF91F808591850097B9F0EB8104
:103BF000FC81428153818981282F30E0C901880FDF
:103C0000991F820F931F880F991F880F991FFA0120
:103C1000E80FF91F0084F185E02D0995EB81FC8107
:103C2000458156818981882F90E09C01220F331FA6
:103C3000C901880F991F880F991F880F991F821B30
:103C4000930BFA01E80FF91F85858F3F09F071CFBB
:103C5000EB81FC81428153818981282F30E0C901A9
:103C6000880F991F820F931F880F991F880F991F24
:103C7000FA01E80FF91F82818F3F09F05ACF89813D
:103C800026960FB6F894DEBF0FBECDBFCF91DF9161
:103C90000895DF93CF93CDB7DEB728970FB6F8948A
:103CA000DEBF0FBECDBF9E838D836F8348878FEFAE
:103CB0008C8328858D819E81622F4F810E94121AEC
:103CC000882309F44CC01B822EC0ED81FE81458102
:103CD00056818F81882F90E09C01220F331FC901EC
:103CE000880F991F880F991F880F991F821B930BAC
:103CF0009A01280F391F8B81992787FD9095F9012B
:103D0000E80FF91F8081282F332727FD30958885FC
:103D1000882F90E02817390719F48B818C83CEC047
:103D20008B818F5F8B83ED81FE81458156818F81F1
:103D3000882F90E09C01220F331FC901880F991F23
:103D4000880F991F880F991F821B930BFA01E80FA8
:103D5000F91F94858B8189170CF4B7CFAFC0ED8123
:103D6000FE81458156818F81882F90E09C01220F32
:103D7000331FC901880F991F880F991F880F991F3A
:103D8000821B930BFA01E80FF91F6485ED81FE8118
:103D900045815681ED81FE818081882F90E09C01D4
:103DA000220F331FC901880F991F880F991F880F91
:103DB000991F821B930BFA01E80FF91F8485861760
:103DC000D4F4ED81FE81458156818885882F90E06D
:103DD0009C01220F331FC901880F991F880F991F5B
:103DE000880F991F821B930BFA01E80FF91F848536
:103DF0008150898319C0ED81FE81458156818F8173
:103E0000882F90E09C01220F331FC901880F991F52
:103E1000880F991F880F991F821B930BFA01E80FD7
:103E2000F91F8485815089831A8243C08A818C83DB
:103E3000ED81FE81458156818885882F90E09C0127
:103E4000220F331FC901880F991F880F991F880FF0
:103E5000991F821B930B9A01280F391F8A8199277A
:103E600087FD9095F901E80FF91F6081ED81FE81D2
:103E7000458156818F81882F90E09C01220F331F4E
:103E8000C901880F991F880F991F880F991F821BDE
:103E9000930B9A01280F391F8A81992787FD9095E6
:103EA000F901E80FF91F8081681741F48A818F5F5B
:103EB0008A839A81898189170CF0B8CF2C818D81F2
:103EC0009E816F81422F0E94FA1CED81FE818483C6
:103ED00028960FB6F894DEBF0FBECDBFCF91DF910D
:103EE0000895DF93CF93CDB7DEB7CF91DF910895DB
:103EF000DF93CF9300D000D0CDB7DEB79B838A830A
:103F000019821C828A819B81009711F081E08C8349
:103F10008A819B8101979B838A838C81882389F77F
:103F20000F900F900F900F90CF91DF910895DF9336
:103F3000CF93CDB7DEB780911903282F332727FD04
:103F4000309584E690E0AC01249FC001259F900D40
:103F5000349F900D1124AC01405C524180915F036D
:103F6000992787FD90959C01220F331FC901880F67
:103F7000991F880F991F820F931F805E91409A01AD
:103F8000280F391F80916003992787FD9095C0976E
:103F9000820F931FAA2797FDA095BA2FBC01CD01D0
:103FA0000E94AF24DC01CB01809320039093210376
:103FB000A0932203B0932303CF91DF910895DF9361
:103FC000CF930F92CDB7DEB78983298184E090E04B
:103FD000622F0E947A298981809319030E94971F7A
:103FE0000F90CF91DF910895DF93CF930F92CDB7CC
:103FF000DEB78983298185E090E0622F0E947A29CB
:10400000898180935F030E94971F0F90CF91DF916A
:104010000895DF93CF930F92CDB7DEB789832981BF
:1040200086E090E0622F0E947A2989818093600364
:104030000E94971F0F90CF91DF910895DF93CF9348
:10404000CDB7DEB780913803282F332727FD309571
:1040500088E592E0AC01249FC001259F900D349F1C
:10406000900D1124AC014058504780913C03282FFB
:10407000332727FD30958CE390E0BC01269FC001DB
:10408000279F900D369F900D112480549B40480F20
:10409000591F80912403992787FD90959C01220F39
:1040A000331FC901880F991F880F991F820F931F13
:1040B000805E91409A01280F391F80913E03992715
:1040C00087FD9095C097820F931F90931D03809357
:1040D0001C03CF91DF910895DF93CF930F92CDB75B
:1040E000DEB78983298187E090E0622F0E947A29D8
:1040F0008981809338030E941E200F90CF91DF9119
:104100000895DF93CF930F92CDB7DEB789832981CE
:1041100088E090E0622F0E947A29898180933C0395
:104120000E941E200F90CF91DF910895DF93CF93CF
:104130000F92CDB7DEB78983298189E090E0622FA5
:104140000E947A298981809324030E941E200F9067
:10415000CF91DF910895DF93CF930F92CDB7DEB764
:10416000898329818AE090E0622F0E947A298981DF
:1041700080933E030E941E200F90CF91DF910895FF
:10418000DF93CF93CDB7DEB70E94C70C9093540353
:104190008093530380915303909154039C018BE0CF
:1041A00090E0B9010E948829CF91DF910895DF93B3
:1041B000CF93CDB7DEB70E94C70C90935A0380937C
:1041C00059038091590390915A039C018DE090E02E
:1041D000B9010E948829CF91DF910895DF93CF9391
:1041E000CDB7DEB78091390390913A039093620383
:1041F0008093610380916103909162039C018FE041
:1042000090E0B9010E948829CF91DF910895DF9352
:10421000CF93CDB7DEB78091390390913A03909355
:104220005C0380935B0380915B0390915C039C0132
:1042300081E190E0B9010E948829CF91DF91089532
:10424000DF93CF930F92CDB7DEB7898389818093B7
:1042500025032091250383E190E0622F0E947A29B3
:104260000F90CF91DF910895DF93CF930F92CDB749
:10427000DEB78983898180935E0320915E0384E1A8
:1042800090E0622F0E947A290F90CF91DF910895DC
:10429000DF93CF93CDB7DEB784E090E00E946C2926
:1042A0008093190380911903803324F080911903BE
:1042B0008A331CF080E30E94DF1F85E090E00E94BB
:1042C0006C2980935F0380915F03803324F0809199
:1042D0005F038A331CF080E30E94F41F86E090E0C5
:1042E0000E946C298093600380916003803324F0E6
:1042F000809160038A331CF080E30E94092087E0EC
:1043000090E00E946C2980933803809138038033B9
:1043100024F0809138038A331CF080E30E946C20E3
:1043200088E090E00E946C2980933C0380913C03DC
:10433000803324F080913C038A331CF080E30E9498
:10434000812089E090E00E946C2980932403809171
:104350002403803324F08091240386331CF080E30F
:104360000E9496208AE090E00E946C2980933E0390
:1043700080913E03803324F080913E038A331CF009
:1043800080E30E94AB200E941E200E94971F8BE0BA
:1043900090E00E947429909354038093530380917A
:1043A0005303909154032FEF8F3F920721F4109203
:1043B0005403109253038DE090E00E94742990936F
:1043C0005A03809359038091590390915A032FEF18
:1043D0008F3F920721F410925A03109259038FE0F5
:1043E00090E00E947429909362038093610380910E
:1043F0006103909162032FEF8F3F920721F4109297
:1044000062031092610381E190E00E94742990930D
:104410005C0380935B0380915B0390915C032FEFBF
:104420008F3F920721F410925C0310925B0383E1AB
:1044300090E00E946C2980932503809125038536A6
:1044400018F080E00E94202184E190E00E946C2915
:1044500080935E0380915E03823018F080E00E94BA
:10446000342110921A0310923B03CF91DF910895EB
:104470001F920F920FB60F9211242F933F938F9399
:104480009F93AF93BF93EF93FF93DF93CF9300D0AE
:10449000CDB7DEB7E9EBF0E08081882F90E09C019A
:1044A000287F30703A83298389819A8188329105E7
:1044B000E9F129813A812932310584F489819A818F
:1044C0008031910549F129813A812831310571F115
:1044D00089819A8188309105F9F08DC029813A81CE
:1044E0002034310509F459C089819A8181349105BC
:1044F0003CF429813A812833310509F477C07BC027
:1045000089819A8180359105A9F129813A812835DF
:10451000310509F450C06FC0EBEBF0E0809114035B
:104520008083ECEBF0E085E880836EC08091170318
:104530008823C1F080911703815080931703ABEB60
:10454000B0E0E0911503F091160380818C93CF01C8
:1045500001969093160380931503ECEBF0E085E849
:10456000808352C0ECEBF0E084E980838FEF80938E
:1045700018034AC0A0911503B0911603EBEBF0E0CD
:1045800080818C93CD01019690931603809315033F
:104590008091170381508093170380911703823015
:1045A00028F0ECEBF0E085EC80832EC0ECEBF0E043
:1045B00085E8808329C0A0911503B0911603EBEB29
:1045C000F0E080818C93CD01019690931603809347
:1045D000150380911703815080931703ECEBF0E0F3
:1045E00084E980838FEF809318030EC0ECEBF0E03A
:1045F00085EA808309C0E9EBF0E0808180931803AD
:10460000ECEBF0E084E080830F900F90CF91DF918E
:10461000FF91EF91BF91AF919F918F913F912F911A
:104620000F900FBE0F901F901895DF93CF93CDB7CB
:10463000DEB710921703E9EBF0E01082E8EBF0E050
:104640008FE28083EBEBF0E08FEF8083ECEBF0E028
:1046500084E08083CF91DF910895DF93CF9300D0E2
:1046600000D0CDB7DEB789837B836A834C830E94F9
:1046700079238823E1F789818E7F809314038A81CF
:104680009B8190931603809315038C81809317036D
:10469000ECEBF0E085EA80830F900F900F900F9085
:1046A000CF91DF910895DF93CF9300D000D0CDB7A5
:1046B000DEB789837B836A834C830E9479238823B6
:1046C000E1F789818160809314038A819B819093B3
:1046D0001603809315038C8180931703ECEBF0E0B5
:1046E00085EA80830F900F900F900F90CF91DF910C
:1046F0000895DF93CF930F92CDB7DEB7ECEBF0E0E8
:104700008081882F90E081709070882319F081E07B
:10471000898301C0198289810F90CF91DF9108951B
:10472000DF93CF930F92CDB7DEB7809118038F3F01
:1047300019F481E0898301C0198289810F90CF919A
:10474000DF910895DF93CF93CDB7DEB78091180343
:10475000CF91DF9108955058BB27AA270ED075C17D
:1047600066D130F06BD120F031F49F3F11F41EF48C
:104770005BC10EF4E095E7FB51C1E92F77D180F3DF
:10478000BA17620773078407950718F071F49EF54E
:104790008FC10EF4E0950B2EBA2FA02D0B01B9019D
:1047A00090010C01CA01A0011124FF27591B99F0A7
:1047B000593F50F4503E68F11A16F040A22F232FB3
:1047C000342F4427585FF3CF469537952795A79503
:1047D000F0405395C9F77EF41F16BA0B620B730BAA
:1047E000840BBAF09150A1F0FF0FBB1F661F771F1B
:1047F000881FC2F70EC0BA0F621F731F841F48F4D0
:10480000879577956795B795F7959E3F08F0B3CF55
:104810009395880F08F09927EE0F9795879508953F
:10482000D9D008F481E008950CD00FC107D140F031
:10483000FED030F021F45F3F19F0F0C0511139C1C2
:10484000F3C014D198F39923C9F35523B1F3951B01
:10485000550BBB27AA2762177307840738F09F5FA1
:104860005F4F220F331F441FAA1FA9F333D00E2E10
:104870003AF0E0E830D091505040E695001CCAF77D
:1048800029D0FE2F27D0660F771F881FBB1F261742
:1048900037074807AB07B0E809F0BB0B802DBF0115
:1048A000FF2793585F4F2AF09E3F510568F0B6C02E
:1048B00000C15F3FECF3983EDCF3869577956795F2
:1048C000B795F7959F5FC9F7880F911D96958795C6
:1048D00097F90895E1E0660F771F881FBB1F6217E5
:1048E00073078407BA0720F0621B730B840BBA0BA3
:1048F000EE1F88F7E095089504D06894B111D9C0EF
:104900000895BCD088F09F5790F0B92F9927B751E0
:10491000A0F0D1F0660F771F881F991F1AF0BA9583
:10492000C9F712C0B13081F0C3D0B1E00895C0C062
:10493000672F782F8827B85F39F0B93FCCF3869579
:1049400077956795B395D9F73EF4909580957095D6
:1049500061957F4F8F4F9F4F0895E89409C097FB53
:104960003EF490958095709561957F4F8F4F9F4F46
:104970009923A9F0F92F96E9BB279395F69587958A
:1049800077956795B795F111F8CFFAF4BB0F11F44D
:1049900060FF1BC06F5F7F4F8F4F9F4F16C08823F4
:1049A00011F096E911C0772321F09EE8872F762F2A
:1049B00005C0662371F096E8862F70E060E02AF06B
:1049C0009A95660F771F881FDAF7880F9695879557
:1049D00097F90895990F0008550FAA0BE0E8FEEF2C
:1049E00016161706E807F907C0F012161306E407B3
:1049F000F50798F0621B730B840B950B39F40A26AC
:104A000061F0232B242B252B21F408950A2609F489
:104A1000A140A6958FEF811D811D089597F99F678D
:104A200080E870E060E008959FEF80EC0895002436
:104A30000A941616170618060906089500240A9403
:104A400012161306140605060895092E0394000C89
:104A500011F4882352F0BB0F40F4BF2B11F460FF18
:104A600004C06F5F7F4F8F4F9F4F089557FD905841
:104A7000440F551F59F05F3F71F04795880F97FB22
:104A8000991F61F09F3F79F08795089512161306DC
:104A90001406551FF2CF4695F1DF08C0161617060B
:104AA0001806991FF1CF8695710561050894089540
:104AB000E894BB2766277727CB0197F908958ADF0B
:104AC00008F48FEF08950BD0C0CFB1DF28F0B6DF28
:104AD00018F0952309F0A2CFA7CF1124EACFC6DFA3
:104AE000A0F3959FD1F3950F50E0551F629FF00101
:104AF000729FBB27F00DB11D639FAA27F00DB11D5A
:104B0000AA1F649F6627B00DA11D661F829F2227E2
:104B1000B00DA11D621F739FB00DA11D621F839F69
:104B2000A00D611D221F749F3327A00D611D231F3F
:104B3000849F600D211D822F762F6A2F11249F578D
:104B400050408AF0E1F088234AF0EE0FFF1FBB1FB0
:104B5000661F771F881F91505040A9F79E3F51054F
:104B600070F05CCFA6CF5F3FECF3983EDCF3869508
:104B700077956795B795F795E7959F5FC1F7FE2BFA
:104B8000880F911D9695879597F90895629FD0019A
:104B9000739FF001829FE00DF11D649FE00DF11DF8
:104BA000929FF00D839FF00D749FF00D659FF00DA7
:104BB0009927729FB00DE11DF91F639FB00DE11D94
:104BC000F91FBD01CF011124089597FB092E072677
:104BD0000AD077FD04D00CD006D000201AF47095CE
:104BE00061957F4F0895F6F7909581959F4F0895B1
:104BF000AA1BBB1B51E107C0AA1FBB1FA617B70703
:104C000010F0A61BB70B881F991F5A95A9F780951E
:104C10009095BC01CD010895CF93DF93BC01823004
:104C2000910510F462E070E0A0919D03B0919E03A5
:104C3000ED01E0E0F0E040E050E021C088819981A2
:104C40008617970769F48A819B81309719F09383BF
:104C5000828304C090939E0380939D03FE0134C021
:104C60006817790738F44115510519F0841795072D
:104C700008F4AC01FE018A819B819C01E901209727
:104C8000E9F641155105A9F1CA01861B970B049756
:104C900008F4BA01E0E0F0E02AC08D919C911197F0
:104CA00084179507F9F46417750781F412968D91AE
:104CB0009C911397309719F09383828304C090934B
:104CC0009E0380939D03FD0132964FC0CA01861B4F
:104CD000970BFD01E80FF91F6193719302978D9374
:104CE0009C9343C0FD01828193819C01D90110975F
:104CF000A1F680919B0390919C03892B41F48091B4
:104D000010039091110390939C0380939B03409117
:104D10001203509113034115510541F44DB75EB78D
:104D200080910E0390910F03481B590B20919B0318
:104D300030919C0324173507B0F4CA01821B930BF2
:104D40008617970780F0AB014E5F5F4F841795077A
:104D500050F0420F531F50939C0340939B03F90163
:104D60006193719302C0E0E0F0E0CF01DF91CF9159
:104D70000895CF93DF93009709F450C0EC01229778
:104D80001B821A82A0919D03B0919E03109709F196
:104D900040E050E0AC17BD0708F1BB83AA83FE01D9
:104DA00021913191E20FF31FAE17BF0779F48D9176
:104DB0009C911197280F391F2E5F3F4F398328830D
:104DC00012968D919C9113979B838A83411551056F
:104DD00071F4D0939E03C0939D0320C012968D91D1
:104DE0009C911397AD01009711F0DC01D3CFFA012C
:104DF000D383C28321913191E20FF31FCE17DF07D6
:104E000069F488819981280F391F2E5F3F4FFA017D
:104E1000318320838A819B8193838283DF91CF9129
:104E20000895FB01DC0102C001900D9241505040F9
:104E3000D8F70895DC0101C06D9341505040E0F770
:104E40000895A0E0B0E0E7E2F7E20C944D2AFE01FD
:104E50003596619171918091A1039091A203AF0168
:104E60000E948F272096E2E00C94692A0F931F93EB
:104E7000CF93DF938C01E091A103F091A203838192
:104E800081FF21C0C0E0D0E00DC0E091A103F0910E
:104E9000A20320853185BF01F9010995892B11F005
:104EA000CFEFDFEFF80181918F01882371F7E09157
:104EB000A103F091A203208531858AE0BF01F901A9
:104EC0000995892B11F0CFEFDFEFCE01DF91CF9164
:104ED0001F910F910895AEE0B0E0E1E7F7E20C9486
:104EE0004B2A0D891E8986E08C831A8309838FEFF4
:104EF0009FE79E838D839E01275E3F4FCE010196E3
:104F00006F89788DA9010E948F272F813885020F24
:104F1000131FF80110822E96E4E00C94672AABE090
:104F2000B0E0E5E9F7E20C943D2A3C012B015A017F
:104F3000FC0117821682838181FD03C06FEF7FEF32
:104F4000C6C19AE0892E1E010894211C311CF30170
:104F50002381F20123FD859123FF81912F01882375
:104F600009F4B2C1853239F423FD859123FF819183
:104F70002F01853229F490E0B3010E94A329E7CFE5
:104F8000982FFF24EE249924FFE1FF15D0F09B32E7
:104F900069F09C3228F4903259F0933291F40EC0AB
:104FA0009D3249F0903369F441E024C052E0F52A83
:104FB00084E0F82A28C098E0F92A25C0E0E1FE2A1A
:104FC00022C0F7FC29C0892F80538A3070F4F6FE86
:104FD00005C0989C902C1124980E15C0E89CE02CDC
:104FE0001124E80EF0E2FF2A0EC09E3229F4F6FCEE
:104FF0006BC140E4F42A07C09C3619F450E8F52A46
:1050000002C0983649F4F20123FD959123FF919156
:105010002F01992309F0B8CF892F8554833018F0D8
:105020008052833038F444E050E0A40EB51E5FE3B4
:1050300059830FC0933631F0933779F0933509F0E7
:1050400056C020C0F5018081898342E050E0A40E63
:10505000B51E610101E010E012C0F501C080D180F1
:10506000F6FC03C06FEF7FEF02C0692D70E042E0F5
:1050700050E0A40EB51EC6010E9498298C015FE77E
:10508000F52214C0F501C080D180F6FC03C06FEF9B
:105090007FEF02C0692D70E042E050E0A40EB51E23
:1050A000C6010E948D298C0150E8F52AF3FE07C045
:1050B0001AC080E290E0B3010E94A329EA948E2DE9
:1050C00090E008171907A8F30EC0F601F7FC8591C8
:1050D000F7FE81916F0190E0B3010E94A329E110D6
:1050E000EA94015010400115110579F7EAC0943691
:1050F00011F0993669F5F7FE08C0F501208131817C
:105100004281538184E090E00AC0F5018081918161
:105110009C01442737FD4095542F82E090E0A80E73
:10512000B91E9FE6F92257FF09C05095409530956A
:1051300021953F4F4F4F5F4FE0E8FE2ACA01B9016A
:10514000A1012AE030E00E94CF29D82ED21840C019
:10515000953729F41F2D1F7E2AE030E01DC01F2D3A
:10516000197F9F3661F0903720F4983509F0ACC074
:105170000FC0903739F0983709F0A6C004C028E076
:1051800030E00AC0106114FD146020E130E004C07A
:1051900014FD166020E132E017FF08C0F5016081C0
:1051A00071818281938144E050E008C0F5018081E3
:1051B0009181BC0180E090E042E050E0A40EB51E79
:1051C000A1010E94CF29D82ED2188FE7F82EF12204
:1051D000F6FE0BC05EEFF522D91438F4F4FE07C0DA
:1051E000F2FC05C08FEEF82202C01D2D01C0192D62
:1051F000F4FE0DC0FE01ED0DF11D8081803319F428
:1052000099EEF92208C01F5FF2FE05C003C08F2D82
:10521000867809F01F5F0F2DF3FC14C0F0FE0FC05D
:105220001E1510F09D2C0BC09D2C9E0C911A1E2D4E
:1052300006C080E290E0B3010E94A3291F5F1E1503
:10524000C0F304C01E1510F4E11A01C0EE2404FFDF
:105250000FC080E390E0B3010E94A32902FF1DC0AC
:1052600001FD03C088E790E00EC088E590E00BC028
:10527000802F867891F001FF02C08BE201C080E2AE
:10528000F7FC8DE290E0B3010E94A32906C080E301
:1052900090E0B3010E94A3299A94D914C0F3DA9440
:1052A000F101ED0DF11D808190E0B3010E94A32971
:1052B000DD20A9F706C080E290E0B3010E94A32997
:1052C000EA94EE20C1F743CEF30166817781CB01EA
:1052D0002B96E2E10C94592AF999FECF92BD81BD3B
:1052E000F89A992780B50895A8E1B0E042E050E02F
:1052F0000C942F2A262FF999FECF1FBA92BD81BD9B
:1053000020BD0FB6F894FA9AF99A0FBE0196089547
:105310000E947A29272F0C947B29FC01059061506B
:1053200070400110D8F7809590958E0F9F1F0895BB
:10533000FC016150704001900110D8F78095909564
:105340008E0F9F1F08950F931F93CF93DF938C01B0
:10535000EB018B8181FF1BC082FF0DC02E813F813D
:105360008C819D812817390764F4E881F9810193C4
:10537000F983E88306C0E885F985802F0995892B94
:1053800031F48E819F8101969F838E8302C00FEF3F
:105390001FEFC801DF91CF911F910F910895FA017E
:1053A000AA27283051F1203181F1E8946F936E7F64
:1053B0006E5F7F4F8F4F9F4FAF4FB1E03ED0B4E055
:1053C0003CD0670F781F891F9A1FA11D680F791F96
:1053D0008A1F911DA11D6A0F711D811D911DA11DA7
:1053E00020D009F468943F912AE0269F11243019B7
:1053F000305D3193DEF6CF010895462F4770405D52
:105400004193B3E00FD0C9F7F6CF462F4F70405D00
:105410004A3318F0495D31FD4052419302D0A9F75B
:10542000EACFB4E0A6959795879577956795BA9555
:10543000C9F700976105710508959B01AC010A2E1B
:1054400006945795479537952795BA95C9F7620FF2
:10545000731F841F951FA01D0895DC01CB01FC0163
:10546000F999FECF06C0F2BDE1BDF89A319600B4BD
:105470000D9241505040B8F708952F923F924F92AD
:105480005F926F927F928F929F92AF92BF92CF92D4
:10549000DF92EF92FF920F931F93CF93DF93CDB7DD
:1054A000DEB7CA1BDB0B0FB6F894DEBF0FBECDBF55
:1054B00009942A88398848885F846E847D848C8426
:1054C0009B84AA84B984C884DF80EE80FD800C812F
:1054D0001B81AA81B981CE0FD11D0FB6F894DEBF12
:0C54E0000FBECDBFED010895F894FFCF82
:1054EC0000000002000000008300000000000A53CE
:1054FC0054415254555000656E7472792041736B4F
:10550C00466F7243616C6962726174696F6E00659B
:10551C007869742061736B2063616C696200656EDD
:10552C007472792052756E6E696E67006578697455
:10553C002052756E6E696E670000FF0100A10200BB
:10554C00000000000001000200AA020000000000A0
:10555C00000201FF00FC020000DC02ED020301046A
:10556C00007E0300006A0375030403FF00C0030000
:10557C0000B003B9030503FF006B040000290434D9
:10558C000406030700C7040000B104BC040706FFAF
:10559C00007B050000650572050806FF00E80500A4
:1055AC0000D605DF0509010A005B06000043065022
:1055BC00060A09FF00C1060000AB06BA060B09FF7C
:1055CC000031070000180727070C09FF000D080021
:1055DC0000F40703080D01FF0026090000F608136C
:1055EC00090E01FF00AA0900009A09A3090F00FF88
:1055FC0000EC090000DC09E5096F7574206F66206A
:10560C003020506F730061646341202569206772FC
:10561C0061642025662063616C6F772025692063A7
:10562C00616869202569207265732025660A00254A
:10563C00352E3266560025352E32665620253569B4
:10564C002044002025356920500063616C6962207C
:10565C005A65726F20202C230073656C656374008F
:10566C00524D53202A2C2041565220230045727251
:10567C006F72005365742000253269004120232C81
:10568C002A20536B69700043616C696272617465A6
:10569C003F202A3D596573006F7220776169740051
:1056AC0025352E316641002533696D253032690070
:1056BC0052756E6E696E67200041202020202054A8
:1056CC00002A202020202023202020202020200001
:1056DC00416D7073202054004120202020205469FB
:1056EC006D65004A6F62204F4B002A0080402000FD
:0456FC00A503000002
:00000001FF
