:1000000010C01FC01EC01DC01CC01BC016C319C01D
:1000100018C017C016C0DCC514C0B5C212C052C685
:10002000C3C611241FBECFE5D2E0DEBFCDBF10E0B6
:10003000A0E6B0E001C01D92A039B107E1F766D596
:1000400050C8DECFDF93CF93CDB7DEB7ABE3B0E0E0
:10005000EBE3F0E0808180688C93CF91DF9108958D
:10006000DF93CF93CDB7DEB7ABE3B0E0EBE3F0E0E7
:1000700080818F778C93CF91DF910895DF93CF9319
:10008000CDB7DEB7EBE3F0E08081882344F4ABE347
:10009000B0E0EBE3F0E080818F778C9307C0ABE3B7
:1000A000B0E0EBE3F0E0808180688C93CF91DF914A
:1000B0000895DF93CF9300D0CDB7DEB7F894809149
:1000C0008300909184009A838983789489819A81AE
:1000D0000F900F90CF91DF910895DF93CF9300D0D1
:1000E000CDB7DEB79A83898389819A8180709270B7
:1000F000009799F089819A8101979A8389838981F0
:100100009A819C6F809590959A83898389819A8141
:10011000909581959F4F9A83898389819A810F90C9
:100120000F90CF91DF910895DF93CF9300D0CDB79B
:10013000DEB7BFDF9A83898380917A008823E1F755
:10014000F894E0918E00F0918F0089819A819183DB
:100150008083789489819A810F900F90CF91DF915D
:100160000895DF93CF930F92CDB7DEB7898389814E
:10017000882341F0A8E3B0E0E8E3F0E080818D7FE0
:100180008C9307C0A8E3B0E0E8E3F0E080818260F0
:100190008C930F90CF91DF910895DF93CF930F92BF
:1001A000CDB7DEB789838981882341F0A8E3B0E029
:1001B000E8E3F0E080818B7F8C9307C0A8E3B0E098
:1001C000E8E3F0E0808184608C930F90CF91DF9121
:1001D0000895DF93CF930F92CDB7DEB789838981DE
:1001E000882341F0A8E3B0E0E8E3F0E080818E7F6F
:1001F0008C9307C0A8E3B0E0E8E3F0E08081816081
:100200008C930F90CF91DF910895DF93CF930F924E
:10021000CDB7DEB78983E0917700F09178008981CE
:100220008083E0917700F09178008081282F80E032
:1002300090E0622F48D70F90CF91DF910895DF9320
:10024000CF930F92CDB7DEB7898389818093670002
:1002500080916700282F81E090E0622F34D70F90C3
:10026000CF91DF910895DF93CF930F92CDB7DEB793
:10027000898389818093630080916300282F82E0C5
:1002800090E0622F20D70F90CF91DF910895DF93F8
:10029000CF9300D0CDB7DEB789836A83E091770032
:1002A000F0917800808188230CF444C0E0917700BD
:1002B000F091780080818436ECF581E052DF89810D
:1002C000882389F0E0917700F0917800808188237D
:1002D000D4F081E07EDFE0917700F09178008081BA
:1002E0008F5F808310C0E0917700F091780080816B
:1002F00084364CF480E06DDFE0917700F091780077
:1003000080818150808381E048DF8A81882311F0D9
:1003100080E043DF80E025DF8A81882339F0E091A7
:100320007700F0917800808170DF02C080E035DFD7
:1003300080E04FDF0F900F90CF91DF910895DF9312
:10034000CF9300D0CDB7DEB781E00BDF81E025DFB2
:1003500080E023DF1A82198205C089819A81019683
:100360009A83898389819A8184319105B4F381E0EC
:1003700030DF81E012DF80E010DF1A82198205C0D1
:1003800089819A8101969A83898389819A818A30A9
:100390009105B4F380E0E5DE80E01BDFE0917700BB
:1003A000F0917800808131DF0F900F90CF91DF9135
:1003B0000895DF93CF9300D00F92CDB7DEB78A8335
:1003C0006B83198206C08A8160E061DF89818F5F5B
:1003D000898399818B819817B4F30F900F900F90B8
:1003E000CF91DF910895DF93CF93CDB7DEB7E09142
:1003F0008700F091880088E08083CF91DF91089595
:10040000DF93CF9300D0CDB7DEB738DE8DDE9A8391
:10041000898389819A818D30910584F0E0917700FC
:10042000F0917800808118163CF480E060E02FDFC6
:1004300081E0809365001AC0D6DF18C089819A8157
:100440002FEF843F920784F4E0917700F0917800D9
:10045000808184363CF481E060E019DF81E08093A4
:10046000650004C0C0DF02C0109265000F900F90BD
:10047000CF91DF910895DF93CF9300D0CDB7DEB752
:10048000FDDD52DE9A83898389819A818D309105C1
:10049000B4F010927900E0917700F09178008081BB
:1004A00088235CF0E0918700F091880080818230A1
:1004B00039F580E060E0EBDE23C095DF21C0898163
:1004C0009A812FEF843F9207B4F410927900E09163
:1004D0007700F0917800808184365CF4E0918700A9
:1004E000F09188008081823059F481E060E0CFDEB5
:1004F00007C079DF05C0809179008F5F8093790014
:10050000809179008F3174F01ADFE0918700F091CB
:100510008800808180937F00E0918700F0918800BF
:1005200081E080830F900F90CF91DF910895DF934A
:10053000CF9300D0CDB7DEB781E013DE80E049DE97
:100540001A82198209C081E028DE80E026DE8981D6
:100550009A8101969A83898389819A818E36910541
:1005600094F381E01ADE80E0FCDD80E016DE80E0BE
:1005700030DEE0917700F091780010820F900F90BC
:10058000CF91DF9108951F920F920FB60F92112411
:100590002F933F934F935F936F937F938F939F938B
:1005A000AF93BF93EF93FF93DF93CF93CDB7DEB7B6
:1005B000E4E2F0E08081918190DD9C01442737FDE9
:1005C0004095542F8091690090916A00A0916B0032
:1005D000B0916C00820F931FA41FB51F8093690018
:1005E00090936A00A0936B00B0936C0080916200BE
:1005F0008F5F8093620080916200843644F4A6E2AB
:10060000B0E0E6E2F0E0808180648C9303C081E09A
:1006100080938500CF91DF91FF91EF91BF91AF91D2
:100620009F918F917F916F915F914F913F912F910A
:100630000F900FBE0F901F9018951F920F920FB63C
:100640000F9211248F93DF93CF93CDB7DEB781E064
:1006500080936400CF91DF918F910F900FBE0F9028
:100660001F901895DF93CF93CDB7DEB7A6E2B0E029
:10067000E6E2F0E080818F778C93E7E2F0E080EBB8
:100680008083E0917C00F0917D0081E08083A6E290
:10069000B0E0E6E2F0E0808180688C93CF91DF915A
:1006A0000895DF93CF93CDB7DEB7A6E2B0E0E6E2E0
:1006B000F0E080818F778C93E7E2F0E081EB80833C
:1006C000E0917C00F0917D001082A6E2B0E0E6E2CD
:1006D000F0E0808180688C93CF91DF910895DF9363
:1006E000CF93CDB7DEB710926400F894EFE4F0E05A
:1006F0001082EEE4F0E088E08083E2E4F0E0108233
:10070000EAE4F0E082E19AE791838083ECE4F0E0B0
:1007100011821082ECE2F0E082E08083AEE4B0E08F
:10072000EEE4F0E0808184608C931092840010925B
:100730008300E6E2F0E086E08083E7E2F0E080EB31
:100740008083A6E2B0E0E6E2F0E0808188688C93E6
:10075000E3E2F0E080E88083E0917C00F0917D00AE
:1007600081E08083109285007894AAE3B0E0EAE308
:10077000F0E0808180688C93ABE3B0E0EBE3F0E0E5
:1007800080818F778C93CF91DF910895DF93CF9302
:10079000CDB7DEB7E0918700F0918800808182308C
:1007A00069F480916200882309F04BC0A6E2B0E0B2
:1007B000E6E2F0E0808180648C9343C0E0918700A2
:1007C000F091880080818330D9F48091650088237E
:1007D00021F480916E008B306CF080916200882350
:1007E00049F4A6E2B0E0E6E2F0E0808180648C9318
:1007F00010926E0080916E008F5F80936E0021C01A
:10080000E0918700F091880080818130D1F480915F
:100810006E008F5F80936E0080916E00853041F096
:1008200080916E00873021F080916E00893011F444
:1008300009DC07C015DC80916E008A3011F410923B
:100840006E00CF91DF910895DF93CF9300D0CDB7A5
:10085000DEB78091690090916A00A0916B00B09121
:100860006C0020916200332727FD3095432F532FD2
:10087000BC01CD01E3D3DA01C901909384008093D8
:100880008300E0917C00F0917D008081813089F4CB
:1008900080916300282F332727FD309580918300B6
:1008A00090918400820F931F909384008093830023
:1008B00010C080916700282F332727FD3095809145
:1008C000830090918400820F931F90938400809303
:1008D0008300E0918700F09188008081833009F4E3
:1008E0008FDDE0918700F09188008081823051F4A3
:1008F00080916800882329F41ADE81E080936800E3
:1009000001C0B9DDE0917C00F0917D0080818130F3
:1009100081F480918300909184002FEF823F9207B1
:1009200044F080918300909184008F3091050CF405
:10093000B8DEE0917C00F0917D0080818823C1F4D5
:1009400080918300909184009A83898389819A8120
:1009500099233CF489819A81909581959F4F9A8340
:10096000898389819A8121E08B3E92070CF07ADE9F
:100970001092690010926A0010926B0010926C0045
:10098000109262000F900F90CF91DF9108950F9316
:100990001F93DF93CF93CDB7DEB78FE690E09093B0
:1009A00078008093770080E790E090938F008093A9
:1009B0008E0082E790E090937D0080937C0084E736
:1009C00090E09093880080938700009177001091C9
:1009D000780080E090E06FD3F8018083E0917700A9
:1009E000F0917800808188233CF0E0917700F091CD
:1009F00078008081853614F080E007DC81E090E0AB
:100A00005AD380936700809167008F3F11F485E08F
:100A100016DC82E090E04FD3809363008091630006
:100A20008F3F11F48AE01FDCE0918E00F0918F007F
:100A300011821082E0918700F091880081E080832C
:100A400081E080937F0081E080937E0010926D00B2
:100A50001092650010926E0010927900109268005A
:100A6000A7E3B0E0E7E3F0E0808187608C93A8E340
:100A7000B0E0E8E3F0E0808187608C9380E071DB98
:100A800080E08BDB80E0A5DBCF91DF911F910F91A0
:100A90000895DF93CF930F92CDB7DEB78983898115
:100AA000853049F08981843031F08981873019F0AF
:100AB0008981863021F4898180937E0023C0E09172
:100AC0008700F0918800908189819817D9F0E09192
:100AD0008700F091880080818830A1F08981823080
:100AE00021F41092680010927900E0918700F09153
:100AF0008800808180937F00E0918700F0918800DA
:100B0000898180830F90CF91DF910895DF93CF93F8
:100B1000CDB7DEB73CDFE3DD80E1A1D0F894809172
:100B20006D00882331F080916D00809386001092D3
:100B30006D00789480918600882329F0809186004A
:100B4000A8DF1092860080916400813019F4109221
:100B500064001CDE80917E00853019F481E061E044
:100B600028DC80917E00843019F481E06AE021DC89
:100B700080917E00873019F480E061E01ADC80917A
:100B80007E00863019F480E06AE013DC81E0809317
:100B90007E0080918500813009F0C0CF10928500E1
:100BA00053DEBCCFDF93CF93CDB7DEB710927A0080
:100BB000E0E5F0E01082E2E5F0E01082E3E5F0E04D
:100BC0001082E9E5F0E081E08083CF91DF91089524
:100BD0001F920F920FB60F9211248F93AF93BF9372
:100BE000EF93FF93DF93CF93CDB7DEB780917B0078
:100BF0008F5F80937B0080917B00823321F5109280
:100C00007A00E3E5F0E0108210927B00AEE2B0E003
:100C1000EEE2F0E0808180688C9310927A00E3E548
:100C2000F0E0108210927B00AAE3B0E0EAE3F0E08B
:100C300080818F7B8C93EDE2F0E088EA8083EEE2A6
:100C4000F0E080E78083CF91DF91FF91EF91BF913A
:100C5000AF918F910F900FBE0F901F901895DF935B
:100C6000CF930F92CDB7DEB789839CDF89818093C4
:100C70006000AAE3B0E0EAE3F0E0808180658C9355
:100C8000ABE3B0E0EBE3F0E0808180618C93ABE319
:100C9000B0E0EBE3F0E0808180648C93AAE3B0E005
:100CA000EAE3F0E080818F7B8C93EDE2F0E088EA6C
:100CB0008083EEE2F0E080EF808378940F90CF9114
:100CC000DF9108951F920F920FB60F9211248F9308
:100CD0009F93AF93BF93EF93FF93DF93CF93CDB7E2
:100CE000DEB781E080937A0010927B00E2E5F0E0CD
:100CF0001082E3E5F0E085E0808310926100AAE3D2
:100D0000B0E0EAE3F0E080818F7B8C93E9E3F0E0F0
:100D10008081882F90E080719070009749F0E9E31E
:100D2000F0E08081882F90E080749070009771F3DC
:100D3000E9E3F0E08081882F90E080749070009764
:100D400049F4EDE2F0E088EF8083EEE2F0E080EF3E
:100D500080831DC0AEE2B0E0EEE2F0E0808180680A
:100D60008C9310927A00E3E5F0E0108210927B0001
:100D7000AAE3B0E0EAE3F0E080818F7B8C93EDE2C0
:100D8000F0E088EA8083EEE2F0E080E78083CF91B4
:100D9000DF91FF91EF91BF91AF919F918F910F9054
:100DA0000FBE0F901F9018951F920F920FB60F92C3
:100DB00011242F933F938F939F93AF93BF93EF9300
:100DC000FF93DF93CF9300D0CDB7DEB78091610062
:100DD000282F30E03A83298389819A8182309105D6
:100DE00009F4B6C029813A81233031055CF4898148
:100DF0009A810097D1F029813A812130310509F497
:100E000080C00BC189819A818430910509F4B2C0F8
:100E100029813A81243031050CF457C089819A81A7
:100E20008530910509F4D0C0F8C0EFE2F0E0808190
:100E3000882371F0EFE2F0E08081882F90E09C0140
:100E40002E7F80916000882F90E02817390731F5B8
:100E5000EFE2F0E08081882F90E08170907088232D
:100E600049F081E08093610086E0809382001092D7
:100E7000660005C084E08093610010928D00EFE26F
:100E8000F0E01082AAE3B0E0EAE3F0E08081806461
:100E90008C93EEE2F0E08EE78083BFC010927A0080
:100EA000E3E5F0E0108210927B00AAE3B0E0EAE311
:100EB000F0E080818F7B8C93EDE2F0E088EA808324
:100EC000EEE2F0E080E78083A8C0EFE2F0E080810E
:100ED0008823B9F010927A00E3E5F0E010821092D6
:100EE0007B00AAE3B0E0EAE3F0E080818F7B8C93A3
:100EF000EDE2F0E088EA8083EEE2F0E080E78083D4
:100F00008CC0AFE2B0E080916600882F90E0FC01D9
:100F1000E159FF4F80818C93809166008F5F8093B1
:100F200066009091660080918200981710F01092F0
:100F3000660082E080936100AAE3B0E0EAE3F0E0BB
:100F4000808180648C93EEE2F0E080E7808365C06E
:100F500083E080936100AAE3B0E0EAE3F0E08081FF
:100F60008F7B8C93EFE2F0E01082EEE2F0E08EE710
:100F7000808353C085E08093610080918D00882339
:100F8000B9F010927A00E3E5F0E0108210927B0055
:100F9000AAE3B0E0EAE3F0E080818F7B8C93EDE29E
:100FA000F0E088EA8083EEE2F0E080E7808335C0FD
:100FB000AAE3B0E0EAE3F0E080818F7B8C93EEE27D
:100FC000F0E080E7808329C080918D00843078F440
:100FD00030918D00832F90E0EFE2F0E02081FC0162
:100FE000E757FF4F2083832F8F5F80938D00EFE2C1
:100FF000F0E0808180936D0084E080936100EFE2F7
:10100000F0E01082AAE3B0E0EAE3F0E080818064DF
:101010008C93EEE2F0E08EE780830F900F90CF91FB
:10102000DF91FF91EF91BF91AF919F918F913F9190
:101030002F910F900FBE0F901F90189597FB092EC0
:1010400005260ED057FD04D014D00AD0001C38F469
:1010500050954095309521953F4F4F4F5F4F0895E4
:10106000F6F790958095709561957F4F8F4F9F4FC4
:101070000895A1E21A2EAA1BBB1BFD010DC0AA1FD9
:10108000BB1FEE1FFF1FA217B307E407F50720F0F1
:10109000A21BB30BE40BF50B661F771F881F991F6C
:1010A0001A9469F760957095809590959B01AC01B5
:1010B000BD01CF010895E199FECF9FBB8EBBE09AA1
:1010C00099278DB30895262FE199FECF1CBA9FBBB7
:1010D0008EBB2DBB0FB6F894E29AE19A0FBE019633
:0610E0000895F894FFCF13
:00000001FF
