:1000000010C01FC01EC01DC01CC01BC03EC019C0F8
:1000100018C017C016C049C114C014C012C0D7C13F
:1000200041C211241FBECFE5D1E0DEBFCDBF10E03D
:10003000A0E6B0E001C01D92A238B107E1F7D7D029
:10004000A6C3DECF1F920F920FB60F9211248F938B
:100050009F93EF93FF93DF93CF93CDB7DEB7E4E2A7
:10006000F0E080819181909378008093770081E027
:1000700080937900CF91DF91FF91EF919F918F91C4
:100080000F900FBE0F901F9018951F920F920FB6F2
:100090000F9211248F93DF93CF93CDB7DEB781E01A
:1000A00080936200CF91DF918F910F900FBE0F90E0
:1000B0001F901895DF93CF93CDB7DEB710926200F3
:1000C000F894EFE4F0E01082EEE4F0E088E0808362
:1000D000E2E4F0E01082EAE4F0E082E19AE7918362
:1000E0008083ECE4F0E011821082ECE2F0E082E048
:1000F0008083AEE4B0E0EEE4F0E0808184608C9335
:10010000789410927900CF91DF910895DF93CF9387
:10011000CDB7DEB7EBE3F0E08081882344F4ABE3B6
:10012000B0E0EBE3F0E080818F778C9307C0ABE326
:10013000B0E0EBE3F0E0808180688C93CF91DF91B9
:100140000895DF93CF93CDB7DEB786E690E0909326
:100150006F0080936E0087E690E090937400809328
:1001600073008BE690E090937C0080937B00CF91AE
:10017000DF910895DF93CF930F92CDB7DEB78983D8
:100180008981843049F08981833031F089818630DA
:1001900019F08981853021F489818093720023C010
:1001A000E0917B00F0917C00908189819817D9F0D3
:1001B000E0917B00F0917C0080818730A1F0898103
:1001C000813021F41092640010927000E0917B0065
:1001D000F0917C00808180937500E0917B00F0912C
:1001E0007C00898180830F90CF91DF910895DF9308
:1001F000CF93CDB7DEB7A7E3B0E0E7E3F0E08081CF
:100200008E7F8C93AAE3B0E0EAE3F0E0808188601F
:100210008C93ABE3B0E0EBE3F0E08081877F8C93DD
:10022000E6E3F0E08081882F90E081709070882371
:10023000B9F7ABE3B0E0EBE3F0E0808188608C934A
:1002400080DF38DF80E182D0F894809165008823D8
:1002500031F08091650080937A0010926500789467
:1002600080916500882329F080917A0083DF1092C5
:100270007A0080916200813039F71092620046DF87
:10028000E3CFDF93CF93CDB7DEB7E0E5F0E01082A8
:10029000E2E5F0E01082E3E5F0E01082E9E5F0E06D
:1002A00081E08083CF91DF9108951F920F920FB666
:1002B0000F9211248F93AF93BF93EF93FF93DF932C
:1002C000CF93CDB7DEB7A9E3B0E0E9E3F0E08081FA
:1002D00088608C93809171008F5F80937100809112
:1002E0007100823339F5E3E5F0E01082109271007D
:1002F000AEE2B0E0EEE2F0E0808180688C93E3E56E
:10030000F0E0108210927100AAE3B0E0EAE3F0E0BE
:1003100080818F7B8C93EDE2F0E088EA8083EEE2CF
:10032000F0E080E78083ABE3B0E0EBE3F0E08081D6
:10033000877F8C93CF91DF91FF91EF91BF91AF9128
:100340008F910F900FBE0F901F901895DF93CF9352
:100350000F92CDB7DEB78983AAE3B0E0EAE3F0E01D
:1003600080818F688C93ABE3B0E0EBE3F0E08081B9
:100370008F688C9386DF898180936000AAE3B0E068
:10038000EAE3F0E0808180658C93ABE3B0E0EBE3DF
:10039000F0E0808180618C93ABE3B0E0EBE3F0E0D0
:1003A000808180648C93AAE3B0E0EAE3F0E080818E
:1003B0008F7B8C93EDE2F0E088EA8083EEE2F0E060
:1003C00080EF808378940F90CF91DF9108951F92F2
:1003D0000F920FB60F9211248F939F93AF93BF93F9
:1003E000EF93FF93DF93CF93CDB7DEB7ABE3B0E0EE
:1003F000EBE3F0E080818F608C9310926100AAE3C0
:10040000B0E0EAE3F0E080818F7B8C93E9E3F0E0F9
:100410008081882F90E080719070009749F0E9E327
:10042000F0E08081882F90E080749070009771F3E5
:10043000E9E3F0E08081882F90E08074907000976D
:1004400049F4EDE2F0E088EF8083EEE2F0E080EF47
:1004500080831BC0AEE2B0E0EEE2F0E08081806815
:100460008C93E3E5F0E0108210927100AAE3B0E013
:10047000EAE3F0E080818F7B8C93EDE2F0E088EAA4
:100480008083EEE2F0E080E78083CF91DF91FF91FF
:10049000EF91BF91AF919F918F910F900FBE0F90F1
:1004A0001F9018951F920F920FB60F9211242F9341
:1004B0003F938F939F93AF93BF93EF93FF93DF93FC
:1004C000CF9300D0CDB7DEB780916100282F30E008
:1004D0003A83298389819A818230910509F4C7C0C2
:1004E00029813A81233031055CF489819A81009712
:1004F000D1F029813A812130310509F491C036C10A
:1005000089819A818430910509F4CAC029813A8190
:10051000243031050CF45CC089819A8185309105C5
:1005200009F4F4C023C1EFE2F0E08081882371F088
:10053000EFE2F0E08081882F90E09C012E7F809197
:100540006000882F90E02817390769F5ABE3B0E029
:10055000EBE3F0E080818E7F8C93EFE2F0E080812E
:10056000882F90E081709070882349F081E080931B
:10057000610086E0809376001092630005C084E0FD
:100580008093610010928100EFE2F0E01082AAE314
:10059000B0E0EAE3F0E0808180648C93EEE2F0E08A
:1005A0008EE78083E3C0E3E5F0E0108210927100F3
:1005B000AAE3B0E0EAE3F0E080818F7B8C93EDE288
:1005C000F0E088EA8083EEE2F0E080E78083CEC04E
:1005D000EFE2F0E080818823E1F0ABE3B0E0EBE311
:1005E000F0E0808187608C93E3E5F0E01082109268
:1005F0007100AAE3B0E0EAE3F0E080818F7B8C93A6
:10060000EDE2F0E088EA8083EEE2F0E080E78083CC
:10061000ADC0ABE3B0E0EBE3F0E080818B7F8C9387
:10062000AFE2B0E080916300882F90E0FC01EA59CE
:10063000FF4F80818C93809163008F5F8093630074
:100640009091630080917600981710F010926300EB
:1006500082E080936100AAE3B0E0EAE3F0E0808109
:1006600080648C93EEE2F0E080E780837FC0ABE3B0
:10067000B0E0EBE3F0E080818D7F8C9383E08093AA
:100680006100AAE3B0E0EAE3F0E080818F7B8C9325
:10069000EFE2F0E01082EEE2F0E08EE7808366C0E9
:1006A00085E080936100809181008823E1F0ABE3D5
:1006B000B0E0EBE3F0E0808187608C93E3E5F0E06D
:1006C000108210927100AAE3B0E0EAE3F0E08081CA
:1006D0008F7B8C93EDE2F0E088EA8083EEE2F0E03D
:1006E00080E7808343C0AAE3B0E0EAE3F0E08081E2
:1006F0008F7B8C93EEE2F0E080E78083ABE3B0E0A9
:10070000EBE3F0E080818D7F8C9330C0ABE3B0E011
:10071000EBE3F0E080818B7F8C93809181008430CB
:1007200078F430918100832F90E0EFE2F0E02081B7
:10073000FC01E358FF4F2083832F8F5F809381005C
:10074000EFE2F0E080818093650084E080936100B7
:10075000EFE2F0E01082AAE3B0E0EAE3F0E08081AB
:1007600080648C93EEE2F0E08EE780830F900F9030
:10077000CF91DF91FF91EF91BF91AF919F918F91B9
:100780003F912F910F900FBE0F901F901895F894E6
:02079000FFCF99
:00000001FF
