:1000000010C01FC01EC01DC01CC01BC032C019C004
:1000100018C017C016C067C014C014C012C095C065
:10002000ACC011241FBECFE5D1E0DEBFCDBF10E0D4
:10003000A0E6B0E001C01D92A637B107E1F73DD0C0
:1000400038C1DECF1F920F920FB60F9211248F93FB
:100050009F9384B195B190936E0080936D0081E081
:1000600080936F009F918F910F900FBE0F901F9004
:1000700018951F920F920FB60F9211248F9381E063
:10008000809362008F910F900FBE0F901F90189574
:10009000F894109262001FBC21E02EBD12BC82E1D8
:1000A0009AE79BBD8ABD1DBC1CBC2CB98EB52EBD6C
:1000B00010926F00789408950895B898D29ADA98BB
:1000C000B099FECFDA9AE4DF80E128D0FFCF13BEEB
:1000D000089512BE85E083BF089510BE12BE13BE00
:1000E00081E089BF08951F920F920FB60F921124DD
:1000F0008F93809175008F5F80937500823341F4F8
:1001000013BE13BED69888EA8DB980E78EB9DB9806
:100110008F910F900FBE0F901F90189510BE12BEBA
:1001200013BE91E099BF9AB39F609ABB9BB39F6047
:100130009BBB80936000DC9ADE9AD49AD69888EABA
:100140008DB980EF8EB9789408951F920F920FB6F3
:100150000F9211248F9312BE85E083BF109261002D
:10016000D69889B38EB188EF8DB980EF8EB98F9113
:100170000F900FBE0F901F9018951F920F920FB601
:100180000F9211242F933F934F935F936F937F931D
:100190008F939F93AF93BF93EF93FF9380916100F1
:1001A000823009F448C0833030F4882369F081300C
:1001B00009F06EC02AC0843009F443C0843010F1C5
:1001C000853009F065C04DC08FB1882349F02FB14B
:1001D00030E02E7F8091600090E028173907C9F544
:1001E000D898789B09C081E08093610086E0809375
:1001F0006C001092630048C084E08093610010920C
:10020000740042C08FB1882321F590916300E92FDB
:10021000F0E0EC59FF4F80818FB99F5F90936300AE
:1002200080916C00981710F01092630082E0809328
:100230006100D69A14C083E080936100D6981FB8FD
:1002400025C085E08093610080917400882331F09F
:10025000D99813BED69888EA8DB901C0D69880E7A0
:1002600016C0DA9890917400943048F48FB1E92F59
:10027000F0E0E059FF4F80839F5F909374008FB14F
:100280001BDF84E0809361001FB8D69A8EE78EB999
:10029000FF91EF91BF91AF919F918F917F916F915E
:1002A0005F914F913F912F910F900FBE0F901F9034
:0602B0001895F894FFCF41
:00000001FF
