:1000000010C01FC01EC01DC01CC01BC03EC019C0F8
:1000100018C017C016C010C114C014C012C082C1CD
:10002000E5C111241FBECFE5D1E0DEBFCDBF10E09A
:10003000A0E6B0E001C01D92A238B107E1F7C3D03D
:1000400019C3DECF1F920F920FB60F9211248F9318
:100050009F93EF93FF93DF93CF93CDB7DEB7E4E2A7
:10006000F0E080819181909378008093770081E027
:1000700080937900CF91DF91FF91EF919F918F91C4
:100080000F900FBE0F901F9018951F920F920FB6F2
:100090000F9211248F93DF93CF93CDB7DEB781E01A
:1000A00080936200CF91DF918F910F900FBE0F90E0
:1000B0001F901895DF93CF93CDB7DEB710926200F3
:1000C000F894EFE4F0E01082EEE4F0E088E0808362
:1000D000E2E4F0E01082EAE4F0E082E19AE7918362
:1000E0008083ECE4F0E011821082ECE2F0E082E048
:1000F0008083AEE4B0E0EEE4F0E0808184608C9335
:10010000789410927900CF91DF910895DF93CF9387
:10011000CDB7DEB7CF91DF910895DF93CF93CDB701
:10012000DEB786E690E090936F0080936E0087E6DE
:1001300090E090937400809373008BE690E090932E
:100140007C0080937B00CF91DF910895DF93CF9364
:100150000F92CDB7DEB789838981853049F08981D7
:10016000843031F08981873019F08981863021F41B
:1001700089818093720023C0E0917B00F0917C0024
:10018000908189819817D9F0E0917B00F0917C00F3
:1001900080818830A1F08981823021F4109264003E
:1001A00010927000E0917B00F0917C008081809340
:1001B0007500E0917B00F0917C00898180830F9035
:1001C000CF91DF910895DF93CF93CDB7DEB7A5DF51
:1001D00071DF80E174D0F89480916500882331F05C
:1001E0008091650080937A001092650078948091E8
:1001F0007A00882329F080917A00A8DF10927A0093
:1002000080916200813039F7109262007FDFE3CF86
:10021000DF93CF93CDB7DEB7E0E5F0E01082E2E503
:10022000F0E01082E3E5F0E01082E9E5F0E081E043
:100230008083CF91DF9108951F920F920FB60F9296
:1002400011248F93AF93BF93EF93FF93DF93CF93DB
:10025000CDB7DEB7809171008F5F80937100809180
:100260007100823301F5E3E5F0E010821092710035
:10027000AEE2B0E0EEE2F0E0808180688C93E3E5EE
:10028000F0E0108210927100AAE3B0E0EAE3F0E03F
:1002900080818F7B8C93EDE2F0E088EA8083EEE250
:1002A000F0E080E78083CF91DF91FF91EF91BF91E4
:1002B000AF918F910F900FBE0F901F901895DF9305
:1002C000CF930F92CDB7DEB78983A2DF8981809368
:1002D0006000AAE3B0E0EAE3F0E0808180658C93FF
:1002E000ABE3B0E0EBE3F0E0808180618C93ABE3C3
:1002F000B0E0EBE3F0E0808180648C93AAE3B0E0AF
:10030000EAE3F0E080818F7B8C93EDE2F0E088EA15
:100310008083EEE2F0E080EF808378940F90CF91BD
:10032000DF9108951F920F920FB60F9211248F93B1
:100330009F93AF93BF93EF93FF93DF93CF93CDB78B
:10034000DEB710926100AAE3B0E0EAE3F0E080815A
:100350008F7B8C93E9E3F0E08081882F90E08071BF
:100360009070009749F0E9E3F0E08081882F90E0F9
:1003700080749070009771F3E9E3F0E08081882F3A
:1003800090E080749070009749F4EDE2F0E088EF1F
:100390008083EEE2F0E080EF80831BC0AEE2B0E04D
:1003A000EEE2F0E0808180688C93E3E5F0E010827B
:1003B00010927100AAE3B0E0EAE3F0E080818F7B65
:1003C0008C93EDE2F0E088EA8083EEE2F0E080E7F3
:1003D0008083CF91DF91FF91EF91BF91AF919F917A
:1003E0008F910F900FBE0F901F9018951F920F9234
:1003F0000FB60F9211242F933F938F939F93AF9338
:10040000BF93EF93FF93DF93CF9300D0CDB7DEB7C9
:1004100080916100282F30E03A83298389819A8175
:100420008230910509F4B2C029813A812330310527
:100430005CF489819A810097D1F029813A81213039
:10044000310509F47CC005C189819A818430910508
:1004500009F4AEC029813A81243031050CF455C02D
:1004600089819A818530910509F4CAC0F2C0EFE212
:10047000F0E08081882371F0EFE2F0E08081882F46
:1004800090E09C012E7F80916000882F90E02817DB
:10049000390731F5EFE2F0E08081882F90E081703C
:1004A0009070882349F081E08093610086E080931A
:1004B00076001092630005C084E080936100109282
:1004C0008100EFE2F0E01082AAE3B0E0EAE3F0E0BE
:1004D000808180648C93EEE2F0E08EE78083B9C087
:1004E000E3E5F0E0108210927100AAE3B0E0EAE3E5
:1004F000F0E080818F7B8C93EDE2F0E088EA8083EE
:10050000EEE2F0E080E78083A4C0EFE2F0E08081DB
:100510008823A9F0E3E5F0E0108210927100AAE3CD
:10052000B0E0EAE3F0E080818F7B8C93EDE2F0E0D5
:1005300088EA8083EEE2F0E080E780838AC0AFE261
:10054000B0E080916300882F90E0FC01EA59FF4FF2
:1005500080818C93809163008F5F80936300909182
:10056000630080917600981710F01092630082E08B
:1005700080936100AAE3B0E0EAE3F0E08081806468
:100580008C93EEE2F0E080E7808363C083E08093A9
:100590006100AAE3B0E0EAE3F0E080818F7B8C9316
:1005A000EFE2F0E01082EEE2F0E08EE7808351C0EF
:1005B00085E080936100809181008823A9F0E3E5C4
:1005C000F0E0108210927100AAE3B0E0EAE3F0E0FC
:1005D00080818F7B8C93EDE2F0E088EA8083EEE20D
:1005E000F0E080E7808335C0AAE3B0E0EAE3F0E022
:1005F00080818F7B8C93EEE2F0E080E7808329C0DE
:1006000080918100843078F430918100832F90E0D4
:10061000EFE2F0E02081FC01E358FF4F2083832FBD
:100620008F5F80938100EFE2F0E08081809365002E
:1006300084E080936100EFE2F0E01082AAE3B0E092
:10064000EAE3F0E0808180648C93EEE2F0E08EE7F4
:1006500080830F900F90CF91DF91FF91EF91BF9129
:10066000AF919F918F913F912F910F900FBE0F905F
:080670001F901895F894FFCFCC
:00000001FF
