:1000000010C02AC029C028C027C026C026C024C0CE
:1000100023C022C021C020C01FC068C01DC0F7C1BE
:1000200017C211241FBECFE5D1E0DEBFCDBF11E066
:10003000A8E6B1E001C01D92A138B107E1F711E0D7
:10004000A0E6B0E0E2E5FDE002C005900D92A83622
:10005000B107D9F785D17BC6D3CF1F920F920FB6C8
:100060000F9211248F9381E0809368018F910F90FC
:100070000FBE0F901F901895F8947894809170019E
:100080009091710108959C0191FF09C088279927DB
:10009000821B930B937022273327281B390BC9012E
:1000A0000895F89480917001909171017894EBDF3C
:1000B0000895F7DFAA2797FDA095BA2FBC01CD01BF
:1000C000AAD32DEC3CEC4CE85FE35AD220E030E0C0
:1000D00040E05BE355D20895089508950895E091B6
:1000E0007301F091740183E0808308951F920F9251
:1000F0000FB60F9211248F939F9384B195B1909373
:1001000071018093700181E0809372019F918F91C2
:100110000F900FBE0F901F901895F89410926801E1
:100120001FBC88E08EBD12BC80E39AE29BBD8ABDF5
:100130001DBC1CBC1CB882E08CB98DE08EBD87E074
:1001400086B9109272018DEC87B98FE886B913B821
:1001500078940895369A0895E0916A01F0916B01C0
:100160008083E0916A01F0916B0180E090E0608112
:10017000E0D5089587E791E090936B0180936A0141
:10018000019690936E0180936D0104969093740193
:100190008093730180E090E0C4D580937701853629
:1001A00030F01092770180E090E060E0C2D51092CC
:1001B0006C0110926F01109269010895E0916A013B
:1001C000F0916B0184E68083E0916A01F0916B010C
:1001D00080E090E06081ADD5E0916A01F0916B0123
:1001E0001082E0916A01F0916B0180E090E0608103
:1001F000A0D50895E0916A01F0916B019081292FBB
:100200002150233680F4882319F09F5F908301C02A
:100210002083662341F0E0916A01F0916B016081D7
:1002200080E090E086D50895EF92FF920F931F93A0
:1002300040DF7B018C0126EA3BE944E45BE395D295
:1002400018165CF410926C01E0916A01F0916B0158
:1002500080811816C4F480E013C0C801B70126EAF3
:100260003BE944E45BEBACD28823A4F410926C012C
:10027000E0916A01F0916B018081843624F481E081
:1002800061E0B8DF0CC0E0917301F091740183E08C
:10029000808305C080916C018F5F80936C01809199
:1002A0006C018F311CF081E080936F011F910F91E1
:1002B000FF90EF900895EF92FF920F931F93F9DE56
:1002C0007B018C0126EA3BE944E45BE34ED218163D
:1002D0004CF4E0916A01F0916B0180811816B4F43E
:1002E00080E011C0C801B70126EA3BE944E45BEBBA
:1002F00067D288238CF4E0916A01F0916B018081D0
:10030000843624F481E060E075DF06C0E09173017B
:10031000F091740183E080831F910F91FF90EF9023
:1003200008951F93E0917301F091740180818230F0
:1003300009F4C1DFE0917301F09174011081113073
:1003400049F480916901882319F438DF1093690119
:100350006BDF04C01092690110926F011F91089524
:1003600009DFDBDE80E110D090917201809168019D
:10037000813011F4369A80E09130D1F78093680192
:1003800010927201CEDFF0CF80937E01DC9ADE9A6C
:10039000D49A10927D011092800110927601D69825
:1003A00088EA8DB98EEE8EB908958091760190E03D
:1003B000882309F491E0892F089590918001F894A1
:1003C00080917601882379F0759B08C010927601A0
:1003D000D69888EA8DB98EEE8EB905C080917601E7
:1003E000807309F090E07894892F0895109280012D
:1003F0000895F894809176018E7011F481E008954B
:10040000789480E0089580937D01789408951F92F8
:100410000F920FB60F9211248F93D6980AC0CE9BDD
:1004200008C010927601D69888EA8DB98EEE8EB902
:1004300009C0CC99F4CF80EE8EB988EF8DB981E0F8
:10044000809376018F910F900FBE0F901F9018959B
:100450001F920F920FB60F9211242F933F934F9339
:100460008F939F93EF93FF93809176018130F9F4FE
:100470004FB1442351F0242F30E02E7F80917E0134
:1004800090E02817390709F068C040FF07C086E0F0
:1004900080937D011092750182E003C0109280016B
:1004A00080E1809376011FB8D69A8EE45CC080917B
:1004B00076018230C9F4E0917501F0E0E958FE4F11
:1004C00080818FB9809175018F5F809375019091C4
:1004D000750180917D01981710F010927501D69AE0
:1004E00080E48EB984E036C080917601843031F4A6
:1004F0001FB8D6988EE48EB988E02CC08091760122
:10050000883021F48FB1882341F5D5CF80917601D1
:10051000803129F4D69880E48EB980E21BC08091A6
:100520007601803209F5809180018823B1F48091B1
:100530008001E82FF0E09FB1E158FE4F90838F5F7C
:10054000809380018FB180937C011FB8D69A8EE48E
:100550008EB980E18093760107C010927601D6981B
:1005600088EA8DB98EEE8EB9FF91EF919F918F91B0
:100570004F913F912F910F900FBE0F901F901895A4
:10058000A0E2B0E0E5ECF2E095C369837A838B8367
:100590009C832D833E834F835887CE010196BE01F5
:1005A000675F7F4FB6D2CE010596BE016F5E7F4F6B
:1005B000B0D29985923088F089898230C8F0943021
:1005C00019F4823051F404C0843029F4923081F45B
:1005D00080E690E0C6C0923049F420E09A858A898E
:1005E000981321E02A87CE010996BBC0823049F4D6
:1005F00020E09A858A89981321E02A8BCE014196C2
:10060000B0C02D843E844F8458886D887E888F8842
:10061000988CEE24FF248701AA24BB24650140E0C6
:1006200050E060E070E0E0E0F0E0C10181709070C7
:10063000892BE9F0E60CF71C081D191D9A01AB0186
:100640002A0D3B1D4C1D5D1D80E090E0A0E0B0E058
:10065000E614F7040805190520F481E090E0A0E015
:10066000B0E0BA01A901480F591F6A1F7B1FAA0CED
:10067000BB1CCC1CDD1C97FE08C081E090E0A0E014
:10068000B0E0A82AB92ACA2ADB2A3196E032F1055D
:1006900049F0660C771C881C991C56944794379433
:1006A0002794C3CFFA85EA892B893C898B859C8561
:1006B000280F391F2E5F3F4F17C0CA0181709070FD
:1006C000892B61F016950795F794E79480E090E008
:1006D000A0E0B0E8E82AF92A0A2B1B2B769567954B
:1006E000579547952F5F3F4F77FDE7CF0CC0440FDD
:1006F000551F661F771F17FD4160EE0CFF1C001F82
:10070000111F21503040403090E0590790E06907B8
:1007100090E4790760F32B8F3C8FDB01CA018F7760
:100720009070A070B07080349105A105B10561F49E
:1007300047FD0AC0E114F1040105110529F0405CF0
:100740005F4F6F4F7F4F40781A8EFE1711F081E098
:100750008A8F4D8F5E8F6F8F78A383E0898FCE0154
:10076000499602D1A096E2E1C1C2A8E1B0E0EAEB6D
:10077000F3E0ACC269837A838B839C832D833E83B1
:100780004F83588789E0E82EF12CEC0EFD1ECE0138
:100790000196B701BED18E010F5E1F4FCE010596A7
:1007A000B801B7D18985823038F08989823020F04C
:1007B000C701B80126D201C08FEF6896E6E0A2C259
:1007C000A8E1B0E0E5EEF3E081C269837A838B8330
:1007D0009C832D833E834F83588789E0E82EF12C3C
:1007E000EC0EFD1ECE010196B70193D18E010F5E76
:1007F0001F4FCE010596B8018CD18985823038F023
:100800008989823020F0C701B801FBD101C081E0A5
:100810006896E6E077C2A8E0B0E0E0E1F4E053C219
:100820009B01AC0183E08983DA01C9018827B7FD08
:1008300083959927AA27BB27B82E21153105410595
:10084000510519F482E0898339C08823A9F020304A
:1008500080E0380780E0480780E8580729F460E026
:1008600070E080E09FEC2EC0EE24FF248701E21AA6
:10087000F30A040B150B02C079018A018EE1C82E20
:10088000D12CDC82CB82ED82FE820F831887C801D7
:10089000B7011BD001971816190684F4082E04C05E
:1008A000EE0CFF1C001F111F0A94D2F7ED82FE828E
:1008B0000F831887C81AD90ADC82CB82BA82CE018C
:1008C000019652D02896E9E01AC2EF92FF920F9358
:1008D0001F937B018C0180E0E81680E0F80681E040
:1008E000080780E0180788F48FEFE816F104010587
:1008F000110531F028F088E090E0A0E0B0E017C0EA
:1009000080E090E0A0E0B0E012C080E0E81680E077
:10091000F80680E0080781E0180728F088E190E0F9
:10092000A0E0B0E004C080E190E0A0E0B0E020E210
:1009300030E040E050E0281B390B4A0B5B0B04C051
:1009400016950795F794E7948A95D2F7F701E85939
:10095000FF4F8081281B310941095109C9011F91AD
:100960000F91FF90EF900895DF92EF92FF920F9317
:100970001F93FC01E480F58006811781D18080817E
:10098000823048F480E090E0A0E1B0E0E82AF92A63
:100990000A2B1B2BA5C0843009F49FC0823021F4A0
:1009A000EE24FF24870105C0E114F10401051105BF
:1009B00019F4E0E0F0E096C0628173819FEF623845
:1009C00079070CF05BC022E83FEF261B370B2A317A
:1009D00031052CF020E030E040E050E02AC0B801C2
:1009E000A701022E04C076956795579547950A94FE
:1009F000D2F781E090E0A0E0B0E004C0880F991F3A
:100A0000AA1FBB1F2A95D2F70197A109B1098E2110
:100A10009F21A023B1230097A105B10521F081E01A
:100A200090E0A0E0B0E09A01AB01282B392B4A2BD3
:100A30005B2BDA01C9018F779070A070B0708034A1
:100A40009105A105B10539F427FF09C0205C3F4F8E
:100A50004F4F5F4F04C0215C3F4F4F4F5F4FE0E06F
:100A6000F0E02030A0E03A07A0E04A07A0E45A07EF
:100A700010F0E1E0F0E079018A0127C060387105EB
:100A800064F5FB01E158FF4FD801C7018F779070E3
:100A9000A070B07080349105A105B10539F4E7FE6E
:100AA0000DC080E490E0A0E0B0E004C08FE390E0EF
:100AB000A0E0B0E0E80EF91E0A1F1B1F17FF05C0DB
:100AC00016950795F794E794319687E01695079564
:100AD000F794E7948A95D1F705C0EE24FF248701A7
:100AE000EFEFF0E06E2F679566276795902F9F7761
:100AF000D794DD24D7948E2F8695492F462B582FD7
:100B00005D29B701CA011F910F91FF90EF90DF900F
:100B10000895FC01DB01408151812281622F6F77B2
:100B200070E0221F2227221F9381892F880F822B9A
:100B3000282F30E0991F9927991F11969C931197A0
:100B400021153105A9F5411551056105710511F40E
:100B500082E037C082E89FEF13969C938E931297A2
:100B60009A01AB0167E0220F331F441F551F6A959E
:100B7000D1F783E08C930DC0220F331F441F551F04
:100B800012968D919C911397019713969C938E9337
:100B90001297203080E0380780E0480780E458074B
:100BA00058F314962D933D934D935C9317970895A6
:100BB0002F3F310579F4411551056105710519F48F
:100BC00084E08C93089564FF03C081E08C9312C08D
:100BD0001C9210C02F57304013963C932E931297BF
:100BE00083E08C9387E0440F551F661F771F8A951B
:100BF000D1F7706414964D935D936D937C93179722
:100C000008951F93DC01FB019C91923008F447C0CA
:100C10008081823008F443C0943051F411961C91C5
:100C2000843099F58181682F70E0611B71093FC0A4
:100C3000843021F0923031F48230B9F181818823FF
:100C400089F12DC011961C9111978230F1F08181AC
:100C50001817D9F412962D913C91139782819381A4
:100C60008217930794F028173907BCF014968D91DA
:100C70009D910D90BC91A02D248135814681578195
:100C8000281739074A075B0718F4112341F00AC0F7
:100C900082179307A407B50740F4112319F061E008
:100CA00070E005C06FEF7FEF02C060E070E0CB0145
:100CB0001F9108952F923F924F925F926F927F9271
:100CC0008F929F92AF92BF92CF92DF92EF92FF925C
:100CD0000F931F93CF93DF93CDB7DEB7CA1BDB0B08
:100CE0000FB6F894DEBF0FBECDBF09942A883988AD
:100CF00048885F846E847D848C849B84AA84B984B4
:100D0000C884DF80EE80FD800C811B81AA81B981BF
:100D1000CE0FD11D0FB6F894DEBF0FBECDBFED01D3
:100D20000895E199FECF1FBA8EBBE09A99278DB343
:100D30000895262FE199FECF1CBA1FBA8EBB2DBB9A
:100D40000FB6F894E29AE19A0FBE01960895F894CE
:020D5000FFCFD3
:100D52000000000000000000000102020303030380
:100D62000404040404040404050505050505050539
:100D72000505050505050505060606060606060619
:100D82000606060606060606060606060606060601
:100D920006060606060606060707070707070707E9
:100DA20007070707070707070707070707070707D1
:100DB20007070707070707070707070707070707C1
:100DC20007070707070707070707070707070707B1
:100DD2000707070707070707080808080808080899
:100DE2000808080808080808080808080808080881
:100DF2000808080808080808080808080808080871
:100E02000808080808080808080808080808080860
:100E12000808080808080808080808080808080850
:100E22000808080808080808080808080808080840
:100E32000808080808080808080808080808080830
:100E42000808080808080808080808080808080820
:080E5200080808080808080858
:00000001FF
